{
	"contracts/task.sol": {
		"BaseflowTask": {
			"abi": [
				{
					"inputs": [
						{
							"internalType": "address",
							"name": "_token1",
							"type": "address"
						},
						{
							"internalType": "address",
							"name": "_token2",
							"type": "address"
						},
						{
							"internalType": "address",
							"name": "_platformFeeRecipient",
							"type": "address"
						}
					],
					"stateMutability": "nonpayable",
					"type": "constructor"
				},
				{
					"inputs": [
						{
							"internalType": "address",
							"name": "owner",
							"type": "address"
						}
					],
					"name": "OwnableInvalidOwner",
					"type": "error"
				},
				{
					"inputs": [
						{
							"internalType": "address",
							"name": "account",
							"type": "address"
						}
					],
					"name": "OwnableUnauthorizedAccount",
					"type": "error"
				},
				{
					"inputs": [
						{
							"internalType": "address",
							"name": "token",
							"type": "address"
						}
					],
					"name": "SafeERC20FailedOperation",
					"type": "error"
				},
				{
					"anonymous": false,
					"inputs": [
						{
							"indexed": true,
							"internalType": "uint256",
							"name": "taskId",
							"type": "uint256"
						},
						{
							"indexed": true,
							"internalType": "address",
							"name": "assignee",
							"type": "address"
						},
						{
							"indexed": false,
							"internalType": "uint256",
							"name": "reward",
							"type": "uint256"
						},
						{
							"indexed": false,
							"internalType": "address",
							"name": "token",
							"type": "address"
						}
					],
					"name": "ContributorHired",
					"type": "event"
				},
				{
					"anonymous": false,
					"inputs": [
						{
							"indexed": true,
							"internalType": "address",
							"name": "previousOwner",
							"type": "address"
						},
						{
							"indexed": true,
							"internalType": "address",
							"name": "newOwner",
							"type": "address"
						}
					],
					"name": "OwnershipTransferred",
					"type": "event"
				},
				{
					"anonymous": false,
					"inputs": [
						{
							"indexed": true,
							"internalType": "uint256",
							"name": "taskId",
							"type": "uint256"
						}
					],
					"name": "TaskCancelled",
					"type": "event"
				},
				{
					"anonymous": false,
					"inputs": [
						{
							"indexed": true,
							"internalType": "uint256",
							"name": "taskId",
							"type": "uint256"
						},
						{
							"indexed": true,
							"internalType": "address",
							"name": "assignee",
							"type": "address"
						},
						{
							"indexed": false,
							"internalType": "uint256",
							"name": "reward",
							"type": "uint256"
						},
						{
							"indexed": false,
							"internalType": "address",
							"name": "token",
							"type": "address"
						}
					],
					"name": "TaskCompleted",
					"type": "event"
				},
				{
					"anonymous": false,
					"inputs": [
						{
							"indexed": true,
							"internalType": "uint256",
							"name": "taskId",
							"type": "uint256"
						},
						{
							"indexed": false,
							"internalType": "string",
							"name": "title",
							"type": "string"
						},
						{
							"indexed": true,
							"internalType": "address",
							"name": "creator",
							"type": "address"
						}
					],
					"name": "TaskCreated",
					"type": "event"
				},
				{
					"anonymous": false,
					"inputs": [
						{
							"indexed": false,
							"internalType": "string",
							"name": "slot",
							"type": "string"
						},
						{
							"indexed": false,
							"internalType": "address",
							"name": "oldToken",
							"type": "address"
						},
						{
							"indexed": false,
							"internalType": "address",
							"name": "newToken",
							"type": "address"
						}
					],
					"name": "TokenUpdated",
					"type": "event"
				},
				{
					"inputs": [
						{
							"internalType": "uint256",
							"name": "taskId",
							"type": "uint256"
						}
					],
					"name": "cancelTask",
					"outputs": [],
					"stateMutability": "nonpayable",
					"type": "function"
				},
				{
					"inputs": [
						{
							"internalType": "uint256",
							"name": "taskId",
							"type": "uint256"
						},
						{
							"internalType": "address",
							"name": "contributor",
							"type": "address"
						}
					],
					"name": "completeTask",
					"outputs": [],
					"stateMutability": "nonpayable",
					"type": "function"
				},
				{
					"inputs": [
						{
							"internalType": "string",
							"name": "title",
							"type": "string"
						},
						{
							"internalType": "string",
							"name": "description",
							"type": "string"
						},
						{
							"internalType": "uint256",
							"name": "deadline",
							"type": "uint256"
						}
					],
					"name": "createTask",
					"outputs": [
						{
							"internalType": "uint256",
							"name": "",
							"type": "uint256"
						}
					],
					"stateMutability": "nonpayable",
					"type": "function"
				},
				{
					"inputs": [
						{
							"internalType": "address",
							"name": "_tokenAddress",
							"type": "address"
						}
					],
					"name": "emergencyWithdraw",
					"outputs": [],
					"stateMutability": "nonpayable",
					"type": "function"
				},
				{
					"inputs": [
						{
							"internalType": "uint256",
							"name": "taskId",
							"type": "uint256"
						}
					],
					"name": "getTask",
					"outputs": [
						{
							"components": [
								{
									"internalType": "uint256",
									"name": "id",
									"type": "uint256"
								},
								{
									"internalType": "string",
									"name": "title",
									"type": "string"
								},
								{
									"internalType": "string",
									"name": "description",
									"type": "string"
								},
								{
									"internalType": "address",
									"name": "creator",
									"type": "address"
								},
								{
									"internalType": "address",
									"name": "assignee",
									"type": "address"
								},
								{
									"internalType": "uint256",
									"name": "reward",
									"type": "uint256"
								},
								{
									"internalType": "address",
									"name": "rewardToken",
									"type": "address"
								},
								{
									"internalType": "uint256",
									"name": "deadline",
									"type": "uint256"
								},
								{
									"internalType": "enum BaseflowTask.TaskStatus",
									"name": "status",
									"type": "uint8"
								},
								{
									"internalType": "bool",
									"name": "exists",
									"type": "bool"
								}
							],
							"internalType": "struct BaseflowTask.Task",
							"name": "",
							"type": "tuple"
						}
					],
					"stateMutability": "view",
					"type": "function"
				},
				{
					"inputs": [
						{
							"internalType": "address",
							"name": "user",
							"type": "address"
						}
					],
					"name": "getUserTasks",
					"outputs": [
						{
							"internalType": "uint256[]",
							"name": "",
							"type": "uint256[]"
						}
					],
					"stateMutability": "view",
					"type": "function"
				},
				{
					"inputs": [
						{
							"internalType": "uint256",
							"name": "taskId",
							"type": "uint256"
						},
						{
							"internalType": "address",
							"name": "contributor",
							"type": "address"
						},
						{
							"internalType": "uint256",
							"name": "reward",
							"type": "uint256"
						},
						{
							"internalType": "address",
							"name": "_paymentToken",
							"type": "address"
						}
					],
					"name": "hireContributor",
					"outputs": [],
					"stateMutability": "nonpayable",
					"type": "function"
				},
				{
					"inputs": [],
					"name": "owner",
					"outputs": [
						{
							"internalType": "address",
							"name": "",
							"type": "address"
						}
					],
					"stateMutability": "view",
					"type": "function"
				},
				{
					"inputs": [],
					"name": "platformFeeRecipient",
					"outputs": [
						{
							"internalType": "address",
							"name": "",
							"type": "address"
						}
					],
					"stateMutability": "view",
					"type": "function"
				},
				{
					"inputs": [],
					"name": "renounceOwnership",
					"outputs": [],
					"stateMutability": "nonpayable",
					"type": "function"
				},
				{
					"inputs": [
						{
							"internalType": "uint256",
							"name": "",
							"type": "uint256"
						}
					],
					"name": "tasks",
					"outputs": [
						{
							"internalType": "uint256",
							"name": "id",
							"type": "uint256"
						},
						{
							"internalType": "string",
							"name": "title",
							"type": "string"
						},
						{
							"internalType": "string",
							"name": "description",
							"type": "string"
						},
						{
							"internalType": "address",
							"name": "creator",
							"type": "address"
						},
						{
							"internalType": "address",
							"name": "assignee",
							"type": "address"
						},
						{
							"internalType": "uint256",
							"name": "reward",
							"type": "uint256"
						},
						{
							"internalType": "address",
							"name": "rewardToken",
							"type": "address"
						},
						{
							"internalType": "uint256",
							"name": "deadline",
							"type": "uint256"
						},
						{
							"internalType": "enum BaseflowTask.TaskStatus",
							"name": "status",
							"type": "uint8"
						},
						{
							"internalType": "bool",
							"name": "exists",
							"type": "bool"
						}
					],
					"stateMutability": "view",
					"type": "function"
				},
				{
					"inputs": [],
					"name": "token1",
					"outputs": [
						{
							"internalType": "contract IERC20",
							"name": "",
							"type": "address"
						}
					],
					"stateMutability": "view",
					"type": "function"
				},
				{
					"inputs": [],
					"name": "token2",
					"outputs": [
						{
							"internalType": "contract IERC20",
							"name": "",
							"type": "address"
						}
					],
					"stateMutability": "view",
					"type": "function"
				},
				{
					"inputs": [
						{
							"internalType": "address",
							"name": "newOwner",
							"type": "address"
						}
					],
					"name": "transferOwnership",
					"outputs": [],
					"stateMutability": "nonpayable",
					"type": "function"
				},
				{
					"inputs": [
						{
							"internalType": "address",
							"name": "_newToken",
							"type": "address"
						}
					],
					"name": "updateToken1",
					"outputs": [],
					"stateMutability": "nonpayable",
					"type": "function"
				},
				{
					"inputs": [
						{
							"internalType": "address",
							"name": "_newToken",
							"type": "address"
						}
					],
					"name": "updateToken2",
					"outputs": [],
					"stateMutability": "nonpayable",
					"type": "function"
				},
				{
					"inputs": [
						{
							"internalType": "address",
							"name": "",
							"type": "address"
						},
						{
							"internalType": "uint256",
							"name": "",
							"type": "uint256"
						}
					],
					"name": "userTasks",
					"outputs": [
						{
							"internalType": "uint256",
							"name": "",
							"type": "uint256"
						}
					],
					"stateMutability": "view",
					"type": "function"
				},
				{
					"inputs": [
						{
							"internalType": "address",
							"name": "_tokenAddress",
							"type": "address"
						},
						{
							"internalType": "uint256",
							"name": "amount",
							"type": "uint256"
						}
					],
					"name": "withdrawFees",
					"outputs": [],
					"stateMutability": "nonpayable",
					"type": "function"
				}
			],
			"devdoc": {
				"errors": {
					"OwnableInvalidOwner(address)": [
						{
							"details": "The owner is not a valid owner account. (eg. `address(0)`)"
						}
					],
					"OwnableUnauthorizedAccount(address)": [
						{
							"details": "The caller account is not authorized to perform an operation."
						}
					],
					"SafeERC20FailedOperation(address)": [
						{
							"details": "An operation with an ERC-20 token failed."
						}
					]
				},
				"kind": "dev",
				"methods": {
					"owner()": {
						"details": "Returns the address of the current owner."
					},
					"renounceOwnership()": {
						"details": "Leaves the contract without owner. It will not be possible to call `onlyOwner` functions. Can only be called by the current owner. NOTE: Renouncing ownership will leave the contract without an owner, thereby disabling any functionality that is only available to the owner."
					},
					"transferOwnership(address)": {
						"details": "Transfers ownership of the contract to a new account (`newOwner`). Can only be called by the current owner."
					}
				},
				"version": 1
			},
			"evm": {
				"assembly": "    /* \"contracts/task.sol\":361:7339  contract BaseflowTask is Ownable, ReentrancyGuard {... */\n  mstore(0x40, 0x80)\n    /* \"contracts/task.sol\":1723:2058  constructor(address _token1, address _token2, address _platformFeeRecipient) Ownable(msg.sender) { ... */\n  callvalue\n  dup1\n  iszero\n  tag_1\n  jumpi\n  revert(0x00, 0x00)\ntag_1:\n  pop\n  mload(0x40)\n  sub(codesize, bytecodeSize)\n  dup1\n  bytecodeSize\n  dup4\n  codecopy\n  dup2\n  dup2\n  add\n  0x40\n  mstore\n  dup2\n  add\n  swap1\n  tag_2\n  swap2\n  swap1\n  tag_3\n  jump\t// in\ntag_2:\n    /* \"contracts/task.sol\":1808:1818  msg.sender */\n  caller\n    /* \"@openzeppelin/contracts/access/Ownable.sol\":1297:1298  0 */\n  0x00\n    /* \"@openzeppelin/contracts/access/Ownable.sol\":1273:1299  initialOwner == address(0) */\n  0xffffffffffffffffffffffffffffffffffffffff\n  and\n    /* \"@openzeppelin/contracts/access/Ownable.sol\":1273:1285  initialOwner */\n  dup2\n    /* \"@openzeppelin/contracts/access/Ownable.sol\":1273:1299  initialOwner == address(0) */\n  0xffffffffffffffffffffffffffffffffffffffff\n  and\n  sub\n    /* \"@openzeppelin/contracts/access/Ownable.sol\":1269:1364  if (initialOwner == address(0)) {... */\n  tag_8\n  jumpi\n    /* \"@openzeppelin/contracts/access/Ownable.sol\":1350:1351  0 */\n  0x00\n    /* \"@openzeppelin/contracts/access/Ownable.sol\":1322:1353  OwnableInvalidOwner(address(0)) */\n  mload(0x40)\n  0x1e4fbdf700000000000000000000000000000000000000000000000000000000\n  dup2\n  mstore\n  0x04\n  add\n  tag_9\n  swap2\n  swap1\n  tag_10\n  jump\t// in\ntag_9:\n  mload(0x40)\n  dup1\n  swap2\n  sub\n  swap1\n  revert\n    /* \"@openzeppelin/contracts/access/Ownable.sol\":1269:1364  if (initialOwner == address(0)) {... */\ntag_8:\n    /* \"@openzeppelin/contracts/access/Ownable.sol\":1373:1405  _transferOwnership(initialOwner) */\n  tag_11\n    /* \"@openzeppelin/contracts/access/Ownable.sol\":1392:1404  initialOwner */\n  dup2\n    /* \"@openzeppelin/contracts/access/Ownable.sol\":1373:1391  _transferOwnership */\n  shl(0x20, tag_12)\n    /* \"@openzeppelin/contracts/access/Ownable.sol\":1373:1405  _transferOwnership(initialOwner) */\n  0x20\n  shr\n  jump\t// in\ntag_11:\n    /* \"@openzeppelin/contracts/access/Ownable.sol\":1225:1412  constructor(address initialOwner) {... */\n  pop\n    /* \"@openzeppelin/contracts/security/ReentrancyGuard.sol\":1716:1717  1 */\n  0x01\n    /* \"@openzeppelin/contracts/security/ReentrancyGuard.sol\":1821:1828  _status */\n  dup1\n    /* \"@openzeppelin/contracts/security/ReentrancyGuard.sol\":1821:1843  _status = _NOT_ENTERED */\n  dup2\n  swap1\n  sstore\n  pop\n    /* \"contracts/task.sol\":1859:1860  0 */\n  0x00\n    /* \"contracts/task.sol\":1840:1861  _token1 != address(0) */\n  0xffffffffffffffffffffffffffffffffffffffff\n  and\n    /* \"contracts/task.sol\":1840:1847  _token1 */\n  dup4\n    /* \"contracts/task.sol\":1840:1861  _token1 != address(0) */\n  0xffffffffffffffffffffffffffffffffffffffff\n  and\n  sub\n    /* \"contracts/task.sol\":1832:1887  require(_token1 != address(0), \"Token1 cannot be zero\") */\n  tag_15\n  jumpi\n  mload(0x40)\n  0x08c379a000000000000000000000000000000000000000000000000000000000\n  dup2\n  mstore\n  0x04\n  add\n  tag_16\n  swap1\n  tag_17\n  jump\t// in\ntag_16:\n  mload(0x40)\n  dup1\n  swap2\n  sub\n  swap1\n  revert\ntag_15:\n    /* \"contracts/task.sol\":1914:1921  _token1 */\n  dup3\n    /* \"contracts/task.sol\":1898:1904  token1 */\n  0x03\n  0x00\n    /* \"contracts/task.sol\":1898:1922  token1 = IERC20(_token1) */\n  0x0100\n  exp\n  dup2\n  sload\n  dup2\n  0xffffffffffffffffffffffffffffffffffffffff\n  mul\n  not\n  and\n  swap1\n  dup4\n  0xffffffffffffffffffffffffffffffffffffffff\n  and\n  mul\n  or\n  swap1\n  sstore\n  pop\n    /* \"contracts/task.sol\":1949:1956  _token2 */\n  dup2\n    /* \"contracts/task.sol\":1933:1939  token2 */\n  0x04\n  0x00\n    /* \"contracts/task.sol\":1933:1957  token2 = IERC20(_token2) */\n  0x0100\n  exp\n  dup2\n  sload\n  dup2\n  0xffffffffffffffffffffffffffffffffffffffff\n  mul\n  not\n  and\n  swap1\n  dup4\n  0xffffffffffffffffffffffffffffffffffffffff\n  and\n  mul\n  or\n  swap1\n  sstore\n  pop\n    /* \"contracts/task.sol\":2029:2050  _platformFeeRecipient */\n  dup1\n    /* \"contracts/task.sol\":2006:2026  platformFeeRecipient */\n  0x07\n  0x00\n    /* \"contracts/task.sol\":2006:2050  platformFeeRecipient = _platformFeeRecipient */\n  0x0100\n  exp\n  dup2\n  sload\n  dup2\n  0xffffffffffffffffffffffffffffffffffffffff\n  mul\n  not\n  and\n  swap1\n  dup4\n  0xffffffffffffffffffffffffffffffffffffffff\n  and\n  mul\n  or\n  swap1\n  sstore\n  pop\n    /* \"contracts/task.sol\":1723:2058  constructor(address _token1, address _token2, address _platformFeeRecipient) Ownable(msg.sender) { ... */\n  pop\n  pop\n  pop\n    /* \"contracts/task.sol\":361:7339  contract BaseflowTask is Ownable, ReentrancyGuard {... */\n  jump(tag_18)\n    /* \"@openzeppelin/contracts/access/Ownable.sol\":2912:3099  function _transferOwnership(address newOwner) internal virtual {... */\ntag_12:\n    /* \"@openzeppelin/contracts/access/Ownable.sol\":2985:3001  address oldOwner */\n  0x00\n    /* \"@openzeppelin/contracts/access/Ownable.sol\":3004:3010  _owner */\n  0x00\n  0x00\n  swap1\n  sload\n  swap1\n  0x0100\n  exp\n  swap1\n  div\n  0xffffffffffffffffffffffffffffffffffffffff\n  and\n    /* \"@openzeppelin/contracts/access/Ownable.sol\":2985:3010  address oldOwner = _owner */\n  swap1\n  pop\n    /* \"@openzeppelin/contracts/access/Ownable.sol\":3029:3037  newOwner */\n  dup2\n    /* \"@openzeppelin/contracts/access/Ownable.sol\":3020:3026  _owner */\n  0x00\n  0x00\n    /* \"@openzeppelin/contracts/access/Ownable.sol\":3020:3037  _owner = newOwner */\n  0x0100\n  exp\n  dup2\n  sload\n  dup2\n  0xffffffffffffffffffffffffffffffffffffffff\n  mul\n  not\n  and\n  swap1\n  dup4\n  0xffffffffffffffffffffffffffffffffffffffff\n  and\n  mul\n  or\n  swap1\n  sstore\n  pop\n    /* \"@openzeppelin/contracts/access/Ownable.sol\":3083:3091  newOwner */\n  dup2\n    /* \"@openzeppelin/contracts/access/Ownable.sol\":3052:3092  OwnershipTransferred(oldOwner, newOwner) */\n  0xffffffffffffffffffffffffffffffffffffffff\n  and\n    /* \"@openzeppelin/contracts/access/Ownable.sol\":3073:3081  oldOwner */\n  dup2\n    /* \"@openzeppelin/contracts/access/Ownable.sol\":3052:3092  OwnershipTransferred(oldOwner, newOwner) */\n  0xffffffffffffffffffffffffffffffffffffffff\n  and\n  0x8be0079c531659141344cd1fd0a4f28419497f9722a3daafe3b4186f6b6457e0\n  mload(0x40)\n  mload(0x40)\n  dup1\n  swap2\n  sub\n  swap1\n  log3\n    /* \"@openzeppelin/contracts/access/Ownable.sol\":2975:3099  {... */\n  pop\n    /* \"@openzeppelin/contracts/access/Ownable.sol\":2912:3099  function _transferOwnership(address newOwner) internal virtual {... */\n  pop\n  jump\t// out\n    /* \"#utility.yul\":88:205   */\ntag_21:\n    /* \"#utility.yul\":197:198   */\n  0x00\n    /* \"#utility.yul\":194:195   */\n  0x00\n    /* \"#utility.yul\":187:199   */\n  revert\n    /* \"#utility.yul\":334:460   */\ntag_23:\n    /* \"#utility.yul\":371:378   */\n  0x00\n    /* \"#utility.yul\":411:453   */\n  0xffffffffffffffffffffffffffffffffffffffff\n    /* \"#utility.yul\":404:409   */\n  dup3\n    /* \"#utility.yul\":400:454   */\n  and\n    /* \"#utility.yul\":389:454   */\n  swap1\n  pop\n    /* \"#utility.yul\":334:460   */\n  swap2\n  swap1\n  pop\n  jump\t// out\n    /* \"#utility.yul\":466:562   */\ntag_24:\n    /* \"#utility.yul\":503:510   */\n  0x00\n    /* \"#utility.yul\":532:556   */\n  tag_37\n    /* \"#utility.yul\":550:555   */\n  dup3\n    /* \"#utility.yul\":532:556   */\n  tag_23\n  jump\t// in\ntag_37:\n    /* \"#utility.yul\":521:556   */\n  swap1\n  pop\n    /* \"#utility.yul\":466:562   */\n  swap2\n  swap1\n  pop\n  jump\t// out\n    /* \"#utility.yul\":568:690   */\ntag_25:\n    /* \"#utility.yul\":641:665   */\n  tag_39\n    /* \"#utility.yul\":659:664   */\n  dup2\n    /* \"#utility.yul\":641:665   */\n  tag_24\n  jump\t// in\ntag_39:\n    /* \"#utility.yul\":634:639   */\n  dup2\n    /* \"#utility.yul\":631:666   */\n  eq\n    /* \"#utility.yul\":621:684   */\n  tag_40\n  jumpi\n    /* \"#utility.yul\":680:681   */\n  0x00\n    /* \"#utility.yul\":677:678   */\n  0x00\n    /* \"#utility.yul\":670:682   */\n  revert\n    /* \"#utility.yul\":621:684   */\ntag_40:\n    /* \"#utility.yul\":568:690   */\n  pop\n  jump\t// out\n    /* \"#utility.yul\":696:839   */\ntag_26:\n    /* \"#utility.yul\":753:758   */\n  0x00\n    /* \"#utility.yul\":784:790   */\n  dup2\n    /* \"#utility.yul\":778:791   */\n  mload\n    /* \"#utility.yul\":769:791   */\n  swap1\n  pop\n    /* \"#utility.yul\":800:833   */\n  tag_42\n    /* \"#utility.yul\":827:832   */\n  dup2\n    /* \"#utility.yul\":800:833   */\n  tag_25\n  jump\t// in\ntag_42:\n    /* \"#utility.yul\":696:839   */\n  swap3\n  swap2\n  pop\n  pop\n  jump\t// out\n    /* \"#utility.yul\":845:1508   */\ntag_3:\n    /* \"#utility.yul\":933:939   */\n  0x00\n    /* \"#utility.yul\":941:947   */\n  0x00\n    /* \"#utility.yul\":949:955   */\n  0x00\n    /* \"#utility.yul\":998:1000   */\n  0x60\n    /* \"#utility.yul\":986:995   */\n  dup5\n    /* \"#utility.yul\":977:984   */\n  dup7\n    /* \"#utility.yul\":973:996   */\n  sub\n    /* \"#utility.yul\":969:1001   */\n  slt\n    /* \"#utility.yul\":966:1085   */\n  iszero\n  tag_44\n  jumpi\n    /* \"#utility.yul\":1004:1083   */\n  tag_45\n  tag_21\n  jump\t// in\ntag_45:\n    /* \"#utility.yul\":966:1085   */\ntag_44:\n    /* \"#utility.yul\":1124:1125   */\n  0x00\n    /* \"#utility.yul\":1149:1213   */\n  tag_46\n    /* \"#utility.yul\":1205:1212   */\n  dup7\n    /* \"#utility.yul\":1196:1202   */\n  dup3\n    /* \"#utility.yul\":1185:1194   */\n  dup8\n    /* \"#utility.yul\":1181:1203   */\n  add\n    /* \"#utility.yul\":1149:1213   */\n  tag_26\n  jump\t// in\ntag_46:\n    /* \"#utility.yul\":1139:1213   */\n  swap4\n  pop\n    /* \"#utility.yul\":1095:1223   */\n  pop\n    /* \"#utility.yul\":1262:1264   */\n  0x20\n    /* \"#utility.yul\":1288:1352   */\n  tag_47\n    /* \"#utility.yul\":1344:1351   */\n  dup7\n    /* \"#utility.yul\":1335:1341   */\n  dup3\n    /* \"#utility.yul\":1324:1333   */\n  dup8\n    /* \"#utility.yul\":1320:1342   */\n  add\n    /* \"#utility.yul\":1288:1352   */\n  tag_26\n  jump\t// in\ntag_47:\n    /* \"#utility.yul\":1278:1352   */\n  swap3\n  pop\n    /* \"#utility.yul\":1233:1362   */\n  pop\n    /* \"#utility.yul\":1401:1403   */\n  0x40\n    /* \"#utility.yul\":1427:1491   */\n  tag_48\n    /* \"#utility.yul\":1483:1490   */\n  dup7\n    /* \"#utility.yul\":1474:1480   */\n  dup3\n    /* \"#utility.yul\":1463:1472   */\n  dup8\n    /* \"#utility.yul\":1459:1481   */\n  add\n    /* \"#utility.yul\":1427:1491   */\n  tag_26\n  jump\t// in\ntag_48:\n    /* \"#utility.yul\":1417:1491   */\n  swap2\n  pop\n    /* \"#utility.yul\":1372:1501   */\n  pop\n    /* \"#utility.yul\":845:1508   */\n  swap3\n  pop\n  swap3\n  pop\n  swap3\n  jump\t// out\n    /* \"#utility.yul\":1514:1632   */\ntag_27:\n    /* \"#utility.yul\":1601:1625   */\n  tag_50\n    /* \"#utility.yul\":1619:1624   */\n  dup2\n    /* \"#utility.yul\":1601:1625   */\n  tag_24\n  jump\t// in\ntag_50:\n    /* \"#utility.yul\":1596:1599   */\n  dup3\n    /* \"#utility.yul\":1589:1626   */\n  mstore\n    /* \"#utility.yul\":1514:1632   */\n  pop\n  pop\n  jump\t// out\n    /* \"#utility.yul\":1638:1860   */\ntag_10:\n    /* \"#utility.yul\":1731:1735   */\n  0x00\n    /* \"#utility.yul\":1769:1771   */\n  0x20\n    /* \"#utility.yul\":1758:1767   */\n  dup3\n    /* \"#utility.yul\":1754:1772   */\n  add\n    /* \"#utility.yul\":1746:1772   */\n  swap1\n  pop\n    /* \"#utility.yul\":1782:1853   */\n  tag_52\n    /* \"#utility.yul\":1850:1851   */\n  0x00\n    /* \"#utility.yul\":1839:1848   */\n  dup4\n    /* \"#utility.yul\":1835:1852   */\n  add\n    /* \"#utility.yul\":1826:1832   */\n  dup5\n    /* \"#utility.yul\":1782:1853   */\n  tag_27\n  jump\t// in\ntag_52:\n    /* \"#utility.yul\":1638:1860   */\n  swap3\n  swap2\n  pop\n  pop\n  jump\t// out\n    /* \"#utility.yul\":1866:2035   */\ntag_28:\n    /* \"#utility.yul\":1950:1961   */\n  0x00\n    /* \"#utility.yul\":1984:1990   */\n  dup3\n    /* \"#utility.yul\":1979:1982   */\n  dup3\n    /* \"#utility.yul\":1972:1991   */\n  mstore\n    /* \"#utility.yul\":2024:2028   */\n  0x20\n    /* \"#utility.yul\":2019:2022   */\n  dup3\n    /* \"#utility.yul\":2015:2029   */\n  add\n    /* \"#utility.yul\":2000:2029   */\n  swap1\n  pop\n    /* \"#utility.yul\":1866:2035   */\n  swap3\n  swap2\n  pop\n  pop\n  jump\t// out\n    /* \"#utility.yul\":2041:2212   */\ntag_29:\n    /* \"#utility.yul\":2181:2204   */\n  0x546f6b656e312063616e6e6f74206265207a65726f0000000000000000000000\n    /* \"#utility.yul\":2177:2178   */\n  0x00\n    /* \"#utility.yul\":2169:2175   */\n  dup3\n    /* \"#utility.yul\":2165:2179   */\n  add\n    /* \"#utility.yul\":2158:2205   */\n  mstore\n    /* \"#utility.yul\":2041:2212   */\n  pop\n  jump\t// out\n    /* \"#utility.yul\":2218:2584   */\ntag_30:\n    /* \"#utility.yul\":2360:2363   */\n  0x00\n    /* \"#utility.yul\":2381:2448   */\n  tag_56\n    /* \"#utility.yul\":2445:2447   */\n  0x15\n    /* \"#utility.yul\":2440:2443   */\n  dup4\n    /* \"#utility.yul\":2381:2448   */\n  tag_28\n  jump\t// in\ntag_56:\n    /* \"#utility.yul\":2374:2448   */\n  swap2\n  pop\n    /* \"#utility.yul\":2457:2550   */\n  tag_57\n    /* \"#utility.yul\":2546:2549   */\n  dup3\n    /* \"#utility.yul\":2457:2550   */\n  tag_29\n  jump\t// in\ntag_57:\n    /* \"#utility.yul\":2575:2577   */\n  0x20\n    /* \"#utility.yul\":2570:2573   */\n  dup3\n    /* \"#utility.yul\":2566:2578   */\n  add\n    /* \"#utility.yul\":2559:2578   */\n  swap1\n  pop\n    /* \"#utility.yul\":2218:2584   */\n  swap2\n  swap1\n  pop\n  jump\t// out\n    /* \"#utility.yul\":2590:3009   */\ntag_17:\n    /* \"#utility.yul\":2756:2760   */\n  0x00\n    /* \"#utility.yul\":2794:2796   */\n  0x20\n    /* \"#utility.yul\":2783:2792   */\n  dup3\n    /* \"#utility.yul\":2779:2797   */\n  add\n    /* \"#utility.yul\":2771:2797   */\n  swap1\n  pop\n    /* \"#utility.yul\":2843:2852   */\n  dup2\n    /* \"#utility.yul\":2837:2841   */\n  dup2\n    /* \"#utility.yul\":2833:2853   */\n  sub\n    /* \"#utility.yul\":2829:2830   */\n  0x00\n    /* \"#utility.yul\":2818:2827   */\n  dup4\n    /* \"#utility.yul\":2814:2831   */\n  add\n    /* \"#utility.yul\":2807:2854   */\n  mstore\n    /* \"#utility.yul\":2871:3002   */\n  tag_59\n    /* \"#utility.yul\":2997:3001   */\n  dup2\n    /* \"#utility.yul\":2871:3002   */\n  tag_30\n  jump\t// in\ntag_59:\n    /* \"#utility.yul\":2863:3002   */\n  swap1\n  pop\n    /* \"#utility.yul\":2590:3009   */\n  swap2\n  swap1\n  pop\n  jump\t// out\n    /* \"contracts/task.sol\":361:7339  contract BaseflowTask is Ownable, ReentrancyGuard {... */\ntag_18:\n  dataSize(sub_0)\n  dup1\n  dataOffset(sub_0)\n  0x00\n  codecopy\n  0x00\n  return\nstop\n\nsub_0: assembly {\n        /* \"contracts/task.sol\":361:7339  contract BaseflowTask is Ownable, ReentrancyGuard {... */\n      mstore(0x40, 0x80)\n      callvalue\n      dup1\n      iszero\n      tag_1\n      jumpi\n      revert(0x00, 0x00)\n    tag_1:\n      pop\n      jumpi(tag_2, lt(calldatasize, 0x04))\n      shr(0xe0, calldataload(0x00))\n      dup1\n      0x8d977672\n      gt\n      tag_21\n      jumpi\n      dup1\n      0xad3b1b47\n      gt\n      tag_22\n      jumpi\n      dup1\n      0xad3b1b47\n      eq\n      tag_16\n      jumpi\n      dup1\n      0xae1fc324\n      eq\n      tag_17\n      jumpi\n      dup1\n      0xd21220a7\n      eq\n      tag_18\n      jumpi\n      dup1\n      0xeb13554f\n      eq\n      tag_19\n      jumpi\n      dup1\n      0xf2fde38b\n      eq\n      tag_20\n      jumpi\n      jump(tag_2)\n    tag_22:\n      dup1\n      0x8d977672\n      eq\n      tag_12\n      jumpi\n      dup1\n      0x8da5cb5b\n      eq\n      tag_13\n      jumpi\n      dup1\n      0x95d57660\n      eq\n      tag_14\n      jumpi\n      dup1\n      0x9bee5ce9\n      eq\n      tag_15\n      jumpi\n      jump(tag_2)\n    tag_21:\n      dup1\n      0x41a4e30a\n      gt\n      tag_23\n      jumpi\n      dup1\n      0x41a4e30a\n      eq\n      tag_7\n      jumpi\n      dup1\n      0x66873a55\n      eq\n      tag_8\n      jumpi\n      dup1\n      0x6ff1c9bc\n      eq\n      tag_9\n      jumpi\n      dup1\n      0x715018a6\n      eq\n      tag_10\n      jumpi\n      dup1\n      0x7eec20a8\n      eq\n      tag_11\n      jumpi\n      jump(tag_2)\n    tag_23:\n      dup1\n      0x064e6780\n      eq\n      tag_3\n      jumpi\n      dup1\n      0x1d65e77e\n      eq\n      tag_4\n      jumpi\n      dup1\n      0x25be124e\n      eq\n      tag_5\n      jumpi\n      dup1\n      0x29e517f4\n      eq\n      tag_6\n      jumpi\n    tag_2:\n      revert(0x00, 0x00)\n        /* \"contracts/task.sol\":2103:2274  function updateToken1(address _newToken) external onlyOwner {... */\n    tag_3:\n      tag_24\n      0x04\n      dup1\n      calldatasize\n      sub\n      dup2\n      add\n      swap1\n      tag_25\n      swap2\n      swap1\n      tag_26\n      jump\t// in\n    tag_25:\n      tag_27\n      jump\t// in\n    tag_24:\n      stop\n        /* \"contracts/task.sol\":6424:6595  function getTask(uint256 taskId) external view returns (Task memory) {... */\n    tag_4:\n      tag_28\n      0x04\n      dup1\n      calldatasize\n      sub\n      dup2\n      add\n      swap1\n      tag_29\n      swap2\n      swap1\n      tag_30\n      jump\t// in\n    tag_29:\n      tag_31\n      jump\t// in\n    tag_28:\n      mload(0x40)\n      tag_32\n      swap2\n      swap1\n      tag_33\n      jump\t// in\n    tag_32:\n      mload(0x40)\n      dup1\n      swap2\n      sub\n      swap1\n      return\n        /* \"contracts/task.sol\":623:643  IERC20 public token2 */\n    tag_5:\n      tag_34\n      tag_35\n      jump\t// in\n    tag_34:\n      mload(0x40)\n      tag_36\n      swap2\n      swap1\n      tag_37\n      jump\t// in\n    tag_36:\n      mload(0x40)\n      dup1\n      swap2\n      sub\n      swap1\n      return\n        /* \"contracts/task.sol\":4835:5987  function completeTask(uint256 taskId, address contributor) external nonReentrant {... */\n    tag_6:\n      tag_38\n      0x04\n      dup1\n      calldatasize\n      sub\n      dup2\n      add\n      swap1\n      tag_39\n      swap2\n      swap1\n      tag_40\n      jump\t// in\n    tag_39:\n      tag_41\n      jump\t// in\n    tag_38:\n      stop\n        /* \"contracts/task.sol\":2490:3322  function createTask(... */\n    tag_7:\n      tag_42\n      0x04\n      dup1\n      calldatasize\n      sub\n      dup2\n      add\n      swap1\n      tag_43\n      swap2\n      swap1\n      tag_44\n      jump\t// in\n    tag_43:\n      tag_45\n      jump\t// in\n    tag_42:\n      mload(0x40)\n      tag_46\n      swap2\n      swap1\n      tag_47\n      jump\t// in\n    tag_46:\n      mload(0x40)\n      dup1\n      swap2\n      sub\n      swap1\n      return\n        /* \"contracts/task.sol\":1179:1225  mapping(address => uint256[]) public userTasks */\n    tag_8:\n      tag_48\n      0x04\n      dup1\n      calldatasize\n      sub\n      dup2\n      add\n      swap1\n      tag_49\n      swap2\n      swap1\n      tag_50\n      jump\t// in\n    tag_49:\n      tag_51\n      jump\t// in\n    tag_48:\n      mload(0x40)\n      tag_52\n      swap2\n      swap1\n      tag_47\n      jump\t// in\n    tag_52:\n      mload(0x40)\n      dup1\n      swap2\n      sub\n      swap1\n      return\n        /* \"contracts/task.sol\":7121:7336  function emergencyWithdraw(address _tokenAddress) external onlyOwner {... */\n    tag_9:\n      tag_53\n      0x04\n      dup1\n      calldatasize\n      sub\n      dup2\n      add\n      swap1\n      tag_54\n      swap2\n      swap1\n      tag_26\n      jump\t// in\n    tag_54:\n      tag_55\n      jump\t// in\n    tag_53:\n      stop\n        /* \"@openzeppelin/contracts/access/Ownable.sol\":2293:2394  function renounceOwnership() public virtual onlyOwner {... */\n    tag_10:\n      tag_56\n      tag_57\n      jump\t// in\n    tag_56:\n      stop\n        /* \"contracts/task.sol\":5995:6385  function cancelTask(uint256 taskId) external nonReentrant {... */\n    tag_11:\n      tag_58\n      0x04\n      dup1\n      calldatasize\n      sub\n      dup2\n      add\n      swap1\n      tag_59\n      swap2\n      swap1\n      tag_30\n      jump\t// in\n    tag_59:\n      tag_60\n      jump\t// in\n    tag_58:\n      stop\n        /* \"contracts/task.sol\":1135:1172  mapping(uint256 => Task) public tasks */\n    tag_12:\n      tag_61\n      0x04\n      dup1\n      calldatasize\n      sub\n      dup2\n      add\n      swap1\n      tag_62\n      swap2\n      swap1\n      tag_30\n      jump\t// in\n    tag_62:\n      tag_63\n      jump\t// in\n    tag_61:\n      mload(0x40)\n      tag_64\n      swap11\n      swap10\n      swap9\n      swap8\n      swap7\n      swap6\n      swap5\n      swap4\n      swap3\n      swap2\n      swap1\n      tag_65\n      jump\t// in\n    tag_64:\n      mload(0x40)\n      dup1\n      swap2\n      sub\n      swap1\n      return\n        /* \"@openzeppelin/contracts/access/Ownable.sol\":1638:1723  function owner() public view virtual returns (address) {... */\n    tag_13:\n      tag_66\n      tag_67\n      jump\t// in\n    tag_66:\n      mload(0x40)\n      tag_68\n      swap2\n      swap1\n      tag_69\n      jump\t// in\n    tag_68:\n      mload(0x40)\n      dup1\n      swap2\n      sub\n      swap1\n      return\n        /* \"contracts/task.sol\":6603:6721  function getUserTasks(address user) external view returns (uint256[] memory) {... */\n    tag_14:\n      tag_70\n      0x04\n      dup1\n      calldatasize\n      sub\n      dup2\n      add\n      swap1\n      tag_71\n      swap2\n      swap1\n      tag_26\n      jump\t// in\n    tag_71:\n      tag_72\n      jump\t// in\n    tag_70:\n      mload(0x40)\n      tag_73\n      swap2\n      swap1\n      tag_74\n      jump\t// in\n    tag_73:\n      mload(0x40)\n      dup1\n      swap2\n      sub\n      swap1\n      return\n        /* \"contracts/task.sol\":3423:4827  function hireContributor(... */\n    tag_15:\n      tag_75\n      0x04\n      dup1\n      calldatasize\n      sub\n      dup2\n      add\n      swap1\n      tag_76\n      swap2\n      swap1\n      tag_77\n      jump\t// in\n    tag_76:\n      tag_78\n      jump\t// in\n    tag_75:\n      stop\n        /* \"contracts/task.sol\":6833:6983  function withdrawFees(address _tokenAddress, uint256 amount) external onlyOwner {... */\n    tag_16:\n      tag_79\n      0x04\n      dup1\n      calldatasize\n      sub\n      dup2\n      add\n      swap1\n      tag_80\n      swap2\n      swap1\n      tag_50\n      jump\t// in\n    tag_80:\n      tag_81\n      jump\t// in\n    tag_79:\n      stop\n        /* \"contracts/task.sol\":2282:2453  function updateToken2(address _newToken) external onlyOwner {... */\n    tag_17:\n      tag_82\n      0x04\n      dup1\n      calldatasize\n      sub\n      dup2\n      add\n      swap1\n      tag_83\n      swap2\n      swap1\n      tag_26\n      jump\t// in\n    tag_83:\n      tag_84\n      jump\t// in\n    tag_82:\n      stop\n        /* \"contracts/task.sol\":582:602  IERC20 public token1 */\n    tag_18:\n      tag_85\n      tag_86\n      jump\t// in\n    tag_85:\n      mload(0x40)\n      tag_87\n      swap2\n      swap1\n      tag_37\n      jump\t// in\n    tag_87:\n      mload(0x40)\n      dup1\n      swap2\n      sub\n      swap1\n      return\n        /* \"contracts/task.sol\":1679:1714  address public platformFeeRecipient */\n    tag_19:\n      tag_88\n      tag_89\n      jump\t// in\n    tag_88:\n      mload(0x40)\n      tag_90\n      swap2\n      swap1\n      tag_69\n      jump\t// in\n    tag_90:\n      mload(0x40)\n      dup1\n      swap2\n      sub\n      swap1\n      return\n        /* \"@openzeppelin/contracts/access/Ownable.sol\":2543:2758  function transferOwnership(address newOwner) public virtual onlyOwner {... */\n    tag_20:\n      tag_91\n      0x04\n      dup1\n      calldatasize\n      sub\n      dup2\n      add\n      swap1\n      tag_92\n      swap2\n      swap1\n      tag_26\n      jump\t// in\n    tag_92:\n      tag_93\n      jump\t// in\n    tag_91:\n      stop\n        /* \"contracts/task.sol\":2103:2274  function updateToken1(address _newToken) external onlyOwner {... */\n    tag_27:\n        /* \"@openzeppelin/contracts/access/Ownable.sol\":1531:1544  _checkOwner() */\n      tag_95\n        /* \"@openzeppelin/contracts/access/Ownable.sol\":1531:1542  _checkOwner */\n      tag_96\n        /* \"@openzeppelin/contracts/access/Ownable.sol\":1531:1544  _checkOwner() */\n      jump\t// in\n    tag_95:\n        /* \"contracts/task.sol\":2179:2229  TokenUpdated(\"Token1\", address(token1), _newToken) */\n      0xe1dfa83513a4b65c296bc64d8a68945cb723d798739225012d7167dbb2d6e3fc\n        /* \"contracts/task.sol\":2210:2216  token1 */\n      0x03\n      0x00\n      swap1\n      sload\n      swap1\n      0x0100\n      exp\n      swap1\n      div\n      0xffffffffffffffffffffffffffffffffffffffff\n      and\n        /* \"contracts/task.sol\":2219:2228  _newToken */\n      dup3\n        /* \"contracts/task.sol\":2179:2229  TokenUpdated(\"Token1\", address(token1), _newToken) */\n      mload(0x40)\n      tag_98\n      swap3\n      swap2\n      swap1\n      tag_99\n      jump\t// in\n    tag_98:\n      mload(0x40)\n      dup1\n      swap2\n      sub\n      swap1\n      log1\n        /* \"contracts/task.sol\":2256:2265  _newToken */\n      dup1\n        /* \"contracts/task.sol\":2240:2246  token1 */\n      0x03\n      0x00\n        /* \"contracts/task.sol\":2240:2266  token1 = IERC20(_newToken) */\n      0x0100\n      exp\n      dup2\n      sload\n      dup2\n      0xffffffffffffffffffffffffffffffffffffffff\n      mul\n      not\n      and\n      swap1\n      dup4\n      0xffffffffffffffffffffffffffffffffffffffff\n      and\n      mul\n      or\n      swap1\n      sstore\n      pop\n        /* \"contracts/task.sol\":2103:2274  function updateToken1(address _newToken) external onlyOwner {... */\n      pop\n      jump\t// out\n        /* \"contracts/task.sol\":6424:6595  function getTask(uint256 taskId) external view returns (Task memory) {... */\n    tag_31:\n        /* \"contracts/task.sol\":6480:6491  Task memory */\n      tag_100\n      tag_101\n      jump\t// in\n    tag_100:\n        /* \"contracts/task.sol\":6512:6517  tasks */\n      0x05\n        /* \"contracts/task.sol\":6512:6525  tasks[taskId] */\n      0x00\n        /* \"contracts/task.sol\":6518:6524  taskId */\n      dup4\n        /* \"contracts/task.sol\":6512:6525  tasks[taskId] */\n      dup2\n      mstore\n      0x20\n      add\n      swap1\n      dup2\n      mstore\n      0x20\n      add\n      0x00\n      keccak256\n        /* \"contracts/task.sol\":6512:6532  tasks[taskId].exists */\n      0x08\n      add\n      0x01\n      swap1\n      sload\n      swap1\n      0x0100\n      exp\n      swap1\n      div\n      0xff\n      and\n        /* \"contracts/task.sol\":6504:6556  require(tasks[taskId].exists, \"Task does not exist\") */\n      tag_103\n      jumpi\n      mload(0x40)\n      0x08c379a000000000000000000000000000000000000000000000000000000000\n      dup2\n      mstore\n      0x04\n      add\n      tag_104\n      swap1\n      tag_105\n      jump\t// in\n    tag_104:\n      mload(0x40)\n      dup1\n      swap2\n      sub\n      swap1\n      revert\n    tag_103:\n        /* \"contracts/task.sol\":6574:6579  tasks */\n      0x05\n        /* \"contracts/task.sol\":6574:6587  tasks[taskId] */\n      0x00\n        /* \"contracts/task.sol\":6580:6586  taskId */\n      dup4\n        /* \"contracts/task.sol\":6574:6587  tasks[taskId] */\n      dup2\n      mstore\n      0x20\n      add\n      swap1\n      dup2\n      mstore\n      0x20\n      add\n      0x00\n      keccak256\n        /* \"contracts/task.sol\":6567:6587  return tasks[taskId] */\n      mload(0x40)\n      dup1\n      0x0140\n      add\n      0x40\n      mstore\n      swap1\n      dup2\n      0x00\n      dup3\n      add\n      sload\n      dup2\n      mstore\n      0x20\n      add\n      0x01\n      dup3\n      add\n      dup1\n      sload\n      tag_106\n      swap1\n      tag_107\n      jump\t// in\n    tag_106:\n      dup1\n      0x1f\n      add\n      0x20\n      dup1\n      swap2\n      div\n      mul\n      0x20\n      add\n      mload(0x40)\n      swap1\n      dup2\n      add\n      0x40\n      mstore\n      dup1\n      swap3\n      swap2\n      swap1\n      dup2\n      dup2\n      mstore\n      0x20\n      add\n      dup3\n      dup1\n      sload\n      tag_108\n      swap1\n      tag_107\n      jump\t// in\n    tag_108:\n      dup1\n      iszero\n      tag_109\n      jumpi\n      dup1\n      0x1f\n      lt\n      tag_110\n      jumpi\n      0x0100\n      dup1\n      dup4\n      sload\n      div\n      mul\n      dup4\n      mstore\n      swap2\n      0x20\n      add\n      swap2\n      jump(tag_109)\n    tag_110:\n      dup3\n      add\n      swap2\n      swap1\n      0x00\n      mstore\n      keccak256(0x00, 0x20)\n      swap1\n    tag_111:\n      dup2\n      sload\n      dup2\n      mstore\n      swap1\n      0x01\n      add\n      swap1\n      0x20\n      add\n      dup1\n      dup4\n      gt\n      tag_111\n      jumpi\n      dup3\n      swap1\n      sub\n      0x1f\n      and\n      dup3\n      add\n      swap2\n    tag_109:\n      pop\n      pop\n      pop\n      pop\n      pop\n      dup2\n      mstore\n      0x20\n      add\n      0x02\n      dup3\n      add\n      dup1\n      sload\n      tag_112\n      swap1\n      tag_107\n      jump\t// in\n    tag_112:\n      dup1\n      0x1f\n      add\n      0x20\n      dup1\n      swap2\n      div\n      mul\n      0x20\n      add\n      mload(0x40)\n      swap1\n      dup2\n      add\n      0x40\n      mstore\n      dup1\n      swap3\n      swap2\n      swap1\n      dup2\n      dup2\n      mstore\n      0x20\n      add\n      dup3\n      dup1\n      sload\n      tag_113\n      swap1\n      tag_107\n      jump\t// in\n    tag_113:\n      dup1\n      iszero\n      tag_114\n      jumpi\n      dup1\n      0x1f\n      lt\n      tag_115\n      jumpi\n      0x0100\n      dup1\n      dup4\n      sload\n      div\n      mul\n      dup4\n      mstore\n      swap2\n      0x20\n      add\n      swap2\n      jump(tag_114)\n    tag_115:\n      dup3\n      add\n      swap2\n      swap1\n      0x00\n      mstore\n      keccak256(0x00, 0x20)\n      swap1\n    tag_116:\n      dup2\n      sload\n      dup2\n      mstore\n      swap1\n      0x01\n      add\n      swap1\n      0x20\n      add\n      dup1\n      dup4\n      gt\n      tag_116\n      jumpi\n      dup3\n      swap1\n      sub\n      0x1f\n      and\n      dup3\n      add\n      swap2\n    tag_114:\n      pop\n      pop\n      pop\n      pop\n      pop\n      dup2\n      mstore\n      0x20\n      add\n      0x03\n      dup3\n      add\n      0x00\n      swap1\n      sload\n      swap1\n      0x0100\n      exp\n      swap1\n      div\n      0xffffffffffffffffffffffffffffffffffffffff\n      and\n      0xffffffffffffffffffffffffffffffffffffffff\n      and\n      0xffffffffffffffffffffffffffffffffffffffff\n      and\n      dup2\n      mstore\n      0x20\n      add\n      0x04\n      dup3\n      add\n      0x00\n      swap1\n      sload\n      swap1\n      0x0100\n      exp\n      swap1\n      div\n      0xffffffffffffffffffffffffffffffffffffffff\n      and\n      0xffffffffffffffffffffffffffffffffffffffff\n      and\n      0xffffffffffffffffffffffffffffffffffffffff\n      and\n      dup2\n      mstore\n      0x20\n      add\n      0x05\n      dup3\n      add\n      sload\n      dup2\n      mstore\n      0x20\n      add\n      0x06\n      dup3\n      add\n      0x00\n      swap1\n      sload\n      swap1\n      0x0100\n      exp\n      swap1\n      div\n      0xffffffffffffffffffffffffffffffffffffffff\n      and\n      0xffffffffffffffffffffffffffffffffffffffff\n      and\n      0xffffffffffffffffffffffffffffffffffffffff\n      and\n      dup2\n      mstore\n      0x20\n      add\n      0x07\n      dup3\n      add\n      sload\n      dup2\n      mstore\n      0x20\n      add\n      0x08\n      dup3\n      add\n      0x00\n      swap1\n      sload\n      swap1\n      0x0100\n      exp\n      swap1\n      div\n      0xff\n      and\n      0x03\n      dup2\n      gt\n      iszero\n      tag_117\n      jumpi\n      tag_118\n      tag_119\n      jump\t// in\n    tag_118:\n    tag_117:\n      0x03\n      dup2\n      gt\n      iszero\n      tag_120\n      jumpi\n      tag_121\n      tag_119\n      jump\t// in\n    tag_121:\n    tag_120:\n      dup2\n      mstore\n      0x20\n      add\n      0x08\n      dup3\n      add\n      0x01\n      swap1\n      sload\n      swap1\n      0x0100\n      exp\n      swap1\n      div\n      0xff\n      and\n      iszero\n      iszero\n      iszero\n      iszero\n      dup2\n      mstore\n      pop\n      pop\n      swap1\n      pop\n        /* \"contracts/task.sol\":6424:6595  function getTask(uint256 taskId) external view returns (Task memory) {... */\n      swap2\n      swap1\n      pop\n      jump\t// out\n        /* \"contracts/task.sol\":623:643  IERC20 public token2 */\n    tag_35:\n      0x04\n      0x00\n      swap1\n      sload\n      swap1\n      0x0100\n      exp\n      swap1\n      div\n      0xffffffffffffffffffffffffffffffffffffffff\n      and\n      dup2\n      jump\t// out\n        /* \"contracts/task.sol\":4835:5987  function completeTask(uint256 taskId, address contributor) external nonReentrant {... */\n    tag_41:\n        /* \"@openzeppelin/contracts/security/ReentrancyGuard.sol\":2261:2282  _nonReentrantBefore() */\n      tag_123\n        /* \"@openzeppelin/contracts/security/ReentrancyGuard.sol\":2261:2280  _nonReentrantBefore */\n      tag_124\n        /* \"@openzeppelin/contracts/security/ReentrancyGuard.sol\":2261:2282  _nonReentrantBefore() */\n      jump\t// in\n    tag_123:\n        /* \"contracts/task.sol\":4927:4944  Task storage task */\n      0x00\n        /* \"contracts/task.sol\":4947:4952  tasks */\n      0x05\n        /* \"contracts/task.sol\":4947:4960  tasks[taskId] */\n      0x00\n        /* \"contracts/task.sol\":4953:4959  taskId */\n      dup5\n        /* \"contracts/task.sol\":4947:4960  tasks[taskId] */\n      dup2\n      mstore\n      0x20\n      add\n      swap1\n      dup2\n      mstore\n      0x20\n      add\n      0x00\n      keccak256\n        /* \"contracts/task.sol\":4927:4960  Task storage task = tasks[taskId] */\n      swap1\n      pop\n        /* \"contracts/task.sol\":4979:4983  task */\n      dup1\n        /* \"contracts/task.sol\":4979:4990  task.exists */\n      0x08\n      add\n      0x01\n      swap1\n      sload\n      swap1\n      0x0100\n      exp\n      swap1\n      div\n      0xff\n      and\n        /* \"contracts/task.sol\":4971:5014  require(task.exists, \"Task does not exist\") */\n      tag_126\n      jumpi\n      mload(0x40)\n      0x08c379a000000000000000000000000000000000000000000000000000000000\n      dup2\n      mstore\n      0x04\n      add\n      tag_127\n      swap1\n      tag_105\n      jump\t// in\n    tag_127:\n      mload(0x40)\n      dup1\n      swap2\n      sub\n      swap1\n      revert\n    tag_126:\n        /* \"contracts/task.sol\":5048:5070  TaskStatus.IN_PROGRESS */\n      0x01\n        /* \"contracts/task.sol\":5033:5070  task.status == TaskStatus.IN_PROGRESS */\n      0x03\n      dup2\n      gt\n      iszero\n      tag_128\n      jumpi\n      tag_129\n      tag_119\n      jump\t// in\n    tag_129:\n    tag_128:\n        /* \"contracts/task.sol\":5033:5037  task */\n      dup2\n        /* \"contracts/task.sol\":5033:5044  task.status */\n      0x08\n      add\n      0x00\n      swap1\n      sload\n      swap1\n      0x0100\n      exp\n      swap1\n      div\n      0xff\n      and\n        /* \"contracts/task.sol\":5033:5070  task.status == TaskStatus.IN_PROGRESS */\n      0x03\n      dup2\n      gt\n      iszero\n      tag_130\n      jumpi\n      tag_131\n      tag_119\n      jump\t// in\n    tag_131:\n    tag_130:\n      eq\n        /* \"contracts/task.sol\":5025:5095  require(task.status == TaskStatus.IN_PROGRESS, \"Task not in progress\") */\n      tag_132\n      jumpi\n      mload(0x40)\n      0x08c379a000000000000000000000000000000000000000000000000000000000\n      dup2\n      mstore\n      0x04\n      add\n      tag_133\n      swap1\n      tag_134\n      jump\t// in\n    tag_133:\n      mload(0x40)\n      dup1\n      swap2\n      sub\n      swap1\n      revert\n    tag_132:\n        /* \"contracts/task.sol\":5130:5140  msg.sender */\n      caller\n        /* \"contracts/task.sol\":5114:5140  task.creator == msg.sender */\n      0xffffffffffffffffffffffffffffffffffffffff\n      and\n        /* \"contracts/task.sol\":5114:5118  task */\n      dup2\n        /* \"contracts/task.sol\":5114:5126  task.creator */\n      0x03\n      add\n      0x00\n      swap1\n      sload\n      swap1\n      0x0100\n      exp\n      swap1\n      div\n      0xffffffffffffffffffffffffffffffffffffffff\n      and\n        /* \"contracts/task.sol\":5114:5140  task.creator == msg.sender */\n      0xffffffffffffffffffffffffffffffffffffffff\n      and\n      eq\n        /* \"contracts/task.sol\":5106:5170  require(task.creator == msg.sender, \"Only creator can complete\") */\n      tag_135\n      jumpi\n      mload(0x40)\n      0x08c379a000000000000000000000000000000000000000000000000000000000\n      dup2\n      mstore\n      0x04\n      add\n      tag_136\n      swap1\n      tag_137\n      jump\t// in\n    tag_136:\n      mload(0x40)\n      dup1\n      swap2\n      sub\n      swap1\n      revert\n    tag_135:\n        /* \"contracts/task.sol\":5206:5217  contributor */\n      dup2\n        /* \"contracts/task.sol\":5189:5217  task.assignee == contributor */\n      0xffffffffffffffffffffffffffffffffffffffff\n      and\n        /* \"contracts/task.sol\":5189:5193  task */\n      dup2\n        /* \"contracts/task.sol\":5189:5202  task.assignee */\n      0x04\n      add\n      0x00\n      swap1\n      sload\n      swap1\n      0x0100\n      exp\n      swap1\n      div\n      0xffffffffffffffffffffffffffffffffffffffff\n      and\n        /* \"contracts/task.sol\":5189:5217  task.assignee == contributor */\n      0xffffffffffffffffffffffffffffffffffffffff\n      and\n      eq\n        /* \"contracts/task.sol\":5181:5241  require(task.assignee == contributor, \"Invalid contributor\") */\n      tag_138\n      jumpi\n      mload(0x40)\n      0x08c379a000000000000000000000000000000000000000000000000000000000\n      dup2\n      mstore\n      0x04\n      add\n      tag_139\n      swap1\n      tag_140\n      jump\t// in\n    tag_139:\n      mload(0x40)\n      dup1\n      swap2\n      sub\n      swap1\n      revert\n    tag_138:\n        /* \"contracts/task.sol\":5254:5273  uint256 totalReward */\n      0x00\n        /* \"contracts/task.sol\":5276:5280  task */\n      dup2\n        /* \"contracts/task.sol\":5276:5287  task.reward */\n      0x05\n      add\n      sload\n        /* \"contracts/task.sol\":5254:5287  uint256 totalReward = task.reward */\n      swap1\n      pop\n        /* \"contracts/task.sol\":5298:5318  address tokenAddress */\n      0x00\n        /* \"contracts/task.sol\":5321:5325  task */\n      dup3\n        /* \"contracts/task.sol\":5321:5337  task.rewardToken */\n      0x06\n      add\n      0x00\n      swap1\n      sload\n      swap1\n      0x0100\n      exp\n      swap1\n      div\n      0xffffffffffffffffffffffffffffffffffffffff\n      and\n        /* \"contracts/task.sol\":5298:5337  address tokenAddress = task.rewardToken */\n      swap1\n      pop\n        /* \"contracts/task.sol\":5409:5410  0 */\n      0x00\n        /* \"contracts/task.sol\":5395:5406  totalReward */\n      dup3\n        /* \"contracts/task.sol\":5395:5410  totalReward > 0 */\n      gt\n        /* \"contracts/task.sol\":5387:5428  require(totalReward > 0, \"No reward set\") */\n      tag_141\n      jumpi\n      mload(0x40)\n      0x08c379a000000000000000000000000000000000000000000000000000000000\n      dup2\n      mstore\n      0x04\n      add\n      tag_142\n      swap1\n      tag_143\n      jump\t// in\n    tag_142:\n      mload(0x40)\n      dup1\n      swap2\n      sub\n      swap1\n      revert\n    tag_141:\n        /* \"contracts/task.sol\":5471:5472  0 */\n      0x00\n        /* \"contracts/task.sol\":5447:5473  tokenAddress != address(0) */\n      0xffffffffffffffffffffffffffffffffffffffff\n      and\n        /* \"contracts/task.sol\":5447:5459  tokenAddress */\n      dup2\n        /* \"contracts/task.sol\":5447:5473  tokenAddress != address(0) */\n      0xffffffffffffffffffffffffffffffffffffffff\n      and\n      sub\n        /* \"contracts/task.sol\":5439:5497  require(tokenAddress != address(0), \"Invalid token state\") */\n      tag_144\n      jumpi\n      mload(0x40)\n      0x08c379a000000000000000000000000000000000000000000000000000000000\n      dup2\n      mstore\n      0x04\n      add\n      tag_145\n      swap1\n      tag_146\n      jump\t// in\n    tag_145:\n      mload(0x40)\n      dup1\n      swap2\n      sub\n      swap1\n      revert\n    tag_144:\n        /* \"contracts/task.sol\":5538:5557  uint256 platformFee */\n      0x00\n        /* \"contracts/task.sol\":5581:5584  100 */\n      0x64\n        /* \"contracts/task.sol\":5575:5577  10 */\n      0x0a\n        /* \"contracts/task.sol\":5561:5572  totalReward */\n      dup5\n        /* \"contracts/task.sol\":5561:5577  totalReward * 10 */\n      tag_147\n      swap2\n      swap1\n      tag_148\n      jump\t// in\n    tag_147:\n        /* \"contracts/task.sol\":5560:5584  (totalReward * 10) / 100 */\n      tag_149\n      swap2\n      swap1\n      tag_150\n      jump\t// in\n    tag_149:\n        /* \"contracts/task.sol\":5538:5584  uint256 platformFee = (totalReward * 10) / 100 */\n      swap1\n      pop\n        /* \"contracts/task.sol\":5602:5627  uint256 contributorReward */\n      0x00\n        /* \"contracts/task.sol\":5644:5655  platformFee */\n      dup2\n        /* \"contracts/task.sol\":5630:5641  totalReward */\n      dup5\n        /* \"contracts/task.sol\":5630:5655  totalReward - platformFee */\n      tag_151\n      swap2\n      swap1\n      tag_152\n      jump\t// in\n    tag_151:\n        /* \"contracts/task.sol\":5602:5655  uint256 contributorReward = totalReward - platformFee */\n      swap1\n      pop\n        /* \"contracts/task.sol\":5682:5702  TaskStatus.COMPLETED */\n      0x02\n        /* \"contracts/task.sol\":5668:5672  task */\n      dup6\n        /* \"contracts/task.sol\":5668:5679  task.status */\n      0x08\n      add\n      0x00\n        /* \"contracts/task.sol\":5668:5702  task.status = TaskStatus.COMPLETED */\n      0x0100\n      exp\n      dup2\n      sload\n      dup2\n      0xff\n      mul\n      not\n      and\n      swap1\n      dup4\n      0x03\n      dup2\n      gt\n      iszero\n      tag_153\n      jumpi\n      tag_154\n      tag_119\n      jump\t// in\n    tag_154:\n    tag_153:\n      mul\n      or\n      swap1\n      sstore\n      pop\n        /* \"contracts/task.sol\":5734:5746  IERC20 token */\n      0x00\n        /* \"contracts/task.sol\":5756:5768  tokenAddress */\n      dup4\n        /* \"contracts/task.sol\":5734:5769  IERC20 token = IERC20(tokenAddress) */\n      swap1\n      pop\n        /* \"contracts/task.sol\":5780:5830  token.safeTransfer(contributor, contributorReward) */\n      tag_155\n        /* \"contracts/task.sol\":5799:5810  contributor */\n      dup8\n        /* \"contracts/task.sol\":5812:5829  contributorReward */\n      dup4\n        /* \"contracts/task.sol\":5780:5785  token */\n      dup4\n        /* \"contracts/task.sol\":5780:5798  token.safeTransfer */\n      0xffffffffffffffffffffffffffffffffffffffff\n      and\n      tag_156\n      swap1\n        /* \"contracts/task.sol\":5780:5830  token.safeTransfer(contributor, contributorReward) */\n      swap3\n      swap2\n      swap1\n      0xffffffff\n      and\n      jump\t// in\n    tag_155:\n        /* \"contracts/task.sol\":5841:5894  token.safeTransfer(platformFeeRecipient, platformFee) */\n      tag_157\n        /* \"contracts/task.sol\":5860:5880  platformFeeRecipient */\n      0x07\n      0x00\n      swap1\n      sload\n      swap1\n      0x0100\n      exp\n      swap1\n      div\n      0xffffffffffffffffffffffffffffffffffffffff\n      and\n        /* \"contracts/task.sol\":5882:5893  platformFee */\n      dup5\n        /* \"contracts/task.sol\":5841:5846  token */\n      dup4\n        /* \"contracts/task.sol\":5841:5859  token.safeTransfer */\n      0xffffffffffffffffffffffffffffffffffffffff\n      and\n      tag_156\n      swap1\n        /* \"contracts/task.sol\":5841:5894  token.safeTransfer(platformFeeRecipient, platformFee) */\n      swap3\n      swap2\n      swap1\n      0xffffffff\n      and\n      jump\t// in\n    tag_157:\n        /* \"contracts/task.sol\":5934:5945  contributor */\n      dup7\n        /* \"contracts/task.sol\":5912:5979  TaskCompleted(taskId, contributor, contributorReward, tokenAddress) */\n      0xffffffffffffffffffffffffffffffffffffffff\n      and\n        /* \"contracts/task.sol\":5926:5932  taskId */\n      dup9\n        /* \"contracts/task.sol\":5912:5979  TaskCompleted(taskId, contributor, contributorReward, tokenAddress) */\n      0xc6d0427713479611f0dfce819339656ff5371ac9b48a9f8a8a36e5a984a4ddd6\n        /* \"contracts/task.sol\":5947:5964  contributorReward */\n      dup5\n        /* \"contracts/task.sol\":5966:5978  tokenAddress */\n      dup8\n        /* \"contracts/task.sol\":5912:5979  TaskCompleted(taskId, contributor, contributorReward, tokenAddress) */\n      mload(0x40)\n      tag_158\n      swap3\n      swap2\n      swap1\n      tag_159\n      jump\t// in\n    tag_158:\n      mload(0x40)\n      dup1\n      swap2\n      sub\n      swap1\n      log3\n        /* \"contracts/task.sol\":4916:5987  {... */\n      pop\n      pop\n      pop\n      pop\n      pop\n      pop\n        /* \"@openzeppelin/contracts/security/ReentrancyGuard.sol\":2303:2323  _nonReentrantAfter() */\n      tag_160\n        /* \"@openzeppelin/contracts/security/ReentrancyGuard.sol\":2303:2321  _nonReentrantAfter */\n      tag_161\n        /* \"@openzeppelin/contracts/security/ReentrancyGuard.sol\":2303:2323  _nonReentrantAfter() */\n      jump\t// in\n    tag_160:\n        /* \"contracts/task.sol\":4835:5987  function completeTask(uint256 taskId, address contributor) external nonReentrant {... */\n      pop\n      pop\n      jump\t// out\n        /* \"contracts/task.sol\":2490:3322  function createTask(... */\n    tag_45:\n        /* \"contracts/task.sol\":2628:2635  uint256 */\n      0x00\n        /* \"contracts/task.sol\":2667:2682  block.timestamp */\n      timestamp\n        /* \"contracts/task.sol\":2656:2664  deadline */\n      dup3\n        /* \"contracts/task.sol\":2656:2682  deadline > block.timestamp */\n      gt\n        /* \"contracts/task.sol\":2648:2713  require(deadline > block.timestamp, \"Deadline must be in future\") */\n      tag_163\n      jumpi\n      mload(0x40)\n      0x08c379a000000000000000000000000000000000000000000000000000000000\n      dup2\n      mstore\n      0x04\n      add\n      tag_164\n      swap1\n      tag_165\n      jump\t// in\n    tag_164:\n      mload(0x40)\n      dup1\n      swap2\n      sub\n      swap1\n      revert\n    tag_163:\n        /* \"contracts/task.sol\":2726:2746  _taskIds.increment() */\n      tag_166\n        /* \"contracts/task.sol\":2726:2734  _taskIds */\n      0x02\n        /* \"contracts/task.sol\":2726:2744  _taskIds.increment */\n      tag_167\n        /* \"contracts/task.sol\":2726:2746  _taskIds.increment() */\n      jump\t// in\n    tag_166:\n        /* \"contracts/task.sol\":2757:2771  uint256 taskId */\n      0x00\n        /* \"contracts/task.sol\":2774:2792  _taskIds.current() */\n      tag_168\n        /* \"contracts/task.sol\":2774:2782  _taskIds */\n      0x02\n        /* \"contracts/task.sol\":2774:2790  _taskIds.current */\n      tag_169\n        /* \"contracts/task.sol\":2774:2792  _taskIds.current() */\n      jump\t// in\n    tag_168:\n        /* \"contracts/task.sol\":2757:2792  uint256 taskId = _taskIds.current() */\n      swap1\n      pop\n        /* \"contracts/task.sol\":2821:3187  Task({... */\n      mload(0x40)\n      dup1\n      0x0140\n      add\n      0x40\n      mstore\n      dup1\n        /* \"contracts/task.sol\":2845:2851  taskId */\n      dup3\n        /* \"contracts/task.sol\":2821:3187  Task({... */\n      dup2\n      mstore\n      0x20\n      add\n        /* \"contracts/task.sol\":2873:2878  title */\n      dup7\n        /* \"contracts/task.sol\":2821:3187  Task({... */\n      dup2\n      mstore\n      0x20\n      add\n        /* \"contracts/task.sol\":2906:2917  description */\n      dup6\n        /* \"contracts/task.sol\":2821:3187  Task({... */\n      dup2\n      mstore\n      0x20\n      add\n        /* \"contracts/task.sol\":2941:2951  msg.sender */\n      caller\n        /* \"contracts/task.sol\":2821:3187  Task({... */\n      0xffffffffffffffffffffffffffffffffffffffff\n      and\n      dup2\n      mstore\n      0x20\n      add\n        /* \"contracts/task.sol\":2984:2985  0 */\n      0x00\n        /* \"contracts/task.sol\":2821:3187  Task({... */\n      0xffffffffffffffffffffffffffffffffffffffff\n      and\n      dup2\n      mstore\n      0x20\n      add\n        /* \"contracts/task.sol\":3009:3010  0 */\n      0x00\n        /* \"contracts/task.sol\":2821:3187  Task({... */\n      dup2\n      mstore\n      0x20\n      add\n        /* \"contracts/task.sol\":3046:3047  0 */\n      0x00\n        /* \"contracts/task.sol\":2821:3187  Task({... */\n      0xffffffffffffffffffffffffffffffffffffffff\n      and\n      dup2\n      mstore\n      0x20\n      add\n        /* \"contracts/task.sol\":3102:3110  deadline */\n      dup5\n        /* \"contracts/task.sol\":2821:3187  Task({... */\n      dup2\n      mstore\n      0x20\n      add\n        /* \"contracts/task.sol\":3133:3148  TaskStatus.OPEN */\n      0x00\n        /* \"contracts/task.sol\":2821:3187  Task({... */\n      0x03\n      dup2\n      gt\n      iszero\n      tag_170\n      jumpi\n      tag_171\n      tag_119\n      jump\t// in\n    tag_171:\n    tag_170:\n      dup2\n      mstore\n      0x20\n      add\n        /* \"contracts/task.sol\":3171:3175  true */\n      0x01\n        /* \"contracts/task.sol\":2821:3187  Task({... */\n      iszero\n      iszero\n      dup2\n      mstore\n      pop\n        /* \"contracts/task.sol\":2805:2810  tasks */\n      0x05\n        /* \"contracts/task.sol\":2805:2818  tasks[taskId] */\n      0x00\n        /* \"contracts/task.sol\":2811:2817  taskId */\n      dup4\n        /* \"contracts/task.sol\":2805:2818  tasks[taskId] */\n      dup2\n      mstore\n      0x20\n      add\n      swap1\n      dup2\n      mstore\n      0x20\n      add\n      0x00\n      keccak256\n        /* \"contracts/task.sol\":2805:3187  tasks[taskId] = Task({... */\n      0x00\n      dup3\n      add\n      mload\n      dup2\n      0x00\n      add\n      sstore\n      0x20\n      dup3\n      add\n      mload\n      dup2\n      0x01\n      add\n      swap1\n      dup2\n      tag_172\n      swap2\n      swap1\n      tag_173\n      jump\t// in\n    tag_172:\n      pop\n      0x40\n      dup3\n      add\n      mload\n      dup2\n      0x02\n      add\n      swap1\n      dup2\n      tag_174\n      swap2\n      swap1\n      tag_173\n      jump\t// in\n    tag_174:\n      pop\n      0x60\n      dup3\n      add\n      mload\n      dup2\n      0x03\n      add\n      exp(0x0100, 0x00)\n      dup2\n      sload\n      dup2\n      0xffffffffffffffffffffffffffffffffffffffff\n      mul\n      not\n      and\n      swap1\n      dup4\n      0xffffffffffffffffffffffffffffffffffffffff\n      and\n      mul\n      or\n      swap1\n      sstore\n      pop\n      0x80\n      dup3\n      add\n      mload\n      dup2\n      0x04\n      add\n      exp(0x0100, 0x00)\n      dup2\n      sload\n      dup2\n      0xffffffffffffffffffffffffffffffffffffffff\n      mul\n      not\n      and\n      swap1\n      dup4\n      0xffffffffffffffffffffffffffffffffffffffff\n      and\n      mul\n      or\n      swap1\n      sstore\n      pop\n      0xa0\n      dup3\n      add\n      mload\n      dup2\n      0x05\n      add\n      sstore\n      0xc0\n      dup3\n      add\n      mload\n      dup2\n      0x06\n      add\n      exp(0x0100, 0x00)\n      dup2\n      sload\n      dup2\n      0xffffffffffffffffffffffffffffffffffffffff\n      mul\n      not\n      and\n      swap1\n      dup4\n      0xffffffffffffffffffffffffffffffffffffffff\n      and\n      mul\n      or\n      swap1\n      sstore\n      pop\n      0xe0\n      dup3\n      add\n      mload\n      dup2\n      0x07\n      add\n      sstore\n      0x0100\n      dup3\n      add\n      mload\n      dup2\n      0x08\n      add\n      exp(0x0100, 0x00)\n      dup2\n      sload\n      dup2\n      0xff\n      mul\n      not\n      and\n      swap1\n      dup4\n      0x03\n      dup2\n      gt\n      iszero\n      tag_175\n      jumpi\n      tag_176\n      tag_119\n      jump\t// in\n    tag_176:\n    tag_175:\n      mul\n      or\n      swap1\n      sstore\n      pop\n      0x0120\n      dup3\n      add\n      mload\n      dup2\n      0x08\n      add\n      exp(0x0100, 0x01)\n      dup2\n      sload\n      dup2\n      0xff\n      mul\n      not\n      and\n      swap1\n      dup4\n      iszero\n      iszero\n      mul\n      or\n      swap1\n      sstore\n      pop\n      swap1\n      pop\n      pop\n        /* \"contracts/task.sol\":3200:3209  userTasks */\n      0x06\n        /* \"contracts/task.sol\":3200:3221  userTasks[msg.sender] */\n      0x00\n        /* \"contracts/task.sol\":3210:3220  msg.sender */\n      caller\n        /* \"contracts/task.sol\":3200:3221  userTasks[msg.sender] */\n      0xffffffffffffffffffffffffffffffffffffffff\n      and\n      0xffffffffffffffffffffffffffffffffffffffff\n      and\n      dup2\n      mstore\n      0x20\n      add\n      swap1\n      dup2\n      mstore\n      0x20\n      add\n      0x00\n      keccak256\n        /* \"contracts/task.sol\":3227:3233  taskId */\n      dup2\n        /* \"contracts/task.sol\":3200:3234  userTasks[msg.sender].push(taskId) */\n      swap1\n      dup1\n      0x01\n      dup2\n      sload\n      add\n      dup1\n      dup3\n      sstore\n      dup1\n      swap2\n      pop\n      pop\n      0x01\n      swap1\n      sub\n      swap1\n      0x00\n      mstore\n      keccak256(0x00, 0x20)\n      add\n      0x00\n      swap1\n      swap2\n      swap1\n      swap2\n      swap1\n      swap2\n      pop\n      sstore\n        /* \"contracts/task.sol\":3277:3287  msg.sender */\n      caller\n        /* \"contracts/task.sol\":3250:3288  TaskCreated(taskId, title, msg.sender) */\n      0xffffffffffffffffffffffffffffffffffffffff\n      and\n        /* \"contracts/task.sol\":3262:3268  taskId */\n      dup2\n        /* \"contracts/task.sol\":3250:3288  TaskCreated(taskId, title, msg.sender) */\n      0xdc691e972cb25fd6e968744b5a6416d42a052ac1305e3b7ed6777b621304b7f2\n        /* \"contracts/task.sol\":3270:3275  title */\n      dup8\n        /* \"contracts/task.sol\":3250:3288  TaskCreated(taskId, title, msg.sender) */\n      mload(0x40)\n      tag_178\n      swap2\n      swap1\n      tag_179\n      jump\t// in\n    tag_178:\n      mload(0x40)\n      dup1\n      swap2\n      sub\n      swap1\n      log3\n        /* \"contracts/task.sol\":3308:3314  taskId */\n      dup1\n        /* \"contracts/task.sol\":3301:3314  return taskId */\n      swap2\n      pop\n      pop\n        /* \"contracts/task.sol\":2490:3322  function createTask(... */\n      swap4\n      swap3\n      pop\n      pop\n      pop\n      jump\t// out\n        /* \"contracts/task.sol\":1179:1225  mapping(address => uint256[]) public userTasks */\n    tag_51:\n      mstore(0x20, 0x06)\n      dup2\n      0x00\n      mstore\n      keccak256(0x00, 0x40)\n      dup2\n      dup2\n      sload\n      dup2\n      lt\n      tag_180\n      jumpi\n      0x00\n      dup1\n      revert\n    tag_180:\n      swap1\n      0x00\n      mstore\n      keccak256(0x00, 0x20)\n      add\n      0x00\n      swap2\n      pop\n      swap2\n      pop\n      pop\n      sload\n      dup2\n      jump\t// out\n        /* \"contracts/task.sol\":7121:7336  function emergencyWithdraw(address _tokenAddress) external onlyOwner {... */\n    tag_55:\n        /* \"@openzeppelin/contracts/access/Ownable.sol\":1531:1544  _checkOwner() */\n      tag_183\n        /* \"@openzeppelin/contracts/access/Ownable.sol\":1531:1542  _checkOwner */\n      tag_96\n        /* \"@openzeppelin/contracts/access/Ownable.sol\":1531:1544  _checkOwner() */\n      jump\t// in\n    tag_183:\n        /* \"contracts/task.sol\":7201:7216  uint256 balance */\n      0x00\n        /* \"contracts/task.sol\":7226:7239  _tokenAddress */\n      dup2\n        /* \"contracts/task.sol\":7219:7250  IERC20(_tokenAddress).balanceOf */\n      0xffffffffffffffffffffffffffffffffffffffff\n      and\n      0x70a08231\n        /* \"contracts/task.sol\":7259:7263  this */\n      address\n        /* \"contracts/task.sol\":7219:7265  IERC20(_tokenAddress).balanceOf(address(this)) */\n      mload(0x40)\n      dup3\n      0xffffffff\n      and\n      0xe0\n      shl\n      dup2\n      mstore\n      0x04\n      add\n      tag_185\n      swap2\n      swap1\n      tag_69\n      jump\t// in\n    tag_185:\n      0x20\n      mload(0x40)\n      dup1\n      dup4\n      sub\n      dup2\n      dup7\n      gas\n      staticcall\n      iszero\n      dup1\n      iszero\n      tag_187\n      jumpi\n      returndatacopy(0x00, 0x00, returndatasize)\n      revert(0x00, returndatasize)\n    tag_187:\n      pop\n      pop\n      pop\n      pop\n      mload(0x40)\n      returndatasize\n      not(0x1f)\n      0x1f\n      dup3\n      add\n      and\n      dup3\n      add\n      dup1\n      0x40\n      mstore\n      pop\n      dup2\n      add\n      swap1\n      tag_188\n      swap2\n      swap1\n      tag_189\n      jump\t// in\n    tag_188:\n        /* \"contracts/task.sol\":7201:7265  uint256 balance = IERC20(_tokenAddress).balanceOf(address(this)) */\n      swap1\n      pop\n        /* \"contracts/task.sol\":7276:7328  IERC20(_tokenAddress).safeTransfer(owner(), balance) */\n      tag_190\n        /* \"contracts/task.sol\":7311:7318  owner() */\n      tag_191\n        /* \"contracts/task.sol\":7311:7316  owner */\n      tag_67\n        /* \"contracts/task.sol\":7311:7318  owner() */\n      jump\t// in\n    tag_191:\n        /* \"contracts/task.sol\":7320:7327  balance */\n      dup3\n        /* \"contracts/task.sol\":7283:7296  _tokenAddress */\n      dup5\n        /* \"contracts/task.sol\":7276:7310  IERC20(_tokenAddress).safeTransfer */\n      0xffffffffffffffffffffffffffffffffffffffff\n      and\n      tag_156\n      swap1\n        /* \"contracts/task.sol\":7276:7328  IERC20(_tokenAddress).safeTransfer(owner(), balance) */\n      swap3\n      swap2\n      swap1\n      0xffffffff\n      and\n      jump\t// in\n    tag_190:\n        /* \"contracts/task.sol\":7190:7336  {... */\n      pop\n        /* \"contracts/task.sol\":7121:7336  function emergencyWithdraw(address _tokenAddress) external onlyOwner {... */\n      pop\n      jump\t// out\n        /* \"@openzeppelin/contracts/access/Ownable.sol\":2293:2394  function renounceOwnership() public virtual onlyOwner {... */\n    tag_57:\n        /* \"@openzeppelin/contracts/access/Ownable.sol\":1531:1544  _checkOwner() */\n      tag_193\n        /* \"@openzeppelin/contracts/access/Ownable.sol\":1531:1542  _checkOwner */\n      tag_96\n        /* \"@openzeppelin/contracts/access/Ownable.sol\":1531:1544  _checkOwner() */\n      jump\t// in\n    tag_193:\n        /* \"@openzeppelin/contracts/access/Ownable.sol\":2357:2387  _transferOwnership(address(0)) */\n      tag_195\n        /* \"@openzeppelin/contracts/access/Ownable.sol\":2384:2385  0 */\n      0x00\n        /* \"@openzeppelin/contracts/access/Ownable.sol\":2357:2375  _transferOwnership */\n      tag_196\n        /* \"@openzeppelin/contracts/access/Ownable.sol\":2357:2387  _transferOwnership(address(0)) */\n      jump\t// in\n    tag_195:\n        /* \"@openzeppelin/contracts/access/Ownable.sol\":2293:2394  function renounceOwnership() public virtual onlyOwner {... */\n      jump\t// out\n        /* \"contracts/task.sol\":5995:6385  function cancelTask(uint256 taskId) external nonReentrant {... */\n    tag_60:\n        /* \"@openzeppelin/contracts/security/ReentrancyGuard.sol\":2261:2282  _nonReentrantBefore() */\n      tag_198\n        /* \"@openzeppelin/contracts/security/ReentrancyGuard.sol\":2261:2280  _nonReentrantBefore */\n      tag_124\n        /* \"@openzeppelin/contracts/security/ReentrancyGuard.sol\":2261:2282  _nonReentrantBefore() */\n      jump\t// in\n    tag_198:\n        /* \"contracts/task.sol\":6064:6081  Task storage task */\n      0x00\n        /* \"contracts/task.sol\":6084:6089  tasks */\n      0x05\n        /* \"contracts/task.sol\":6084:6097  tasks[taskId] */\n      0x00\n        /* \"contracts/task.sol\":6090:6096  taskId */\n      dup4\n        /* \"contracts/task.sol\":6084:6097  tasks[taskId] */\n      dup2\n      mstore\n      0x20\n      add\n      swap1\n      dup2\n      mstore\n      0x20\n      add\n      0x00\n      keccak256\n        /* \"contracts/task.sol\":6064:6097  Task storage task = tasks[taskId] */\n      swap1\n      pop\n        /* \"contracts/task.sol\":6116:6120  task */\n      dup1\n        /* \"contracts/task.sol\":6116:6127  task.exists */\n      0x08\n      add\n      0x01\n      swap1\n      sload\n      swap1\n      0x0100\n      exp\n      swap1\n      div\n      0xff\n      and\n        /* \"contracts/task.sol\":6108:6151  require(task.exists, \"Task does not exist\") */\n      tag_200\n      jumpi\n      mload(0x40)\n      0x08c379a000000000000000000000000000000000000000000000000000000000\n      dup2\n      mstore\n      0x04\n      add\n      tag_201\n      swap1\n      tag_105\n      jump\t// in\n    tag_201:\n      mload(0x40)\n      dup1\n      swap2\n      sub\n      swap1\n      revert\n    tag_200:\n        /* \"contracts/task.sol\":6186:6196  msg.sender */\n      caller\n        /* \"contracts/task.sol\":6170:6196  task.creator == msg.sender */\n      0xffffffffffffffffffffffffffffffffffffffff\n      and\n        /* \"contracts/task.sol\":6170:6174  task */\n      dup2\n        /* \"contracts/task.sol\":6170:6182  task.creator */\n      0x03\n      add\n      0x00\n      swap1\n      sload\n      swap1\n      0x0100\n      exp\n      swap1\n      div\n      0xffffffffffffffffffffffffffffffffffffffff\n      and\n        /* \"contracts/task.sol\":6170:6196  task.creator == msg.sender */\n      0xffffffffffffffffffffffffffffffffffffffff\n      and\n      eq\n        /* \"contracts/task.sol\":6162:6212  require(task.creator == msg.sender, \"Not creator\") */\n      tag_202\n      jumpi\n      mload(0x40)\n      0x08c379a000000000000000000000000000000000000000000000000000000000\n      dup2\n      mstore\n      0x04\n      add\n      tag_203\n      swap1\n      tag_204\n      jump\t// in\n    tag_203:\n      mload(0x40)\n      dup1\n      swap2\n      sub\n      swap1\n      revert\n    tag_202:\n        /* \"contracts/task.sol\":6246:6261  TaskStatus.OPEN */\n      0x00\n        /* \"contracts/task.sol\":6231:6261  task.status == TaskStatus.OPEN */\n      0x03\n      dup2\n      gt\n      iszero\n      tag_205\n      jumpi\n      tag_206\n      tag_119\n      jump\t// in\n    tag_206:\n    tag_205:\n        /* \"contracts/task.sol\":6231:6235  task */\n      dup2\n        /* \"contracts/task.sol\":6231:6242  task.status */\n      0x08\n      add\n      0x00\n      swap1\n      sload\n      swap1\n      0x0100\n      exp\n      swap1\n      div\n      0xff\n      and\n        /* \"contracts/task.sol\":6231:6261  task.status == TaskStatus.OPEN */\n      0x03\n      dup2\n      gt\n      iszero\n      tag_207\n      jumpi\n      tag_208\n      tag_119\n      jump\t// in\n    tag_208:\n    tag_207:\n      eq\n        /* \"contracts/task.sol\":6223:6293  require(task.status == TaskStatus.OPEN, \"Cannot cancel assigned task\") */\n      tag_209\n      jumpi\n      mload(0x40)\n      0x08c379a000000000000000000000000000000000000000000000000000000000\n      dup2\n      mstore\n      0x04\n      add\n      tag_210\n      swap1\n      tag_211\n      jump\t// in\n    tag_210:\n      mload(0x40)\n      dup1\n      swap2\n      sub\n      swap1\n      revert\n    tag_209:\n        /* \"contracts/task.sol\":6320:6340  TaskStatus.CANCELLED */\n      0x03\n        /* \"contracts/task.sol\":6306:6310  task */\n      dup2\n        /* \"contracts/task.sol\":6306:6317  task.status */\n      0x08\n      add\n      0x00\n        /* \"contracts/task.sol\":6306:6340  task.status = TaskStatus.CANCELLED */\n      0x0100\n      exp\n      dup2\n      sload\n      dup2\n      0xff\n      mul\n      not\n      and\n      swap1\n      dup4\n      0x03\n      dup2\n      gt\n      iszero\n      tag_212\n      jumpi\n      tag_213\n      tag_119\n      jump\t// in\n    tag_213:\n    tag_212:\n      mul\n      or\n      swap1\n      sstore\n      pop\n        /* \"contracts/task.sol\":6370:6376  taskId */\n      dup2\n        /* \"contracts/task.sol\":6356:6377  TaskCancelled(taskId) */\n      0xc6eacc3aa5b2aa77b5a826b832a804ca0b71830ec74f9aa57a15edd978c31ed6\n      mload(0x40)\n      mload(0x40)\n      dup1\n      swap2\n      sub\n      swap1\n      log2\n        /* \"contracts/task.sol\":6053:6385  {... */\n      pop\n        /* \"@openzeppelin/contracts/security/ReentrancyGuard.sol\":2303:2323  _nonReentrantAfter() */\n      tag_214\n        /* \"@openzeppelin/contracts/security/ReentrancyGuard.sol\":2303:2321  _nonReentrantAfter */\n      tag_161\n        /* \"@openzeppelin/contracts/security/ReentrancyGuard.sol\":2303:2323  _nonReentrantAfter() */\n      jump\t// in\n    tag_214:\n        /* \"contracts/task.sol\":5995:6385  function cancelTask(uint256 taskId) external nonReentrant {... */\n      pop\n      jump\t// out\n        /* \"contracts/task.sol\":1135:1172  mapping(uint256 => Task) public tasks */\n    tag_63:\n      mstore(0x20, 0x05)\n      dup1\n      0x00\n      mstore\n      keccak256(0x00, 0x40)\n      0x00\n      swap2\n      pop\n      swap1\n      pop\n      dup1\n      0x00\n      add\n      sload\n      swap1\n      dup1\n      0x01\n      add\n      dup1\n      sload\n      tag_215\n      swap1\n      tag_107\n      jump\t// in\n    tag_215:\n      dup1\n      0x1f\n      add\n      0x20\n      dup1\n      swap2\n      div\n      mul\n      0x20\n      add\n      mload(0x40)\n      swap1\n      dup2\n      add\n      0x40\n      mstore\n      dup1\n      swap3\n      swap2\n      swap1\n      dup2\n      dup2\n      mstore\n      0x20\n      add\n      dup3\n      dup1\n      sload\n      tag_216\n      swap1\n      tag_107\n      jump\t// in\n    tag_216:\n      dup1\n      iszero\n      tag_217\n      jumpi\n      dup1\n      0x1f\n      lt\n      tag_218\n      jumpi\n      0x0100\n      dup1\n      dup4\n      sload\n      div\n      mul\n      dup4\n      mstore\n      swap2\n      0x20\n      add\n      swap2\n      jump(tag_217)\n    tag_218:\n      dup3\n      add\n      swap2\n      swap1\n      0x00\n      mstore\n      keccak256(0x00, 0x20)\n      swap1\n    tag_219:\n      dup2\n      sload\n      dup2\n      mstore\n      swap1\n      0x01\n      add\n      swap1\n      0x20\n      add\n      dup1\n      dup4\n      gt\n      tag_219\n      jumpi\n      dup3\n      swap1\n      sub\n      0x1f\n      and\n      dup3\n      add\n      swap2\n    tag_217:\n      pop\n      pop\n      pop\n      pop\n      pop\n      swap1\n      dup1\n      0x02\n      add\n      dup1\n      sload\n      tag_220\n      swap1\n      tag_107\n      jump\t// in\n    tag_220:\n      dup1\n      0x1f\n      add\n      0x20\n      dup1\n      swap2\n      div\n      mul\n      0x20\n      add\n      mload(0x40)\n      swap1\n      dup2\n      add\n      0x40\n      mstore\n      dup1\n      swap3\n      swap2\n      swap1\n      dup2\n      dup2\n      mstore\n      0x20\n      add\n      dup3\n      dup1\n      sload\n      tag_221\n      swap1\n      tag_107\n      jump\t// in\n    tag_221:\n      dup1\n      iszero\n      tag_222\n      jumpi\n      dup1\n      0x1f\n      lt\n      tag_223\n      jumpi\n      0x0100\n      dup1\n      dup4\n      sload\n      div\n      mul\n      dup4\n      mstore\n      swap2\n      0x20\n      add\n      swap2\n      jump(tag_222)\n    tag_223:\n      dup3\n      add\n      swap2\n      swap1\n      0x00\n      mstore\n      keccak256(0x00, 0x20)\n      swap1\n    tag_224:\n      dup2\n      sload\n      dup2\n      mstore\n      swap1\n      0x01\n      add\n      swap1\n      0x20\n      add\n      dup1\n      dup4\n      gt\n      tag_224\n      jumpi\n      dup3\n      swap1\n      sub\n      0x1f\n      and\n      dup3\n      add\n      swap2\n    tag_222:\n      pop\n      pop\n      pop\n      pop\n      pop\n      swap1\n      dup1\n      0x03\n      add\n      0x00\n      swap1\n      sload\n      swap1\n      0x0100\n      exp\n      swap1\n      div\n      0xffffffffffffffffffffffffffffffffffffffff\n      and\n      swap1\n      dup1\n      0x04\n      add\n      0x00\n      swap1\n      sload\n      swap1\n      0x0100\n      exp\n      swap1\n      div\n      0xffffffffffffffffffffffffffffffffffffffff\n      and\n      swap1\n      dup1\n      0x05\n      add\n      sload\n      swap1\n      dup1\n      0x06\n      add\n      0x00\n      swap1\n      sload\n      swap1\n      0x0100\n      exp\n      swap1\n      div\n      0xffffffffffffffffffffffffffffffffffffffff\n      and\n      swap1\n      dup1\n      0x07\n      add\n      sload\n      swap1\n      dup1\n      0x08\n      add\n      0x00\n      swap1\n      sload\n      swap1\n      0x0100\n      exp\n      swap1\n      div\n      0xff\n      and\n      swap1\n      dup1\n      0x08\n      add\n      0x01\n      swap1\n      sload\n      swap1\n      0x0100\n      exp\n      swap1\n      div\n      0xff\n      and\n      swap1\n      pop\n      dup11\n      jump\t// out\n        /* \"@openzeppelin/contracts/access/Ownable.sol\":1638:1723  function owner() public view virtual returns (address) {... */\n    tag_67:\n        /* \"@openzeppelin/contracts/access/Ownable.sol\":1684:1691  address */\n      0x00\n        /* \"@openzeppelin/contracts/access/Ownable.sol\":1710:1716  _owner */\n      0x00\n      0x00\n      swap1\n      sload\n      swap1\n      0x0100\n      exp\n      swap1\n      div\n      0xffffffffffffffffffffffffffffffffffffffff\n      and\n        /* \"@openzeppelin/contracts/access/Ownable.sol\":1703:1716  return _owner */\n      swap1\n      pop\n        /* \"@openzeppelin/contracts/access/Ownable.sol\":1638:1723  function owner() public view virtual returns (address) {... */\n      swap1\n      jump\t// out\n        /* \"contracts/task.sol\":6603:6721  function getUserTasks(address user) external view returns (uint256[] memory) {... */\n    tag_72:\n        /* \"contracts/task.sol\":6662:6678  uint256[] memory */\n      0x60\n        /* \"contracts/task.sol\":6698:6707  userTasks */\n      0x06\n        /* \"contracts/task.sol\":6698:6713  userTasks[user] */\n      0x00\n        /* \"contracts/task.sol\":6708:6712  user */\n      dup4\n        /* \"contracts/task.sol\":6698:6713  userTasks[user] */\n      0xffffffffffffffffffffffffffffffffffffffff\n      and\n      0xffffffffffffffffffffffffffffffffffffffff\n      and\n      dup2\n      mstore\n      0x20\n      add\n      swap1\n      dup2\n      mstore\n      0x20\n      add\n      0x00\n      keccak256\n        /* \"contracts/task.sol\":6691:6713  return userTasks[user] */\n      dup1\n      sload\n      dup1\n      0x20\n      mul\n      0x20\n      add\n      mload(0x40)\n      swap1\n      dup2\n      add\n      0x40\n      mstore\n      dup1\n      swap3\n      swap2\n      swap1\n      dup2\n      dup2\n      mstore\n      0x20\n      add\n      dup3\n      dup1\n      sload\n      dup1\n      iszero\n      tag_227\n      jumpi\n      0x20\n      mul\n      dup3\n      add\n      swap2\n      swap1\n      0x00\n      mstore\n      keccak256(0x00, 0x20)\n      swap1\n    tag_228:\n      dup2\n      sload\n      dup2\n      mstore\n      0x20\n      add\n      swap1\n      0x01\n      add\n      swap1\n      dup1\n      dup4\n      gt\n      tag_228\n      jumpi\n    tag_227:\n      pop\n      pop\n      pop\n      pop\n      pop\n      swap1\n      pop\n        /* \"contracts/task.sol\":6603:6721  function getUserTasks(address user) external view returns (uint256[] memory) {... */\n      swap2\n      swap1\n      pop\n      jump\t// out\n        /* \"contracts/task.sol\":3423:4827  function hireContributor(... */\n    tag_78:\n        /* \"@openzeppelin/contracts/security/ReentrancyGuard.sol\":2261:2282  _nonReentrantBefore() */\n      tag_230\n        /* \"@openzeppelin/contracts/security/ReentrancyGuard.sol\":2261:2280  _nonReentrantBefore */\n      tag_124\n        /* \"@openzeppelin/contracts/security/ReentrancyGuard.sol\":2261:2282  _nonReentrantBefore() */\n      jump\t// in\n    tag_230:\n        /* \"contracts/task.sol\":3670:3671  0 */\n      0x00\n        /* \"contracts/task.sol\":3647:3672  contributor != address(0) */\n      0xffffffffffffffffffffffffffffffffffffffff\n      and\n        /* \"contracts/task.sol\":3647:3658  contributor */\n      dup4\n        /* \"contracts/task.sol\":3647:3672  contributor != address(0) */\n      0xffffffffffffffffffffffffffffffffffffffff\n      and\n      sub\n        /* \"contracts/task.sol\":3639:3696  require(contributor != address(0), \"Invalid contributor\") */\n      tag_232\n      jumpi\n      mload(0x40)\n      0x08c379a000000000000000000000000000000000000000000000000000000000\n      dup2\n      mstore\n      0x04\n      add\n      tag_233\n      swap1\n      tag_140\n      jump\t// in\n    tag_233:\n      mload(0x40)\n      dup1\n      swap2\n      sub\n      swap1\n      revert\n    tag_232:\n        /* \"contracts/task.sol\":3724:3725  0 */\n      0x00\n        /* \"contracts/task.sol\":3715:3721  reward */\n      dup3\n        /* \"contracts/task.sol\":3715:3725  reward > 0 */\n      gt\n        /* \"contracts/task.sol\":3707:3748  require(reward > 0, \"Reward must be > 0\") */\n      tag_234\n      jumpi\n      mload(0x40)\n      0x08c379a000000000000000000000000000000000000000000000000000000000\n      dup2\n      mstore\n      0x04\n      add\n      tag_235\n      swap1\n      tag_236\n      jump\t// in\n    tag_235:\n      mload(0x40)\n      dup1\n      swap2\n      sub\n      swap1\n      revert\n    tag_234:\n        /* \"contracts/task.sol\":3788:3801  bool isToken1 */\n      0x00\n        /* \"contracts/task.sol\":3830:3836  token1 */\n      0x03\n      0x00\n      swap1\n      sload\n      swap1\n      0x0100\n      exp\n      swap1\n      div\n      0xffffffffffffffffffffffffffffffffffffffff\n      and\n        /* \"contracts/task.sol\":3805:3837  _paymentToken == address(token1) */\n      0xffffffffffffffffffffffffffffffffffffffff\n      and\n        /* \"contracts/task.sol\":3805:3818  _paymentToken */\n      dup3\n        /* \"contracts/task.sol\":3805:3837  _paymentToken == address(token1) */\n      0xffffffffffffffffffffffffffffffffffffffff\n      and\n      eq\n        /* \"contracts/task.sol\":3805:3870  _paymentToken == address(token1) && address(token1) != address(0) */\n      dup1\n      iszero\n      tag_237\n      jumpi\n      pop\n        /* \"contracts/task.sol\":3868:3869  0 */\n      0x00\n        /* \"contracts/task.sol\":3841:3870  address(token1) != address(0) */\n      0xffffffffffffffffffffffffffffffffffffffff\n      and\n        /* \"contracts/task.sol\":3849:3855  token1 */\n      0x03\n      0x00\n      swap1\n      sload\n      swap1\n      0x0100\n      exp\n      swap1\n      div\n      0xffffffffffffffffffffffffffffffffffffffff\n      and\n        /* \"contracts/task.sol\":3841:3870  address(token1) != address(0) */\n      0xffffffffffffffffffffffffffffffffffffffff\n      and\n      eq\n      iszero\n        /* \"contracts/task.sol\":3805:3870  _paymentToken == address(token1) && address(token1) != address(0) */\n    tag_237:\n        /* \"contracts/task.sol\":3788:3871  bool isToken1 = (_paymentToken == address(token1) && address(token1) != address(0)) */\n      swap1\n      pop\n        /* \"contracts/task.sol\":3882:3895  bool isToken2 */\n      0x00\n        /* \"contracts/task.sol\":3924:3930  token2 */\n      0x04\n      0x00\n      swap1\n      sload\n      swap1\n      0x0100\n      exp\n      swap1\n      div\n      0xffffffffffffffffffffffffffffffffffffffff\n      and\n        /* \"contracts/task.sol\":3899:3931  _paymentToken == address(token2) */\n      0xffffffffffffffffffffffffffffffffffffffff\n      and\n        /* \"contracts/task.sol\":3899:3912  _paymentToken */\n      dup4\n        /* \"contracts/task.sol\":3899:3931  _paymentToken == address(token2) */\n      0xffffffffffffffffffffffffffffffffffffffff\n      and\n      eq\n        /* \"contracts/task.sol\":3899:3964  _paymentToken == address(token2) && address(token2) != address(0) */\n      dup1\n      iszero\n      tag_238\n      jumpi\n      pop\n        /* \"contracts/task.sol\":3962:3963  0 */\n      0x00\n        /* \"contracts/task.sol\":3935:3964  address(token2) != address(0) */\n      0xffffffffffffffffffffffffffffffffffffffff\n      and\n        /* \"contracts/task.sol\":3943:3949  token2 */\n      0x04\n      0x00\n      swap1\n      sload\n      swap1\n      0x0100\n      exp\n      swap1\n      div\n      0xffffffffffffffffffffffffffffffffffffffff\n      and\n        /* \"contracts/task.sol\":3935:3964  address(token2) != address(0) */\n      0xffffffffffffffffffffffffffffffffffffffff\n      and\n      eq\n      iszero\n        /* \"contracts/task.sol\":3899:3964  _paymentToken == address(token2) && address(token2) != address(0) */\n    tag_238:\n        /* \"contracts/task.sol\":3882:3965  bool isToken2 = (_paymentToken == address(token2) && address(token2) != address(0)) */\n      swap1\n      pop\n        /* \"contracts/task.sol\":3984:3992  isToken1 */\n      dup2\n        /* \"contracts/task.sol\":3984:4004  isToken1 || isToken2 */\n      dup1\n      tag_239\n      jumpi\n      pop\n        /* \"contracts/task.sol\":3996:4004  isToken2 */\n      dup1\n        /* \"contracts/task.sol\":3984:4004  isToken1 || isToken2 */\n    tag_239:\n        /* \"contracts/task.sol\":3976:4028  require(isToken1 || isToken2, \"Token not supported\") */\n      tag_240\n      jumpi\n      mload(0x40)\n      0x08c379a000000000000000000000000000000000000000000000000000000000\n      dup2\n      mstore\n      0x04\n      add\n      tag_241\n      swap1\n      tag_242\n      jump\t// in\n    tag_241:\n      mload(0x40)\n      dup1\n      swap2\n      sub\n      swap1\n      revert\n    tag_240:\n        /* \"contracts/task.sol\":4041:4058  Task storage task */\n      0x00\n        /* \"contracts/task.sol\":4061:4066  tasks */\n      0x05\n        /* \"contracts/task.sol\":4061:4074  tasks[taskId] */\n      0x00\n        /* \"contracts/task.sol\":4067:4073  taskId */\n      dup9\n        /* \"contracts/task.sol\":4061:4074  tasks[taskId] */\n      dup2\n      mstore\n      0x20\n      add\n      swap1\n      dup2\n      mstore\n      0x20\n      add\n      0x00\n      keccak256\n        /* \"contracts/task.sol\":4041:4074  Task storage task = tasks[taskId] */\n      swap1\n      pop\n        /* \"contracts/task.sol\":4093:4097  task */\n      dup1\n        /* \"contracts/task.sol\":4093:4104  task.exists */\n      0x08\n      add\n      0x01\n      swap1\n      sload\n      swap1\n      0x0100\n      exp\n      swap1\n      div\n      0xff\n      and\n        /* \"contracts/task.sol\":4085:4128  require(task.exists, \"Task does not exist\") */\n      tag_243\n      jumpi\n      mload(0x40)\n      0x08c379a000000000000000000000000000000000000000000000000000000000\n      dup2\n      mstore\n      0x04\n      add\n      tag_244\n      swap1\n      tag_105\n      jump\t// in\n    tag_244:\n      mload(0x40)\n      dup1\n      swap2\n      sub\n      swap1\n      revert\n    tag_243:\n        /* \"contracts/task.sol\":4163:4173  msg.sender */\n      caller\n        /* \"contracts/task.sol\":4147:4173  task.creator == msg.sender */\n      0xffffffffffffffffffffffffffffffffffffffff\n      and\n        /* \"contracts/task.sol\":4147:4151  task */\n      dup2\n        /* \"contracts/task.sol\":4147:4159  task.creator */\n      0x03\n      add\n      0x00\n      swap1\n      sload\n      swap1\n      0x0100\n      exp\n      swap1\n      div\n      0xffffffffffffffffffffffffffffffffffffffff\n      and\n        /* \"contracts/task.sol\":4147:4173  task.creator == msg.sender */\n      0xffffffffffffffffffffffffffffffffffffffff\n      and\n      eq\n        /* \"contracts/task.sol\":4139:4199  require(task.creator == msg.sender, \"Only creator can hire\") */\n      tag_245\n      jumpi\n      mload(0x40)\n      0x08c379a000000000000000000000000000000000000000000000000000000000\n      dup2\n      mstore\n      0x04\n      add\n      tag_246\n      swap1\n      tag_247\n      jump\t// in\n    tag_246:\n      mload(0x40)\n      dup1\n      swap2\n      sub\n      swap1\n      revert\n    tag_245:\n        /* \"contracts/task.sol\":4233:4248  TaskStatus.OPEN */\n      0x00\n        /* \"contracts/task.sol\":4218:4248  task.status == TaskStatus.OPEN */\n      0x03\n      dup2\n      gt\n      iszero\n      tag_248\n      jumpi\n      tag_249\n      tag_119\n      jump\t// in\n    tag_249:\n    tag_248:\n        /* \"contracts/task.sol\":4218:4222  task */\n      dup2\n        /* \"contracts/task.sol\":4218:4229  task.status */\n      0x08\n      add\n      0x00\n      swap1\n      sload\n      swap1\n      0x0100\n      exp\n      swap1\n      div\n      0xff\n      and\n        /* \"contracts/task.sol\":4218:4248  task.status == TaskStatus.OPEN */\n      0x03\n      dup2\n      gt\n      iszero\n      tag_250\n      jumpi\n      tag_251\n      tag_119\n      jump\t// in\n    tag_251:\n    tag_250:\n      eq\n        /* \"contracts/task.sol\":4210:4266  require(task.status == TaskStatus.OPEN, \"Task not open\") */\n      tag_252\n      jumpi\n      mload(0x40)\n      0x08c379a000000000000000000000000000000000000000000000000000000000\n      dup2\n      mstore\n      0x04\n      add\n      tag_253\n      swap1\n      tag_254\n      jump\t// in\n    tag_253:\n      mload(0x40)\n      dup1\n      swap2\n      sub\n      swap1\n      revert\n    tag_252:\n        /* \"contracts/task.sol\":4310:4311  0 */\n      0x00\n        /* \"contracts/task.sol\":4285:4312  task.assignee == address(0) */\n      0xffffffffffffffffffffffffffffffffffffffff\n      and\n        /* \"contracts/task.sol\":4285:4289  task */\n      dup2\n        /* \"contracts/task.sol\":4285:4298  task.assignee */\n      0x04\n      add\n      0x00\n      swap1\n      sload\n      swap1\n      0x0100\n      exp\n      swap1\n      div\n      0xffffffffffffffffffffffffffffffffffffffff\n      and\n        /* \"contracts/task.sol\":4285:4312  task.assignee == address(0) */\n      0xffffffffffffffffffffffffffffffffffffffff\n      and\n      eq\n        /* \"contracts/task.sol\":4277:4333  require(task.assignee == address(0), \"Already assigned\") */\n      tag_255\n      jumpi\n      mload(0x40)\n      0x08c379a000000000000000000000000000000000000000000000000000000000\n      dup2\n      mstore\n      0x04\n      add\n      tag_256\n      swap1\n      tag_257\n      jump\t// in\n    tag_256:\n      mload(0x40)\n      dup1\n      swap2\n      sub\n      swap1\n      revert\n    tag_255:\n        /* \"contracts/task.sol\":4403:4476  IERC20(_paymentToken).safeTransferFrom(msg.sender, address(this), reward) */\n      tag_258\n        /* \"contracts/task.sol\":4442:4452  msg.sender */\n      caller\n        /* \"contracts/task.sol\":4462:4466  this */\n      address\n        /* \"contracts/task.sol\":4469:4475  reward */\n      dup8\n        /* \"contracts/task.sol\":4410:4423  _paymentToken */\n      dup8\n        /* \"contracts/task.sol\":4403:4441  IERC20(_paymentToken).safeTransferFrom */\n      0xffffffffffffffffffffffffffffffffffffffff\n      and\n      tag_259\n      swap1\n        /* \"contracts/task.sol\":4403:4476  IERC20(_paymentToken).safeTransferFrom(msg.sender, address(this), reward) */\n      swap4\n      swap3\n      swap2\n      swap1\n      0xffffffff\n      and\n      jump\t// in\n    tag_258:\n        /* \"contracts/task.sol\":4535:4546  contributor */\n      dup6\n        /* \"contracts/task.sol\":4519:4523  task */\n      dup2\n        /* \"contracts/task.sol\":4519:4532  task.assignee */\n      0x04\n      add\n      0x00\n        /* \"contracts/task.sol\":4519:4546  task.assignee = contributor */\n      0x0100\n      exp\n      dup2\n      sload\n      dup2\n      0xffffffffffffffffffffffffffffffffffffffff\n      mul\n      not\n      and\n      swap1\n      dup4\n      0xffffffffffffffffffffffffffffffffffffffff\n      and\n      mul\n      or\n      swap1\n      sstore\n      pop\n        /* \"contracts/task.sol\":4571:4577  reward */\n      dup5\n        /* \"contracts/task.sol\":4557:4561  task */\n      dup2\n        /* \"contracts/task.sol\":4557:4568  task.reward */\n      0x05\n      add\n        /* \"contracts/task.sol\":4557:4577  task.reward = reward */\n      dup2\n      swap1\n      sstore\n      pop\n        /* \"contracts/task.sol\":4607:4620  _paymentToken */\n      dup4\n        /* \"contracts/task.sol\":4588:4592  task */\n      dup2\n        /* \"contracts/task.sol\":4588:4604  task.rewardToken */\n      0x06\n      add\n      0x00\n        /* \"contracts/task.sol\":4588:4620  task.rewardToken = _paymentToken */\n      0x0100\n      exp\n      dup2\n      sload\n      dup2\n      0xffffffffffffffffffffffffffffffffffffffff\n      mul\n      not\n      and\n      swap1\n      dup4\n      0xffffffffffffffffffffffffffffffffffffffff\n      and\n      mul\n      or\n      swap1\n      sstore\n      pop\n        /* \"contracts/task.sol\":4671:4693  TaskStatus.IN_PROGRESS */\n      0x01\n        /* \"contracts/task.sol\":4657:4661  task */\n      dup2\n        /* \"contracts/task.sol\":4657:4668  task.status */\n      0x08\n      add\n      0x00\n        /* \"contracts/task.sol\":4657:4693  task.status = TaskStatus.IN_PROGRESS */\n      0x0100\n      exp\n      dup2\n      sload\n      dup2\n      0xff\n      mul\n      not\n      and\n      swap1\n      dup4\n      0x03\n      dup2\n      gt\n      iszero\n      tag_260\n      jumpi\n      tag_261\n      tag_119\n      jump\t// in\n    tag_261:\n    tag_260:\n      mul\n      or\n      swap1\n      sstore\n      pop\n        /* \"contracts/task.sol\":4706:4715  userTasks */\n      0x06\n        /* \"contracts/task.sol\":4706:4728  userTasks[contributor] */\n      0x00\n        /* \"contracts/task.sol\":4716:4727  contributor */\n      dup8\n        /* \"contracts/task.sol\":4706:4728  userTasks[contributor] */\n      0xffffffffffffffffffffffffffffffffffffffff\n      and\n      0xffffffffffffffffffffffffffffffffffffffff\n      and\n      dup2\n      mstore\n      0x20\n      add\n      swap1\n      dup2\n      mstore\n      0x20\n      add\n      0x00\n      keccak256\n        /* \"contracts/task.sol\":4734:4740  taskId */\n      dup8\n        /* \"contracts/task.sol\":4706:4741  userTasks[contributor].push(taskId) */\n      swap1\n      dup1\n      0x01\n      dup2\n      sload\n      add\n      dup1\n      dup3\n      sstore\n      dup1\n      swap2\n      pop\n      pop\n      0x01\n      swap1\n      sub\n      swap1\n      0x00\n      mstore\n      keccak256(0x00, 0x20)\n      add\n      0x00\n      swap1\n      swap2\n      swap1\n      swap2\n      swap1\n      swap2\n      pop\n      sstore\n        /* \"contracts/task.sol\":4784:4795  contributor */\n      dup6\n        /* \"contracts/task.sol\":4759:4819  ContributorHired(taskId, contributor, reward, _paymentToken) */\n      0xffffffffffffffffffffffffffffffffffffffff\n      and\n        /* \"contracts/task.sol\":4776:4782  taskId */\n      dup8\n        /* \"contracts/task.sol\":4759:4819  ContributorHired(taskId, contributor, reward, _paymentToken) */\n      0xaf1ead7c979eb7513634b65a718a3e09820b4415161e8103d18d762f19cc5cfc\n        /* \"contracts/task.sol\":4797:4803  reward */\n      dup8\n        /* \"contracts/task.sol\":4805:4818  _paymentToken */\n      dup8\n        /* \"contracts/task.sol\":4759:4819  ContributorHired(taskId, contributor, reward, _paymentToken) */\n      mload(0x40)\n      tag_263\n      swap3\n      swap2\n      swap1\n      tag_159\n      jump\t// in\n    tag_263:\n      mload(0x40)\n      dup1\n      swap2\n      sub\n      swap1\n      log3\n        /* \"contracts/task.sol\":3628:4827  {... */\n      pop\n      pop\n      pop\n        /* \"@openzeppelin/contracts/security/ReentrancyGuard.sol\":2303:2323  _nonReentrantAfter() */\n      tag_264\n        /* \"@openzeppelin/contracts/security/ReentrancyGuard.sol\":2303:2321  _nonReentrantAfter */\n      tag_161\n        /* \"@openzeppelin/contracts/security/ReentrancyGuard.sol\":2303:2323  _nonReentrantAfter() */\n      jump\t// in\n    tag_264:\n        /* \"contracts/task.sol\":3423:4827  function hireContributor(... */\n      pop\n      pop\n      pop\n      pop\n      jump\t// out\n        /* \"contracts/task.sol\":6833:6983  function withdrawFees(address _tokenAddress, uint256 amount) external onlyOwner {... */\n    tag_81:\n        /* \"@openzeppelin/contracts/access/Ownable.sol\":1531:1544  _checkOwner() */\n      tag_266\n        /* \"@openzeppelin/contracts/access/Ownable.sol\":1531:1542  _checkOwner */\n      tag_96\n        /* \"@openzeppelin/contracts/access/Ownable.sol\":1531:1544  _checkOwner() */\n      jump\t// in\n    tag_266:\n        /* \"contracts/task.sol\":6924:6975  IERC20(_tokenAddress).safeTransfer(owner(), amount) */\n      tag_268\n        /* \"contracts/task.sol\":6959:6966  owner() */\n      tag_269\n        /* \"contracts/task.sol\":6959:6964  owner */\n      tag_67\n        /* \"contracts/task.sol\":6959:6966  owner() */\n      jump\t// in\n    tag_269:\n        /* \"contracts/task.sol\":6968:6974  amount */\n      dup3\n        /* \"contracts/task.sol\":6931:6944  _tokenAddress */\n      dup5\n        /* \"contracts/task.sol\":6924:6958  IERC20(_tokenAddress).safeTransfer */\n      0xffffffffffffffffffffffffffffffffffffffff\n      and\n      tag_156\n      swap1\n        /* \"contracts/task.sol\":6924:6975  IERC20(_tokenAddress).safeTransfer(owner(), amount) */\n      swap3\n      swap2\n      swap1\n      0xffffffff\n      and\n      jump\t// in\n    tag_268:\n        /* \"contracts/task.sol\":6833:6983  function withdrawFees(address _tokenAddress, uint256 amount) external onlyOwner {... */\n      pop\n      pop\n      jump\t// out\n        /* \"contracts/task.sol\":2282:2453  function updateToken2(address _newToken) external onlyOwner {... */\n    tag_84:\n        /* \"@openzeppelin/contracts/access/Ownable.sol\":1531:1544  _checkOwner() */\n      tag_271\n        /* \"@openzeppelin/contracts/access/Ownable.sol\":1531:1542  _checkOwner */\n      tag_96\n        /* \"@openzeppelin/contracts/access/Ownable.sol\":1531:1544  _checkOwner() */\n      jump\t// in\n    tag_271:\n        /* \"contracts/task.sol\":2358:2408  TokenUpdated(\"Token2\", address(token2), _newToken) */\n      0xe1dfa83513a4b65c296bc64d8a68945cb723d798739225012d7167dbb2d6e3fc\n        /* \"contracts/task.sol\":2389:2395  token2 */\n      0x04\n      0x00\n      swap1\n      sload\n      swap1\n      0x0100\n      exp\n      swap1\n      div\n      0xffffffffffffffffffffffffffffffffffffffff\n      and\n        /* \"contracts/task.sol\":2398:2407  _newToken */\n      dup3\n        /* \"contracts/task.sol\":2358:2408  TokenUpdated(\"Token2\", address(token2), _newToken) */\n      mload(0x40)\n      tag_273\n      swap3\n      swap2\n      swap1\n      tag_274\n      jump\t// in\n    tag_273:\n      mload(0x40)\n      dup1\n      swap2\n      sub\n      swap1\n      log1\n        /* \"contracts/task.sol\":2435:2444  _newToken */\n      dup1\n        /* \"contracts/task.sol\":2419:2425  token2 */\n      0x04\n      0x00\n        /* \"contracts/task.sol\":2419:2445  token2 = IERC20(_newToken) */\n      0x0100\n      exp\n      dup2\n      sload\n      dup2\n      0xffffffffffffffffffffffffffffffffffffffff\n      mul\n      not\n      and\n      swap1\n      dup4\n      0xffffffffffffffffffffffffffffffffffffffff\n      and\n      mul\n      or\n      swap1\n      sstore\n      pop\n        /* \"contracts/task.sol\":2282:2453  function updateToken2(address _newToken) external onlyOwner {... */\n      pop\n      jump\t// out\n        /* \"contracts/task.sol\":582:602  IERC20 public token1 */\n    tag_86:\n      0x03\n      0x00\n      swap1\n      sload\n      swap1\n      0x0100\n      exp\n      swap1\n      div\n      0xffffffffffffffffffffffffffffffffffffffff\n      and\n      dup2\n      jump\t// out\n        /* \"contracts/task.sol\":1679:1714  address public platformFeeRecipient */\n    tag_89:\n      0x07\n      0x00\n      swap1\n      sload\n      swap1\n      0x0100\n      exp\n      swap1\n      div\n      0xffffffffffffffffffffffffffffffffffffffff\n      and\n      dup2\n      jump\t// out\n        /* \"@openzeppelin/contracts/access/Ownable.sol\":2543:2758  function transferOwnership(address newOwner) public virtual onlyOwner {... */\n    tag_93:\n        /* \"@openzeppelin/contracts/access/Ownable.sol\":1531:1544  _checkOwner() */\n      tag_276\n        /* \"@openzeppelin/contracts/access/Ownable.sol\":1531:1542  _checkOwner */\n      tag_96\n        /* \"@openzeppelin/contracts/access/Ownable.sol\":1531:1544  _checkOwner() */\n      jump\t// in\n    tag_276:\n        /* \"@openzeppelin/contracts/access/Ownable.sol\":2647:2648  0 */\n      0x00\n        /* \"@openzeppelin/contracts/access/Ownable.sol\":2627:2649  newOwner == address(0) */\n      0xffffffffffffffffffffffffffffffffffffffff\n      and\n        /* \"@openzeppelin/contracts/access/Ownable.sol\":2627:2635  newOwner */\n      dup2\n        /* \"@openzeppelin/contracts/access/Ownable.sol\":2627:2649  newOwner == address(0) */\n      0xffffffffffffffffffffffffffffffffffffffff\n      and\n      sub\n        /* \"@openzeppelin/contracts/access/Ownable.sol\":2623:2714  if (newOwner == address(0)) {... */\n      tag_278\n      jumpi\n        /* \"@openzeppelin/contracts/access/Ownable.sol\":2700:2701  0 */\n      0x00\n        /* \"@openzeppelin/contracts/access/Ownable.sol\":2672:2703  OwnableInvalidOwner(address(0)) */\n      mload(0x40)\n      0x1e4fbdf700000000000000000000000000000000000000000000000000000000\n      dup2\n      mstore\n      0x04\n      add\n      tag_279\n      swap2\n      swap1\n      tag_69\n      jump\t// in\n    tag_279:\n      mload(0x40)\n      dup1\n      swap2\n      sub\n      swap1\n      revert\n        /* \"@openzeppelin/contracts/access/Ownable.sol\":2623:2714  if (newOwner == address(0)) {... */\n    tag_278:\n        /* \"@openzeppelin/contracts/access/Ownable.sol\":2723:2751  _transferOwnership(newOwner) */\n      tag_280\n        /* \"@openzeppelin/contracts/access/Ownable.sol\":2742:2750  newOwner */\n      dup2\n        /* \"@openzeppelin/contracts/access/Ownable.sol\":2723:2741  _transferOwnership */\n      tag_196\n        /* \"@openzeppelin/contracts/access/Ownable.sol\":2723:2751  _transferOwnership(newOwner) */\n      jump\t// in\n    tag_280:\n        /* \"@openzeppelin/contracts/access/Ownable.sol\":2543:2758  function transferOwnership(address newOwner) public virtual onlyOwner {... */\n      pop\n      jump\t// out\n        /* \"@openzeppelin/contracts/access/Ownable.sol\":1796:1958  function _checkOwner() internal view virtual {... */\n    tag_96:\n        /* \"@openzeppelin/contracts/access/Ownable.sol\":1866:1878  _msgSender() */\n      tag_282\n        /* \"@openzeppelin/contracts/access/Ownable.sol\":1866:1876  _msgSender */\n      tag_283\n        /* \"@openzeppelin/contracts/access/Ownable.sol\":1866:1878  _msgSender() */\n      jump\t// in\n    tag_282:\n        /* \"@openzeppelin/contracts/access/Ownable.sol\":1855:1878  owner() != _msgSender() */\n      0xffffffffffffffffffffffffffffffffffffffff\n      and\n        /* \"@openzeppelin/contracts/access/Ownable.sol\":1855:1862  owner() */\n      tag_284\n        /* \"@openzeppelin/contracts/access/Ownable.sol\":1855:1860  owner */\n      tag_67\n        /* \"@openzeppelin/contracts/access/Ownable.sol\":1855:1862  owner() */\n      jump\t// in\n    tag_284:\n        /* \"@openzeppelin/contracts/access/Ownable.sol\":1855:1878  owner() != _msgSender() */\n      0xffffffffffffffffffffffffffffffffffffffff\n      and\n      eq\n        /* \"@openzeppelin/contracts/access/Ownable.sol\":1851:1952  if (owner() != _msgSender()) {... */\n      tag_285\n      jumpi\n        /* \"@openzeppelin/contracts/access/Ownable.sol\":1928:1940  _msgSender() */\n      tag_286\n        /* \"@openzeppelin/contracts/access/Ownable.sol\":1928:1938  _msgSender */\n      tag_283\n        /* \"@openzeppelin/contracts/access/Ownable.sol\":1928:1940  _msgSender() */\n      jump\t// in\n    tag_286:\n        /* \"@openzeppelin/contracts/access/Ownable.sol\":1901:1941  OwnableUnauthorizedAccount(_msgSender()) */\n      mload(0x40)\n      0x118cdaa700000000000000000000000000000000000000000000000000000000\n      dup2\n      mstore\n      0x04\n      add\n      tag_287\n      swap2\n      swap1\n      tag_69\n      jump\t// in\n    tag_287:\n      mload(0x40)\n      dup1\n      swap2\n      sub\n      swap1\n      revert\n        /* \"@openzeppelin/contracts/access/Ownable.sol\":1851:1952  if (owner() != _msgSender()) {... */\n    tag_285:\n        /* \"@openzeppelin/contracts/access/Ownable.sol\":1796:1958  function _checkOwner() internal view virtual {... */\n      jump\t// out\n        /* \"@openzeppelin/contracts/security/ReentrancyGuard.sol\":2336:2623  function _nonReentrantBefore() private {... */\n    tag_124:\n        /* \"@openzeppelin/contracts/security/ReentrancyGuard.sol\":1759:1760  2 */\n      0x02\n        /* \"@openzeppelin/contracts/security/ReentrancyGuard.sol\":2468:2475  _status */\n      sload(0x01)\n        /* \"@openzeppelin/contracts/security/ReentrancyGuard.sol\":2468:2487  _status != _ENTERED */\n      sub\n        /* \"@openzeppelin/contracts/security/ReentrancyGuard.sol\":2460:2523  require(_status != _ENTERED, \"ReentrancyGuard: reentrant call\") */\n      tag_289\n      jumpi\n      mload(0x40)\n      0x08c379a000000000000000000000000000000000000000000000000000000000\n      dup2\n      mstore\n      0x04\n      add\n      tag_290\n      swap1\n      tag_291\n      jump\t// in\n    tag_290:\n      mload(0x40)\n      dup1\n      swap2\n      sub\n      swap1\n      revert\n    tag_289:\n        /* \"@openzeppelin/contracts/security/ReentrancyGuard.sol\":1759:1760  2 */\n      0x02\n        /* \"@openzeppelin/contracts/security/ReentrancyGuard.sol\":2598:2605  _status */\n      0x01\n        /* \"@openzeppelin/contracts/security/ReentrancyGuard.sol\":2598:2616  _status = _ENTERED */\n      dup2\n      swap1\n      sstore\n      pop\n        /* \"@openzeppelin/contracts/security/ReentrancyGuard.sol\":2336:2623  function _nonReentrantBefore() private {... */\n      jump\t// out\n        /* \"@openzeppelin/contracts/token/ERC20/utils/SafeERC20.sol\":1219:1379  function safeTransfer(IERC20 token, address to, uint256 value) internal {... */\n    tag_156:\n        /* \"@openzeppelin/contracts/token/ERC20/utils/SafeERC20.sol\":1301:1372  _callOptionalReturn(token, abi.encodeCall(token.transfer, (to, value))) */\n      tag_293\n        /* \"@openzeppelin/contracts/token/ERC20/utils/SafeERC20.sol\":1321:1326  token */\n      dup4\n        /* \"@openzeppelin/contracts/token/ERC20/utils/SafeERC20.sol\":1343:1348  token */\n      dup5\n        /* \"@openzeppelin/contracts/token/ERC20/utils/SafeERC20.sol\":1343:1357  token.transfer */\n      0xffffffffffffffffffffffffffffffffffffffff\n      and\n      0xa9059cbb\n        /* \"@openzeppelin/contracts/token/ERC20/utils/SafeERC20.sol\":1360:1362  to */\n      dup6\n        /* \"@openzeppelin/contracts/token/ERC20/utils/SafeERC20.sol\":1364:1369  value */\n      dup6\n        /* \"@openzeppelin/contracts/token/ERC20/utils/SafeERC20.sol\":1328:1371  abi.encodeCall(token.transfer, (to, value)) */\n      add(0x24, mload(0x40))\n      tag_294\n      swap3\n      swap2\n      swap1\n      tag_295\n      jump\t// in\n    tag_294:\n      mload(0x40)\n      0x20\n      dup2\n      dup4\n      sub\n      sub\n      dup2\n      mstore\n      swap1\n      0x40\n      mstore\n      swap2\n      pop\n      0xe0\n      shl\n      0x20\n      dup3\n      add\n      dup1\n      mload\n      0xffffffffffffffffffffffffffffffffffffffffffffffffffffffff\n      dup4\n      dup2\n      dup4\n      and\n      or\n      dup4\n      mstore\n      pop\n      pop\n      pop\n      pop\n        /* \"@openzeppelin/contracts/token/ERC20/utils/SafeERC20.sol\":1301:1320  _callOptionalReturn */\n      tag_296\n        /* \"@openzeppelin/contracts/token/ERC20/utils/SafeERC20.sol\":1301:1372  _callOptionalReturn(token, abi.encodeCall(token.transfer, (to, value))) */\n      jump\t// in\n    tag_293:\n        /* \"@openzeppelin/contracts/token/ERC20/utils/SafeERC20.sol\":1219:1379  function safeTransfer(IERC20 token, address to, uint256 value) internal {... */\n      pop\n      pop\n      pop\n      jump\t// out\n        /* \"@openzeppelin/contracts/security/ReentrancyGuard.sol\":2629:2838  function _nonReentrantAfter() private {... */\n    tag_161:\n        /* \"@openzeppelin/contracts/security/ReentrancyGuard.sol\":1716:1717  1 */\n      0x01\n        /* \"@openzeppelin/contracts/security/ReentrancyGuard.sol\":2809:2816  _status */\n      dup1\n        /* \"@openzeppelin/contracts/security/ReentrancyGuard.sol\":2809:2831  _status = _NOT_ENTERED */\n      dup2\n      swap1\n      sstore\n      pop\n        /* \"@openzeppelin/contracts/security/ReentrancyGuard.sol\":2629:2838  function _nonReentrantAfter() private {... */\n      jump\t// out\n        /* \"@openzeppelin/contracts/utils/Counters.sol\":945:1068  function increment(Counter storage counter) internal {... */\n    tag_167:\n        /* \"@openzeppelin/contracts/utils/Counters.sol\":1050:1051  1 */\n      0x01\n        /* \"@openzeppelin/contracts/utils/Counters.sol\":1032:1039  counter */\n      dup2\n        /* \"@openzeppelin/contracts/utils/Counters.sol\":1032:1046  counter._value */\n      0x00\n      add\n      0x00\n        /* \"@openzeppelin/contracts/utils/Counters.sol\":1032:1051  counter._value += 1 */\n      dup3\n      dup3\n      sload\n      add\n      swap3\n      pop\n      pop\n      dup2\n      swap1\n      sstore\n      pop\n        /* \"@openzeppelin/contracts/utils/Counters.sol\":945:1068  function increment(Counter storage counter) internal {... */\n      pop\n      jump\t// out\n        /* \"@openzeppelin/contracts/utils/Counters.sol\":827:939  function current(Counter storage counter) internal view returns (uint256) {... */\n    tag_169:\n        /* \"@openzeppelin/contracts/utils/Counters.sol\":892:899  uint256 */\n      0x00\n        /* \"@openzeppelin/contracts/utils/Counters.sol\":918:925  counter */\n      dup2\n        /* \"@openzeppelin/contracts/utils/Counters.sol\":918:932  counter._value */\n      0x00\n      add\n      sload\n        /* \"@openzeppelin/contracts/utils/Counters.sol\":911:932  return counter._value */\n      swap1\n      pop\n        /* \"@openzeppelin/contracts/utils/Counters.sol\":827:939  function current(Counter storage counter) internal view returns (uint256) {... */\n      swap2\n      swap1\n      pop\n      jump\t// out\n        /* \"@openzeppelin/contracts/access/Ownable.sol\":2912:3099  function _transferOwnership(address newOwner) internal virtual {... */\n    tag_196:\n        /* \"@openzeppelin/contracts/access/Ownable.sol\":2985:3001  address oldOwner */\n      0x00\n        /* \"@openzeppelin/contracts/access/Ownable.sol\":3004:3010  _owner */\n      0x00\n      0x00\n      swap1\n      sload\n      swap1\n      0x0100\n      exp\n      swap1\n      div\n      0xffffffffffffffffffffffffffffffffffffffff\n      and\n        /* \"@openzeppelin/contracts/access/Ownable.sol\":2985:3010  address oldOwner = _owner */\n      swap1\n      pop\n        /* \"@openzeppelin/contracts/access/Ownable.sol\":3029:3037  newOwner */\n      dup2\n        /* \"@openzeppelin/contracts/access/Ownable.sol\":3020:3026  _owner */\n      0x00\n      0x00\n        /* \"@openzeppelin/contracts/access/Ownable.sol\":3020:3037  _owner = newOwner */\n      0x0100\n      exp\n      dup2\n      sload\n      dup2\n      0xffffffffffffffffffffffffffffffffffffffff\n      mul\n      not\n      and\n      swap1\n      dup4\n      0xffffffffffffffffffffffffffffffffffffffff\n      and\n      mul\n      or\n      swap1\n      sstore\n      pop\n        /* \"@openzeppelin/contracts/access/Ownable.sol\":3083:3091  newOwner */\n      dup2\n        /* \"@openzeppelin/contracts/access/Ownable.sol\":3052:3092  OwnershipTransferred(oldOwner, newOwner) */\n      0xffffffffffffffffffffffffffffffffffffffff\n      and\n        /* \"@openzeppelin/contracts/access/Ownable.sol\":3073:3081  oldOwner */\n      dup2\n        /* \"@openzeppelin/contracts/access/Ownable.sol\":3052:3092  OwnershipTransferred(oldOwner, newOwner) */\n      0xffffffffffffffffffffffffffffffffffffffff\n      and\n      0x8be0079c531659141344cd1fd0a4f28419497f9722a3daafe3b4186f6b6457e0\n      mload(0x40)\n      mload(0x40)\n      dup1\n      swap2\n      sub\n      swap1\n      log3\n        /* \"@openzeppelin/contracts/access/Ownable.sol\":2975:3099  {... */\n      pop\n        /* \"@openzeppelin/contracts/access/Ownable.sol\":2912:3099  function _transferOwnership(address newOwner) internal virtual {... */\n      pop\n      jump\t// out\n        /* \"@openzeppelin/contracts/token/ERC20/utils/SafeERC20.sol\":1618:1806  function safeTransferFrom(IERC20 token, address from, address to, uint256 value) internal {... */\n    tag_259:\n        /* \"@openzeppelin/contracts/token/ERC20/utils/SafeERC20.sol\":1718:1799  _callOptionalReturn(token, abi.encodeCall(token.transferFrom, (from, to, value))) */\n      tag_302\n        /* \"@openzeppelin/contracts/token/ERC20/utils/SafeERC20.sol\":1738:1743  token */\n      dup5\n        /* \"@openzeppelin/contracts/token/ERC20/utils/SafeERC20.sol\":1760:1765  token */\n      dup6\n        /* \"@openzeppelin/contracts/token/ERC20/utils/SafeERC20.sol\":1760:1778  token.transferFrom */\n      0xffffffffffffffffffffffffffffffffffffffff\n      and\n      0x23b872dd\n        /* \"@openzeppelin/contracts/token/ERC20/utils/SafeERC20.sol\":1781:1785  from */\n      dup7\n        /* \"@openzeppelin/contracts/token/ERC20/utils/SafeERC20.sol\":1787:1789  to */\n      dup7\n        /* \"@openzeppelin/contracts/token/ERC20/utils/SafeERC20.sol\":1791:1796  value */\n      dup7\n        /* \"@openzeppelin/contracts/token/ERC20/utils/SafeERC20.sol\":1745:1798  abi.encodeCall(token.transferFrom, (from, to, value)) */\n      add(0x24, mload(0x40))\n      tag_303\n      swap4\n      swap3\n      swap2\n      swap1\n      tag_304\n      jump\t// in\n    tag_303:\n      mload(0x40)\n      0x20\n      dup2\n      dup4\n      sub\n      sub\n      dup2\n      mstore\n      swap1\n      0x40\n      mstore\n      swap2\n      pop\n      0xe0\n      shl\n      0x20\n      dup3\n      add\n      dup1\n      mload\n      0xffffffffffffffffffffffffffffffffffffffffffffffffffffffff\n      dup4\n      dup2\n      dup4\n      and\n      or\n      dup4\n      mstore\n      pop\n      pop\n      pop\n      pop\n        /* \"@openzeppelin/contracts/token/ERC20/utils/SafeERC20.sol\":1718:1737  _callOptionalReturn */\n      tag_296\n        /* \"@openzeppelin/contracts/token/ERC20/utils/SafeERC20.sol\":1718:1799  _callOptionalReturn(token, abi.encodeCall(token.transferFrom, (from, to, value))) */\n      jump\t// in\n    tag_302:\n        /* \"@openzeppelin/contracts/token/ERC20/utils/SafeERC20.sol\":1618:1806  function safeTransferFrom(IERC20 token, address from, address to, uint256 value) internal {... */\n      pop\n      pop\n      pop\n      pop\n      jump\t// out\n        /* \"@openzeppelin/contracts/utils/Context.sol\":656:752  function _msgSender() internal view virtual returns (address) {... */\n    tag_283:\n        /* \"@openzeppelin/contracts/utils/Context.sol\":709:716  address */\n      0x00\n        /* \"@openzeppelin/contracts/utils/Context.sol\":735:745  msg.sender */\n      caller\n        /* \"@openzeppelin/contracts/utils/Context.sol\":728:745  return msg.sender */\n      swap1\n      pop\n        /* \"@openzeppelin/contracts/utils/Context.sol\":656:752  function _msgSender() internal view virtual returns (address) {... */\n      swap1\n      jump\t// out\n        /* \"@openzeppelin/contracts/token/ERC20/utils/SafeERC20.sol\":8370:9090  function _callOptionalReturn(IERC20 token, bytes memory data) private {... */\n    tag_296:\n        /* \"@openzeppelin/contracts/token/ERC20/utils/SafeERC20.sol\":8450:8468  uint256 returnSize */\n      0x00\n        /* \"@openzeppelin/contracts/token/ERC20/utils/SafeERC20.sol\":8478:8497  uint256 returnValue */\n      0x00\n        /* \"@openzeppelin/contracts/token/ERC20/utils/SafeERC20.sol\":8616:8620  0x20 */\n      0x20\n        /* \"@openzeppelin/contracts/token/ERC20/utils/SafeERC20.sol\":8613:8614  0 */\n      0x00\n        /* \"@openzeppelin/contracts/token/ERC20/utils/SafeERC20.sol\":8606:8610  data */\n      dup5\n        /* \"@openzeppelin/contracts/token/ERC20/utils/SafeERC20.sol\":8600:8611  mload(data) */\n      mload\n        /* \"@openzeppelin/contracts/token/ERC20/utils/SafeERC20.sol\":8593:8597  0x20 */\n      0x20\n        /* \"@openzeppelin/contracts/token/ERC20/utils/SafeERC20.sol\":8587:8591  data */\n      dup7\n        /* \"@openzeppelin/contracts/token/ERC20/utils/SafeERC20.sol\":8583:8598  add(data, 0x20) */\n      add\n        /* \"@openzeppelin/contracts/token/ERC20/utils/SafeERC20.sol\":8580:8581  0 */\n      0x00\n        /* \"@openzeppelin/contracts/token/ERC20/utils/SafeERC20.sol\":8573:8578  token */\n      dup9\n        /* \"@openzeppelin/contracts/token/ERC20/utils/SafeERC20.sol\":8566:8571  gas() */\n      gas\n        /* \"@openzeppelin/contracts/token/ERC20/utils/SafeERC20.sol\":8561:8621  call(gas(), token, 0, add(data, 0x20), mload(data), 0, 0x20) */\n      call\n        /* \"@openzeppelin/contracts/token/ERC20/utils/SafeERC20.sol\":8673:8680  success */\n      dup1\n        /* \"@openzeppelin/contracts/token/ERC20/utils/SafeERC20.sol\":8663:8839  if iszero(success) {... */\n      tag_307\n      jumpi\n        /* \"@openzeppelin/contracts/token/ERC20/utils/SafeERC20.sol\":8717:8721  0x40 */\n      0x40\n        /* \"@openzeppelin/contracts/token/ERC20/utils/SafeERC20.sol\":8711:8722  mload(0x40) */\n      mload\n        /* \"@openzeppelin/contracts/token/ERC20/utils/SafeERC20.sol\":8762:8778  returndatasize() */\n      returndatasize\n        /* \"@openzeppelin/contracts/token/ERC20/utils/SafeERC20.sol\":8759:8760  0 */\n      0x00\n        /* \"@openzeppelin/contracts/token/ERC20/utils/SafeERC20.sol\":8754:8757  ptr */\n      dup3\n        /* \"@openzeppelin/contracts/token/ERC20/utils/SafeERC20.sol\":8739:8779  returndatacopy(ptr, 0, returndatasize()) */\n      returndatacopy\n        /* \"@openzeppelin/contracts/token/ERC20/utils/SafeERC20.sol\":8808:8824  returndatasize() */\n      returndatasize\n        /* \"@openzeppelin/contracts/token/ERC20/utils/SafeERC20.sol\":8803:8806  ptr */\n      dup2\n        /* \"@openzeppelin/contracts/token/ERC20/utils/SafeERC20.sol\":8796:8825  revert(ptr, returndatasize()) */\n      revert\n        /* \"@openzeppelin/contracts/token/ERC20/utils/SafeERC20.sol\":8663:8839  if iszero(success) {... */\n    tag_307:\n        /* \"@openzeppelin/contracts/token/ERC20/utils/SafeERC20.sol\":8866:8882  returndatasize() */\n      returndatasize\n        /* \"@openzeppelin/contracts/token/ERC20/utils/SafeERC20.sol\":8852:8882  returnSize := returndatasize() */\n      swap3\n      pop\n        /* \"@openzeppelin/contracts/token/ERC20/utils/SafeERC20.sol\":8916:8917  0 */\n      0x00\n        /* \"@openzeppelin/contracts/token/ERC20/utils/SafeERC20.sol\":8910:8918  mload(0) */\n      mload\n        /* \"@openzeppelin/contracts/token/ERC20/utils/SafeERC20.sol\":8895:8918  returnValue := mload(0) */\n      swap2\n      pop\n        /* \"@openzeppelin/contracts/token/ERC20/utils/SafeERC20.sol\":8532:8928  {... */\n      pop\n        /* \"@openzeppelin/contracts/token/ERC20/utils/SafeERC20.sol\":8956:8957  0 */\n      0x00\n        /* \"@openzeppelin/contracts/token/ERC20/utils/SafeERC20.sol\":8942:8952  returnSize */\n      dup3\n        /* \"@openzeppelin/contracts/token/ERC20/utils/SafeERC20.sol\":8942:8957  returnSize == 0 */\n      eq\n        /* \"@openzeppelin/contracts/token/ERC20/utils/SafeERC20.sol\":8942:9010  returnSize == 0 ? address(token).code.length == 0 : returnValue != 1 */\n      tag_308\n      jumpi\n        /* \"@openzeppelin/contracts/token/ERC20/utils/SafeERC20.sol\":9009:9010  1 */\n      0x01\n        /* \"@openzeppelin/contracts/token/ERC20/utils/SafeERC20.sol\":8994:9005  returnValue */\n      dup2\n        /* \"@openzeppelin/contracts/token/ERC20/utils/SafeERC20.sol\":8994:9010  returnValue != 1 */\n      eq\n      iszero\n        /* \"@openzeppelin/contracts/token/ERC20/utils/SafeERC20.sol\":8942:9010  returnSize == 0 ? address(token).code.length == 0 : returnValue != 1 */\n      jump(tag_309)\n    tag_308:\n        /* \"@openzeppelin/contracts/token/ERC20/utils/SafeERC20.sol\":8990:8991  0 */\n      0x00\n        /* \"@openzeppelin/contracts/token/ERC20/utils/SafeERC20.sol\":8968:8973  token */\n      dup5\n        /* \"@openzeppelin/contracts/token/ERC20/utils/SafeERC20.sol\":8960:8986  address(token).code.length */\n      0xffffffffffffffffffffffffffffffffffffffff\n      and\n      extcodesize\n        /* \"@openzeppelin/contracts/token/ERC20/utils/SafeERC20.sol\":8960:8991  address(token).code.length == 0 */\n      eq\n        /* \"@openzeppelin/contracts/token/ERC20/utils/SafeERC20.sol\":8942:9010  returnSize == 0 ? address(token).code.length == 0 : returnValue != 1 */\n    tag_309:\n        /* \"@openzeppelin/contracts/token/ERC20/utils/SafeERC20.sol\":8938:9084  if (returnSize == 0 ? address(token).code.length == 0 : returnValue != 1) {... */\n      iszero\n      tag_310\n      jumpi\n        /* \"@openzeppelin/contracts/token/ERC20/utils/SafeERC20.sol\":9066:9071  token */\n      dup4\n        /* \"@openzeppelin/contracts/token/ERC20/utils/SafeERC20.sol\":9033:9073  SafeERC20FailedOperation(address(token)) */\n      mload(0x40)\n      0x5274afe700000000000000000000000000000000000000000000000000000000\n      dup2\n      mstore\n      0x04\n      add\n      tag_311\n      swap2\n      swap1\n      tag_69\n      jump\t// in\n    tag_311:\n      mload(0x40)\n      dup1\n      swap2\n      sub\n      swap1\n      revert\n        /* \"@openzeppelin/contracts/token/ERC20/utils/SafeERC20.sol\":8938:9084  if (returnSize == 0 ? address(token).code.length == 0 : returnValue != 1) {... */\n    tag_310:\n        /* \"@openzeppelin/contracts/token/ERC20/utils/SafeERC20.sol\":8440:9090  {... */\n      pop\n      pop\n        /* \"@openzeppelin/contracts/token/ERC20/utils/SafeERC20.sol\":8370:9090  function _callOptionalReturn(IERC20 token, bytes memory data) private {... */\n      pop\n      pop\n      jump\t// out\n    tag_101:\n      mload(0x40)\n      dup1\n      0x0140\n      add\n      0x40\n      mstore\n      dup1\n      0x00\n      dup2\n      mstore\n      0x20\n      add\n      0x60\n      dup2\n      mstore\n      0x20\n      add\n      0x60\n      dup2\n      mstore\n      0x20\n      add\n      and(0xffffffffffffffffffffffffffffffffffffffff, 0x00)\n      dup2\n      mstore\n      0x20\n      add\n      and(0xffffffffffffffffffffffffffffffffffffffff, 0x00)\n      dup2\n      mstore\n      0x20\n      add\n      0x00\n      dup2\n      mstore\n      0x20\n      add\n      and(0xffffffffffffffffffffffffffffffffffffffff, 0x00)\n      dup2\n      mstore\n      0x20\n      add\n      0x00\n      dup2\n      mstore\n      0x20\n      add\n      0x00\n      0x03\n      dup2\n      gt\n      iszero\n      tag_312\n      jumpi\n      tag_313\n      tag_119\n      jump\t// in\n    tag_313:\n    tag_312:\n      dup2\n      mstore\n      0x20\n      add\n      iszero(iszero(0x00))\n      dup2\n      mstore\n      pop\n      swap1\n      jump\t// out\n        /* \"#utility.yul\":7:82   */\n    tag_314:\n        /* \"#utility.yul\":40:46   */\n      0x00\n        /* \"#utility.yul\":73:75   */\n      0x40\n        /* \"#utility.yul\":67:76   */\n      mload\n        /* \"#utility.yul\":57:76   */\n      swap1\n      pop\n        /* \"#utility.yul\":7:82   */\n      swap1\n      jump\t// out\n        /* \"#utility.yul\":88:205   */\n    tag_315:\n        /* \"#utility.yul\":197:198   */\n      0x00\n        /* \"#utility.yul\":194:195   */\n      0x00\n        /* \"#utility.yul\":187:199   */\n      revert\n        /* \"#utility.yul\":211:328   */\n    tag_316:\n        /* \"#utility.yul\":320:321   */\n      0x00\n        /* \"#utility.yul\":317:318   */\n      0x00\n        /* \"#utility.yul\":310:322   */\n      revert\n        /* \"#utility.yul\":334:460   */\n    tag_317:\n        /* \"#utility.yul\":371:378   */\n      0x00\n        /* \"#utility.yul\":411:453   */\n      0xffffffffffffffffffffffffffffffffffffffff\n        /* \"#utility.yul\":404:409   */\n      dup3\n        /* \"#utility.yul\":400:454   */\n      and\n        /* \"#utility.yul\":389:454   */\n      swap1\n      pop\n        /* \"#utility.yul\":334:460   */\n      swap2\n      swap1\n      pop\n      jump\t// out\n        /* \"#utility.yul\":466:562   */\n    tag_318:\n        /* \"#utility.yul\":503:510   */\n      0x00\n        /* \"#utility.yul\":532:556   */\n      tag_422\n        /* \"#utility.yul\":550:555   */\n      dup3\n        /* \"#utility.yul\":532:556   */\n      tag_317\n      jump\t// in\n    tag_422:\n        /* \"#utility.yul\":521:556   */\n      swap1\n      pop\n        /* \"#utility.yul\":466:562   */\n      swap2\n      swap1\n      pop\n      jump\t// out\n        /* \"#utility.yul\":568:690   */\n    tag_319:\n        /* \"#utility.yul\":641:665   */\n      tag_424\n        /* \"#utility.yul\":659:664   */\n      dup2\n        /* \"#utility.yul\":641:665   */\n      tag_318\n      jump\t// in\n    tag_424:\n        /* \"#utility.yul\":634:639   */\n      dup2\n        /* \"#utility.yul\":631:666   */\n      eq\n        /* \"#utility.yul\":621:684   */\n      tag_425\n      jumpi\n        /* \"#utility.yul\":680:681   */\n      0x00\n        /* \"#utility.yul\":677:678   */\n      0x00\n        /* \"#utility.yul\":670:682   */\n      revert\n        /* \"#utility.yul\":621:684   */\n    tag_425:\n        /* \"#utility.yul\":568:690   */\n      pop\n      jump\t// out\n        /* \"#utility.yul\":696:835   */\n    tag_320:\n        /* \"#utility.yul\":742:747   */\n      0x00\n        /* \"#utility.yul\":780:786   */\n      dup2\n        /* \"#utility.yul\":767:787   */\n      calldataload\n        /* \"#utility.yul\":758:787   */\n      swap1\n      pop\n        /* \"#utility.yul\":796:829   */\n      tag_427\n        /* \"#utility.yul\":823:828   */\n      dup2\n        /* \"#utility.yul\":796:829   */\n      tag_319\n      jump\t// in\n    tag_427:\n        /* \"#utility.yul\":696:835   */\n      swap3\n      swap2\n      pop\n      pop\n      jump\t// out\n        /* \"#utility.yul\":841:1170   */\n    tag_26:\n        /* \"#utility.yul\":900:906   */\n      0x00\n        /* \"#utility.yul\":949:951   */\n      0x20\n        /* \"#utility.yul\":937:946   */\n      dup3\n        /* \"#utility.yul\":928:935   */\n      dup5\n        /* \"#utility.yul\":924:947   */\n      sub\n        /* \"#utility.yul\":920:952   */\n      slt\n        /* \"#utility.yul\":917:1036   */\n      iszero\n      tag_429\n      jumpi\n        /* \"#utility.yul\":955:1034   */\n      tag_430\n      tag_315\n      jump\t// in\n    tag_430:\n        /* \"#utility.yul\":917:1036   */\n    tag_429:\n        /* \"#utility.yul\":1075:1076   */\n      0x00\n        /* \"#utility.yul\":1100:1153   */\n      tag_431\n        /* \"#utility.yul\":1145:1152   */\n      dup5\n        /* \"#utility.yul\":1136:1142   */\n      dup3\n        /* \"#utility.yul\":1125:1134   */\n      dup6\n        /* \"#utility.yul\":1121:1143   */\n      add\n        /* \"#utility.yul\":1100:1153   */\n      tag_320\n      jump\t// in\n    tag_431:\n        /* \"#utility.yul\":1090:1153   */\n      swap2\n      pop\n        /* \"#utility.yul\":1046:1163   */\n      pop\n        /* \"#utility.yul\":841:1170   */\n      swap3\n      swap2\n      pop\n      pop\n      jump\t// out\n        /* \"#utility.yul\":1176:1253   */\n    tag_321:\n        /* \"#utility.yul\":1213:1220   */\n      0x00\n        /* \"#utility.yul\":1242:1247   */\n      dup2\n        /* \"#utility.yul\":1231:1247   */\n      swap1\n      pop\n        /* \"#utility.yul\":1176:1253   */\n      swap2\n      swap1\n      pop\n      jump\t// out\n        /* \"#utility.yul\":1259:1381   */\n    tag_322:\n        /* \"#utility.yul\":1332:1356   */\n      tag_434\n        /* \"#utility.yul\":1350:1355   */\n      dup2\n        /* \"#utility.yul\":1332:1356   */\n      tag_321\n      jump\t// in\n    tag_434:\n        /* \"#utility.yul\":1325:1330   */\n      dup2\n        /* \"#utility.yul\":1322:1357   */\n      eq\n        /* \"#utility.yul\":1312:1375   */\n      tag_435\n      jumpi\n        /* \"#utility.yul\":1371:1372   */\n      0x00\n        /* \"#utility.yul\":1368:1369   */\n      0x00\n        /* \"#utility.yul\":1361:1373   */\n      revert\n        /* \"#utility.yul\":1312:1375   */\n    tag_435:\n        /* \"#utility.yul\":1259:1381   */\n      pop\n      jump\t// out\n        /* \"#utility.yul\":1387:1526   */\n    tag_323:\n        /* \"#utility.yul\":1433:1438   */\n      0x00\n        /* \"#utility.yul\":1471:1477   */\n      dup2\n        /* \"#utility.yul\":1458:1478   */\n      calldataload\n        /* \"#utility.yul\":1449:1478   */\n      swap1\n      pop\n        /* \"#utility.yul\":1487:1520   */\n      tag_437\n        /* \"#utility.yul\":1514:1519   */\n      dup2\n        /* \"#utility.yul\":1487:1520   */\n      tag_322\n      jump\t// in\n    tag_437:\n        /* \"#utility.yul\":1387:1526   */\n      swap3\n      swap2\n      pop\n      pop\n      jump\t// out\n        /* \"#utility.yul\":1532:1861   */\n    tag_30:\n        /* \"#utility.yul\":1591:1597   */\n      0x00\n        /* \"#utility.yul\":1640:1642   */\n      0x20\n        /* \"#utility.yul\":1628:1637   */\n      dup3\n        /* \"#utility.yul\":1619:1626   */\n      dup5\n        /* \"#utility.yul\":1615:1638   */\n      sub\n        /* \"#utility.yul\":1611:1643   */\n      slt\n        /* \"#utility.yul\":1608:1727   */\n      iszero\n      tag_439\n      jumpi\n        /* \"#utility.yul\":1646:1725   */\n      tag_440\n      tag_315\n      jump\t// in\n    tag_440:\n        /* \"#utility.yul\":1608:1727   */\n    tag_439:\n        /* \"#utility.yul\":1766:1767   */\n      0x00\n        /* \"#utility.yul\":1791:1844   */\n      tag_441\n        /* \"#utility.yul\":1836:1843   */\n      dup5\n        /* \"#utility.yul\":1827:1833   */\n      dup3\n        /* \"#utility.yul\":1816:1825   */\n      dup6\n        /* \"#utility.yul\":1812:1834   */\n      add\n        /* \"#utility.yul\":1791:1844   */\n      tag_323\n      jump\t// in\n    tag_441:\n        /* \"#utility.yul\":1781:1844   */\n      swap2\n      pop\n        /* \"#utility.yul\":1737:1854   */\n      pop\n        /* \"#utility.yul\":1532:1861   */\n      swap3\n      swap2\n      pop\n      pop\n      jump\t// out\n        /* \"#utility.yul\":1867:1975   */\n    tag_324:\n        /* \"#utility.yul\":1944:1968   */\n      tag_443\n        /* \"#utility.yul\":1962:1967   */\n      dup2\n        /* \"#utility.yul\":1944:1968   */\n      tag_321\n      jump\t// in\n    tag_443:\n        /* \"#utility.yul\":1939:1942   */\n      dup3\n        /* \"#utility.yul\":1932:1969   */\n      mstore\n        /* \"#utility.yul\":1867:1975   */\n      pop\n      pop\n      jump\t// out\n        /* \"#utility.yul\":1981:2080   */\n    tag_325:\n        /* \"#utility.yul\":2033:2039   */\n      0x00\n        /* \"#utility.yul\":2067:2072   */\n      dup2\n        /* \"#utility.yul\":2061:2073   */\n      mload\n        /* \"#utility.yul\":2051:2073   */\n      swap1\n      pop\n        /* \"#utility.yul\":1981:2080   */\n      swap2\n      swap1\n      pop\n      jump\t// out\n        /* \"#utility.yul\":2086:2245   */\n    tag_326:\n        /* \"#utility.yul\":2160:2171   */\n      0x00\n        /* \"#utility.yul\":2194:2200   */\n      dup3\n        /* \"#utility.yul\":2189:2192   */\n      dup3\n        /* \"#utility.yul\":2182:2201   */\n      mstore\n        /* \"#utility.yul\":2234:2238   */\n      0x20\n        /* \"#utility.yul\":2229:2232   */\n      dup3\n        /* \"#utility.yul\":2225:2239   */\n      add\n        /* \"#utility.yul\":2210:2239   */\n      swap1\n      pop\n        /* \"#utility.yul\":2086:2245   */\n      swap3\n      swap2\n      pop\n      pop\n      jump\t// out\n        /* \"#utility.yul\":2251:2390   */\n    tag_327:\n        /* \"#utility.yul\":2340:2346   */\n      dup3\n        /* \"#utility.yul\":2335:2338   */\n      dup2\n        /* \"#utility.yul\":2330:2333   */\n      dup4\n        /* \"#utility.yul\":2324:2347   */\n      mcopy\n        /* \"#utility.yul\":2381:2382   */\n      0x00\n        /* \"#utility.yul\":2372:2378   */\n      dup4\n        /* \"#utility.yul\":2367:2370   */\n      dup4\n        /* \"#utility.yul\":2363:2379   */\n      add\n        /* \"#utility.yul\":2356:2383   */\n      mstore\n        /* \"#utility.yul\":2251:2390   */\n      pop\n      pop\n      pop\n      jump\t// out\n        /* \"#utility.yul\":2396:2498   */\n    tag_328:\n        /* \"#utility.yul\":2437:2443   */\n      0x00\n        /* \"#utility.yul\":2488:2490   */\n      0x1f\n        /* \"#utility.yul\":2484:2491   */\n      not\n        /* \"#utility.yul\":2479:2481   */\n      0x1f\n        /* \"#utility.yul\":2472:2477   */\n      dup4\n        /* \"#utility.yul\":2468:2482   */\n      add\n        /* \"#utility.yul\":2464:2492   */\n      and\n        /* \"#utility.yul\":2454:2492   */\n      swap1\n      pop\n        /* \"#utility.yul\":2396:2498   */\n      swap2\n      swap1\n      pop\n      jump\t// out\n        /* \"#utility.yul\":2504:2861   */\n    tag_329:\n        /* \"#utility.yul\":2582:2585   */\n      0x00\n        /* \"#utility.yul\":2610:2649   */\n      tag_449\n        /* \"#utility.yul\":2643:2648   */\n      dup3\n        /* \"#utility.yul\":2610:2649   */\n      tag_325\n      jump\t// in\n    tag_449:\n        /* \"#utility.yul\":2665:2726   */\n      tag_450\n        /* \"#utility.yul\":2719:2725   */\n      dup2\n        /* \"#utility.yul\":2714:2717   */\n      dup6\n        /* \"#utility.yul\":2665:2726   */\n      tag_326\n      jump\t// in\n    tag_450:\n        /* \"#utility.yul\":2658:2726   */\n      swap4\n      pop\n        /* \"#utility.yul\":2735:2800   */\n      tag_451\n        /* \"#utility.yul\":2793:2799   */\n      dup2\n        /* \"#utility.yul\":2788:2791   */\n      dup6\n        /* \"#utility.yul\":2781:2785   */\n      0x20\n        /* \"#utility.yul\":2774:2779   */\n      dup7\n        /* \"#utility.yul\":2770:2786   */\n      add\n        /* \"#utility.yul\":2735:2800   */\n      tag_327\n      jump\t// in\n    tag_451:\n        /* \"#utility.yul\":2825:2854   */\n      tag_452\n        /* \"#utility.yul\":2847:2853   */\n      dup2\n        /* \"#utility.yul\":2825:2854   */\n      tag_328\n      jump\t// in\n    tag_452:\n        /* \"#utility.yul\":2820:2823   */\n      dup5\n        /* \"#utility.yul\":2816:2855   */\n      add\n        /* \"#utility.yul\":2809:2855   */\n      swap2\n      pop\n        /* \"#utility.yul\":2586:2861   */\n      pop\n        /* \"#utility.yul\":2504:2861   */\n      swap3\n      swap2\n      pop\n      pop\n      jump\t// out\n        /* \"#utility.yul\":2867:2975   */\n    tag_330:\n        /* \"#utility.yul\":2944:2968   */\n      tag_454\n        /* \"#utility.yul\":2962:2967   */\n      dup2\n        /* \"#utility.yul\":2944:2968   */\n      tag_318\n      jump\t// in\n    tag_454:\n        /* \"#utility.yul\":2939:2942   */\n      dup3\n        /* \"#utility.yul\":2932:2969   */\n      mstore\n        /* \"#utility.yul\":2867:2975   */\n      pop\n      pop\n      jump\t// out\n        /* \"#utility.yul\":2981:3161   */\n    tag_119:\n        /* \"#utility.yul\":3029:3106   */\n      0x4e487b7100000000000000000000000000000000000000000000000000000000\n        /* \"#utility.yul\":3026:3027   */\n      0x00\n        /* \"#utility.yul\":3019:3107   */\n      mstore\n        /* \"#utility.yul\":3126:3130   */\n      0x21\n        /* \"#utility.yul\":3123:3124   */\n      0x04\n        /* \"#utility.yul\":3116:3131   */\n      mstore\n        /* \"#utility.yul\":3150:3154   */\n      0x24\n        /* \"#utility.yul\":3147:3148   */\n      0x00\n        /* \"#utility.yul\":3140:3155   */\n      revert\n        /* \"#utility.yul\":3167:3287   */\n    tag_331:\n        /* \"#utility.yul\":3255:3256   */\n      0x04\n        /* \"#utility.yul\":3248:3253   */\n      dup2\n        /* \"#utility.yul\":3245:3257   */\n      lt\n        /* \"#utility.yul\":3235:3281   */\n      tag_457\n      jumpi\n        /* \"#utility.yul\":3261:3279   */\n      tag_458\n      tag_119\n      jump\t// in\n    tag_458:\n        /* \"#utility.yul\":3235:3281   */\n    tag_457:\n        /* \"#utility.yul\":3167:3287   */\n      pop\n      jump\t// out\n        /* \"#utility.yul\":3293:3434   */\n    tag_332:\n        /* \"#utility.yul\":3345:3352   */\n      0x00\n        /* \"#utility.yul\":3374:3379   */\n      dup2\n        /* \"#utility.yul\":3363:3379   */\n      swap1\n      pop\n        /* \"#utility.yul\":3380:3428   */\n      tag_460\n        /* \"#utility.yul\":3422:3427   */\n      dup3\n        /* \"#utility.yul\":3380:3428   */\n      tag_331\n      jump\t// in\n    tag_460:\n        /* \"#utility.yul\":3293:3434   */\n      swap2\n      swap1\n      pop\n      jump\t// out\n        /* \"#utility.yul\":3440:3581   */\n    tag_333:\n        /* \"#utility.yul\":3503:3512   */\n      0x00\n        /* \"#utility.yul\":3536:3575   */\n      tag_462\n        /* \"#utility.yul\":3569:3574   */\n      dup3\n        /* \"#utility.yul\":3536:3575   */\n      tag_332\n      jump\t// in\n    tag_462:\n        /* \"#utility.yul\":3523:3575   */\n      swap1\n      pop\n        /* \"#utility.yul\":3440:3581   */\n      swap2\n      swap1\n      pop\n      jump\t// out\n        /* \"#utility.yul\":3587:3734   */\n    tag_334:\n        /* \"#utility.yul\":3677:3727   */\n      tag_464\n        /* \"#utility.yul\":3721:3726   */\n      dup2\n        /* \"#utility.yul\":3677:3727   */\n      tag_333\n      jump\t// in\n    tag_464:\n        /* \"#utility.yul\":3672:3675   */\n      dup3\n        /* \"#utility.yul\":3665:3728   */\n      mstore\n        /* \"#utility.yul\":3587:3734   */\n      pop\n      pop\n      jump\t// out\n        /* \"#utility.yul\":3740:3830   */\n    tag_335:\n        /* \"#utility.yul\":3774:3781   */\n      0x00\n        /* \"#utility.yul\":3817:3822   */\n      dup2\n        /* \"#utility.yul\":3810:3823   */\n      iszero\n        /* \"#utility.yul\":3803:3824   */\n      iszero\n        /* \"#utility.yul\":3792:3824   */\n      swap1\n      pop\n        /* \"#utility.yul\":3740:3830   */\n      swap2\n      swap1\n      pop\n      jump\t// out\n        /* \"#utility.yul\":3836:3935   */\n    tag_336:\n        /* \"#utility.yul\":3907:3928   */\n      tag_467\n        /* \"#utility.yul\":3922:3927   */\n      dup2\n        /* \"#utility.yul\":3907:3928   */\n      tag_335\n      jump\t// in\n    tag_467:\n        /* \"#utility.yul\":3902:3905   */\n      dup3\n        /* \"#utility.yul\":3895:3929   */\n      mstore\n        /* \"#utility.yul\":3836:3935   */\n      pop\n      pop\n      jump\t// out\n        /* \"#utility.yul\":4001:6111   */\n    tag_337:\n        /* \"#utility.yul\":4114:4117   */\n      0x00\n        /* \"#utility.yul\":4150:4156   */\n      0x0140\n        /* \"#utility.yul\":4145:4148   */\n      dup4\n        /* \"#utility.yul\":4141:4157   */\n      add\n        /* \"#utility.yul\":4237:4241   */\n      0x00\n        /* \"#utility.yul\":4230:4235   */\n      dup4\n        /* \"#utility.yul\":4226:4242   */\n      add\n        /* \"#utility.yul\":4220:4243   */\n      mload\n        /* \"#utility.yul\":4256:4319   */\n      tag_469\n        /* \"#utility.yul\":4313:4317   */\n      0x00\n        /* \"#utility.yul\":4308:4311   */\n      dup7\n        /* \"#utility.yul\":4304:4318   */\n      add\n        /* \"#utility.yul\":4290:4302   */\n      dup3\n        /* \"#utility.yul\":4256:4319   */\n      tag_324\n      jump\t// in\n    tag_469:\n        /* \"#utility.yul\":4167:4329   */\n      pop\n        /* \"#utility.yul\":4412:4416   */\n      0x20\n        /* \"#utility.yul\":4405:4410   */\n      dup4\n        /* \"#utility.yul\":4401:4417   */\n      add\n        /* \"#utility.yul\":4395:4418   */\n      mload\n        /* \"#utility.yul\":4465:4468   */\n      dup5\n        /* \"#utility.yul\":4459:4463   */\n      dup3\n        /* \"#utility.yul\":4455:4469   */\n      sub\n        /* \"#utility.yul\":4448:4452   */\n      0x20\n        /* \"#utility.yul\":4443:4446   */\n      dup7\n        /* \"#utility.yul\":4439:4453   */\n      add\n        /* \"#utility.yul\":4432:4470   */\n      mstore\n        /* \"#utility.yul\":4491:4564   */\n      tag_470\n        /* \"#utility.yul\":4559:4563   */\n      dup3\n        /* \"#utility.yul\":4545:4557   */\n      dup3\n        /* \"#utility.yul\":4491:4564   */\n      tag_329\n      jump\t// in\n    tag_470:\n        /* \"#utility.yul\":4483:4564   */\n      swap2\n      pop\n        /* \"#utility.yul\":4339:4575   */\n      pop\n        /* \"#utility.yul\":4664:4668   */\n      0x40\n        /* \"#utility.yul\":4657:4662   */\n      dup4\n        /* \"#utility.yul\":4653:4669   */\n      add\n        /* \"#utility.yul\":4647:4670   */\n      mload\n        /* \"#utility.yul\":4717:4720   */\n      dup5\n        /* \"#utility.yul\":4711:4715   */\n      dup3\n        /* \"#utility.yul\":4707:4721   */\n      sub\n        /* \"#utility.yul\":4700:4704   */\n      0x40\n        /* \"#utility.yul\":4695:4698   */\n      dup7\n        /* \"#utility.yul\":4691:4705   */\n      add\n        /* \"#utility.yul\":4684:4722   */\n      mstore\n        /* \"#utility.yul\":4743:4816   */\n      tag_471\n        /* \"#utility.yul\":4811:4815   */\n      dup3\n        /* \"#utility.yul\":4797:4809   */\n      dup3\n        /* \"#utility.yul\":4743:4816   */\n      tag_329\n      jump\t// in\n    tag_471:\n        /* \"#utility.yul\":4735:4816   */\n      swap2\n      pop\n        /* \"#utility.yul\":4585:4827   */\n      pop\n        /* \"#utility.yul\":4912:4916   */\n      0x60\n        /* \"#utility.yul\":4905:4910   */\n      dup4\n        /* \"#utility.yul\":4901:4917   */\n      add\n        /* \"#utility.yul\":4895:4918   */\n      mload\n        /* \"#utility.yul\":4931:4994   */\n      tag_472\n        /* \"#utility.yul\":4988:4992   */\n      0x60\n        /* \"#utility.yul\":4983:4986   */\n      dup7\n        /* \"#utility.yul\":4979:4993   */\n      add\n        /* \"#utility.yul\":4965:4977   */\n      dup3\n        /* \"#utility.yul\":4931:4994   */\n      tag_330\n      jump\t// in\n    tag_472:\n        /* \"#utility.yul\":4837:5004   */\n      pop\n        /* \"#utility.yul\":5090:5094   */\n      0x80\n        /* \"#utility.yul\":5083:5088   */\n      dup4\n        /* \"#utility.yul\":5079:5095   */\n      add\n        /* \"#utility.yul\":5073:5096   */\n      mload\n        /* \"#utility.yul\":5109:5172   */\n      tag_473\n        /* \"#utility.yul\":5166:5170   */\n      0x80\n        /* \"#utility.yul\":5161:5164   */\n      dup7\n        /* \"#utility.yul\":5157:5171   */\n      add\n        /* \"#utility.yul\":5143:5155   */\n      dup3\n        /* \"#utility.yul\":5109:5172   */\n      tag_330\n      jump\t// in\n    tag_473:\n        /* \"#utility.yul\":5014:5182   */\n      pop\n        /* \"#utility.yul\":5266:5270   */\n      0xa0\n        /* \"#utility.yul\":5259:5264   */\n      dup4\n        /* \"#utility.yul\":5255:5271   */\n      add\n        /* \"#utility.yul\":5249:5272   */\n      mload\n        /* \"#utility.yul\":5285:5348   */\n      tag_474\n        /* \"#utility.yul\":5342:5346   */\n      0xa0\n        /* \"#utility.yul\":5337:5340   */\n      dup7\n        /* \"#utility.yul\":5333:5347   */\n      add\n        /* \"#utility.yul\":5319:5331   */\n      dup3\n        /* \"#utility.yul\":5285:5348   */\n      tag_324\n      jump\t// in\n    tag_474:\n        /* \"#utility.yul\":5192:5358   */\n      pop\n        /* \"#utility.yul\":5447:5451   */\n      0xc0\n        /* \"#utility.yul\":5440:5445   */\n      dup4\n        /* \"#utility.yul\":5436:5452   */\n      add\n        /* \"#utility.yul\":5430:5453   */\n      mload\n        /* \"#utility.yul\":5466:5529   */\n      tag_475\n        /* \"#utility.yul\":5523:5527   */\n      0xc0\n        /* \"#utility.yul\":5518:5521   */\n      dup7\n        /* \"#utility.yul\":5514:5528   */\n      add\n        /* \"#utility.yul\":5500:5512   */\n      dup3\n        /* \"#utility.yul\":5466:5529   */\n      tag_330\n      jump\t// in\n    tag_475:\n        /* \"#utility.yul\":5368:5539   */\n      pop\n        /* \"#utility.yul\":5625:5629   */\n      0xe0\n        /* \"#utility.yul\":5618:5623   */\n      dup4\n        /* \"#utility.yul\":5614:5630   */\n      add\n        /* \"#utility.yul\":5608:5631   */\n      mload\n        /* \"#utility.yul\":5644:5707   */\n      tag_476\n        /* \"#utility.yul\":5701:5705   */\n      0xe0\n        /* \"#utility.yul\":5696:5699   */\n      dup7\n        /* \"#utility.yul\":5692:5706   */\n      add\n        /* \"#utility.yul\":5678:5690   */\n      dup3\n        /* \"#utility.yul\":5644:5707   */\n      tag_324\n      jump\t// in\n    tag_476:\n        /* \"#utility.yul\":5549:5717   */\n      pop\n        /* \"#utility.yul\":5801:5807   */\n      0x0100\n        /* \"#utility.yul\":5794:5799   */\n      dup4\n        /* \"#utility.yul\":5790:5808   */\n      add\n        /* \"#utility.yul\":5784:5809   */\n      mload\n        /* \"#utility.yul\":5822:5900   */\n      tag_477\n        /* \"#utility.yul\":5892:5898   */\n      0x0100\n        /* \"#utility.yul\":5887:5890   */\n      dup7\n        /* \"#utility.yul\":5883:5899   */\n      add\n        /* \"#utility.yul\":5869:5881   */\n      dup3\n        /* \"#utility.yul\":5822:5900   */\n      tag_334\n      jump\t// in\n    tag_477:\n        /* \"#utility.yul\":5727:5910   */\n      pop\n        /* \"#utility.yul\":5994:6000   */\n      0x0120\n        /* \"#utility.yul\":5987:5992   */\n      dup4\n        /* \"#utility.yul\":5983:6001   */\n      add\n        /* \"#utility.yul\":5977:6002   */\n      mload\n        /* \"#utility.yul\":6015:6074   */\n      tag_478\n        /* \"#utility.yul\":6066:6072   */\n      0x0120\n        /* \"#utility.yul\":6061:6064   */\n      dup7\n        /* \"#utility.yul\":6057:6073   */\n      add\n        /* \"#utility.yul\":6043:6055   */\n      dup3\n        /* \"#utility.yul\":6015:6074   */\n      tag_336\n      jump\t// in\n    tag_478:\n        /* \"#utility.yul\":5920:6084   */\n      pop\n        /* \"#utility.yul\":6101:6105   */\n      dup1\n        /* \"#utility.yul\":6094:6105   */\n      swap2\n      pop\n        /* \"#utility.yul\":4119:6111   */\n      pop\n        /* \"#utility.yul\":4001:6111   */\n      swap3\n      swap2\n      pop\n      pop\n      jump\t// out\n        /* \"#utility.yul\":6117:6478   */\n    tag_33:\n        /* \"#utility.yul\":6254:6258   */\n      0x00\n        /* \"#utility.yul\":6292:6294   */\n      0x20\n        /* \"#utility.yul\":6281:6290   */\n      dup3\n        /* \"#utility.yul\":6277:6295   */\n      add\n        /* \"#utility.yul\":6269:6295   */\n      swap1\n      pop\n        /* \"#utility.yul\":6341:6350   */\n      dup2\n        /* \"#utility.yul\":6335:6339   */\n      dup2\n        /* \"#utility.yul\":6331:6351   */\n      sub\n        /* \"#utility.yul\":6327:6328   */\n      0x00\n        /* \"#utility.yul\":6316:6325   */\n      dup4\n        /* \"#utility.yul\":6312:6329   */\n      add\n        /* \"#utility.yul\":6305:6352   */\n      mstore\n        /* \"#utility.yul\":6369:6471   */\n      tag_480\n        /* \"#utility.yul\":6466:6470   */\n      dup2\n        /* \"#utility.yul\":6457:6463   */\n      dup5\n        /* \"#utility.yul\":6369:6471   */\n      tag_337\n      jump\t// in\n    tag_480:\n        /* \"#utility.yul\":6361:6471   */\n      swap1\n      pop\n        /* \"#utility.yul\":6117:6478   */\n      swap3\n      swap2\n      pop\n      pop\n      jump\t// out\n        /* \"#utility.yul\":6484:6544   */\n    tag_338:\n        /* \"#utility.yul\":6512:6515   */\n      0x00\n        /* \"#utility.yul\":6533:6538   */\n      dup2\n        /* \"#utility.yul\":6526:6538   */\n      swap1\n      pop\n        /* \"#utility.yul\":6484:6544   */\n      swap2\n      swap1\n      pop\n      jump\t// out\n        /* \"#utility.yul\":6550:6692   */\n    tag_339:\n        /* \"#utility.yul\":6600:6609   */\n      0x00\n        /* \"#utility.yul\":6633:6686   */\n      tag_483\n        /* \"#utility.yul\":6651:6685   */\n      tag_484\n        /* \"#utility.yul\":6660:6684   */\n      tag_485\n        /* \"#utility.yul\":6678:6683   */\n      dup5\n        /* \"#utility.yul\":6660:6684   */\n      tag_317\n      jump\t// in\n    tag_485:\n        /* \"#utility.yul\":6651:6685   */\n      tag_338\n      jump\t// in\n    tag_484:\n        /* \"#utility.yul\":6633:6686   */\n      tag_317\n      jump\t// in\n    tag_483:\n        /* \"#utility.yul\":6620:6686   */\n      swap1\n      pop\n        /* \"#utility.yul\":6550:6692   */\n      swap2\n      swap1\n      pop\n      jump\t// out\n        /* \"#utility.yul\":6698:6824   */\n    tag_340:\n        /* \"#utility.yul\":6748:6757   */\n      0x00\n        /* \"#utility.yul\":6781:6818   */\n      tag_487\n        /* \"#utility.yul\":6812:6817   */\n      dup3\n        /* \"#utility.yul\":6781:6818   */\n      tag_339\n      jump\t// in\n    tag_487:\n        /* \"#utility.yul\":6768:6818   */\n      swap1\n      pop\n        /* \"#utility.yul\":6698:6824   */\n      swap2\n      swap1\n      pop\n      jump\t// out\n        /* \"#utility.yul\":6830:6970   */\n    tag_341:\n        /* \"#utility.yul\":6894:6903   */\n      0x00\n        /* \"#utility.yul\":6927:6964   */\n      tag_489\n        /* \"#utility.yul\":6958:6963   */\n      dup3\n        /* \"#utility.yul\":6927:6964   */\n      tag_340\n      jump\t// in\n    tag_489:\n        /* \"#utility.yul\":6914:6964   */\n      swap1\n      pop\n        /* \"#utility.yul\":6830:6970   */\n      swap2\n      swap1\n      pop\n      jump\t// out\n        /* \"#utility.yul\":6976:7135   */\n    tag_342:\n        /* \"#utility.yul\":7077:7128   */\n      tag_491\n        /* \"#utility.yul\":7122:7127   */\n      dup2\n        /* \"#utility.yul\":7077:7128   */\n      tag_341\n      jump\t// in\n    tag_491:\n        /* \"#utility.yul\":7072:7075   */\n      dup3\n        /* \"#utility.yul\":7065:7129   */\n      mstore\n        /* \"#utility.yul\":6976:7135   */\n      pop\n      pop\n      jump\t// out\n        /* \"#utility.yul\":7141:7391   */\n    tag_37:\n        /* \"#utility.yul\":7248:7252   */\n      0x00\n        /* \"#utility.yul\":7286:7288   */\n      0x20\n        /* \"#utility.yul\":7275:7284   */\n      dup3\n        /* \"#utility.yul\":7271:7289   */\n      add\n        /* \"#utility.yul\":7263:7289   */\n      swap1\n      pop\n        /* \"#utility.yul\":7299:7384   */\n      tag_493\n        /* \"#utility.yul\":7381:7382   */\n      0x00\n        /* \"#utility.yul\":7370:7379   */\n      dup4\n        /* \"#utility.yul\":7366:7383   */\n      add\n        /* \"#utility.yul\":7357:7363   */\n      dup5\n        /* \"#utility.yul\":7299:7384   */\n      tag_342\n      jump\t// in\n    tag_493:\n        /* \"#utility.yul\":7141:7391   */\n      swap3\n      swap2\n      pop\n      pop\n      jump\t// out\n        /* \"#utility.yul\":7397:7871   */\n    tag_40:\n        /* \"#utility.yul\":7465:7471   */\n      0x00\n        /* \"#utility.yul\":7473:7479   */\n      0x00\n        /* \"#utility.yul\":7522:7524   */\n      0x40\n        /* \"#utility.yul\":7510:7519   */\n      dup4\n        /* \"#utility.yul\":7501:7508   */\n      dup6\n        /* \"#utility.yul\":7497:7520   */\n      sub\n        /* \"#utility.yul\":7493:7525   */\n      slt\n        /* \"#utility.yul\":7490:7609   */\n      iszero\n      tag_495\n      jumpi\n        /* \"#utility.yul\":7528:7607   */\n      tag_496\n      tag_315\n      jump\t// in\n    tag_496:\n        /* \"#utility.yul\":7490:7609   */\n    tag_495:\n        /* \"#utility.yul\":7648:7649   */\n      0x00\n        /* \"#utility.yul\":7673:7726   */\n      tag_497\n        /* \"#utility.yul\":7718:7725   */\n      dup6\n        /* \"#utility.yul\":7709:7715   */\n      dup3\n        /* \"#utility.yul\":7698:7707   */\n      dup7\n        /* \"#utility.yul\":7694:7716   */\n      add\n        /* \"#utility.yul\":7673:7726   */\n      tag_323\n      jump\t// in\n    tag_497:\n        /* \"#utility.yul\":7663:7726   */\n      swap3\n      pop\n        /* \"#utility.yul\":7619:7736   */\n      pop\n        /* \"#utility.yul\":7775:7777   */\n      0x20\n        /* \"#utility.yul\":7801:7854   */\n      tag_498\n        /* \"#utility.yul\":7846:7853   */\n      dup6\n        /* \"#utility.yul\":7837:7843   */\n      dup3\n        /* \"#utility.yul\":7826:7835   */\n      dup7\n        /* \"#utility.yul\":7822:7844   */\n      add\n        /* \"#utility.yul\":7801:7854   */\n      tag_320\n      jump\t// in\n    tag_498:\n        /* \"#utility.yul\":7791:7854   */\n      swap2\n      pop\n        /* \"#utility.yul\":7746:7864   */\n      pop\n        /* \"#utility.yul\":7397:7871   */\n      swap3\n      pop\n      swap3\n      swap1\n      pop\n      jump\t// out\n        /* \"#utility.yul\":7877:7994   */\n    tag_343:\n        /* \"#utility.yul\":7986:7987   */\n      0x00\n        /* \"#utility.yul\":7983:7984   */\n      0x00\n        /* \"#utility.yul\":7976:7988   */\n      revert\n        /* \"#utility.yul\":8000:8117   */\n    tag_344:\n        /* \"#utility.yul\":8109:8110   */\n      0x00\n        /* \"#utility.yul\":8106:8107   */\n      0x00\n        /* \"#utility.yul\":8099:8111   */\n      revert\n        /* \"#utility.yul\":8123:8303   */\n    tag_345:\n        /* \"#utility.yul\":8171:8248   */\n      0x4e487b7100000000000000000000000000000000000000000000000000000000\n        /* \"#utility.yul\":8168:8169   */\n      0x00\n        /* \"#utility.yul\":8161:8249   */\n      mstore\n        /* \"#utility.yul\":8268:8272   */\n      0x41\n        /* \"#utility.yul\":8265:8266   */\n      0x04\n        /* \"#utility.yul\":8258:8273   */\n      mstore\n        /* \"#utility.yul\":8292:8296   */\n      0x24\n        /* \"#utility.yul\":8289:8290   */\n      0x00\n        /* \"#utility.yul\":8282:8297   */\n      revert\n        /* \"#utility.yul\":8309:8590   */\n    tag_346:\n        /* \"#utility.yul\":8392:8419   */\n      tag_503\n        /* \"#utility.yul\":8414:8418   */\n      dup3\n        /* \"#utility.yul\":8392:8419   */\n      tag_328\n      jump\t// in\n    tag_503:\n        /* \"#utility.yul\":8384:8390   */\n      dup2\n        /* \"#utility.yul\":8380:8420   */\n      add\n        /* \"#utility.yul\":8522:8528   */\n      dup2\n        /* \"#utility.yul\":8510:8520   */\n      dup2\n        /* \"#utility.yul\":8507:8529   */\n      lt\n        /* \"#utility.yul\":8486:8504   */\n      0xffffffffffffffff\n        /* \"#utility.yul\":8474:8484   */\n      dup3\n        /* \"#utility.yul\":8471:8505   */\n      gt\n        /* \"#utility.yul\":8468:8530   */\n      or\n        /* \"#utility.yul\":8465:8553   */\n      iszero\n      tag_504\n      jumpi\n        /* \"#utility.yul\":8533:8551   */\n      tag_505\n      tag_345\n      jump\t// in\n    tag_505:\n        /* \"#utility.yul\":8465:8553   */\n    tag_504:\n        /* \"#utility.yul\":8573:8583   */\n      dup1\n        /* \"#utility.yul\":8569:8571   */\n      0x40\n        /* \"#utility.yul\":8562:8584   */\n      mstore\n        /* \"#utility.yul\":8352:8590   */\n      pop\n        /* \"#utility.yul\":8309:8590   */\n      pop\n      pop\n      jump\t// out\n        /* \"#utility.yul\":8596:8725   */\n    tag_347:\n        /* \"#utility.yul\":8630:8636   */\n      0x00\n        /* \"#utility.yul\":8657:8677   */\n      tag_507\n      tag_314\n      jump\t// in\n    tag_507:\n        /* \"#utility.yul\":8647:8677   */\n      swap1\n      pop\n        /* \"#utility.yul\":8686:8719   */\n      tag_508\n        /* \"#utility.yul\":8714:8718   */\n      dup3\n        /* \"#utility.yul\":8706:8712   */\n      dup3\n        /* \"#utility.yul\":8686:8719   */\n      tag_346\n      jump\t// in\n    tag_508:\n        /* \"#utility.yul\":8596:8725   */\n      swap2\n      swap1\n      pop\n      jump\t// out\n        /* \"#utility.yul\":8731:9039   */\n    tag_348:\n        /* \"#utility.yul\":8793:8797   */\n      0x00\n        /* \"#utility.yul\":8883:8901   */\n      0xffffffffffffffff\n        /* \"#utility.yul\":8875:8881   */\n      dup3\n        /* \"#utility.yul\":8872:8902   */\n      gt\n        /* \"#utility.yul\":8869:8925   */\n      iszero\n      tag_510\n      jumpi\n        /* \"#utility.yul\":8905:8923   */\n      tag_511\n      tag_345\n      jump\t// in\n    tag_511:\n        /* \"#utility.yul\":8869:8925   */\n    tag_510:\n        /* \"#utility.yul\":8943:8972   */\n      tag_512\n        /* \"#utility.yul\":8965:8971   */\n      dup3\n        /* \"#utility.yul\":8943:8972   */\n      tag_328\n      jump\t// in\n    tag_512:\n        /* \"#utility.yul\":8935:8972   */\n      swap1\n      pop\n        /* \"#utility.yul\":9027:9031   */\n      0x20\n        /* \"#utility.yul\":9021:9025   */\n      dup2\n        /* \"#utility.yul\":9017:9032   */\n      add\n        /* \"#utility.yul\":9009:9032   */\n      swap1\n      pop\n        /* \"#utility.yul\":8731:9039   */\n      swap2\n      swap1\n      pop\n      jump\t// out\n        /* \"#utility.yul\":9045:9193   */\n    tag_349:\n        /* \"#utility.yul\":9143:9149   */\n      dup3\n        /* \"#utility.yul\":9138:9141   */\n      dup2\n        /* \"#utility.yul\":9133:9136   */\n      dup4\n        /* \"#utility.yul\":9120:9150   */\n      calldatacopy\n        /* \"#utility.yul\":9184:9185   */\n      0x00\n        /* \"#utility.yul\":9175:9181   */\n      dup4\n        /* \"#utility.yul\":9170:9173   */\n      dup4\n        /* \"#utility.yul\":9166:9182   */\n      add\n        /* \"#utility.yul\":9159:9186   */\n      mstore\n        /* \"#utility.yul\":9045:9193   */\n      pop\n      pop\n      pop\n      jump\t// out\n        /* \"#utility.yul\":9199:9624   */\n    tag_350:\n        /* \"#utility.yul\":9277:9282   */\n      0x00\n        /* \"#utility.yul\":9302:9368   */\n      tag_515\n        /* \"#utility.yul\":9318:9367   */\n      tag_516\n        /* \"#utility.yul\":9360:9366   */\n      dup5\n        /* \"#utility.yul\":9318:9367   */\n      tag_348\n      jump\t// in\n    tag_516:\n        /* \"#utility.yul\":9302:9368   */\n      tag_347\n      jump\t// in\n    tag_515:\n        /* \"#utility.yul\":9293:9368   */\n      swap1\n      pop\n        /* \"#utility.yul\":9391:9397   */\n      dup3\n        /* \"#utility.yul\":9384:9389   */\n      dup2\n        /* \"#utility.yul\":9377:9398   */\n      mstore\n        /* \"#utility.yul\":9429:9433   */\n      0x20\n        /* \"#utility.yul\":9422:9427   */\n      dup2\n        /* \"#utility.yul\":9418:9434   */\n      add\n        /* \"#utility.yul\":9467:9470   */\n      dup5\n        /* \"#utility.yul\":9458:9464   */\n      dup5\n        /* \"#utility.yul\":9453:9456   */\n      dup5\n        /* \"#utility.yul\":9449:9465   */\n      add\n        /* \"#utility.yul\":9446:9471   */\n      gt\n        /* \"#utility.yul\":9443:9555   */\n      iszero\n      tag_517\n      jumpi\n        /* \"#utility.yul\":9474:9553   */\n      tag_518\n      tag_344\n      jump\t// in\n    tag_518:\n        /* \"#utility.yul\":9443:9555   */\n    tag_517:\n        /* \"#utility.yul\":9564:9618   */\n      tag_519\n        /* \"#utility.yul\":9611:9617   */\n      dup5\n        /* \"#utility.yul\":9606:9609   */\n      dup3\n        /* \"#utility.yul\":9601:9604   */\n      dup6\n        /* \"#utility.yul\":9564:9618   */\n      tag_349\n      jump\t// in\n    tag_519:\n        /* \"#utility.yul\":9283:9624   */\n      pop\n        /* \"#utility.yul\":9199:9624   */\n      swap4\n      swap3\n      pop\n      pop\n      pop\n      jump\t// out\n        /* \"#utility.yul\":9644:9984   */\n    tag_351:\n        /* \"#utility.yul\":9700:9705   */\n      0x00\n        /* \"#utility.yul\":9749:9752   */\n      dup3\n        /* \"#utility.yul\":9742:9746   */\n      0x1f\n        /* \"#utility.yul\":9734:9740   */\n      dup4\n        /* \"#utility.yul\":9730:9747   */\n      add\n        /* \"#utility.yul\":9726:9753   */\n      slt\n        /* \"#utility.yul\":9716:9838   */\n      tag_521\n      jumpi\n        /* \"#utility.yul\":9757:9836   */\n      tag_522\n      tag_343\n      jump\t// in\n    tag_522:\n        /* \"#utility.yul\":9716:9838   */\n    tag_521:\n        /* \"#utility.yul\":9874:9880   */\n      dup2\n        /* \"#utility.yul\":9861:9881   */\n      calldataload\n        /* \"#utility.yul\":9899:9978   */\n      tag_523\n        /* \"#utility.yul\":9974:9977   */\n      dup5\n        /* \"#utility.yul\":9966:9972   */\n      dup3\n        /* \"#utility.yul\":9959:9963   */\n      0x20\n        /* \"#utility.yul\":9951:9957   */\n      dup7\n        /* \"#utility.yul\":9947:9964   */\n      add\n        /* \"#utility.yul\":9899:9978   */\n      tag_350\n      jump\t// in\n    tag_523:\n        /* \"#utility.yul\":9890:9978   */\n      swap2\n      pop\n        /* \"#utility.yul\":9706:9984   */\n      pop\n        /* \"#utility.yul\":9644:9984   */\n      swap3\n      swap2\n      pop\n      pop\n      jump\t// out\n        /* \"#utility.yul\":9990:10969   */\n    tag_44:\n        /* \"#utility.yul\":10087:10093   */\n      0x00\n        /* \"#utility.yul\":10095:10101   */\n      0x00\n        /* \"#utility.yul\":10103:10109   */\n      0x00\n        /* \"#utility.yul\":10152:10154   */\n      0x60\n        /* \"#utility.yul\":10140:10149   */\n      dup5\n        /* \"#utility.yul\":10131:10138   */\n      dup7\n        /* \"#utility.yul\":10127:10150   */\n      sub\n        /* \"#utility.yul\":10123:10155   */\n      slt\n        /* \"#utility.yul\":10120:10239   */\n      iszero\n      tag_525\n      jumpi\n        /* \"#utility.yul\":10158:10237   */\n      tag_526\n      tag_315\n      jump\t// in\n    tag_526:\n        /* \"#utility.yul\":10120:10239   */\n    tag_525:\n        /* \"#utility.yul\":10306:10307   */\n      0x00\n        /* \"#utility.yul\":10295:10304   */\n      dup5\n        /* \"#utility.yul\":10291:10308   */\n      add\n        /* \"#utility.yul\":10278:10309   */\n      calldataload\n        /* \"#utility.yul\":10336:10354   */\n      0xffffffffffffffff\n        /* \"#utility.yul\":10328:10334   */\n      dup2\n        /* \"#utility.yul\":10325:10355   */\n      gt\n        /* \"#utility.yul\":10322:10439   */\n      iszero\n      tag_527\n      jumpi\n        /* \"#utility.yul\":10358:10437   */\n      tag_528\n      tag_316\n      jump\t// in\n    tag_528:\n        /* \"#utility.yul\":10322:10439   */\n    tag_527:\n        /* \"#utility.yul\":10463:10526   */\n      tag_529\n        /* \"#utility.yul\":10518:10525   */\n      dup7\n        /* \"#utility.yul\":10509:10515   */\n      dup3\n        /* \"#utility.yul\":10498:10507   */\n      dup8\n        /* \"#utility.yul\":10494:10516   */\n      add\n        /* \"#utility.yul\":10463:10526   */\n      tag_351\n      jump\t// in\n    tag_529:\n        /* \"#utility.yul\":10453:10526   */\n      swap4\n      pop\n        /* \"#utility.yul\":10249:10536   */\n      pop\n        /* \"#utility.yul\":10603:10605   */\n      0x20\n        /* \"#utility.yul\":10592:10601   */\n      dup5\n        /* \"#utility.yul\":10588:10606   */\n      add\n        /* \"#utility.yul\":10575:10607   */\n      calldataload\n        /* \"#utility.yul\":10634:10652   */\n      0xffffffffffffffff\n        /* \"#utility.yul\":10626:10632   */\n      dup2\n        /* \"#utility.yul\":10623:10653   */\n      gt\n        /* \"#utility.yul\":10620:10737   */\n      iszero\n      tag_530\n      jumpi\n        /* \"#utility.yul\":10656:10735   */\n      tag_531\n      tag_316\n      jump\t// in\n    tag_531:\n        /* \"#utility.yul\":10620:10737   */\n    tag_530:\n        /* \"#utility.yul\":10761:10824   */\n      tag_532\n        /* \"#utility.yul\":10816:10823   */\n      dup7\n        /* \"#utility.yul\":10807:10813   */\n      dup3\n        /* \"#utility.yul\":10796:10805   */\n      dup8\n        /* \"#utility.yul\":10792:10814   */\n      add\n        /* \"#utility.yul\":10761:10824   */\n      tag_351\n      jump\t// in\n    tag_532:\n        /* \"#utility.yul\":10751:10824   */\n      swap3\n      pop\n        /* \"#utility.yul\":10546:10834   */\n      pop\n        /* \"#utility.yul\":10873:10875   */\n      0x40\n        /* \"#utility.yul\":10899:10952   */\n      tag_533\n        /* \"#utility.yul\":10944:10951   */\n      dup7\n        /* \"#utility.yul\":10935:10941   */\n      dup3\n        /* \"#utility.yul\":10924:10933   */\n      dup8\n        /* \"#utility.yul\":10920:10942   */\n      add\n        /* \"#utility.yul\":10899:10952   */\n      tag_323\n      jump\t// in\n    tag_533:\n        /* \"#utility.yul\":10889:10952   */\n      swap2\n      pop\n        /* \"#utility.yul\":10844:10962   */\n      pop\n        /* \"#utility.yul\":9990:10969   */\n      swap3\n      pop\n      swap3\n      pop\n      swap3\n      jump\t// out\n        /* \"#utility.yul\":10975:11093   */\n    tag_352:\n        /* \"#utility.yul\":11062:11086   */\n      tag_535\n        /* \"#utility.yul\":11080:11085   */\n      dup2\n        /* \"#utility.yul\":11062:11086   */\n      tag_321\n      jump\t// in\n    tag_535:\n        /* \"#utility.yul\":11057:11060   */\n      dup3\n        /* \"#utility.yul\":11050:11087   */\n      mstore\n        /* \"#utility.yul\":10975:11093   */\n      pop\n      pop\n      jump\t// out\n        /* \"#utility.yul\":11099:11321   */\n    tag_47:\n        /* \"#utility.yul\":11192:11196   */\n      0x00\n        /* \"#utility.yul\":11230:11232   */\n      0x20\n        /* \"#utility.yul\":11219:11228   */\n      dup3\n        /* \"#utility.yul\":11215:11233   */\n      add\n        /* \"#utility.yul\":11207:11233   */\n      swap1\n      pop\n        /* \"#utility.yul\":11243:11314   */\n      tag_537\n        /* \"#utility.yul\":11311:11312   */\n      0x00\n        /* \"#utility.yul\":11300:11309   */\n      dup4\n        /* \"#utility.yul\":11296:11313   */\n      add\n        /* \"#utility.yul\":11287:11293   */\n      dup5\n        /* \"#utility.yul\":11243:11314   */\n      tag_352\n      jump\t// in\n    tag_537:\n        /* \"#utility.yul\":11099:11321   */\n      swap3\n      swap2\n      pop\n      pop\n      jump\t// out\n        /* \"#utility.yul\":11327:11801   */\n    tag_50:\n        /* \"#utility.yul\":11395:11401   */\n      0x00\n        /* \"#utility.yul\":11403:11409   */\n      0x00\n        /* \"#utility.yul\":11452:11454   */\n      0x40\n        /* \"#utility.yul\":11440:11449   */\n      dup4\n        /* \"#utility.yul\":11431:11438   */\n      dup6\n        /* \"#utility.yul\":11427:11450   */\n      sub\n        /* \"#utility.yul\":11423:11455   */\n      slt\n        /* \"#utility.yul\":11420:11539   */\n      iszero\n      tag_539\n      jumpi\n        /* \"#utility.yul\":11458:11537   */\n      tag_540\n      tag_315\n      jump\t// in\n    tag_540:\n        /* \"#utility.yul\":11420:11539   */\n    tag_539:\n        /* \"#utility.yul\":11578:11579   */\n      0x00\n        /* \"#utility.yul\":11603:11656   */\n      tag_541\n        /* \"#utility.yul\":11648:11655   */\n      dup6\n        /* \"#utility.yul\":11639:11645   */\n      dup3\n        /* \"#utility.yul\":11628:11637   */\n      dup7\n        /* \"#utility.yul\":11624:11646   */\n      add\n        /* \"#utility.yul\":11603:11656   */\n      tag_320\n      jump\t// in\n    tag_541:\n        /* \"#utility.yul\":11593:11656   */\n      swap3\n      pop\n        /* \"#utility.yul\":11549:11666   */\n      pop\n        /* \"#utility.yul\":11705:11707   */\n      0x20\n        /* \"#utility.yul\":11731:11784   */\n      tag_542\n        /* \"#utility.yul\":11776:11783   */\n      dup6\n        /* \"#utility.yul\":11767:11773   */\n      dup3\n        /* \"#utility.yul\":11756:11765   */\n      dup7\n        /* \"#utility.yul\":11752:11774   */\n      add\n        /* \"#utility.yul\":11731:11784   */\n      tag_323\n      jump\t// in\n    tag_542:\n        /* \"#utility.yul\":11721:11784   */\n      swap2\n      pop\n        /* \"#utility.yul\":11676:11794   */\n      pop\n        /* \"#utility.yul\":11327:11801   */\n      swap3\n      pop\n      swap3\n      swap1\n      pop\n      jump\t// out\n        /* \"#utility.yul\":11807:11976   */\n    tag_353:\n        /* \"#utility.yul\":11891:11902   */\n      0x00\n        /* \"#utility.yul\":11925:11931   */\n      dup3\n        /* \"#utility.yul\":11920:11923   */\n      dup3\n        /* \"#utility.yul\":11913:11932   */\n      mstore\n        /* \"#utility.yul\":11965:11969   */\n      0x20\n        /* \"#utility.yul\":11960:11963   */\n      dup3\n        /* \"#utility.yul\":11956:11970   */\n      add\n        /* \"#utility.yul\":11941:11970   */\n      swap1\n      pop\n        /* \"#utility.yul\":11807:11976   */\n      swap3\n      swap2\n      pop\n      pop\n      jump\t// out\n        /* \"#utility.yul\":11982:12359   */\n    tag_354:\n        /* \"#utility.yul\":12070:12073   */\n      0x00\n        /* \"#utility.yul\":12098:12137   */\n      tag_545\n        /* \"#utility.yul\":12131:12136   */\n      dup3\n        /* \"#utility.yul\":12098:12137   */\n      tag_325\n      jump\t// in\n    tag_545:\n        /* \"#utility.yul\":12153:12224   */\n      tag_546\n        /* \"#utility.yul\":12217:12223   */\n      dup2\n        /* \"#utility.yul\":12212:12215   */\n      dup6\n        /* \"#utility.yul\":12153:12224   */\n      tag_353\n      jump\t// in\n    tag_546:\n        /* \"#utility.yul\":12146:12224   */\n      swap4\n      pop\n        /* \"#utility.yul\":12233:12298   */\n      tag_547\n        /* \"#utility.yul\":12291:12297   */\n      dup2\n        /* \"#utility.yul\":12286:12289   */\n      dup6\n        /* \"#utility.yul\":12279:12283   */\n      0x20\n        /* \"#utility.yul\":12272:12277   */\n      dup7\n        /* \"#utility.yul\":12268:12284   */\n      add\n        /* \"#utility.yul\":12233:12298   */\n      tag_327\n      jump\t// in\n    tag_547:\n        /* \"#utility.yul\":12323:12352   */\n      tag_548\n        /* \"#utility.yul\":12345:12351   */\n      dup2\n        /* \"#utility.yul\":12323:12352   */\n      tag_328\n      jump\t// in\n    tag_548:\n        /* \"#utility.yul\":12318:12321   */\n      dup5\n        /* \"#utility.yul\":12314:12353   */\n      add\n        /* \"#utility.yul\":12307:12353   */\n      swap2\n      pop\n        /* \"#utility.yul\":12074:12359   */\n      pop\n        /* \"#utility.yul\":11982:12359   */\n      swap3\n      swap2\n      pop\n      pop\n      jump\t// out\n        /* \"#utility.yul\":12365:12483   */\n    tag_355:\n        /* \"#utility.yul\":12452:12476   */\n      tag_550\n        /* \"#utility.yul\":12470:12475   */\n      dup2\n        /* \"#utility.yul\":12452:12476   */\n      tag_318\n      jump\t// in\n    tag_550:\n        /* \"#utility.yul\":12447:12450   */\n      dup3\n        /* \"#utility.yul\":12440:12477   */\n      mstore\n        /* \"#utility.yul\":12365:12483   */\n      pop\n      pop\n      jump\t// out\n        /* \"#utility.yul\":12489:12646   */\n    tag_356:\n        /* \"#utility.yul\":12589:12639   */\n      tag_552\n        /* \"#utility.yul\":12633:12638   */\n      dup2\n        /* \"#utility.yul\":12589:12639   */\n      tag_333\n      jump\t// in\n    tag_552:\n        /* \"#utility.yul\":12584:12587   */\n      dup3\n        /* \"#utility.yul\":12577:12640   */\n      mstore\n        /* \"#utility.yul\":12489:12646   */\n      pop\n      pop\n      jump\t// out\n        /* \"#utility.yul\":12652:12761   */\n    tag_357:\n        /* \"#utility.yul\":12733:12754   */\n      tag_554\n        /* \"#utility.yul\":12748:12753   */\n      dup2\n        /* \"#utility.yul\":12733:12754   */\n      tag_335\n      jump\t// in\n    tag_554:\n        /* \"#utility.yul\":12728:12731   */\n      dup3\n        /* \"#utility.yul\":12721:12755   */\n      mstore\n        /* \"#utility.yul\":12652:12761   */\n      pop\n      pop\n      jump\t// out\n        /* \"#utility.yul\":12767:14182   */\n    tag_65:\n        /* \"#utility.yul\":13159:13163   */\n      0x00\n        /* \"#utility.yul\":13197:13200   */\n      0x0140\n        /* \"#utility.yul\":13186:13195   */\n      dup3\n        /* \"#utility.yul\":13182:13201   */\n      add\n        /* \"#utility.yul\":13174:13201   */\n      swap1\n      pop\n        /* \"#utility.yul\":13211:13282   */\n      tag_556\n        /* \"#utility.yul\":13279:13280   */\n      0x00\n        /* \"#utility.yul\":13268:13277   */\n      dup4\n        /* \"#utility.yul\":13264:13281   */\n      add\n        /* \"#utility.yul\":13255:13261   */\n      dup14\n        /* \"#utility.yul\":13211:13282   */\n      tag_352\n      jump\t// in\n    tag_556:\n        /* \"#utility.yul\":13329:13338   */\n      dup2\n        /* \"#utility.yul\":13323:13327   */\n      dup2\n        /* \"#utility.yul\":13319:13339   */\n      sub\n        /* \"#utility.yul\":13314:13316   */\n      0x20\n        /* \"#utility.yul\":13303:13312   */\n      dup4\n        /* \"#utility.yul\":13299:13317   */\n      add\n        /* \"#utility.yul\":13292:13340   */\n      mstore\n        /* \"#utility.yul\":13357:13435   */\n      tag_557\n        /* \"#utility.yul\":13430:13434   */\n      dup2\n        /* \"#utility.yul\":13421:13427   */\n      dup13\n        /* \"#utility.yul\":13357:13435   */\n      tag_354\n      jump\t// in\n    tag_557:\n        /* \"#utility.yul\":13349:13435   */\n      swap1\n      pop\n        /* \"#utility.yul\":13482:13491   */\n      dup2\n        /* \"#utility.yul\":13476:13480   */\n      dup2\n        /* \"#utility.yul\":13472:13492   */\n      sub\n        /* \"#utility.yul\":13467:13469   */\n      0x40\n        /* \"#utility.yul\":13456:13465   */\n      dup4\n        /* \"#utility.yul\":13452:13470   */\n      add\n        /* \"#utility.yul\":13445:13493   */\n      mstore\n        /* \"#utility.yul\":13510:13588   */\n      tag_558\n        /* \"#utility.yul\":13583:13587   */\n      dup2\n        /* \"#utility.yul\":13574:13580   */\n      dup12\n        /* \"#utility.yul\":13510:13588   */\n      tag_354\n      jump\t// in\n    tag_558:\n        /* \"#utility.yul\":13502:13588   */\n      swap1\n      pop\n        /* \"#utility.yul\":13598:13670   */\n      tag_559\n        /* \"#utility.yul\":13666:13668   */\n      0x60\n        /* \"#utility.yul\":13655:13664   */\n      dup4\n        /* \"#utility.yul\":13651:13669   */\n      add\n        /* \"#utility.yul\":13642:13648   */\n      dup11\n        /* \"#utility.yul\":13598:13670   */\n      tag_355\n      jump\t// in\n    tag_559:\n        /* \"#utility.yul\":13680:13753   */\n      tag_560\n        /* \"#utility.yul\":13748:13751   */\n      0x80\n        /* \"#utility.yul\":13737:13746   */\n      dup4\n        /* \"#utility.yul\":13733:13752   */\n      add\n        /* \"#utility.yul\":13724:13730   */\n      dup10\n        /* \"#utility.yul\":13680:13753   */\n      tag_355\n      jump\t// in\n    tag_560:\n        /* \"#utility.yul\":13763:13836   */\n      tag_561\n        /* \"#utility.yul\":13831:13834   */\n      0xa0\n        /* \"#utility.yul\":13820:13829   */\n      dup4\n        /* \"#utility.yul\":13816:13835   */\n      add\n        /* \"#utility.yul\":13807:13813   */\n      dup9\n        /* \"#utility.yul\":13763:13836   */\n      tag_352\n      jump\t// in\n    tag_561:\n        /* \"#utility.yul\":13846:13919   */\n      tag_562\n        /* \"#utility.yul\":13914:13917   */\n      0xc0\n        /* \"#utility.yul\":13903:13912   */\n      dup4\n        /* \"#utility.yul\":13899:13918   */\n      add\n        /* \"#utility.yul\":13890:13896   */\n      dup8\n        /* \"#utility.yul\":13846:13919   */\n      tag_355\n      jump\t// in\n    tag_562:\n        /* \"#utility.yul\":13929:14002   */\n      tag_563\n        /* \"#utility.yul\":13997:14000   */\n      0xe0\n        /* \"#utility.yul\":13986:13995   */\n      dup4\n        /* \"#utility.yul\":13982:14001   */\n      add\n        /* \"#utility.yul\":13973:13979   */\n      dup7\n        /* \"#utility.yul\":13929:14002   */\n      tag_352\n      jump\t// in\n    tag_563:\n        /* \"#utility.yul\":14012:14098   */\n      tag_564\n        /* \"#utility.yul\":14093:14096   */\n      0x0100\n        /* \"#utility.yul\":14082:14091   */\n      dup4\n        /* \"#utility.yul\":14078:14097   */\n      add\n        /* \"#utility.yul\":14069:14075   */\n      dup6\n        /* \"#utility.yul\":14012:14098   */\n      tag_356\n      jump\t// in\n    tag_564:\n        /* \"#utility.yul\":14108:14175   */\n      tag_565\n        /* \"#utility.yul\":14170:14173   */\n      0x0120\n        /* \"#utility.yul\":14159:14168   */\n      dup4\n        /* \"#utility.yul\":14155:14174   */\n      add\n        /* \"#utility.yul\":14146:14152   */\n      dup5\n        /* \"#utility.yul\":14108:14175   */\n      tag_357\n      jump\t// in\n    tag_565:\n        /* \"#utility.yul\":12767:14182   */\n      swap12\n      swap11\n      pop\n      pop\n      pop\n      pop\n      pop\n      pop\n      pop\n      pop\n      pop\n      pop\n      pop\n      jump\t// out\n        /* \"#utility.yul\":14188:14410   */\n    tag_69:\n        /* \"#utility.yul\":14281:14285   */\n      0x00\n        /* \"#utility.yul\":14319:14321   */\n      0x20\n        /* \"#utility.yul\":14308:14317   */\n      dup3\n        /* \"#utility.yul\":14304:14322   */\n      add\n        /* \"#utility.yul\":14296:14322   */\n      swap1\n      pop\n        /* \"#utility.yul\":14332:14403   */\n      tag_567\n        /* \"#utility.yul\":14400:14401   */\n      0x00\n        /* \"#utility.yul\":14389:14398   */\n      dup4\n        /* \"#utility.yul\":14385:14402   */\n      add\n        /* \"#utility.yul\":14376:14382   */\n      dup5\n        /* \"#utility.yul\":14332:14403   */\n      tag_355\n      jump\t// in\n    tag_567:\n        /* \"#utility.yul\":14188:14410   */\n      swap3\n      swap2\n      pop\n      pop\n      jump\t// out\n        /* \"#utility.yul\":14416:14530   */\n    tag_358:\n        /* \"#utility.yul\":14483:14489   */\n      0x00\n        /* \"#utility.yul\":14517:14522   */\n      dup2\n        /* \"#utility.yul\":14511:14523   */\n      mload\n        /* \"#utility.yul\":14501:14523   */\n      swap1\n      pop\n        /* \"#utility.yul\":14416:14530   */\n      swap2\n      swap1\n      pop\n      jump\t// out\n        /* \"#utility.yul\":14536:14720   */\n    tag_359:\n        /* \"#utility.yul\":14635:14646   */\n      0x00\n        /* \"#utility.yul\":14669:14675   */\n      dup3\n        /* \"#utility.yul\":14664:14667   */\n      dup3\n        /* \"#utility.yul\":14657:14676   */\n      mstore\n        /* \"#utility.yul\":14709:14713   */\n      0x20\n        /* \"#utility.yul\":14704:14707   */\n      dup3\n        /* \"#utility.yul\":14700:14714   */\n      add\n        /* \"#utility.yul\":14685:14714   */\n      swap1\n      pop\n        /* \"#utility.yul\":14536:14720   */\n      swap3\n      swap2\n      pop\n      pop\n      jump\t// out\n        /* \"#utility.yul\":14726:14858   */\n    tag_360:\n        /* \"#utility.yul\":14793:14797   */\n      0x00\n        /* \"#utility.yul\":14816:14819   */\n      dup2\n        /* \"#utility.yul\":14808:14819   */\n      swap1\n      pop\n        /* \"#utility.yul\":14846:14850   */\n      0x20\n        /* \"#utility.yul\":14841:14844   */\n      dup3\n        /* \"#utility.yul\":14837:14851   */\n      add\n        /* \"#utility.yul\":14829:14851   */\n      swap1\n      pop\n        /* \"#utility.yul\":14726:14858   */\n      swap2\n      swap1\n      pop\n      jump\t// out\n        /* \"#utility.yul\":14864:15043   */\n    tag_361:\n        /* \"#utility.yul\":14933:14943   */\n      0x00\n        /* \"#utility.yul\":14954:15000   */\n      tag_572\n        /* \"#utility.yul\":14996:14999   */\n      dup4\n        /* \"#utility.yul\":14988:14994   */\n      dup4\n        /* \"#utility.yul\":14954:15000   */\n      tag_324\n      jump\t// in\n    tag_572:\n        /* \"#utility.yul\":15032:15036   */\n      0x20\n        /* \"#utility.yul\":15027:15030   */\n      dup4\n        /* \"#utility.yul\":15023:15037   */\n      add\n        /* \"#utility.yul\":15009:15037   */\n      swap1\n      pop\n        /* \"#utility.yul\":14864:15043   */\n      swap3\n      swap2\n      pop\n      pop\n      jump\t// out\n        /* \"#utility.yul\":15049:15162   */\n    tag_362:\n        /* \"#utility.yul\":15119:15123   */\n      0x00\n        /* \"#utility.yul\":15151:15155   */\n      0x20\n        /* \"#utility.yul\":15146:15149   */\n      dup3\n        /* \"#utility.yul\":15142:15156   */\n      add\n        /* \"#utility.yul\":15134:15156   */\n      swap1\n      pop\n        /* \"#utility.yul\":15049:15162   */\n      swap2\n      swap1\n      pop\n      jump\t// out\n        /* \"#utility.yul\":15198:15930   */\n    tag_363:\n        /* \"#utility.yul\":15317:15320   */\n      0x00\n        /* \"#utility.yul\":15346:15400   */\n      tag_575\n        /* \"#utility.yul\":15394:15399   */\n      dup3\n        /* \"#utility.yul\":15346:15400   */\n      tag_358\n      jump\t// in\n    tag_575:\n        /* \"#utility.yul\":15416:15502   */\n      tag_576\n        /* \"#utility.yul\":15495:15501   */\n      dup2\n        /* \"#utility.yul\":15490:15493   */\n      dup6\n        /* \"#utility.yul\":15416:15502   */\n      tag_359\n      jump\t// in\n    tag_576:\n        /* \"#utility.yul\":15409:15502   */\n      swap4\n      pop\n        /* \"#utility.yul\":15526:15582   */\n      tag_577\n        /* \"#utility.yul\":15576:15581   */\n      dup4\n        /* \"#utility.yul\":15526:15582   */\n      tag_360\n      jump\t// in\n    tag_577:\n        /* \"#utility.yul\":15605:15612   */\n      dup1\n        /* \"#utility.yul\":15636:15637   */\n      0x00\n        /* \"#utility.yul\":15621:15905   */\n    tag_578:\n        /* \"#utility.yul\":15646:15652   */\n      dup4\n        /* \"#utility.yul\":15643:15644   */\n      dup2\n        /* \"#utility.yul\":15640:15653   */\n      lt\n        /* \"#utility.yul\":15621:15905   */\n      iszero\n      tag_580\n      jumpi\n        /* \"#utility.yul\":15722:15728   */\n      dup2\n        /* \"#utility.yul\":15716:15729   */\n      mload\n        /* \"#utility.yul\":15749:15812   */\n      tag_581\n        /* \"#utility.yul\":15808:15811   */\n      dup9\n        /* \"#utility.yul\":15793:15806   */\n      dup3\n        /* \"#utility.yul\":15749:15812   */\n      tag_361\n      jump\t// in\n    tag_581:\n        /* \"#utility.yul\":15742:15812   */\n      swap8\n      pop\n        /* \"#utility.yul\":15835:15895   */\n      tag_582\n        /* \"#utility.yul\":15888:15894   */\n      dup4\n        /* \"#utility.yul\":15835:15895   */\n      tag_362\n      jump\t// in\n    tag_582:\n        /* \"#utility.yul\":15825:15895   */\n      swap3\n      pop\n        /* \"#utility.yul\":15681:15905   */\n      pop\n        /* \"#utility.yul\":15668:15669   */\n      0x01\n        /* \"#utility.yul\":15665:15666   */\n      dup2\n        /* \"#utility.yul\":15661:15670   */\n      add\n        /* \"#utility.yul\":15656:15670   */\n      swap1\n      pop\n        /* \"#utility.yul\":15621:15905   */\n      jump(tag_578)\n    tag_580:\n        /* \"#utility.yul\":15625:15639   */\n      pop\n        /* \"#utility.yul\":15921:15924   */\n      dup6\n        /* \"#utility.yul\":15914:15924   */\n      swap4\n      pop\n        /* \"#utility.yul\":15322:15930   */\n      pop\n      pop\n      pop\n        /* \"#utility.yul\":15198:15930   */\n      swap3\n      swap2\n      pop\n      pop\n      jump\t// out\n        /* \"#utility.yul\":15936:16309   */\n    tag_74:\n        /* \"#utility.yul\":16079:16083   */\n      0x00\n        /* \"#utility.yul\":16117:16119   */\n      0x20\n        /* \"#utility.yul\":16106:16115   */\n      dup3\n        /* \"#utility.yul\":16102:16120   */\n      add\n        /* \"#utility.yul\":16094:16120   */\n      swap1\n      pop\n        /* \"#utility.yul\":16166:16175   */\n      dup2\n        /* \"#utility.yul\":16160:16164   */\n      dup2\n        /* \"#utility.yul\":16156:16176   */\n      sub\n        /* \"#utility.yul\":16152:16153   */\n      0x00\n        /* \"#utility.yul\":16141:16150   */\n      dup4\n        /* \"#utility.yul\":16137:16154   */\n      add\n        /* \"#utility.yul\":16130:16177   */\n      mstore\n        /* \"#utility.yul\":16194:16302   */\n      tag_584\n        /* \"#utility.yul\":16297:16301   */\n      dup2\n        /* \"#utility.yul\":16288:16294   */\n      dup5\n        /* \"#utility.yul\":16194:16302   */\n      tag_363\n      jump\t// in\n    tag_584:\n        /* \"#utility.yul\":16186:16302   */\n      swap1\n      pop\n        /* \"#utility.yul\":15936:16309   */\n      swap3\n      swap2\n      pop\n      pop\n      jump\t// out\n        /* \"#utility.yul\":16315:17080   */\n    tag_77:\n        /* \"#utility.yul\":16401:16407   */\n      0x00\n        /* \"#utility.yul\":16409:16415   */\n      0x00\n        /* \"#utility.yul\":16417:16423   */\n      0x00\n        /* \"#utility.yul\":16425:16431   */\n      0x00\n        /* \"#utility.yul\":16474:16477   */\n      0x80\n        /* \"#utility.yul\":16462:16471   */\n      dup6\n        /* \"#utility.yul\":16453:16460   */\n      dup8\n        /* \"#utility.yul\":16449:16472   */\n      sub\n        /* \"#utility.yul\":16445:16478   */\n      slt\n        /* \"#utility.yul\":16442:16562   */\n      iszero\n      tag_586\n      jumpi\n        /* \"#utility.yul\":16481:16560   */\n      tag_587\n      tag_315\n      jump\t// in\n    tag_587:\n        /* \"#utility.yul\":16442:16562   */\n    tag_586:\n        /* \"#utility.yul\":16601:16602   */\n      0x00\n        /* \"#utility.yul\":16626:16679   */\n      tag_588\n        /* \"#utility.yul\":16671:16678   */\n      dup8\n        /* \"#utility.yul\":16662:16668   */\n      dup3\n        /* \"#utility.yul\":16651:16660   */\n      dup9\n        /* \"#utility.yul\":16647:16669   */\n      add\n        /* \"#utility.yul\":16626:16679   */\n      tag_323\n      jump\t// in\n    tag_588:\n        /* \"#utility.yul\":16616:16679   */\n      swap5\n      pop\n        /* \"#utility.yul\":16572:16689   */\n      pop\n        /* \"#utility.yul\":16728:16730   */\n      0x20\n        /* \"#utility.yul\":16754:16807   */\n      tag_589\n        /* \"#utility.yul\":16799:16806   */\n      dup8\n        /* \"#utility.yul\":16790:16796   */\n      dup3\n        /* \"#utility.yul\":16779:16788   */\n      dup9\n        /* \"#utility.yul\":16775:16797   */\n      add\n        /* \"#utility.yul\":16754:16807   */\n      tag_320\n      jump\t// in\n    tag_589:\n        /* \"#utility.yul\":16744:16807   */\n      swap4\n      pop\n        /* \"#utility.yul\":16699:16817   */\n      pop\n        /* \"#utility.yul\":16856:16858   */\n      0x40\n        /* \"#utility.yul\":16882:16935   */\n      tag_590\n        /* \"#utility.yul\":16927:16934   */\n      dup8\n        /* \"#utility.yul\":16918:16924   */\n      dup3\n        /* \"#utility.yul\":16907:16916   */\n      dup9\n        /* \"#utility.yul\":16903:16925   */\n      add\n        /* \"#utility.yul\":16882:16935   */\n      tag_323\n      jump\t// in\n    tag_590:\n        /* \"#utility.yul\":16872:16935   */\n      swap3\n      pop\n        /* \"#utility.yul\":16827:16945   */\n      pop\n        /* \"#utility.yul\":16984:16986   */\n      0x60\n        /* \"#utility.yul\":17010:17063   */\n      tag_591\n        /* \"#utility.yul\":17055:17062   */\n      dup8\n        /* \"#utility.yul\":17046:17052   */\n      dup3\n        /* \"#utility.yul\":17035:17044   */\n      dup9\n        /* \"#utility.yul\":17031:17053   */\n      add\n        /* \"#utility.yul\":17010:17063   */\n      tag_320\n      jump\t// in\n    tag_591:\n        /* \"#utility.yul\":17000:17063   */\n      swap2\n      pop\n        /* \"#utility.yul\":16955:17073   */\n      pop\n        /* \"#utility.yul\":16315:17080   */\n      swap3\n      swap6\n      swap2\n      swap5\n      pop\n      swap3\n      pop\n      jump\t// out\n        /* \"#utility.yul\":17086:17242   */\n    tag_364:\n        /* \"#utility.yul\":17226:17234   */\n      0x546f6b656e310000000000000000000000000000000000000000000000000000\n        /* \"#utility.yul\":17222:17223   */\n      0x00\n        /* \"#utility.yul\":17214:17220   */\n      dup3\n        /* \"#utility.yul\":17210:17224   */\n      add\n        /* \"#utility.yul\":17203:17235   */\n      mstore\n        /* \"#utility.yul\":17086:17242   */\n      pop\n      jump\t// out\n        /* \"#utility.yul\":17248:17613   */\n    tag_365:\n        /* \"#utility.yul\":17390:17393   */\n      0x00\n        /* \"#utility.yul\":17411:17477   */\n      tag_594\n        /* \"#utility.yul\":17475:17476   */\n      0x06\n        /* \"#utility.yul\":17470:17473   */\n      dup4\n        /* \"#utility.yul\":17411:17477   */\n      tag_353\n      jump\t// in\n    tag_594:\n        /* \"#utility.yul\":17404:17477   */\n      swap2\n      pop\n        /* \"#utility.yul\":17486:17579   */\n      tag_595\n        /* \"#utility.yul\":17575:17578   */\n      dup3\n        /* \"#utility.yul\":17486:17579   */\n      tag_364\n      jump\t// in\n    tag_595:\n        /* \"#utility.yul\":17604:17606   */\n      0x20\n        /* \"#utility.yul\":17599:17602   */\n      dup3\n        /* \"#utility.yul\":17595:17607   */\n      add\n        /* \"#utility.yul\":17588:17607   */\n      swap1\n      pop\n        /* \"#utility.yul\":17248:17613   */\n      swap2\n      swap1\n      pop\n      jump\t// out\n        /* \"#utility.yul\":17619:18258   */\n    tag_99:\n        /* \"#utility.yul\":17841:17845   */\n      0x00\n        /* \"#utility.yul\":17879:17881   */\n      0x60\n        /* \"#utility.yul\":17868:17877   */\n      dup3\n        /* \"#utility.yul\":17864:17882   */\n      add\n        /* \"#utility.yul\":17856:17882   */\n      swap1\n      pop\n        /* \"#utility.yul\":17928:17937   */\n      dup2\n        /* \"#utility.yul\":17922:17926   */\n      dup2\n        /* \"#utility.yul\":17918:17938   */\n      sub\n        /* \"#utility.yul\":17914:17915   */\n      0x00\n        /* \"#utility.yul\":17903:17912   */\n      dup4\n        /* \"#utility.yul\":17899:17916   */\n      add\n        /* \"#utility.yul\":17892:17939   */\n      mstore\n        /* \"#utility.yul\":17956:18087   */\n      tag_597\n        /* \"#utility.yul\":18082:18086   */\n      dup2\n        /* \"#utility.yul\":17956:18087   */\n      tag_365\n      jump\t// in\n    tag_597:\n        /* \"#utility.yul\":17948:18087   */\n      swap1\n      pop\n        /* \"#utility.yul\":18097:18169   */\n      tag_598\n        /* \"#utility.yul\":18165:18167   */\n      0x20\n        /* \"#utility.yul\":18154:18163   */\n      dup4\n        /* \"#utility.yul\":18150:18168   */\n      add\n        /* \"#utility.yul\":18141:18147   */\n      dup6\n        /* \"#utility.yul\":18097:18169   */\n      tag_355\n      jump\t// in\n    tag_598:\n        /* \"#utility.yul\":18179:18251   */\n      tag_599\n        /* \"#utility.yul\":18247:18249   */\n      0x40\n        /* \"#utility.yul\":18236:18245   */\n      dup4\n        /* \"#utility.yul\":18232:18250   */\n      add\n        /* \"#utility.yul\":18223:18229   */\n      dup5\n        /* \"#utility.yul\":18179:18251   */\n      tag_355\n      jump\t// in\n    tag_599:\n        /* \"#utility.yul\":17619:18258   */\n      swap4\n      swap3\n      pop\n      pop\n      pop\n      jump\t// out\n        /* \"#utility.yul\":18264:18433   */\n    tag_366:\n        /* \"#utility.yul\":18404:18425   */\n      0x5461736b20646f6573206e6f7420657869737400000000000000000000000000\n        /* \"#utility.yul\":18400:18401   */\n      0x00\n        /* \"#utility.yul\":18392:18398   */\n      dup3\n        /* \"#utility.yul\":18388:18402   */\n      add\n        /* \"#utility.yul\":18381:18426   */\n      mstore\n        /* \"#utility.yul\":18264:18433   */\n      pop\n      jump\t// out\n        /* \"#utility.yul\":18439:18805   */\n    tag_367:\n        /* \"#utility.yul\":18581:18584   */\n      0x00\n        /* \"#utility.yul\":18602:18669   */\n      tag_602\n        /* \"#utility.yul\":18666:18668   */\n      0x13\n        /* \"#utility.yul\":18661:18664   */\n      dup4\n        /* \"#utility.yul\":18602:18669   */\n      tag_353\n      jump\t// in\n    tag_602:\n        /* \"#utility.yul\":18595:18669   */\n      swap2\n      pop\n        /* \"#utility.yul\":18678:18771   */\n      tag_603\n        /* \"#utility.yul\":18767:18770   */\n      dup3\n        /* \"#utility.yul\":18678:18771   */\n      tag_366\n      jump\t// in\n    tag_603:\n        /* \"#utility.yul\":18796:18798   */\n      0x20\n        /* \"#utility.yul\":18791:18794   */\n      dup3\n        /* \"#utility.yul\":18787:18799   */\n      add\n        /* \"#utility.yul\":18780:18799   */\n      swap1\n      pop\n        /* \"#utility.yul\":18439:18805   */\n      swap2\n      swap1\n      pop\n      jump\t// out\n        /* \"#utility.yul\":18811:19230   */\n    tag_105:\n        /* \"#utility.yul\":18977:18981   */\n      0x00\n        /* \"#utility.yul\":19015:19017   */\n      0x20\n        /* \"#utility.yul\":19004:19013   */\n      dup3\n        /* \"#utility.yul\":19000:19018   */\n      add\n        /* \"#utility.yul\":18992:19018   */\n      swap1\n      pop\n        /* \"#utility.yul\":19064:19073   */\n      dup2\n        /* \"#utility.yul\":19058:19062   */\n      dup2\n        /* \"#utility.yul\":19054:19074   */\n      sub\n        /* \"#utility.yul\":19050:19051   */\n      0x00\n        /* \"#utility.yul\":19039:19048   */\n      dup4\n        /* \"#utility.yul\":19035:19052   */\n      add\n        /* \"#utility.yul\":19028:19075   */\n      mstore\n        /* \"#utility.yul\":19092:19223   */\n      tag_605\n        /* \"#utility.yul\":19218:19222   */\n      dup2\n        /* \"#utility.yul\":19092:19223   */\n      tag_367\n      jump\t// in\n    tag_605:\n        /* \"#utility.yul\":19084:19223   */\n      swap1\n      pop\n        /* \"#utility.yul\":18811:19230   */\n      swap2\n      swap1\n      pop\n      jump\t// out\n        /* \"#utility.yul\":19236:19416   */\n    tag_368:\n        /* \"#utility.yul\":19284:19361   */\n      0x4e487b7100000000000000000000000000000000000000000000000000000000\n        /* \"#utility.yul\":19281:19282   */\n      0x00\n        /* \"#utility.yul\":19274:19362   */\n      mstore\n        /* \"#utility.yul\":19381:19385   */\n      0x22\n        /* \"#utility.yul\":19378:19379   */\n      0x04\n        /* \"#utility.yul\":19371:19386   */\n      mstore\n        /* \"#utility.yul\":19405:19409   */\n      0x24\n        /* \"#utility.yul\":19402:19403   */\n      0x00\n        /* \"#utility.yul\":19395:19410   */\n      revert\n        /* \"#utility.yul\":19422:19742   */\n    tag_107:\n        /* \"#utility.yul\":19466:19472   */\n      0x00\n        /* \"#utility.yul\":19503:19504   */\n      0x02\n        /* \"#utility.yul\":19497:19501   */\n      dup3\n        /* \"#utility.yul\":19493:19505   */\n      div\n        /* \"#utility.yul\":19483:19505   */\n      swap1\n      pop\n        /* \"#utility.yul\":19550:19551   */\n      0x01\n        /* \"#utility.yul\":19544:19548   */\n      dup3\n        /* \"#utility.yul\":19540:19552   */\n      and\n        /* \"#utility.yul\":19571:19589   */\n      dup1\n        /* \"#utility.yul\":19561:19642   */\n      tag_608\n      jumpi\n        /* \"#utility.yul\":19627:19631   */\n      0x7f\n        /* \"#utility.yul\":19619:19625   */\n      dup3\n        /* \"#utility.yul\":19615:19632   */\n      and\n        /* \"#utility.yul\":19605:19632   */\n      swap2\n      pop\n        /* \"#utility.yul\":19561:19642   */\n    tag_608:\n        /* \"#utility.yul\":19689:19691   */\n      0x20\n        /* \"#utility.yul\":19681:19687   */\n      dup3\n        /* \"#utility.yul\":19678:19692   */\n      lt\n        /* \"#utility.yul\":19658:19676   */\n      dup2\n        /* \"#utility.yul\":19655:19693   */\n      sub\n        /* \"#utility.yul\":19652:19736   */\n      tag_609\n      jumpi\n        /* \"#utility.yul\":19708:19726   */\n      tag_610\n      tag_368\n      jump\t// in\n    tag_610:\n        /* \"#utility.yul\":19652:19736   */\n    tag_609:\n        /* \"#utility.yul\":19473:19742   */\n      pop\n        /* \"#utility.yul\":19422:19742   */\n      swap2\n      swap1\n      pop\n      jump\t// out\n        /* \"#utility.yul\":19748:19918   */\n    tag_369:\n        /* \"#utility.yul\":19888:19910   */\n      0x5461736b206e6f7420696e2070726f6772657373000000000000000000000000\n        /* \"#utility.yul\":19884:19885   */\n      0x00\n        /* \"#utility.yul\":19876:19882   */\n      dup3\n        /* \"#utility.yul\":19872:19886   */\n      add\n        /* \"#utility.yul\":19865:19911   */\n      mstore\n        /* \"#utility.yul\":19748:19918   */\n      pop\n      jump\t// out\n        /* \"#utility.yul\":19924:20290   */\n    tag_370:\n        /* \"#utility.yul\":20066:20069   */\n      0x00\n        /* \"#utility.yul\":20087:20154   */\n      tag_613\n        /* \"#utility.yul\":20151:20153   */\n      0x14\n        /* \"#utility.yul\":20146:20149   */\n      dup4\n        /* \"#utility.yul\":20087:20154   */\n      tag_353\n      jump\t// in\n    tag_613:\n        /* \"#utility.yul\":20080:20154   */\n      swap2\n      pop\n        /* \"#utility.yul\":20163:20256   */\n      tag_614\n        /* \"#utility.yul\":20252:20255   */\n      dup3\n        /* \"#utility.yul\":20163:20256   */\n      tag_369\n      jump\t// in\n    tag_614:\n        /* \"#utility.yul\":20281:20283   */\n      0x20\n        /* \"#utility.yul\":20276:20279   */\n      dup3\n        /* \"#utility.yul\":20272:20284   */\n      add\n        /* \"#utility.yul\":20265:20284   */\n      swap1\n      pop\n        /* \"#utility.yul\":19924:20290   */\n      swap2\n      swap1\n      pop\n      jump\t// out\n        /* \"#utility.yul\":20296:20715   */\n    tag_134:\n        /* \"#utility.yul\":20462:20466   */\n      0x00\n        /* \"#utility.yul\":20500:20502   */\n      0x20\n        /* \"#utility.yul\":20489:20498   */\n      dup3\n        /* \"#utility.yul\":20485:20503   */\n      add\n        /* \"#utility.yul\":20477:20503   */\n      swap1\n      pop\n        /* \"#utility.yul\":20549:20558   */\n      dup2\n        /* \"#utility.yul\":20543:20547   */\n      dup2\n        /* \"#utility.yul\":20539:20559   */\n      sub\n        /* \"#utility.yul\":20535:20536   */\n      0x00\n        /* \"#utility.yul\":20524:20533   */\n      dup4\n        /* \"#utility.yul\":20520:20537   */\n      add\n        /* \"#utility.yul\":20513:20560   */\n      mstore\n        /* \"#utility.yul\":20577:20708   */\n      tag_616\n        /* \"#utility.yul\":20703:20707   */\n      dup2\n        /* \"#utility.yul\":20577:20708   */\n      tag_370\n      jump\t// in\n    tag_616:\n        /* \"#utility.yul\":20569:20708   */\n      swap1\n      pop\n        /* \"#utility.yul\":20296:20715   */\n      swap2\n      swap1\n      pop\n      jump\t// out\n        /* \"#utility.yul\":20721:20896   */\n    tag_371:\n        /* \"#utility.yul\":20861:20888   */\n      0x4f6e6c792063726561746f722063616e20636f6d706c65746500000000000000\n        /* \"#utility.yul\":20857:20858   */\n      0x00\n        /* \"#utility.yul\":20849:20855   */\n      dup3\n        /* \"#utility.yul\":20845:20859   */\n      add\n        /* \"#utility.yul\":20838:20889   */\n      mstore\n        /* \"#utility.yul\":20721:20896   */\n      pop\n      jump\t// out\n        /* \"#utility.yul\":20902:21268   */\n    tag_372:\n        /* \"#utility.yul\":21044:21047   */\n      0x00\n        /* \"#utility.yul\":21065:21132   */\n      tag_619\n        /* \"#utility.yul\":21129:21131   */\n      0x19\n        /* \"#utility.yul\":21124:21127   */\n      dup4\n        /* \"#utility.yul\":21065:21132   */\n      tag_353\n      jump\t// in\n    tag_619:\n        /* \"#utility.yul\":21058:21132   */\n      swap2\n      pop\n        /* \"#utility.yul\":21141:21234   */\n      tag_620\n        /* \"#utility.yul\":21230:21233   */\n      dup3\n        /* \"#utility.yul\":21141:21234   */\n      tag_371\n      jump\t// in\n    tag_620:\n        /* \"#utility.yul\":21259:21261   */\n      0x20\n        /* \"#utility.yul\":21254:21257   */\n      dup3\n        /* \"#utility.yul\":21250:21262   */\n      add\n        /* \"#utility.yul\":21243:21262   */\n      swap1\n      pop\n        /* \"#utility.yul\":20902:21268   */\n      swap2\n      swap1\n      pop\n      jump\t// out\n        /* \"#utility.yul\":21274:21693   */\n    tag_137:\n        /* \"#utility.yul\":21440:21444   */\n      0x00\n        /* \"#utility.yul\":21478:21480   */\n      0x20\n        /* \"#utility.yul\":21467:21476   */\n      dup3\n        /* \"#utility.yul\":21463:21481   */\n      add\n        /* \"#utility.yul\":21455:21481   */\n      swap1\n      pop\n        /* \"#utility.yul\":21527:21536   */\n      dup2\n        /* \"#utility.yul\":21521:21525   */\n      dup2\n        /* \"#utility.yul\":21517:21537   */\n      sub\n        /* \"#utility.yul\":21513:21514   */\n      0x00\n        /* \"#utility.yul\":21502:21511   */\n      dup4\n        /* \"#utility.yul\":21498:21515   */\n      add\n        /* \"#utility.yul\":21491:21538   */\n      mstore\n        /* \"#utility.yul\":21555:21686   */\n      tag_622\n        /* \"#utility.yul\":21681:21685   */\n      dup2\n        /* \"#utility.yul\":21555:21686   */\n      tag_372\n      jump\t// in\n    tag_622:\n        /* \"#utility.yul\":21547:21686   */\n      swap1\n      pop\n        /* \"#utility.yul\":21274:21693   */\n      swap2\n      swap1\n      pop\n      jump\t// out\n        /* \"#utility.yul\":21699:21868   */\n    tag_373:\n        /* \"#utility.yul\":21839:21860   */\n      0x496e76616c696420636f6e7472696275746f7200000000000000000000000000\n        /* \"#utility.yul\":21835:21836   */\n      0x00\n        /* \"#utility.yul\":21827:21833   */\n      dup3\n        /* \"#utility.yul\":21823:21837   */\n      add\n        /* \"#utility.yul\":21816:21861   */\n      mstore\n        /* \"#utility.yul\":21699:21868   */\n      pop\n      jump\t// out\n        /* \"#utility.yul\":21874:22240   */\n    tag_374:\n        /* \"#utility.yul\":22016:22019   */\n      0x00\n        /* \"#utility.yul\":22037:22104   */\n      tag_625\n        /* \"#utility.yul\":22101:22103   */\n      0x13\n        /* \"#utility.yul\":22096:22099   */\n      dup4\n        /* \"#utility.yul\":22037:22104   */\n      tag_353\n      jump\t// in\n    tag_625:\n        /* \"#utility.yul\":22030:22104   */\n      swap2\n      pop\n        /* \"#utility.yul\":22113:22206   */\n      tag_626\n        /* \"#utility.yul\":22202:22205   */\n      dup3\n        /* \"#utility.yul\":22113:22206   */\n      tag_373\n      jump\t// in\n    tag_626:\n        /* \"#utility.yul\":22231:22233   */\n      0x20\n        /* \"#utility.yul\":22226:22229   */\n      dup3\n        /* \"#utility.yul\":22222:22234   */\n      add\n        /* \"#utility.yul\":22215:22234   */\n      swap1\n      pop\n        /* \"#utility.yul\":21874:22240   */\n      swap2\n      swap1\n      pop\n      jump\t// out\n        /* \"#utility.yul\":22246:22665   */\n    tag_140:\n        /* \"#utility.yul\":22412:22416   */\n      0x00\n        /* \"#utility.yul\":22450:22452   */\n      0x20\n        /* \"#utility.yul\":22439:22448   */\n      dup3\n        /* \"#utility.yul\":22435:22453   */\n      add\n        /* \"#utility.yul\":22427:22453   */\n      swap1\n      pop\n        /* \"#utility.yul\":22499:22508   */\n      dup2\n        /* \"#utility.yul\":22493:22497   */\n      dup2\n        /* \"#utility.yul\":22489:22509   */\n      sub\n        /* \"#utility.yul\":22485:22486   */\n      0x00\n        /* \"#utility.yul\":22474:22483   */\n      dup4\n        /* \"#utility.yul\":22470:22487   */\n      add\n        /* \"#utility.yul\":22463:22510   */\n      mstore\n        /* \"#utility.yul\":22527:22658   */\n      tag_628\n        /* \"#utility.yul\":22653:22657   */\n      dup2\n        /* \"#utility.yul\":22527:22658   */\n      tag_374\n      jump\t// in\n    tag_628:\n        /* \"#utility.yul\":22519:22658   */\n      swap1\n      pop\n        /* \"#utility.yul\":22246:22665   */\n      swap2\n      swap1\n      pop\n      jump\t// out\n        /* \"#utility.yul\":22671:22834   */\n    tag_375:\n        /* \"#utility.yul\":22811:22826   */\n      0x4e6f207265776172642073657400000000000000000000000000000000000000\n        /* \"#utility.yul\":22807:22808   */\n      0x00\n        /* \"#utility.yul\":22799:22805   */\n      dup3\n        /* \"#utility.yul\":22795:22809   */\n      add\n        /* \"#utility.yul\":22788:22827   */\n      mstore\n        /* \"#utility.yul\":22671:22834   */\n      pop\n      jump\t// out\n        /* \"#utility.yul\":22840:23206   */\n    tag_376:\n        /* \"#utility.yul\":22982:22985   */\n      0x00\n        /* \"#utility.yul\":23003:23070   */\n      tag_631\n        /* \"#utility.yul\":23067:23069   */\n      0x0d\n        /* \"#utility.yul\":23062:23065   */\n      dup4\n        /* \"#utility.yul\":23003:23070   */\n      tag_353\n      jump\t// in\n    tag_631:\n        /* \"#utility.yul\":22996:23070   */\n      swap2\n      pop\n        /* \"#utility.yul\":23079:23172   */\n      tag_632\n        /* \"#utility.yul\":23168:23171   */\n      dup3\n        /* \"#utility.yul\":23079:23172   */\n      tag_375\n      jump\t// in\n    tag_632:\n        /* \"#utility.yul\":23197:23199   */\n      0x20\n        /* \"#utility.yul\":23192:23195   */\n      dup3\n        /* \"#utility.yul\":23188:23200   */\n      add\n        /* \"#utility.yul\":23181:23200   */\n      swap1\n      pop\n        /* \"#utility.yul\":22840:23206   */\n      swap2\n      swap1\n      pop\n      jump\t// out\n        /* \"#utility.yul\":23212:23631   */\n    tag_143:\n        /* \"#utility.yul\":23378:23382   */\n      0x00\n        /* \"#utility.yul\":23416:23418   */\n      0x20\n        /* \"#utility.yul\":23405:23414   */\n      dup3\n        /* \"#utility.yul\":23401:23419   */\n      add\n        /* \"#utility.yul\":23393:23419   */\n      swap1\n      pop\n        /* \"#utility.yul\":23465:23474   */\n      dup2\n        /* \"#utility.yul\":23459:23463   */\n      dup2\n        /* \"#utility.yul\":23455:23475   */\n      sub\n        /* \"#utility.yul\":23451:23452   */\n      0x00\n        /* \"#utility.yul\":23440:23449   */\n      dup4\n        /* \"#utility.yul\":23436:23453   */\n      add\n        /* \"#utility.yul\":23429:23476   */\n      mstore\n        /* \"#utility.yul\":23493:23624   */\n      tag_634\n        /* \"#utility.yul\":23619:23623   */\n      dup2\n        /* \"#utility.yul\":23493:23624   */\n      tag_376\n      jump\t// in\n    tag_634:\n        /* \"#utility.yul\":23485:23624   */\n      swap1\n      pop\n        /* \"#utility.yul\":23212:23631   */\n      swap2\n      swap1\n      pop\n      jump\t// out\n        /* \"#utility.yul\":23637:23806   */\n    tag_377:\n        /* \"#utility.yul\":23777:23798   */\n      0x496e76616c696420746f6b656e20737461746500000000000000000000000000\n        /* \"#utility.yul\":23773:23774   */\n      0x00\n        /* \"#utility.yul\":23765:23771   */\n      dup3\n        /* \"#utility.yul\":23761:23775   */\n      add\n        /* \"#utility.yul\":23754:23799   */\n      mstore\n        /* \"#utility.yul\":23637:23806   */\n      pop\n      jump\t// out\n        /* \"#utility.yul\":23812:24178   */\n    tag_378:\n        /* \"#utility.yul\":23954:23957   */\n      0x00\n        /* \"#utility.yul\":23975:24042   */\n      tag_637\n        /* \"#utility.yul\":24039:24041   */\n      0x13\n        /* \"#utility.yul\":24034:24037   */\n      dup4\n        /* \"#utility.yul\":23975:24042   */\n      tag_353\n      jump\t// in\n    tag_637:\n        /* \"#utility.yul\":23968:24042   */\n      swap2\n      pop\n        /* \"#utility.yul\":24051:24144   */\n      tag_638\n        /* \"#utility.yul\":24140:24143   */\n      dup3\n        /* \"#utility.yul\":24051:24144   */\n      tag_377\n      jump\t// in\n    tag_638:\n        /* \"#utility.yul\":24169:24171   */\n      0x20\n        /* \"#utility.yul\":24164:24167   */\n      dup3\n        /* \"#utility.yul\":24160:24172   */\n      add\n        /* \"#utility.yul\":24153:24172   */\n      swap1\n      pop\n        /* \"#utility.yul\":23812:24178   */\n      swap2\n      swap1\n      pop\n      jump\t// out\n        /* \"#utility.yul\":24184:24603   */\n    tag_146:\n        /* \"#utility.yul\":24350:24354   */\n      0x00\n        /* \"#utility.yul\":24388:24390   */\n      0x20\n        /* \"#utility.yul\":24377:24386   */\n      dup3\n        /* \"#utility.yul\":24373:24391   */\n      add\n        /* \"#utility.yul\":24365:24391   */\n      swap1\n      pop\n        /* \"#utility.yul\":24437:24446   */\n      dup2\n        /* \"#utility.yul\":24431:24435   */\n      dup2\n        /* \"#utility.yul\":24427:24447   */\n      sub\n        /* \"#utility.yul\":24423:24424   */\n      0x00\n        /* \"#utility.yul\":24412:24421   */\n      dup4\n        /* \"#utility.yul\":24408:24425   */\n      add\n        /* \"#utility.yul\":24401:24448   */\n      mstore\n        /* \"#utility.yul\":24465:24596   */\n      tag_640\n        /* \"#utility.yul\":24591:24595   */\n      dup2\n        /* \"#utility.yul\":24465:24596   */\n      tag_378\n      jump\t// in\n    tag_640:\n        /* \"#utility.yul\":24457:24596   */\n      swap1\n      pop\n        /* \"#utility.yul\":24184:24603   */\n      swap2\n      swap1\n      pop\n      jump\t// out\n        /* \"#utility.yul\":24609:24789   */\n    tag_379:\n        /* \"#utility.yul\":24657:24734   */\n      0x4e487b7100000000000000000000000000000000000000000000000000000000\n        /* \"#utility.yul\":24654:24655   */\n      0x00\n        /* \"#utility.yul\":24647:24735   */\n      mstore\n        /* \"#utility.yul\":24754:24758   */\n      0x11\n        /* \"#utility.yul\":24751:24752   */\n      0x04\n        /* \"#utility.yul\":24744:24759   */\n      mstore\n        /* \"#utility.yul\":24778:24782   */\n      0x24\n        /* \"#utility.yul\":24775:24776   */\n      0x00\n        /* \"#utility.yul\":24768:24783   */\n      revert\n        /* \"#utility.yul\":24795:25205   */\n    tag_148:\n        /* \"#utility.yul\":24835:24842   */\n      0x00\n        /* \"#utility.yul\":24858:24878   */\n      tag_643\n        /* \"#utility.yul\":24876:24877   */\n      dup3\n        /* \"#utility.yul\":24858:24878   */\n      tag_321\n      jump\t// in\n    tag_643:\n        /* \"#utility.yul\":24853:24878   */\n      swap2\n      pop\n        /* \"#utility.yul\":24892:24912   */\n      tag_644\n        /* \"#utility.yul\":24910:24911   */\n      dup4\n        /* \"#utility.yul\":24892:24912   */\n      tag_321\n      jump\t// in\n    tag_644:\n        /* \"#utility.yul\":24887:24912   */\n      swap3\n      pop\n        /* \"#utility.yul\":24947:24948   */\n      dup3\n        /* \"#utility.yul\":24944:24945   */\n      dup3\n        /* \"#utility.yul\":24940:24949   */\n      mul\n        /* \"#utility.yul\":24969:24999   */\n      tag_645\n        /* \"#utility.yul\":24987:24998   */\n      dup2\n        /* \"#utility.yul\":24969:24999   */\n      tag_321\n      jump\t// in\n    tag_645:\n        /* \"#utility.yul\":24958:24999   */\n      swap2\n      pop\n        /* \"#utility.yul\":25148:25149   */\n      dup3\n        /* \"#utility.yul\":25139:25146   */\n      dup3\n        /* \"#utility.yul\":25135:25150   */\n      div\n        /* \"#utility.yul\":25132:25133   */\n      dup5\n        /* \"#utility.yul\":25129:25151   */\n      eq\n        /* \"#utility.yul\":25109:25110   */\n      dup4\n        /* \"#utility.yul\":25102:25111   */\n      iszero\n        /* \"#utility.yul\":25082:25165   */\n      or\n        /* \"#utility.yul\":25059:25198   */\n      tag_646\n      jumpi\n        /* \"#utility.yul\":25178:25196   */\n      tag_647\n      tag_379\n      jump\t// in\n    tag_647:\n        /* \"#utility.yul\":25059:25198   */\n    tag_646:\n        /* \"#utility.yul\":24843:25205   */\n      pop\n        /* \"#utility.yul\":24795:25205   */\n      swap3\n      swap2\n      pop\n      pop\n      jump\t// out\n        /* \"#utility.yul\":25211:25391   */\n    tag_380:\n        /* \"#utility.yul\":25259:25336   */\n      0x4e487b7100000000000000000000000000000000000000000000000000000000\n        /* \"#utility.yul\":25256:25257   */\n      0x00\n        /* \"#utility.yul\":25249:25337   */\n      mstore\n        /* \"#utility.yul\":25356:25360   */\n      0x12\n        /* \"#utility.yul\":25353:25354   */\n      0x04\n        /* \"#utility.yul\":25346:25361   */\n      mstore\n        /* \"#utility.yul\":25380:25384   */\n      0x24\n        /* \"#utility.yul\":25377:25378   */\n      0x00\n        /* \"#utility.yul\":25370:25385   */\n      revert\n        /* \"#utility.yul\":25397:25582   */\n    tag_150:\n        /* \"#utility.yul\":25437:25438   */\n      0x00\n        /* \"#utility.yul\":25454:25474   */\n      tag_650\n        /* \"#utility.yul\":25472:25473   */\n      dup3\n        /* \"#utility.yul\":25454:25474   */\n      tag_321\n      jump\t// in\n    tag_650:\n        /* \"#utility.yul\":25449:25474   */\n      swap2\n      pop\n        /* \"#utility.yul\":25488:25508   */\n      tag_651\n        /* \"#utility.yul\":25506:25507   */\n      dup4\n        /* \"#utility.yul\":25488:25508   */\n      tag_321\n      jump\t// in\n    tag_651:\n        /* \"#utility.yul\":25483:25508   */\n      swap3\n      pop\n        /* \"#utility.yul\":25527:25528   */\n      dup3\n        /* \"#utility.yul\":25517:25552   */\n      tag_652\n      jumpi\n        /* \"#utility.yul\":25532:25550   */\n      tag_653\n      tag_380\n      jump\t// in\n    tag_653:\n        /* \"#utility.yul\":25517:25552   */\n    tag_652:\n        /* \"#utility.yul\":25574:25575   */\n      dup3\n        /* \"#utility.yul\":25571:25572   */\n      dup3\n        /* \"#utility.yul\":25567:25576   */\n      div\n        /* \"#utility.yul\":25562:25576   */\n      swap1\n      pop\n        /* \"#utility.yul\":25397:25582   */\n      swap3\n      swap2\n      pop\n      pop\n      jump\t// out\n        /* \"#utility.yul\":25588:25782   */\n    tag_152:\n        /* \"#utility.yul\":25628:25632   */\n      0x00\n        /* \"#utility.yul\":25648:25668   */\n      tag_655\n        /* \"#utility.yul\":25666:25667   */\n      dup3\n        /* \"#utility.yul\":25648:25668   */\n      tag_321\n      jump\t// in\n    tag_655:\n        /* \"#utility.yul\":25643:25668   */\n      swap2\n      pop\n        /* \"#utility.yul\":25682:25702   */\n      tag_656\n        /* \"#utility.yul\":25700:25701   */\n      dup4\n        /* \"#utility.yul\":25682:25702   */\n      tag_321\n      jump\t// in\n    tag_656:\n        /* \"#utility.yul\":25677:25702   */\n      swap3\n      pop\n        /* \"#utility.yul\":25726:25727   */\n      dup3\n        /* \"#utility.yul\":25723:25724   */\n      dup3\n        /* \"#utility.yul\":25719:25728   */\n      sub\n        /* \"#utility.yul\":25711:25728   */\n      swap1\n      pop\n        /* \"#utility.yul\":25750:25751   */\n      dup2\n        /* \"#utility.yul\":25744:25748   */\n      dup2\n        /* \"#utility.yul\":25741:25752   */\n      gt\n        /* \"#utility.yul\":25738:25775   */\n      iszero\n      tag_657\n      jumpi\n        /* \"#utility.yul\":25755:25773   */\n      tag_658\n      tag_379\n      jump\t// in\n    tag_658:\n        /* \"#utility.yul\":25738:25775   */\n    tag_657:\n        /* \"#utility.yul\":25588:25782   */\n      swap3\n      swap2\n      pop\n      pop\n      jump\t// out\n        /* \"#utility.yul\":25788:26120   */\n    tag_159:\n        /* \"#utility.yul\":25909:25913   */\n      0x00\n        /* \"#utility.yul\":25947:25949   */\n      0x40\n        /* \"#utility.yul\":25936:25945   */\n      dup3\n        /* \"#utility.yul\":25932:25950   */\n      add\n        /* \"#utility.yul\":25924:25950   */\n      swap1\n      pop\n        /* \"#utility.yul\":25960:26031   */\n      tag_660\n        /* \"#utility.yul\":26028:26029   */\n      0x00\n        /* \"#utility.yul\":26017:26026   */\n      dup4\n        /* \"#utility.yul\":26013:26030   */\n      add\n        /* \"#utility.yul\":26004:26010   */\n      dup6\n        /* \"#utility.yul\":25960:26031   */\n      tag_352\n      jump\t// in\n    tag_660:\n        /* \"#utility.yul\":26041:26113   */\n      tag_661\n        /* \"#utility.yul\":26109:26111   */\n      0x20\n        /* \"#utility.yul\":26098:26107   */\n      dup4\n        /* \"#utility.yul\":26094:26112   */\n      add\n        /* \"#utility.yul\":26085:26091   */\n      dup5\n        /* \"#utility.yul\":26041:26113   */\n      tag_355\n      jump\t// in\n    tag_661:\n        /* \"#utility.yul\":25788:26120   */\n      swap4\n      swap3\n      pop\n      pop\n      pop\n      jump\t// out\n        /* \"#utility.yul\":26126:26302   */\n    tag_381:\n        /* \"#utility.yul\":26266:26294   */\n      0x446561646c696e65206d75737420626520696e20667574757265000000000000\n        /* \"#utility.yul\":26262:26263   */\n      0x00\n        /* \"#utility.yul\":26254:26260   */\n      dup3\n        /* \"#utility.yul\":26250:26264   */\n      add\n        /* \"#utility.yul\":26243:26295   */\n      mstore\n        /* \"#utility.yul\":26126:26302   */\n      pop\n      jump\t// out\n        /* \"#utility.yul\":26308:26674   */\n    tag_382:\n        /* \"#utility.yul\":26450:26453   */\n      0x00\n        /* \"#utility.yul\":26471:26538   */\n      tag_664\n        /* \"#utility.yul\":26535:26537   */\n      0x1a\n        /* \"#utility.yul\":26530:26533   */\n      dup4\n        /* \"#utility.yul\":26471:26538   */\n      tag_353\n      jump\t// in\n    tag_664:\n        /* \"#utility.yul\":26464:26538   */\n      swap2\n      pop\n        /* \"#utility.yul\":26547:26640   */\n      tag_665\n        /* \"#utility.yul\":26636:26639   */\n      dup3\n        /* \"#utility.yul\":26547:26640   */\n      tag_381\n      jump\t// in\n    tag_665:\n        /* \"#utility.yul\":26665:26667   */\n      0x20\n        /* \"#utility.yul\":26660:26663   */\n      dup3\n        /* \"#utility.yul\":26656:26668   */\n      add\n        /* \"#utility.yul\":26649:26668   */\n      swap1\n      pop\n        /* \"#utility.yul\":26308:26674   */\n      swap2\n      swap1\n      pop\n      jump\t// out\n        /* \"#utility.yul\":26680:27099   */\n    tag_165:\n        /* \"#utility.yul\":26846:26850   */\n      0x00\n        /* \"#utility.yul\":26884:26886   */\n      0x20\n        /* \"#utility.yul\":26873:26882   */\n      dup3\n        /* \"#utility.yul\":26869:26887   */\n      add\n        /* \"#utility.yul\":26861:26887   */\n      swap1\n      pop\n        /* \"#utility.yul\":26933:26942   */\n      dup2\n        /* \"#utility.yul\":26927:26931   */\n      dup2\n        /* \"#utility.yul\":26923:26943   */\n      sub\n        /* \"#utility.yul\":26919:26920   */\n      0x00\n        /* \"#utility.yul\":26908:26917   */\n      dup4\n        /* \"#utility.yul\":26904:26921   */\n      add\n        /* \"#utility.yul\":26897:26944   */\n      mstore\n        /* \"#utility.yul\":26961:27092   */\n      tag_667\n        /* \"#utility.yul\":27087:27091   */\n      dup2\n        /* \"#utility.yul\":26961:27092   */\n      tag_382\n      jump\t// in\n    tag_667:\n        /* \"#utility.yul\":26953:27092   */\n      swap1\n      pop\n        /* \"#utility.yul\":26680:27099   */\n      swap2\n      swap1\n      pop\n      jump\t// out\n        /* \"#utility.yul\":27105:27246   */\n    tag_383:\n        /* \"#utility.yul\":27154:27158   */\n      0x00\n        /* \"#utility.yul\":27177:27180   */\n      dup2\n        /* \"#utility.yul\":27169:27180   */\n      swap1\n      pop\n        /* \"#utility.yul\":27200:27203   */\n      dup2\n        /* \"#utility.yul\":27197:27198   */\n      0x00\n        /* \"#utility.yul\":27190:27204   */\n      mstore\n        /* \"#utility.yul\":27234:27238   */\n      0x20\n        /* \"#utility.yul\":27231:27232   */\n      0x00\n        /* \"#utility.yul\":27221:27239   */\n      keccak256\n        /* \"#utility.yul\":27213:27239   */\n      swap1\n      pop\n        /* \"#utility.yul\":27105:27246   */\n      swap2\n      swap1\n      pop\n      jump\t// out\n        /* \"#utility.yul\":27252:27345   */\n    tag_384:\n        /* \"#utility.yul\":27289:27295   */\n      0x00\n        /* \"#utility.yul\":27336:27338   */\n      0x20\n        /* \"#utility.yul\":27331:27333   */\n      0x1f\n        /* \"#utility.yul\":27324:27329   */\n      dup4\n        /* \"#utility.yul\":27320:27334   */\n      add\n        /* \"#utility.yul\":27316:27339   */\n      div\n        /* \"#utility.yul\":27306:27339   */\n      swap1\n      pop\n        /* \"#utility.yul\":27252:27345   */\n      swap2\n      swap1\n      pop\n      jump\t// out\n        /* \"#utility.yul\":27351:27458   */\n    tag_385:\n        /* \"#utility.yul\":27395:27403   */\n      0x00\n        /* \"#utility.yul\":27445:27450   */\n      dup3\n        /* \"#utility.yul\":27439:27443   */\n      dup3\n        /* \"#utility.yul\":27435:27451   */\n      shl\n        /* \"#utility.yul\":27414:27451   */\n      swap1\n      pop\n        /* \"#utility.yul\":27351:27458   */\n      swap3\n      swap2\n      pop\n      pop\n      jump\t// out\n        /* \"#utility.yul\":27464:27857   */\n    tag_386:\n        /* \"#utility.yul\":27533:27539   */\n      0x00\n        /* \"#utility.yul\":27583:27584   */\n      0x08\n        /* \"#utility.yul\":27571:27581   */\n      dup4\n        /* \"#utility.yul\":27567:27585   */\n      mul\n        /* \"#utility.yul\":27606:27703   */\n      tag_672\n        /* \"#utility.yul\":27636:27702   */\n      0xffffffffffffffffffffffffffffffffffffffffffffffffffffffffffffffff\n        /* \"#utility.yul\":27625:27634   */\n      dup3\n        /* \"#utility.yul\":27606:27703   */\n      tag_385\n      jump\t// in\n    tag_672:\n        /* \"#utility.yul\":27724:27763   */\n      tag_673\n        /* \"#utility.yul\":27754:27762   */\n      dup7\n        /* \"#utility.yul\":27743:27752   */\n      dup4\n        /* \"#utility.yul\":27724:27763   */\n      tag_385\n      jump\t// in\n    tag_673:\n        /* \"#utility.yul\":27712:27763   */\n      swap6\n      pop\n        /* \"#utility.yul\":27796:27800   */\n      dup1\n        /* \"#utility.yul\":27792:27801   */\n      not\n        /* \"#utility.yul\":27785:27790   */\n      dup5\n        /* \"#utility.yul\":27781:27802   */\n      and\n        /* \"#utility.yul\":27772:27802   */\n      swap4\n      pop\n        /* \"#utility.yul\":27845:27849   */\n      dup1\n        /* \"#utility.yul\":27835:27843   */\n      dup7\n        /* \"#utility.yul\":27831:27850   */\n      and\n        /* \"#utility.yul\":27824:27829   */\n      dup5\n        /* \"#utility.yul\":27821:27851   */\n      or\n        /* \"#utility.yul\":27811:27851   */\n      swap3\n      pop\n        /* \"#utility.yul\":27540:27857   */\n      pop\n      pop\n        /* \"#utility.yul\":27464:27857   */\n      swap4\n      swap3\n      pop\n      pop\n      pop\n      jump\t// out\n        /* \"#utility.yul\":27863:28005   */\n    tag_387:\n        /* \"#utility.yul\":27913:27922   */\n      0x00\n        /* \"#utility.yul\":27946:27999   */\n      tag_675\n        /* \"#utility.yul\":27964:27998   */\n      tag_676\n        /* \"#utility.yul\":27973:27997   */\n      tag_677\n        /* \"#utility.yul\":27991:27996   */\n      dup5\n        /* \"#utility.yul\":27973:27997   */\n      tag_321\n      jump\t// in\n    tag_677:\n        /* \"#utility.yul\":27964:27998   */\n      tag_338\n      jump\t// in\n    tag_676:\n        /* \"#utility.yul\":27946:27999   */\n      tag_321\n      jump\t// in\n    tag_675:\n        /* \"#utility.yul\":27933:27999   */\n      swap1\n      pop\n        /* \"#utility.yul\":27863:28005   */\n      swap2\n      swap1\n      pop\n      jump\t// out\n        /* \"#utility.yul\":28011:28086   */\n    tag_388:\n        /* \"#utility.yul\":28054:28057   */\n      0x00\n        /* \"#utility.yul\":28075:28080   */\n      dup2\n        /* \"#utility.yul\":28068:28080   */\n      swap1\n      pop\n        /* \"#utility.yul\":28011:28086   */\n      swap2\n      swap1\n      pop\n      jump\t// out\n        /* \"#utility.yul\":28092:28361   */\n    tag_389:\n        /* \"#utility.yul\":28202:28241   */\n      tag_680\n        /* \"#utility.yul\":28233:28240   */\n      dup4\n        /* \"#utility.yul\":28202:28241   */\n      tag_387\n      jump\t// in\n    tag_680:\n        /* \"#utility.yul\":28263:28354   */\n      tag_681\n        /* \"#utility.yul\":28312:28353   */\n      tag_682\n        /* \"#utility.yul\":28336:28352   */\n      dup3\n        /* \"#utility.yul\":28312:28353   */\n      tag_388\n      jump\t// in\n    tag_682:\n        /* \"#utility.yul\":28304:28310   */\n      dup5\n        /* \"#utility.yul\":28297:28301   */\n      dup5\n        /* \"#utility.yul\":28291:28302   */\n      sload\n        /* \"#utility.yul\":28263:28354   */\n      tag_386\n      jump\t// in\n    tag_681:\n        /* \"#utility.yul\":28257:28261   */\n      dup3\n        /* \"#utility.yul\":28250:28355   */\n      sstore\n        /* \"#utility.yul\":28168:28361   */\n      pop\n        /* \"#utility.yul\":28092:28361   */\n      pop\n      pop\n      pop\n      jump\t// out\n        /* \"#utility.yul\":28367:28440   */\n    tag_390:\n        /* \"#utility.yul\":28412:28415   */\n      0x00\n        /* \"#utility.yul\":28433:28434   */\n      0x00\n        /* \"#utility.yul\":28426:28434   */\n      swap1\n      pop\n        /* \"#utility.yul\":28367:28440   */\n      swap1\n      jump\t// out\n        /* \"#utility.yul\":28446:28635   */\n    tag_391:\n        /* \"#utility.yul\":28523:28555   */\n      tag_685\n      tag_390\n      jump\t// in\n    tag_685:\n        /* \"#utility.yul\":28564:28629   */\n      tag_686\n        /* \"#utility.yul\":28622:28628   */\n      dup2\n        /* \"#utility.yul\":28614:28620   */\n      dup5\n        /* \"#utility.yul\":28608:28612   */\n      dup5\n        /* \"#utility.yul\":28564:28629   */\n      tag_389\n      jump\t// in\n    tag_686:\n        /* \"#utility.yul\":28499:28635   */\n      pop\n        /* \"#utility.yul\":28446:28635   */\n      pop\n      pop\n      jump\t// out\n        /* \"#utility.yul\":28641:28827   */\n    tag_392:\n        /* \"#utility.yul\":28701:28821   */\n    tag_688:\n        /* \"#utility.yul\":28718:28721   */\n      dup2\n        /* \"#utility.yul\":28711:28716   */\n      dup2\n        /* \"#utility.yul\":28708:28722   */\n      lt\n        /* \"#utility.yul\":28701:28821   */\n      iszero\n      tag_690\n      jumpi\n        /* \"#utility.yul\":28772:28811   */\n      tag_691\n        /* \"#utility.yul\":28809:28810   */\n      0x00\n        /* \"#utility.yul\":28802:28807   */\n      dup3\n        /* \"#utility.yul\":28772:28811   */\n      tag_391\n      jump\t// in\n    tag_691:\n        /* \"#utility.yul\":28745:28746   */\n      0x01\n        /* \"#utility.yul\":28738:28743   */\n      dup2\n        /* \"#utility.yul\":28734:28747   */\n      add\n        /* \"#utility.yul\":28725:28747   */\n      swap1\n      pop\n        /* \"#utility.yul\":28701:28821   */\n      jump(tag_688)\n    tag_690:\n        /* \"#utility.yul\":28641:28827   */\n      pop\n      pop\n      jump\t// out\n        /* \"#utility.yul\":28833:29376   */\n    tag_393:\n        /* \"#utility.yul\":28934:28936   */\n      0x1f\n        /* \"#utility.yul\":28929:28932   */\n      dup3\n        /* \"#utility.yul\":28926:28937   */\n      gt\n        /* \"#utility.yul\":28923:29369   */\n      iszero\n      tag_693\n      jumpi\n        /* \"#utility.yul\":28968:29006   */\n      tag_694\n        /* \"#utility.yul\":29000:29005   */\n      dup2\n        /* \"#utility.yul\":28968:29006   */\n      tag_383\n      jump\t// in\n    tag_694:\n        /* \"#utility.yul\":29052:29081   */\n      tag_695\n        /* \"#utility.yul\":29070:29080   */\n      dup5\n        /* \"#utility.yul\":29052:29081   */\n      tag_384\n      jump\t// in\n    tag_695:\n        /* \"#utility.yul\":29042:29050   */\n      dup2\n        /* \"#utility.yul\":29038:29082   */\n      add\n        /* \"#utility.yul\":29235:29237   */\n      0x20\n        /* \"#utility.yul\":29223:29233   */\n      dup6\n        /* \"#utility.yul\":29220:29238   */\n      lt\n        /* \"#utility.yul\":29217:29266   */\n      iszero\n      tag_696\n      jumpi\n        /* \"#utility.yul\":29256:29264   */\n      dup2\n        /* \"#utility.yul\":29241:29264   */\n      swap1\n      pop\n        /* \"#utility.yul\":29217:29266   */\n    tag_696:\n        /* \"#utility.yul\":29279:29359   */\n      tag_697\n        /* \"#utility.yul\":29335:29357   */\n      tag_698\n        /* \"#utility.yul\":29353:29356   */\n      dup6\n        /* \"#utility.yul\":29335:29357   */\n      tag_384\n      jump\t// in\n    tag_698:\n        /* \"#utility.yul\":29325:29333   */\n      dup4\n        /* \"#utility.yul\":29321:29358   */\n      add\n        /* \"#utility.yul\":29308:29319   */\n      dup3\n        /* \"#utility.yul\":29279:29359   */\n      tag_392\n      jump\t// in\n    tag_697:\n        /* \"#utility.yul\":28938:29369   */\n      pop\n      pop\n        /* \"#utility.yul\":28923:29369   */\n    tag_693:\n        /* \"#utility.yul\":28833:29376   */\n      pop\n      pop\n      pop\n      jump\t// out\n        /* \"#utility.yul\":29382:29499   */\n    tag_394:\n        /* \"#utility.yul\":29436:29444   */\n      0x00\n        /* \"#utility.yul\":29486:29491   */\n      dup3\n        /* \"#utility.yul\":29480:29484   */\n      dup3\n        /* \"#utility.yul\":29476:29492   */\n      shr\n        /* \"#utility.yul\":29455:29492   */\n      swap1\n      pop\n        /* \"#utility.yul\":29382:29499   */\n      swap3\n      swap2\n      pop\n      pop\n      jump\t// out\n        /* \"#utility.yul\":29505:29674   */\n    tag_395:\n        /* \"#utility.yul\":29549:29555   */\n      0x00\n        /* \"#utility.yul\":29582:29633   */\n      tag_701\n        /* \"#utility.yul\":29630:29631   */\n      0x00\n        /* \"#utility.yul\":29626:29632   */\n      not\n        /* \"#utility.yul\":29618:29623   */\n      dup5\n        /* \"#utility.yul\":29615:29616   */\n      0x08\n        /* \"#utility.yul\":29611:29624   */\n      mul\n        /* \"#utility.yul\":29582:29633   */\n      tag_394\n      jump\t// in\n    tag_701:\n        /* \"#utility.yul\":29578:29634   */\n      not\n        /* \"#utility.yul\":29663:29667   */\n      dup1\n        /* \"#utility.yul\":29657:29661   */\n      dup4\n        /* \"#utility.yul\":29653:29668   */\n      and\n        /* \"#utility.yul\":29643:29668   */\n      swap2\n      pop\n        /* \"#utility.yul\":29556:29674   */\n      pop\n        /* \"#utility.yul\":29505:29674   */\n      swap3\n      swap2\n      pop\n      pop\n      jump\t// out\n        /* \"#utility.yul\":29679:29974   */\n    tag_396:\n        /* \"#utility.yul\":29755:29759   */\n      0x00\n        /* \"#utility.yul\":29901:29930   */\n      tag_703\n        /* \"#utility.yul\":29926:29929   */\n      dup4\n        /* \"#utility.yul\":29920:29924   */\n      dup4\n        /* \"#utility.yul\":29901:29930   */\n      tag_395\n      jump\t// in\n    tag_703:\n        /* \"#utility.yul\":29893:29930   */\n      swap2\n      pop\n        /* \"#utility.yul\":29963:29966   */\n      dup3\n        /* \"#utility.yul\":29960:29961   */\n      0x02\n        /* \"#utility.yul\":29956:29967   */\n      mul\n        /* \"#utility.yul\":29950:29954   */\n      dup3\n        /* \"#utility.yul\":29947:29968   */\n      or\n        /* \"#utility.yul\":29939:29968   */\n      swap1\n      pop\n        /* \"#utility.yul\":29679:29974   */\n      swap3\n      swap2\n      pop\n      pop\n      jump\t// out\n        /* \"#utility.yul\":29979:31374   */\n    tag_173:\n        /* \"#utility.yul\":30096:30133   */\n      tag_705\n        /* \"#utility.yul\":30129:30132   */\n      dup3\n        /* \"#utility.yul\":30096:30133   */\n      tag_325\n      jump\t// in\n    tag_705:\n        /* \"#utility.yul\":30198:30216   */\n      0xffffffffffffffff\n        /* \"#utility.yul\":30190:30196   */\n      dup2\n        /* \"#utility.yul\":30187:30217   */\n      gt\n        /* \"#utility.yul\":30184:30240   */\n      iszero\n      tag_706\n      jumpi\n        /* \"#utility.yul\":30220:30238   */\n      tag_707\n      tag_345\n      jump\t// in\n    tag_707:\n        /* \"#utility.yul\":30184:30240   */\n    tag_706:\n        /* \"#utility.yul\":30264:30302   */\n      tag_708\n        /* \"#utility.yul\":30296:30300   */\n      dup3\n        /* \"#utility.yul\":30290:30301   */\n      sload\n        /* \"#utility.yul\":30264:30302   */\n      tag_107\n      jump\t// in\n    tag_708:\n        /* \"#utility.yul\":30349:30416   */\n      tag_709\n        /* \"#utility.yul\":30409:30415   */\n      dup3\n        /* \"#utility.yul\":30401:30407   */\n      dup3\n        /* \"#utility.yul\":30395:30399   */\n      dup6\n        /* \"#utility.yul\":30349:30416   */\n      tag_393\n      jump\t// in\n    tag_709:\n        /* \"#utility.yul\":30443:30444   */\n      0x00\n        /* \"#utility.yul\":30467:30471   */\n      0x20\n        /* \"#utility.yul\":30454:30471   */\n      swap1\n      pop\n        /* \"#utility.yul\":30499:30501   */\n      0x1f\n        /* \"#utility.yul\":30491:30497   */\n      dup4\n        /* \"#utility.yul\":30488:30502   */\n      gt\n        /* \"#utility.yul\":30516:30517   */\n      0x01\n        /* \"#utility.yul\":30511:31129   */\n      dup2\n      eq\n      tag_711\n      jumpi\n        /* \"#utility.yul\":31173:31174   */\n      0x00\n        /* \"#utility.yul\":31190:31196   */\n      dup5\n        /* \"#utility.yul\":31187:31264   */\n      iszero\n      tag_712\n      jumpi\n        /* \"#utility.yul\":31239:31248   */\n      dup3\n        /* \"#utility.yul\":31234:31237   */\n      dup8\n        /* \"#utility.yul\":31230:31249   */\n      add\n        /* \"#utility.yul\":31224:31250   */\n      mload\n        /* \"#utility.yul\":31215:31250   */\n      swap1\n      pop\n        /* \"#utility.yul\":31187:31264   */\n    tag_712:\n        /* \"#utility.yul\":31290:31357   */\n      tag_713\n        /* \"#utility.yul\":31350:31356   */\n      dup6\n        /* \"#utility.yul\":31343:31348   */\n      dup3\n        /* \"#utility.yul\":31290:31357   */\n      tag_396\n      jump\t// in\n    tag_713:\n        /* \"#utility.yul\":31284:31288   */\n      dup7\n        /* \"#utility.yul\":31277:31358   */\n      sstore\n        /* \"#utility.yul\":31146:31368   */\n      pop\n        /* \"#utility.yul\":30481:31368   */\n      jump(tag_710)\n        /* \"#utility.yul\":30511:31129   */\n    tag_711:\n        /* \"#utility.yul\":30563:30567   */\n      0x1f\n        /* \"#utility.yul\":30559:30568   */\n      not\n        /* \"#utility.yul\":30551:30557   */\n      dup5\n        /* \"#utility.yul\":30547:30569   */\n      and\n        /* \"#utility.yul\":30597:30634   */\n      tag_714\n        /* \"#utility.yul\":30629:30633   */\n      dup7\n        /* \"#utility.yul\":30597:30634   */\n      tag_383\n      jump\t// in\n    tag_714:\n        /* \"#utility.yul\":30656:30657   */\n      0x00\n        /* \"#utility.yul\":30670:30878   */\n    tag_715:\n        /* \"#utility.yul\":30684:30691   */\n      dup3\n        /* \"#utility.yul\":30681:30682   */\n      dup2\n        /* \"#utility.yul\":30678:30692   */\n      lt\n        /* \"#utility.yul\":30670:30878   */\n      iszero\n      tag_717\n      jumpi\n        /* \"#utility.yul\":30763:30772   */\n      dup5\n        /* \"#utility.yul\":30758:30761   */\n      dup10\n        /* \"#utility.yul\":30754:30773   */\n      add\n        /* \"#utility.yul\":30748:30774   */\n      mload\n        /* \"#utility.yul\":30740:30746   */\n      dup3\n        /* \"#utility.yul\":30733:30775   */\n      sstore\n        /* \"#utility.yul\":30814:30815   */\n      0x01\n        /* \"#utility.yul\":30806:30812   */\n      dup3\n        /* \"#utility.yul\":30802:30816   */\n      add\n        /* \"#utility.yul\":30792:30816   */\n      swap2\n      pop\n        /* \"#utility.yul\":30861:30863   */\n      0x20\n        /* \"#utility.yul\":30850:30859   */\n      dup6\n        /* \"#utility.yul\":30846:30864   */\n      add\n        /* \"#utility.yul\":30833:30864   */\n      swap5\n      pop\n        /* \"#utility.yul\":30707:30711   */\n      0x20\n        /* \"#utility.yul\":30704:30705   */\n      dup2\n        /* \"#utility.yul\":30700:30712   */\n      add\n        /* \"#utility.yul\":30695:30712   */\n      swap1\n      pop\n        /* \"#utility.yul\":30670:30878   */\n      jump(tag_715)\n    tag_717:\n        /* \"#utility.yul\":30906:30912   */\n      dup7\n        /* \"#utility.yul\":30897:30904   */\n      dup4\n        /* \"#utility.yul\":30894:30913   */\n      lt\n        /* \"#utility.yul\":30891:31070   */\n      iszero\n      tag_718\n      jumpi\n        /* \"#utility.yul\":30964:30973   */\n      dup5\n        /* \"#utility.yul\":30959:30962   */\n      dup10\n        /* \"#utility.yul\":30955:30974   */\n      add\n        /* \"#utility.yul\":30949:30975   */\n      mload\n        /* \"#utility.yul\":31007:31055   */\n      tag_719\n        /* \"#utility.yul\":31049:31053   */\n      0x1f\n        /* \"#utility.yul\":31041:31047   */\n      dup10\n        /* \"#utility.yul\":31037:31054   */\n      and\n        /* \"#utility.yul\":31026:31035   */\n      dup3\n        /* \"#utility.yul\":31007:31055   */\n      tag_395\n      jump\t// in\n    tag_719:\n        /* \"#utility.yul\":30999:31005   */\n      dup4\n        /* \"#utility.yul\":30992:31056   */\n      sstore\n        /* \"#utility.yul\":30914:31070   */\n      pop\n        /* \"#utility.yul\":30891:31070   */\n    tag_718:\n        /* \"#utility.yul\":31116:31117   */\n      0x01\n        /* \"#utility.yul\":31112:31113   */\n      0x02\n        /* \"#utility.yul\":31104:31110   */\n      dup9\n        /* \"#utility.yul\":31100:31114   */\n      mul\n        /* \"#utility.yul\":31096:31118   */\n      add\n        /* \"#utility.yul\":31090:31094   */\n      dup9\n        /* \"#utility.yul\":31083:31119   */\n      sstore\n        /* \"#utility.yul\":30518:31129   */\n      pop\n      pop\n      pop\n        /* \"#utility.yul\":30481:31368   */\n    tag_710:\n      pop\n        /* \"#utility.yul\":30071:31374   */\n      pop\n      pop\n      pop\n        /* \"#utility.yul\":29979:31374   */\n      pop\n      pop\n      jump\t// out\n        /* \"#utility.yul\":31380:31693   */\n    tag_179:\n        /* \"#utility.yul\":31493:31497   */\n      0x00\n        /* \"#utility.yul\":31531:31533   */\n      0x20\n        /* \"#utility.yul\":31520:31529   */\n      dup3\n        /* \"#utility.yul\":31516:31534   */\n      add\n        /* \"#utility.yul\":31508:31534   */\n      swap1\n      pop\n        /* \"#utility.yul\":31580:31589   */\n      dup2\n        /* \"#utility.yul\":31574:31578   */\n      dup2\n        /* \"#utility.yul\":31570:31590   */\n      sub\n        /* \"#utility.yul\":31566:31567   */\n      0x00\n        /* \"#utility.yul\":31555:31564   */\n      dup4\n        /* \"#utility.yul\":31551:31568   */\n      add\n        /* \"#utility.yul\":31544:31591   */\n      mstore\n        /* \"#utility.yul\":31608:31686   */\n      tag_721\n        /* \"#utility.yul\":31681:31685   */\n      dup2\n        /* \"#utility.yul\":31672:31678   */\n      dup5\n        /* \"#utility.yul\":31608:31686   */\n      tag_354\n      jump\t// in\n    tag_721:\n        /* \"#utility.yul\":31600:31686   */\n      swap1\n      pop\n        /* \"#utility.yul\":31380:31693   */\n      swap3\n      swap2\n      pop\n      pop\n      jump\t// out\n        /* \"#utility.yul\":31699:31842   */\n    tag_397:\n        /* \"#utility.yul\":31756:31761   */\n      0x00\n        /* \"#utility.yul\":31787:31793   */\n      dup2\n        /* \"#utility.yul\":31781:31794   */\n      mload\n        /* \"#utility.yul\":31772:31794   */\n      swap1\n      pop\n        /* \"#utility.yul\":31803:31836   */\n      tag_723\n        /* \"#utility.yul\":31830:31835   */\n      dup2\n        /* \"#utility.yul\":31803:31836   */\n      tag_322\n      jump\t// in\n    tag_723:\n        /* \"#utility.yul\":31699:31842   */\n      swap3\n      swap2\n      pop\n      pop\n      jump\t// out\n        /* \"#utility.yul\":31848:32199   */\n    tag_189:\n        /* \"#utility.yul\":31918:31924   */\n      0x00\n        /* \"#utility.yul\":31967:31969   */\n      0x20\n        /* \"#utility.yul\":31955:31964   */\n      dup3\n        /* \"#utility.yul\":31946:31953   */\n      dup5\n        /* \"#utility.yul\":31942:31965   */\n      sub\n        /* \"#utility.yul\":31938:31970   */\n      slt\n        /* \"#utility.yul\":31935:32054   */\n      iszero\n      tag_725\n      jumpi\n        /* \"#utility.yul\":31973:32052   */\n      tag_726\n      tag_315\n      jump\t// in\n    tag_726:\n        /* \"#utility.yul\":31935:32054   */\n    tag_725:\n        /* \"#utility.yul\":32093:32094   */\n      0x00\n        /* \"#utility.yul\":32118:32182   */\n      tag_727\n        /* \"#utility.yul\":32174:32181   */\n      dup5\n        /* \"#utility.yul\":32165:32171   */\n      dup3\n        /* \"#utility.yul\":32154:32163   */\n      dup6\n        /* \"#utility.yul\":32150:32172   */\n      add\n        /* \"#utility.yul\":32118:32182   */\n      tag_397\n      jump\t// in\n    tag_727:\n        /* \"#utility.yul\":32108:32182   */\n      swap2\n      pop\n        /* \"#utility.yul\":32064:32192   */\n      pop\n        /* \"#utility.yul\":31848:32199   */\n      swap3\n      swap2\n      pop\n      pop\n      jump\t// out\n        /* \"#utility.yul\":32205:32366   */\n    tag_398:\n        /* \"#utility.yul\":32345:32358   */\n      0x4e6f742063726561746f72000000000000000000000000000000000000000000\n        /* \"#utility.yul\":32341:32342   */\n      0x00\n        /* \"#utility.yul\":32333:32339   */\n      dup3\n        /* \"#utility.yul\":32329:32343   */\n      add\n        /* \"#utility.yul\":32322:32359   */\n      mstore\n        /* \"#utility.yul\":32205:32366   */\n      pop\n      jump\t// out\n        /* \"#utility.yul\":32372:32738   */\n    tag_399:\n        /* \"#utility.yul\":32514:32517   */\n      0x00\n        /* \"#utility.yul\":32535:32602   */\n      tag_730\n        /* \"#utility.yul\":32599:32601   */\n      0x0b\n        /* \"#utility.yul\":32594:32597   */\n      dup4\n        /* \"#utility.yul\":32535:32602   */\n      tag_353\n      jump\t// in\n    tag_730:\n        /* \"#utility.yul\":32528:32602   */\n      swap2\n      pop\n        /* \"#utility.yul\":32611:32704   */\n      tag_731\n        /* \"#utility.yul\":32700:32703   */\n      dup3\n        /* \"#utility.yul\":32611:32704   */\n      tag_398\n      jump\t// in\n    tag_731:\n        /* \"#utility.yul\":32729:32731   */\n      0x20\n        /* \"#utility.yul\":32724:32727   */\n      dup3\n        /* \"#utility.yul\":32720:32732   */\n      add\n        /* \"#utility.yul\":32713:32732   */\n      swap1\n      pop\n        /* \"#utility.yul\":32372:32738   */\n      swap2\n      swap1\n      pop\n      jump\t// out\n        /* \"#utility.yul\":32744:33163   */\n    tag_204:\n        /* \"#utility.yul\":32910:32914   */\n      0x00\n        /* \"#utility.yul\":32948:32950   */\n      0x20\n        /* \"#utility.yul\":32937:32946   */\n      dup3\n        /* \"#utility.yul\":32933:32951   */\n      add\n        /* \"#utility.yul\":32925:32951   */\n      swap1\n      pop\n        /* \"#utility.yul\":32997:33006   */\n      dup2\n        /* \"#utility.yul\":32991:32995   */\n      dup2\n        /* \"#utility.yul\":32987:33007   */\n      sub\n        /* \"#utility.yul\":32983:32984   */\n      0x00\n        /* \"#utility.yul\":32972:32981   */\n      dup4\n        /* \"#utility.yul\":32968:32985   */\n      add\n        /* \"#utility.yul\":32961:33008   */\n      mstore\n        /* \"#utility.yul\":33025:33156   */\n      tag_733\n        /* \"#utility.yul\":33151:33155   */\n      dup2\n        /* \"#utility.yul\":33025:33156   */\n      tag_399\n      jump\t// in\n    tag_733:\n        /* \"#utility.yul\":33017:33156   */\n      swap1\n      pop\n        /* \"#utility.yul\":32744:33163   */\n      swap2\n      swap1\n      pop\n      jump\t// out\n        /* \"#utility.yul\":33169:33346   */\n    tag_400:\n        /* \"#utility.yul\":33309:33338   */\n      0x43616e6e6f742063616e63656c2061737369676e6564207461736b0000000000\n        /* \"#utility.yul\":33305:33306   */\n      0x00\n        /* \"#utility.yul\":33297:33303   */\n      dup3\n        /* \"#utility.yul\":33293:33307   */\n      add\n        /* \"#utility.yul\":33286:33339   */\n      mstore\n        /* \"#utility.yul\":33169:33346   */\n      pop\n      jump\t// out\n        /* \"#utility.yul\":33352:33718   */\n    tag_401:\n        /* \"#utility.yul\":33494:33497   */\n      0x00\n        /* \"#utility.yul\":33515:33582   */\n      tag_736\n        /* \"#utility.yul\":33579:33581   */\n      0x1b\n        /* \"#utility.yul\":33574:33577   */\n      dup4\n        /* \"#utility.yul\":33515:33582   */\n      tag_353\n      jump\t// in\n    tag_736:\n        /* \"#utility.yul\":33508:33582   */\n      swap2\n      pop\n        /* \"#utility.yul\":33591:33684   */\n      tag_737\n        /* \"#utility.yul\":33680:33683   */\n      dup3\n        /* \"#utility.yul\":33591:33684   */\n      tag_400\n      jump\t// in\n    tag_737:\n        /* \"#utility.yul\":33709:33711   */\n      0x20\n        /* \"#utility.yul\":33704:33707   */\n      dup3\n        /* \"#utility.yul\":33700:33712   */\n      add\n        /* \"#utility.yul\":33693:33712   */\n      swap1\n      pop\n        /* \"#utility.yul\":33352:33718   */\n      swap2\n      swap1\n      pop\n      jump\t// out\n        /* \"#utility.yul\":33724:34143   */\n    tag_211:\n        /* \"#utility.yul\":33890:33894   */\n      0x00\n        /* \"#utility.yul\":33928:33930   */\n      0x20\n        /* \"#utility.yul\":33917:33926   */\n      dup3\n        /* \"#utility.yul\":33913:33931   */\n      add\n        /* \"#utility.yul\":33905:33931   */\n      swap1\n      pop\n        /* \"#utility.yul\":33977:33986   */\n      dup2\n        /* \"#utility.yul\":33971:33975   */\n      dup2\n        /* \"#utility.yul\":33967:33987   */\n      sub\n        /* \"#utility.yul\":33963:33964   */\n      0x00\n        /* \"#utility.yul\":33952:33961   */\n      dup4\n        /* \"#utility.yul\":33948:33965   */\n      add\n        /* \"#utility.yul\":33941:33988   */\n      mstore\n        /* \"#utility.yul\":34005:34136   */\n      tag_739\n        /* \"#utility.yul\":34131:34135   */\n      dup2\n        /* \"#utility.yul\":34005:34136   */\n      tag_401\n      jump\t// in\n    tag_739:\n        /* \"#utility.yul\":33997:34136   */\n      swap1\n      pop\n        /* \"#utility.yul\":33724:34143   */\n      swap2\n      swap1\n      pop\n      jump\t// out\n        /* \"#utility.yul\":34149:34317   */\n    tag_402:\n        /* \"#utility.yul\":34289:34309   */\n      0x526577617264206d757374206265203e20300000000000000000000000000000\n        /* \"#utility.yul\":34285:34286   */\n      0x00\n        /* \"#utility.yul\":34277:34283   */\n      dup3\n        /* \"#utility.yul\":34273:34287   */\n      add\n        /* \"#utility.yul\":34266:34310   */\n      mstore\n        /* \"#utility.yul\":34149:34317   */\n      pop\n      jump\t// out\n        /* \"#utility.yul\":34323:34689   */\n    tag_403:\n        /* \"#utility.yul\":34465:34468   */\n      0x00\n        /* \"#utility.yul\":34486:34553   */\n      tag_742\n        /* \"#utility.yul\":34550:34552   */\n      0x12\n        /* \"#utility.yul\":34545:34548   */\n      dup4\n        /* \"#utility.yul\":34486:34553   */\n      tag_353\n      jump\t// in\n    tag_742:\n        /* \"#utility.yul\":34479:34553   */\n      swap2\n      pop\n        /* \"#utility.yul\":34562:34655   */\n      tag_743\n        /* \"#utility.yul\":34651:34654   */\n      dup3\n        /* \"#utility.yul\":34562:34655   */\n      tag_402\n      jump\t// in\n    tag_743:\n        /* \"#utility.yul\":34680:34682   */\n      0x20\n        /* \"#utility.yul\":34675:34678   */\n      dup3\n        /* \"#utility.yul\":34671:34683   */\n      add\n        /* \"#utility.yul\":34664:34683   */\n      swap1\n      pop\n        /* \"#utility.yul\":34323:34689   */\n      swap2\n      swap1\n      pop\n      jump\t// out\n        /* \"#utility.yul\":34695:35114   */\n    tag_236:\n        /* \"#utility.yul\":34861:34865   */\n      0x00\n        /* \"#utility.yul\":34899:34901   */\n      0x20\n        /* \"#utility.yul\":34888:34897   */\n      dup3\n        /* \"#utility.yul\":34884:34902   */\n      add\n        /* \"#utility.yul\":34876:34902   */\n      swap1\n      pop\n        /* \"#utility.yul\":34948:34957   */\n      dup2\n        /* \"#utility.yul\":34942:34946   */\n      dup2\n        /* \"#utility.yul\":34938:34958   */\n      sub\n        /* \"#utility.yul\":34934:34935   */\n      0x00\n        /* \"#utility.yul\":34923:34932   */\n      dup4\n        /* \"#utility.yul\":34919:34936   */\n      add\n        /* \"#utility.yul\":34912:34959   */\n      mstore\n        /* \"#utility.yul\":34976:35107   */\n      tag_745\n        /* \"#utility.yul\":35102:35106   */\n      dup2\n        /* \"#utility.yul\":34976:35107   */\n      tag_403\n      jump\t// in\n    tag_745:\n        /* \"#utility.yul\":34968:35107   */\n      swap1\n      pop\n        /* \"#utility.yul\":34695:35114   */\n      swap2\n      swap1\n      pop\n      jump\t// out\n        /* \"#utility.yul\":35120:35289   */\n    tag_404:\n        /* \"#utility.yul\":35260:35281   */\n      0x546f6b656e206e6f7420737570706f7274656400000000000000000000000000\n        /* \"#utility.yul\":35256:35257   */\n      0x00\n        /* \"#utility.yul\":35248:35254   */\n      dup3\n        /* \"#utility.yul\":35244:35258   */\n      add\n        /* \"#utility.yul\":35237:35282   */\n      mstore\n        /* \"#utility.yul\":35120:35289   */\n      pop\n      jump\t// out\n        /* \"#utility.yul\":35295:35661   */\n    tag_405:\n        /* \"#utility.yul\":35437:35440   */\n      0x00\n        /* \"#utility.yul\":35458:35525   */\n      tag_748\n        /* \"#utility.yul\":35522:35524   */\n      0x13\n        /* \"#utility.yul\":35517:35520   */\n      dup4\n        /* \"#utility.yul\":35458:35525   */\n      tag_353\n      jump\t// in\n    tag_748:\n        /* \"#utility.yul\":35451:35525   */\n      swap2\n      pop\n        /* \"#utility.yul\":35534:35627   */\n      tag_749\n        /* \"#utility.yul\":35623:35626   */\n      dup3\n        /* \"#utility.yul\":35534:35627   */\n      tag_404\n      jump\t// in\n    tag_749:\n        /* \"#utility.yul\":35652:35654   */\n      0x20\n        /* \"#utility.yul\":35647:35650   */\n      dup3\n        /* \"#utility.yul\":35643:35655   */\n      add\n        /* \"#utility.yul\":35636:35655   */\n      swap1\n      pop\n        /* \"#utility.yul\":35295:35661   */\n      swap2\n      swap1\n      pop\n      jump\t// out\n        /* \"#utility.yul\":35667:36086   */\n    tag_242:\n        /* \"#utility.yul\":35833:35837   */\n      0x00\n        /* \"#utility.yul\":35871:35873   */\n      0x20\n        /* \"#utility.yul\":35860:35869   */\n      dup3\n        /* \"#utility.yul\":35856:35874   */\n      add\n        /* \"#utility.yul\":35848:35874   */\n      swap1\n      pop\n        /* \"#utility.yul\":35920:35929   */\n      dup2\n        /* \"#utility.yul\":35914:35918   */\n      dup2\n        /* \"#utility.yul\":35910:35930   */\n      sub\n        /* \"#utility.yul\":35906:35907   */\n      0x00\n        /* \"#utility.yul\":35895:35904   */\n      dup4\n        /* \"#utility.yul\":35891:35908   */\n      add\n        /* \"#utility.yul\":35884:35931   */\n      mstore\n        /* \"#utility.yul\":35948:36079   */\n      tag_751\n        /* \"#utility.yul\":36074:36078   */\n      dup2\n        /* \"#utility.yul\":35948:36079   */\n      tag_405\n      jump\t// in\n    tag_751:\n        /* \"#utility.yul\":35940:36079   */\n      swap1\n      pop\n        /* \"#utility.yul\":35667:36086   */\n      swap2\n      swap1\n      pop\n      jump\t// out\n        /* \"#utility.yul\":36092:36263   */\n    tag_406:\n        /* \"#utility.yul\":36232:36255   */\n      0x4f6e6c792063726561746f722063616e20686972650000000000000000000000\n        /* \"#utility.yul\":36228:36229   */\n      0x00\n        /* \"#utility.yul\":36220:36226   */\n      dup3\n        /* \"#utility.yul\":36216:36230   */\n      add\n        /* \"#utility.yul\":36209:36256   */\n      mstore\n        /* \"#utility.yul\":36092:36263   */\n      pop\n      jump\t// out\n        /* \"#utility.yul\":36269:36635   */\n    tag_407:\n        /* \"#utility.yul\":36411:36414   */\n      0x00\n        /* \"#utility.yul\":36432:36499   */\n      tag_754\n        /* \"#utility.yul\":36496:36498   */\n      0x15\n        /* \"#utility.yul\":36491:36494   */\n      dup4\n        /* \"#utility.yul\":36432:36499   */\n      tag_353\n      jump\t// in\n    tag_754:\n        /* \"#utility.yul\":36425:36499   */\n      swap2\n      pop\n        /* \"#utility.yul\":36508:36601   */\n      tag_755\n        /* \"#utility.yul\":36597:36600   */\n      dup3\n        /* \"#utility.yul\":36508:36601   */\n      tag_406\n      jump\t// in\n    tag_755:\n        /* \"#utility.yul\":36626:36628   */\n      0x20\n        /* \"#utility.yul\":36621:36624   */\n      dup3\n        /* \"#utility.yul\":36617:36629   */\n      add\n        /* \"#utility.yul\":36610:36629   */\n      swap1\n      pop\n        /* \"#utility.yul\":36269:36635   */\n      swap2\n      swap1\n      pop\n      jump\t// out\n        /* \"#utility.yul\":36641:37060   */\n    tag_247:\n        /* \"#utility.yul\":36807:36811   */\n      0x00\n        /* \"#utility.yul\":36845:36847   */\n      0x20\n        /* \"#utility.yul\":36834:36843   */\n      dup3\n        /* \"#utility.yul\":36830:36848   */\n      add\n        /* \"#utility.yul\":36822:36848   */\n      swap1\n      pop\n        /* \"#utility.yul\":36894:36903   */\n      dup2\n        /* \"#utility.yul\":36888:36892   */\n      dup2\n        /* \"#utility.yul\":36884:36904   */\n      sub\n        /* \"#utility.yul\":36880:36881   */\n      0x00\n        /* \"#utility.yul\":36869:36878   */\n      dup4\n        /* \"#utility.yul\":36865:36882   */\n      add\n        /* \"#utility.yul\":36858:36905   */\n      mstore\n        /* \"#utility.yul\":36922:37053   */\n      tag_757\n        /* \"#utility.yul\":37048:37052   */\n      dup2\n        /* \"#utility.yul\":36922:37053   */\n      tag_407\n      jump\t// in\n    tag_757:\n        /* \"#utility.yul\":36914:37053   */\n      swap1\n      pop\n        /* \"#utility.yul\":36641:37060   */\n      swap2\n      swap1\n      pop\n      jump\t// out\n        /* \"#utility.yul\":37066:37229   */\n    tag_408:\n        /* \"#utility.yul\":37206:37221   */\n      0x5461736b206e6f74206f70656e00000000000000000000000000000000000000\n        /* \"#utility.yul\":37202:37203   */\n      0x00\n        /* \"#utility.yul\":37194:37200   */\n      dup3\n        /* \"#utility.yul\":37190:37204   */\n      add\n        /* \"#utility.yul\":37183:37222   */\n      mstore\n        /* \"#utility.yul\":37066:37229   */\n      pop\n      jump\t// out\n        /* \"#utility.yul\":37235:37601   */\n    tag_409:\n        /* \"#utility.yul\":37377:37380   */\n      0x00\n        /* \"#utility.yul\":37398:37465   */\n      tag_760\n        /* \"#utility.yul\":37462:37464   */\n      0x0d\n        /* \"#utility.yul\":37457:37460   */\n      dup4\n        /* \"#utility.yul\":37398:37465   */\n      tag_353\n      jump\t// in\n    tag_760:\n        /* \"#utility.yul\":37391:37465   */\n      swap2\n      pop\n        /* \"#utility.yul\":37474:37567   */\n      tag_761\n        /* \"#utility.yul\":37563:37566   */\n      dup3\n        /* \"#utility.yul\":37474:37567   */\n      tag_408\n      jump\t// in\n    tag_761:\n        /* \"#utility.yul\":37592:37594   */\n      0x20\n        /* \"#utility.yul\":37587:37590   */\n      dup3\n        /* \"#utility.yul\":37583:37595   */\n      add\n        /* \"#utility.yul\":37576:37595   */\n      swap1\n      pop\n        /* \"#utility.yul\":37235:37601   */\n      swap2\n      swap1\n      pop\n      jump\t// out\n        /* \"#utility.yul\":37607:38026   */\n    tag_254:\n        /* \"#utility.yul\":37773:37777   */\n      0x00\n        /* \"#utility.yul\":37811:37813   */\n      0x20\n        /* \"#utility.yul\":37800:37809   */\n      dup3\n        /* \"#utility.yul\":37796:37814   */\n      add\n        /* \"#utility.yul\":37788:37814   */\n      swap1\n      pop\n        /* \"#utility.yul\":37860:37869   */\n      dup2\n        /* \"#utility.yul\":37854:37858   */\n      dup2\n        /* \"#utility.yul\":37850:37870   */\n      sub\n        /* \"#utility.yul\":37846:37847   */\n      0x00\n        /* \"#utility.yul\":37835:37844   */\n      dup4\n        /* \"#utility.yul\":37831:37848   */\n      add\n        /* \"#utility.yul\":37824:37871   */\n      mstore\n        /* \"#utility.yul\":37888:38019   */\n      tag_763\n        /* \"#utility.yul\":38014:38018   */\n      dup2\n        /* \"#utility.yul\":37888:38019   */\n      tag_409\n      jump\t// in\n    tag_763:\n        /* \"#utility.yul\":37880:38019   */\n      swap1\n      pop\n        /* \"#utility.yul\":37607:38026   */\n      swap2\n      swap1\n      pop\n      jump\t// out\n        /* \"#utility.yul\":38032:38198   */\n    tag_410:\n        /* \"#utility.yul\":38172:38190   */\n      0x416c72656164792061737369676e656400000000000000000000000000000000\n        /* \"#utility.yul\":38168:38169   */\n      0x00\n        /* \"#utility.yul\":38160:38166   */\n      dup3\n        /* \"#utility.yul\":38156:38170   */\n      add\n        /* \"#utility.yul\":38149:38191   */\n      mstore\n        /* \"#utility.yul\":38032:38198   */\n      pop\n      jump\t// out\n        /* \"#utility.yul\":38204:38570   */\n    tag_411:\n        /* \"#utility.yul\":38346:38349   */\n      0x00\n        /* \"#utility.yul\":38367:38434   */\n      tag_766\n        /* \"#utility.yul\":38431:38433   */\n      0x10\n        /* \"#utility.yul\":38426:38429   */\n      dup4\n        /* \"#utility.yul\":38367:38434   */\n      tag_353\n      jump\t// in\n    tag_766:\n        /* \"#utility.yul\":38360:38434   */\n      swap2\n      pop\n        /* \"#utility.yul\":38443:38536   */\n      tag_767\n        /* \"#utility.yul\":38532:38535   */\n      dup3\n        /* \"#utility.yul\":38443:38536   */\n      tag_410\n      jump\t// in\n    tag_767:\n        /* \"#utility.yul\":38561:38563   */\n      0x20\n        /* \"#utility.yul\":38556:38559   */\n      dup3\n        /* \"#utility.yul\":38552:38564   */\n      add\n        /* \"#utility.yul\":38545:38564   */\n      swap1\n      pop\n        /* \"#utility.yul\":38204:38570   */\n      swap2\n      swap1\n      pop\n      jump\t// out\n        /* \"#utility.yul\":38576:38995   */\n    tag_257:\n        /* \"#utility.yul\":38742:38746   */\n      0x00\n        /* \"#utility.yul\":38780:38782   */\n      0x20\n        /* \"#utility.yul\":38769:38778   */\n      dup3\n        /* \"#utility.yul\":38765:38783   */\n      add\n        /* \"#utility.yul\":38757:38783   */\n      swap1\n      pop\n        /* \"#utility.yul\":38829:38838   */\n      dup2\n        /* \"#utility.yul\":38823:38827   */\n      dup2\n        /* \"#utility.yul\":38819:38839   */\n      sub\n        /* \"#utility.yul\":38815:38816   */\n      0x00\n        /* \"#utility.yul\":38804:38813   */\n      dup4\n        /* \"#utility.yul\":38800:38817   */\n      add\n        /* \"#utility.yul\":38793:38840   */\n      mstore\n        /* \"#utility.yul\":38857:38988   */\n      tag_769\n        /* \"#utility.yul\":38983:38987   */\n      dup2\n        /* \"#utility.yul\":38857:38988   */\n      tag_411\n      jump\t// in\n    tag_769:\n        /* \"#utility.yul\":38849:38988   */\n      swap1\n      pop\n        /* \"#utility.yul\":38576:38995   */\n      swap2\n      swap1\n      pop\n      jump\t// out\n        /* \"#utility.yul\":39001:39157   */\n    tag_412:\n        /* \"#utility.yul\":39141:39149   */\n      0x546f6b656e320000000000000000000000000000000000000000000000000000\n        /* \"#utility.yul\":39137:39138   */\n      0x00\n        /* \"#utility.yul\":39129:39135   */\n      dup3\n        /* \"#utility.yul\":39125:39139   */\n      add\n        /* \"#utility.yul\":39118:39150   */\n      mstore\n        /* \"#utility.yul\":39001:39157   */\n      pop\n      jump\t// out\n        /* \"#utility.yul\":39163:39528   */\n    tag_413:\n        /* \"#utility.yul\":39305:39308   */\n      0x00\n        /* \"#utility.yul\":39326:39392   */\n      tag_772\n        /* \"#utility.yul\":39390:39391   */\n      0x06\n        /* \"#utility.yul\":39385:39388   */\n      dup4\n        /* \"#utility.yul\":39326:39392   */\n      tag_353\n      jump\t// in\n    tag_772:\n        /* \"#utility.yul\":39319:39392   */\n      swap2\n      pop\n        /* \"#utility.yul\":39401:39494   */\n      tag_773\n        /* \"#utility.yul\":39490:39493   */\n      dup3\n        /* \"#utility.yul\":39401:39494   */\n      tag_412\n      jump\t// in\n    tag_773:\n        /* \"#utility.yul\":39519:39521   */\n      0x20\n        /* \"#utility.yul\":39514:39517   */\n      dup3\n        /* \"#utility.yul\":39510:39522   */\n      add\n        /* \"#utility.yul\":39503:39522   */\n      swap1\n      pop\n        /* \"#utility.yul\":39163:39528   */\n      swap2\n      swap1\n      pop\n      jump\t// out\n        /* \"#utility.yul\":39534:40173   */\n    tag_274:\n        /* \"#utility.yul\":39756:39760   */\n      0x00\n        /* \"#utility.yul\":39794:39796   */\n      0x60\n        /* \"#utility.yul\":39783:39792   */\n      dup3\n        /* \"#utility.yul\":39779:39797   */\n      add\n        /* \"#utility.yul\":39771:39797   */\n      swap1\n      pop\n        /* \"#utility.yul\":39843:39852   */\n      dup2\n        /* \"#utility.yul\":39837:39841   */\n      dup2\n        /* \"#utility.yul\":39833:39853   */\n      sub\n        /* \"#utility.yul\":39829:39830   */\n      0x00\n        /* \"#utility.yul\":39818:39827   */\n      dup4\n        /* \"#utility.yul\":39814:39831   */\n      add\n        /* \"#utility.yul\":39807:39854   */\n      mstore\n        /* \"#utility.yul\":39871:40002   */\n      tag_775\n        /* \"#utility.yul\":39997:40001   */\n      dup2\n        /* \"#utility.yul\":39871:40002   */\n      tag_413\n      jump\t// in\n    tag_775:\n        /* \"#utility.yul\":39863:40002   */\n      swap1\n      pop\n        /* \"#utility.yul\":40012:40084   */\n      tag_776\n        /* \"#utility.yul\":40080:40082   */\n      0x20\n        /* \"#utility.yul\":40069:40078   */\n      dup4\n        /* \"#utility.yul\":40065:40083   */\n      add\n        /* \"#utility.yul\":40056:40062   */\n      dup6\n        /* \"#utility.yul\":40012:40084   */\n      tag_355\n      jump\t// in\n    tag_776:\n        /* \"#utility.yul\":40094:40166   */\n      tag_777\n        /* \"#utility.yul\":40162:40164   */\n      0x40\n        /* \"#utility.yul\":40151:40160   */\n      dup4\n        /* \"#utility.yul\":40147:40165   */\n      add\n        /* \"#utility.yul\":40138:40144   */\n      dup5\n        /* \"#utility.yul\":40094:40166   */\n      tag_355\n      jump\t// in\n    tag_777:\n        /* \"#utility.yul\":39534:40173   */\n      swap4\n      swap3\n      pop\n      pop\n      pop\n      jump\t// out\n        /* \"#utility.yul\":40179:40360   */\n    tag_414:\n        /* \"#utility.yul\":40319:40352   */\n      0x5265656e7472616e637947756172643a207265656e7472616e742063616c6c00\n        /* \"#utility.yul\":40315:40316   */\n      0x00\n        /* \"#utility.yul\":40307:40313   */\n      dup3\n        /* \"#utility.yul\":40303:40317   */\n      add\n        /* \"#utility.yul\":40296:40353   */\n      mstore\n        /* \"#utility.yul\":40179:40360   */\n      pop\n      jump\t// out\n        /* \"#utility.yul\":40366:40732   */\n    tag_415:\n        /* \"#utility.yul\":40508:40511   */\n      0x00\n        /* \"#utility.yul\":40529:40596   */\n      tag_780\n        /* \"#utility.yul\":40593:40595   */\n      0x1f\n        /* \"#utility.yul\":40588:40591   */\n      dup4\n        /* \"#utility.yul\":40529:40596   */\n      tag_353\n      jump\t// in\n    tag_780:\n        /* \"#utility.yul\":40522:40596   */\n      swap2\n      pop\n        /* \"#utility.yul\":40605:40698   */\n      tag_781\n        /* \"#utility.yul\":40694:40697   */\n      dup3\n        /* \"#utility.yul\":40605:40698   */\n      tag_414\n      jump\t// in\n    tag_781:\n        /* \"#utility.yul\":40723:40725   */\n      0x20\n        /* \"#utility.yul\":40718:40721   */\n      dup3\n        /* \"#utility.yul\":40714:40726   */\n      add\n        /* \"#utility.yul\":40707:40726   */\n      swap1\n      pop\n        /* \"#utility.yul\":40366:40732   */\n      swap2\n      swap1\n      pop\n      jump\t// out\n        /* \"#utility.yul\":40738:41157   */\n    tag_291:\n        /* \"#utility.yul\":40904:40908   */\n      0x00\n        /* \"#utility.yul\":40942:40944   */\n      0x20\n        /* \"#utility.yul\":40931:40940   */\n      dup3\n        /* \"#utility.yul\":40927:40945   */\n      add\n        /* \"#utility.yul\":40919:40945   */\n      swap1\n      pop\n        /* \"#utility.yul\":40991:41000   */\n      dup2\n        /* \"#utility.yul\":40985:40989   */\n      dup2\n        /* \"#utility.yul\":40981:41001   */\n      sub\n        /* \"#utility.yul\":40977:40978   */\n      0x00\n        /* \"#utility.yul\":40966:40975   */\n      dup4\n        /* \"#utility.yul\":40962:40979   */\n      add\n        /* \"#utility.yul\":40955:41002   */\n      mstore\n        /* \"#utility.yul\":41019:41150   */\n      tag_783\n        /* \"#utility.yul\":41145:41149   */\n      dup2\n        /* \"#utility.yul\":41019:41150   */\n      tag_415\n      jump\t// in\n    tag_783:\n        /* \"#utility.yul\":41011:41150   */\n      swap1\n      pop\n        /* \"#utility.yul\":40738:41157   */\n      swap2\n      swap1\n      pop\n      jump\t// out\n        /* \"#utility.yul\":41163:41495   */\n    tag_295:\n        /* \"#utility.yul\":41284:41288   */\n      0x00\n        /* \"#utility.yul\":41322:41324   */\n      0x40\n        /* \"#utility.yul\":41311:41320   */\n      dup3\n        /* \"#utility.yul\":41307:41325   */\n      add\n        /* \"#utility.yul\":41299:41325   */\n      swap1\n      pop\n        /* \"#utility.yul\":41335:41406   */\n      tag_785\n        /* \"#utility.yul\":41403:41404   */\n      0x00\n        /* \"#utility.yul\":41392:41401   */\n      dup4\n        /* \"#utility.yul\":41388:41405   */\n      add\n        /* \"#utility.yul\":41379:41385   */\n      dup6\n        /* \"#utility.yul\":41335:41406   */\n      tag_355\n      jump\t// in\n    tag_785:\n        /* \"#utility.yul\":41416:41488   */\n      tag_786\n        /* \"#utility.yul\":41484:41486   */\n      0x20\n        /* \"#utility.yul\":41473:41482   */\n      dup4\n        /* \"#utility.yul\":41469:41487   */\n      add\n        /* \"#utility.yul\":41460:41466   */\n      dup5\n        /* \"#utility.yul\":41416:41488   */\n      tag_352\n      jump\t// in\n    tag_786:\n        /* \"#utility.yul\":41163:41495   */\n      swap4\n      swap3\n      pop\n      pop\n      pop\n      jump\t// out\n        /* \"#utility.yul\":41501:41943   */\n    tag_304:\n        /* \"#utility.yul\":41650:41654   */\n      0x00\n        /* \"#utility.yul\":41688:41690   */\n      0x60\n        /* \"#utility.yul\":41677:41686   */\n      dup3\n        /* \"#utility.yul\":41673:41691   */\n      add\n        /* \"#utility.yul\":41665:41691   */\n      swap1\n      pop\n        /* \"#utility.yul\":41701:41772   */\n      tag_788\n        /* \"#utility.yul\":41769:41770   */\n      0x00\n        /* \"#utility.yul\":41758:41767   */\n      dup4\n        /* \"#utility.yul\":41754:41771   */\n      add\n        /* \"#utility.yul\":41745:41751   */\n      dup7\n        /* \"#utility.yul\":41701:41772   */\n      tag_355\n      jump\t// in\n    tag_788:\n        /* \"#utility.yul\":41782:41854   */\n      tag_789\n        /* \"#utility.yul\":41850:41852   */\n      0x20\n        /* \"#utility.yul\":41839:41848   */\n      dup4\n        /* \"#utility.yul\":41835:41853   */\n      add\n        /* \"#utility.yul\":41826:41832   */\n      dup6\n        /* \"#utility.yul\":41782:41854   */\n      tag_355\n      jump\t// in\n    tag_789:\n        /* \"#utility.yul\":41864:41936   */\n      tag_790\n        /* \"#utility.yul\":41932:41934   */\n      0x40\n        /* \"#utility.yul\":41921:41930   */\n      dup4\n        /* \"#utility.yul\":41917:41935   */\n      add\n        /* \"#utility.yul\":41908:41914   */\n      dup5\n        /* \"#utility.yul\":41864:41936   */\n      tag_352\n      jump\t// in\n    tag_790:\n        /* \"#utility.yul\":41501:41943   */\n      swap5\n      swap4\n      pop\n      pop\n      pop\n      pop\n      jump\t// out\n\n    auxdata: 0xa2646970667358221220035958fa0e20108dc1dd723f72f9c2dcaa990e2394ee7cfc74c648cfe5dda56164736f6c634300081f0033\n}\n",
				"bytecode": {
					"linkReferences": {},
					"object": "608060405234801561000f575f5ffd5b506040516137f43803806137f48339818101604052810190610031919061030e565b335f73ffffffffffffffffffffffffffffffffffffffff168173ffffffffffffffffffffffffffffffffffffffff16036100a2575f6040517f1e4fbdf7000000000000000000000000000000000000000000000000000000008152600401610099919061036d565b60405180910390fd5b6100b1816101ef60201b60201c565b50600180819055505f73ffffffffffffffffffffffffffffffffffffffff168373ffffffffffffffffffffffffffffffffffffffff1603610127576040517f08c379a000000000000000000000000000000000000000000000000000000000815260040161011e906103e0565b60405180910390fd5b8260035f6101000a81548173ffffffffffffffffffffffffffffffffffffffff021916908373ffffffffffffffffffffffffffffffffffffffff1602179055508160045f6101000a81548173ffffffffffffffffffffffffffffffffffffffff021916908373ffffffffffffffffffffffffffffffffffffffff1602179055508060075f6101000a81548173ffffffffffffffffffffffffffffffffffffffff021916908373ffffffffffffffffffffffffffffffffffffffff1602179055505050506103fe565b5f5f5f9054906101000a900473ffffffffffffffffffffffffffffffffffffffff169050815f5f6101000a81548173ffffffffffffffffffffffffffffffffffffffff021916908373ffffffffffffffffffffffffffffffffffffffff1602179055508173ffffffffffffffffffffffffffffffffffffffff168173ffffffffffffffffffffffffffffffffffffffff167f8be0079c531659141344cd1fd0a4f28419497f9722a3daafe3b4186f6b6457e060405160405180910390a35050565b5f5ffd5b5f73ffffffffffffffffffffffffffffffffffffffff82169050919050565b5f6102dd826102b4565b9050919050565b6102ed816102d3565b81146102f7575f5ffd5b50565b5f81519050610308816102e4565b92915050565b5f5f5f60608486031215610325576103246102b0565b5b5f610332868287016102fa565b9350506020610343868287016102fa565b9250506040610354868287016102fa565b9150509250925092565b610367816102d3565b82525050565b5f6020820190506103805f83018461035e565b92915050565b5f82825260208201905092915050565b7f546f6b656e312063616e6e6f74206265207a65726f00000000000000000000005f82015250565b5f6103ca601583610386565b91506103d582610396565b602082019050919050565b5f6020820190508181035f8301526103f7816103be565b9050919050565b6133e98061040b5f395ff3fe608060405234801561000f575f5ffd5b5060043610610114575f3560e01c80638d977672116100a0578063ad3b1b471161006f578063ad3b1b47146102e3578063ae1fc324146102ff578063d21220a71461031b578063eb13554f14610339578063f2fde38b1461035757610114565b80638d977672146102405780638da5cb5b1461027957806395d57660146102975780639bee5ce9146102c757610114565b806341a4e30a116100e757806341a4e30a1461019e57806366873a55146101ce5780636ff1c9bc146101fe578063715018a61461021a5780637eec20a81461022457610114565b8063064e6780146101185780631d65e77e1461013457806325be124e1461016457806329e517f414610182575b5f5ffd5b610132600480360381019061012d9190612020565b610373565b005b61014e6004803603810190610149919061207e565b610418565b60405161015b91906122a2565b60405180910390f35b61016c610736565b604051610179919061231d565b60405180910390f35b61019c60048036038101906101979190612336565b61075b565b005b6101b860048036038101906101b391906124a0565b610b75565b6040516101c59190612537565b60405180910390f35b6101e860048036038101906101e39190612550565b610ea6565b6040516101f59190612537565b60405180910390f35b61021860048036038101906102139190612020565b610ed1565b005b610222610f8a565b005b61023e6004803603810190610239919061207e565b610f9d565b005b61025a6004803603810190610255919061207e565b611176565b6040516102709a99989796959493929190612603565b60405180910390f35b610281611348565b60405161028e91906126ab565b60405180910390f35b6102b160048036038101906102ac9190612020565b61136f565b6040516102be919061276c565b60405180910390f35b6102e160048036038101906102dc919061278c565b611402565b005b6102fd60048036038101906102f89190612550565b611a00565b005b61031960048036038101906103149190612020565b611a3e565b005b610323611ae3565b604051610330919061231d565b60405180910390f35b610341611b08565b60405161034e91906126ab565b60405180910390f35b610371600480360381019061036c9190612020565b611b2d565b005b61037b611bb1565b7fe1dfa83513a4b65c296bc64d8a68945cb723d798739225012d7167dbb2d6e3fc60035f9054906101000a900473ffffffffffffffffffffffffffffffffffffffff16826040516103cd92919061283a565b60405180910390a18060035f6101000a81548173ffffffffffffffffffffffffffffffffffffffff021916908373ffffffffffffffffffffffffffffffffffffffff16021790555050565b610420611f14565b60055f8381526020019081526020015f2060080160019054906101000a900460ff16610481576040517f08c379a0000000000000000000000000000000000000000000000000000000008152600401610478906128be565b60405180910390fd5b60055f8381526020019081526020015f20604051806101400160405290815f82015481526020016001820180546104b790612909565b80601f01602080910402602001604051908101604052809291908181526020018280546104e390612909565b801561052e5780601f106105055761010080835404028352916020019161052e565b820191905f5260205f20905b81548152906001019060200180831161051157829003601f168201915b5050505050815260200160028201805461054790612909565b80601f016020809104026020016040519081016040528092919081815260200182805461057390612909565b80156105be5780601f10610595576101008083540402835291602001916105be565b820191905f5260205f20905b8154815290600101906020018083116105a157829003601f168201915b50505050508152602001600382015f9054906101000a900473ffffffffffffffffffffffffffffffffffffffff1673ffffffffffffffffffffffffffffffffffffffff1673ffffffffffffffffffffffffffffffffffffffff168152602001600482015f9054906101000a900473ffffffffffffffffffffffffffffffffffffffff1673ffffffffffffffffffffffffffffffffffffffff1673ffffffffffffffffffffffffffffffffffffffff16815260200160058201548152602001600682015f9054906101000a900473ffffffffffffffffffffffffffffffffffffffff1673ffffffffffffffffffffffffffffffffffffffff1673ffffffffffffffffffffffffffffffffffffffff16815260200160078201548152602001600882015f9054906101000a900460ff1660038111156106fe576106fd612137565b5b60038111156107105761070f612137565b5b81526020016008820160019054906101000a900460ff1615151515815250509050919050565b60045f9054906101000a900473ffffffffffffffffffffffffffffffffffffffff1681565b610763611c38565b5f60055f8481526020019081526020015f2090508060080160019054906101000a900460ff166107c8576040517f08c379a00000000000000000000000000000000000000000000000000000000081526004016107bf906128be565b60405180910390fd5b600160038111156107dc576107db612137565b5b816008015f9054906101000a900460ff1660038111156107ff576107fe612137565b5b1461083f576040517f08c379a000000000000000000000000000000000000000000000000000000000815260040161083690612983565b60405180910390fd5b3373ffffffffffffffffffffffffffffffffffffffff16816003015f9054906101000a900473ffffffffffffffffffffffffffffffffffffffff1673ffffffffffffffffffffffffffffffffffffffff16146108d0576040517f08c379a00000000000000000000000000000000000000000000000000000000081526004016108c7906129eb565b60405180910390fd5b8173ffffffffffffffffffffffffffffffffffffffff16816004015f9054906101000a900473ffffffffffffffffffffffffffffffffffffffff1673ffffffffffffffffffffffffffffffffffffffff1614610961576040517f08c379a000000000000000000000000000000000000000000000000000000000815260040161095890612a53565b60405180910390fd5b5f816005015490505f826006015f9054906101000a900473ffffffffffffffffffffffffffffffffffffffff1690505f82116109d2576040517f08c379a00000000000000000000000000000000000000000000000000000000081526004016109c990612abb565b60405180910390fd5b5f73ffffffffffffffffffffffffffffffffffffffff168173ffffffffffffffffffffffffffffffffffffffff1603610a40576040517f08c379a0000000000000000000000000000000000000000000000000000000008152600401610a3790612b23565b60405180910390fd5b5f6064600a84610a509190612b6e565b610a5a9190612bdc565b90505f8184610a699190612c0c565b90506002856008015f6101000a81548160ff02191690836003811115610a9257610a91612137565b5b02179055505f839050610ac687838373ffffffffffffffffffffffffffffffffffffffff16611c879092919063ffffffff16565b610b1260075f9054906101000a900473ffffffffffffffffffffffffffffffffffffffff16848373ffffffffffffffffffffffffffffffffffffffff16611c879092919063ffffffff16565b8673ffffffffffffffffffffffffffffffffffffffff16887fc6d0427713479611f0dfce819339656ff5371ac9b48a9f8a8a36e5a984a4ddd68487604051610b5b929190612c3f565b60405180910390a3505050505050610b71611d06565b5050565b5f428211610bb8576040517f08c379a0000000000000000000000000000000000000000000000000000000008152600401610baf90612cb0565b60405180910390fd5b610bc26002611d0f565b5f610bcd6002611d23565b90506040518061014001604052808281526020018681526020018581526020013373ffffffffffffffffffffffffffffffffffffffff1681526020015f73ffffffffffffffffffffffffffffffffffffffff1681526020015f81526020015f73ffffffffffffffffffffffffffffffffffffffff1681526020018481526020015f6003811115610c6057610c5f612137565b5b81526020016001151581525060055f8381526020019081526020015f205f820151815f01556020820151816001019081610c9a9190612e65565b506040820151816002019081610cb09190612e65565b506060820151816003015f6101000a81548173ffffffffffffffffffffffffffffffffffffffff021916908373ffffffffffffffffffffffffffffffffffffffff1602179055506080820151816004015f6101000a81548173ffffffffffffffffffffffffffffffffffffffff021916908373ffffffffffffffffffffffffffffffffffffffff16021790555060a0820151816005015560c0820151816006015f6101000a81548173ffffffffffffffffffffffffffffffffffffffff021916908373ffffffffffffffffffffffffffffffffffffffff16021790555060e08201518160070155610100820151816008015f6101000a81548160ff02191690836003811115610dc257610dc1612137565b5b02179055506101208201518160080160016101000a81548160ff02191690831515021790555090505060065f3373ffffffffffffffffffffffffffffffffffffffff1673ffffffffffffffffffffffffffffffffffffffff1681526020019081526020015f2081908060018154018082558091505060019003905f5260205f20015f90919091909150553373ffffffffffffffffffffffffffffffffffffffff16817fdc691e972cb25fd6e968744b5a6416d42a052ac1305e3b7ed6777b621304b7f287604051610e939190612f34565b60405180910390a3809150509392505050565b6006602052815f5260405f208181548110610ebf575f80fd5b905f5260205f20015f91509150505481565b610ed9611bb1565b5f8173ffffffffffffffffffffffffffffffffffffffff166370a08231306040518263ffffffff1660e01b8152600401610f1391906126ab565b602060405180830381865afa158015610f2e573d5f5f3e3d5ffd5b505050506040513d601f19601f82011682018060405250810190610f529190612f68565b9050610f86610f5f611348565b828473ffffffffffffffffffffffffffffffffffffffff16611c879092919063ffffffff16565b5050565b610f92611bb1565b610f9b5f611d2f565b565b610fa5611c38565b5f60055f8381526020019081526020015f2090508060080160019054906101000a900460ff1661100a576040517f08c379a0000000000000000000000000000000000000000000000000000000008152600401611001906128be565b60405180910390fd5b3373ffffffffffffffffffffffffffffffffffffffff16816003015f9054906101000a900473ffffffffffffffffffffffffffffffffffffffff1673ffffffffffffffffffffffffffffffffffffffff161461109b576040517f08c379a000000000000000000000000000000000000000000000000000000000815260040161109290612fdd565b60405180910390fd5b5f60038111156110ae576110ad612137565b5b816008015f9054906101000a900460ff1660038111156110d1576110d0612137565b5b14611111576040517f08c379a000000000000000000000000000000000000000000000000000000000815260040161110890613045565b60405180910390fd5b6003816008015f6101000a81548160ff0219169083600381111561113857611137612137565b5b0217905550817fc6eacc3aa5b2aa77b5a826b832a804ca0b71830ec74f9aa57a15edd978c31ed660405160405180910390a250611173611d06565b50565b6005602052805f5260405f205f91509050805f01549080600101805461119b90612909565b80601f01602080910402602001604051908101604052809291908181526020018280546111c790612909565b80156112125780601f106111e957610100808354040283529160200191611212565b820191905f5260205f20905b8154815290600101906020018083116111f557829003601f168201915b50505050509080600201805461122790612909565b80601f016020809104026020016040519081016040528092919081815260200182805461125390612909565b801561129e5780601f106112755761010080835404028352916020019161129e565b820191905f5260205f20905b81548152906001019060200180831161128157829003601f168201915b505050505090806003015f9054906101000a900473ffffffffffffffffffffffffffffffffffffffff1690806004015f9054906101000a900473ffffffffffffffffffffffffffffffffffffffff1690806005015490806006015f9054906101000a900473ffffffffffffffffffffffffffffffffffffffff1690806007015490806008015f9054906101000a900460ff16908060080160019054906101000a900460ff1690508a565b5f5f5f9054906101000a900473ffffffffffffffffffffffffffffffffffffffff16905090565b606060065f8373ffffffffffffffffffffffffffffffffffffffff1673ffffffffffffffffffffffffffffffffffffffff1681526020019081526020015f208054806020026020016040519081016040528092919081815260200182805480156113f657602002820191905f5260205f20905b8154815260200190600101908083116113e2575b50505050509050919050565b61140a611c38565b5f73ffffffffffffffffffffffffffffffffffffffff168373ffffffffffffffffffffffffffffffffffffffff1603611478576040517f08c379a000000000000000000000000000000000000000000000000000000000815260040161146f90612a53565b60405180910390fd5b5f82116114ba576040517f08c379a00000000000000000000000000000000000000000000000000000000081526004016114b1906130ad565b60405180910390fd5b5f60035f9054906101000a900473ffffffffffffffffffffffffffffffffffffffff1673ffffffffffffffffffffffffffffffffffffffff168273ffffffffffffffffffffffffffffffffffffffff1614801561156457505f73ffffffffffffffffffffffffffffffffffffffff1660035f9054906101000a900473ffffffffffffffffffffffffffffffffffffffff1673ffffffffffffffffffffffffffffffffffffffff1614155b90505f60045f9054906101000a900473ffffffffffffffffffffffffffffffffffffffff1673ffffffffffffffffffffffffffffffffffffffff168373ffffffffffffffffffffffffffffffffffffffff1614801561161057505f73ffffffffffffffffffffffffffffffffffffffff1660045f9054906101000a900473ffffffffffffffffffffffffffffffffffffffff1673ffffffffffffffffffffffffffffffffffffffff1614155b9050818061161b5750805b61165a576040517f08c379a000000000000000000000000000000000000000000000000000000000815260040161165190613115565b60405180910390fd5b5f60055f8881526020019081526020015f2090508060080160019054906101000a900460ff166116bf576040517f08c379a00000000000000000000000000000000000000000000000000000000081526004016116b6906128be565b60405180910390fd5b3373ffffffffffffffffffffffffffffffffffffffff16816003015f9054906101000a900473ffffffffffffffffffffffffffffffffffffffff1673ffffffffffffffffffffffffffffffffffffffff1614611750576040517f08c379a00000000000000000000000000000000000000000000000000000000081526004016117479061317d565b60405180910390fd5b5f600381111561176357611762612137565b5b816008015f9054906101000a900460ff16600381111561178657611785612137565b5b146117c6576040517f08c379a00000000000000000000000000000000000000000000000000000000081526004016117bd906131e5565b60405180910390fd5b5f73ffffffffffffffffffffffffffffffffffffffff16816004015f9054906101000a900473ffffffffffffffffffffffffffffffffffffffff1673ffffffffffffffffffffffffffffffffffffffff1614611857576040517f08c379a000000000000000000000000000000000000000000000000000000000815260040161184e9061324d565b60405180910390fd5b6118843330878773ffffffffffffffffffffffffffffffffffffffff16611df0909392919063ffffffff16565b85816004015f6101000a81548173ffffffffffffffffffffffffffffffffffffffff021916908373ffffffffffffffffffffffffffffffffffffffff16021790555084816005018190555083816006015f6101000a81548173ffffffffffffffffffffffffffffffffffffffff021916908373ffffffffffffffffffffffffffffffffffffffff1602179055506001816008015f6101000a81548160ff0219169083600381111561193857611937612137565b5b021790555060065f8773ffffffffffffffffffffffffffffffffffffffff1673ffffffffffffffffffffffffffffffffffffffff1681526020019081526020015f2087908060018154018082558091505060019003905f5260205f20015f90919091909150558573ffffffffffffffffffffffffffffffffffffffff16877faf1ead7c979eb7513634b65a718a3e09820b4415161e8103d18d762f19cc5cfc87876040516119e7929190612c3f565b60405180910390a35050506119fa611d06565b50505050565b611a08611bb1565b611a3a611a13611348565b828473ffffffffffffffffffffffffffffffffffffffff16611c879092919063ffffffff16565b5050565b611a46611bb1565b7fe1dfa83513a4b65c296bc64d8a68945cb723d798739225012d7167dbb2d6e3fc60045f9054906101000a900473ffffffffffffffffffffffffffffffffffffffff1682604051611a989291906132b5565b60405180910390a18060045f6101000a81548173ffffffffffffffffffffffffffffffffffffffff021916908373ffffffffffffffffffffffffffffffffffffffff16021790555050565b60035f9054906101000a900473ffffffffffffffffffffffffffffffffffffffff1681565b60075f9054906101000a900473ffffffffffffffffffffffffffffffffffffffff1681565b611b35611bb1565b5f73ffffffffffffffffffffffffffffffffffffffff168173ffffffffffffffffffffffffffffffffffffffff1603611ba5575f6040517f1e4fbdf7000000000000000000000000000000000000000000000000000000008152600401611b9c91906126ab565b60405180910390fd5b611bae81611d2f565b50565b611bb9611e72565b73ffffffffffffffffffffffffffffffffffffffff16611bd7611348565b73ffffffffffffffffffffffffffffffffffffffff1614611c3657611bfa611e72565b6040517f118cdaa7000000000000000000000000000000000000000000000000000000008152600401611c2d91906126ab565b60405180910390fd5b565b600260015403611c7d576040517f08c379a0000000000000000000000000000000000000000000000000000000008152600401611c7490613339565b60405180910390fd5b6002600181905550565b611d01838473ffffffffffffffffffffffffffffffffffffffff1663a9059cbb8585604051602401611cba929190613357565b604051602081830303815290604052915060e01b6020820180517bffffffffffffffffffffffffffffffffffffffffffffffffffffffff8381831617835250505050611e79565b505050565b60018081905550565b6001815f015f828254019250508190555050565b5f815f01549050919050565b5f5f5f9054906101000a900473ffffffffffffffffffffffffffffffffffffffff169050815f5f6101000a81548173ffffffffffffffffffffffffffffffffffffffff021916908373ffffffffffffffffffffffffffffffffffffffff1602179055508173ffffffffffffffffffffffffffffffffffffffff168173ffffffffffffffffffffffffffffffffffffffff167f8be0079c531659141344cd1fd0a4f28419497f9722a3daafe3b4186f6b6457e060405160405180910390a35050565b611e6c848573ffffffffffffffffffffffffffffffffffffffff166323b872dd868686604051602401611e259392919061337e565b604051602081830303815290604052915060e01b6020820180517bffffffffffffffffffffffffffffffffffffffffffffffffffffffff8381831617835250505050611e79565b50505050565b5f33905090565b5f5f60205f8451602086015f885af180611e98576040513d5f823e3d81fd5b3d92505f519150505f8214611eb1576001811415611ecc565b5f8473ffffffffffffffffffffffffffffffffffffffff163b145b15611f0e57836040517f5274afe7000000000000000000000000000000000000000000000000000000008152600401611f0591906126ab565b60405180910390fd5b50505050565b6040518061014001604052805f815260200160608152602001606081526020015f73ffffffffffffffffffffffffffffffffffffffff1681526020015f73ffffffffffffffffffffffffffffffffffffffff1681526020015f81526020015f73ffffffffffffffffffffffffffffffffffffffff1681526020015f81526020015f6003811115611fa757611fa6612137565b5b81526020015f151581525090565b5f604051905090565b5f5ffd5b5f5ffd5b5f73ffffffffffffffffffffffffffffffffffffffff82169050919050565b5f611fef82611fc6565b9050919050565b611fff81611fe5565b8114612009575f5ffd5b50565b5f8135905061201a81611ff6565b92915050565b5f6020828403121561203557612034611fbe565b5b5f6120428482850161200c565b91505092915050565b5f819050919050565b61205d8161204b565b8114612067575f5ffd5b50565b5f8135905061207881612054565b92915050565b5f6020828403121561209357612092611fbe565b5b5f6120a08482850161206a565b91505092915050565b6120b28161204b565b82525050565b5f81519050919050565b5f82825260208201905092915050565b8281835e5f83830152505050565b5f601f19601f8301169050919050565b5f6120fa826120b8565b61210481856120c2565b93506121148185602086016120d2565b61211d816120e0565b840191505092915050565b61213181611fe5565b82525050565b7f4e487b71000000000000000000000000000000000000000000000000000000005f52602160045260245ffd5b6004811061217557612174612137565b5b50565b5f81905061218582612164565b919050565b5f61219482612178565b9050919050565b6121a48161218a565b82525050565b5f8115159050919050565b6121be816121aa565b82525050565b5f61014083015f8301516121da5f8601826120a9565b50602083015184820360208601526121f282826120f0565b9150506040830151848203604086015261220c82826120f0565b91505060608301516122216060860182612128565b5060808301516122346080860182612128565b5060a083015161224760a08601826120a9565b5060c083015161225a60c0860182612128565b5060e083015161226d60e08601826120a9565b5061010083015161228261010086018261219b565b506101208301516122976101208601826121b5565b508091505092915050565b5f6020820190508181035f8301526122ba81846121c4565b905092915050565b5f819050919050565b5f6122e56122e06122db84611fc6565b6122c2565b611fc6565b9050919050565b5f6122f6826122cb565b9050919050565b5f612307826122ec565b9050919050565b612317816122fd565b82525050565b5f6020820190506123305f83018461230e565b92915050565b5f5f6040838503121561234c5761234b611fbe565b5b5f6123598582860161206a565b925050602061236a8582860161200c565b9150509250929050565b5f5ffd5b5f5ffd5b7f4e487b71000000000000000000000000000000000000000000000000000000005f52604160045260245ffd5b6123b2826120e0565b810181811067ffffffffffffffff821117156123d1576123d061237c565b5b80604052505050565b5f6123e3611fb5565b90506123ef82826123a9565b919050565b5f67ffffffffffffffff82111561240e5761240d61237c565b5b612417826120e0565b9050602081019050919050565b828183375f83830152505050565b5f61244461243f846123f4565b6123da565b9050828152602081018484840111156124605761245f612378565b5b61246b848285612424565b509392505050565b5f82601f83011261248757612486612374565b5b8135612497848260208601612432565b91505092915050565b5f5f5f606084860312156124b7576124b6611fbe565b5b5f84013567ffffffffffffffff8111156124d4576124d3611fc2565b5b6124e086828701612473565b935050602084013567ffffffffffffffff81111561250157612500611fc2565b5b61250d86828701612473565b925050604061251e8682870161206a565b9150509250925092565b6125318161204b565b82525050565b5f60208201905061254a5f830184612528565b92915050565b5f5f6040838503121561256657612565611fbe565b5b5f6125738582860161200c565b92505060206125848582860161206a565b9150509250929050565b5f82825260208201905092915050565b5f6125a8826120b8565b6125b2818561258e565b93506125c28185602086016120d2565b6125cb816120e0565b840191505092915050565b6125df81611fe5565b82525050565b6125ee8161218a565b82525050565b6125fd816121aa565b82525050565b5f610140820190506126175f83018d612528565b8181036020830152612629818c61259e565b9050818103604083015261263d818b61259e565b905061264c606083018a6125d6565b61265960808301896125d6565b61266660a0830188612528565b61267360c08301876125d6565b61268060e0830186612528565b61268e6101008301856125e5565b61269c6101208301846125f4565b9b9a5050505050505050505050565b5f6020820190506126be5f8301846125d6565b92915050565b5f81519050919050565b5f82825260208201905092915050565b5f819050602082019050919050565b5f6126f883836120a9565b60208301905092915050565b5f602082019050919050565b5f61271a826126c4565b61272481856126ce565b935061272f836126de565b805f5b8381101561275f57815161274688826126ed565b975061275183612704565b925050600181019050612732565b5085935050505092915050565b5f6020820190508181035f8301526127848184612710565b905092915050565b5f5f5f5f608085870312156127a4576127a3611fbe565b5b5f6127b18782880161206a565b94505060206127c28782880161200c565b93505060406127d38782880161206a565b92505060606127e48782880161200c565b91505092959194509250565b7f546f6b656e3100000000000000000000000000000000000000000000000000005f82015250565b5f61282460068361258e565b915061282f826127f0565b602082019050919050565b5f6060820190508181035f83015261285181612818565b905061286060208301856125d6565b61286d60408301846125d6565b9392505050565b7f5461736b20646f6573206e6f74206578697374000000000000000000000000005f82015250565b5f6128a860138361258e565b91506128b382612874565b602082019050919050565b5f6020820190508181035f8301526128d58161289c565b9050919050565b7f4e487b71000000000000000000000000000000000000000000000000000000005f52602260045260245ffd5b5f600282049050600182168061292057607f821691505b602082108103612933576129326128dc565b5b50919050565b7f5461736b206e6f7420696e2070726f67726573730000000000000000000000005f82015250565b5f61296d60148361258e565b915061297882612939565b602082019050919050565b5f6020820190508181035f83015261299a81612961565b9050919050565b7f4f6e6c792063726561746f722063616e20636f6d706c657465000000000000005f82015250565b5f6129d560198361258e565b91506129e0826129a1565b602082019050919050565b5f6020820190508181035f830152612a02816129c9565b9050919050565b7f496e76616c696420636f6e7472696275746f72000000000000000000000000005f82015250565b5f612a3d60138361258e565b9150612a4882612a09565b602082019050919050565b5f6020820190508181035f830152612a6a81612a31565b9050919050565b7f4e6f2072657761726420736574000000000000000000000000000000000000005f82015250565b5f612aa5600d8361258e565b9150612ab082612a71565b602082019050919050565b5f6020820190508181035f830152612ad281612a99565b9050919050565b7f496e76616c696420746f6b656e207374617465000000000000000000000000005f82015250565b5f612b0d60138361258e565b9150612b1882612ad9565b602082019050919050565b5f6020820190508181035f830152612b3a81612b01565b9050919050565b7f4e487b71000000000000000000000000000000000000000000000000000000005f52601160045260245ffd5b5f612b788261204b565b9150612b838361204b565b9250828202612b918161204b565b91508282048414831517612ba857612ba7612b41565b5b5092915050565b7f4e487b71000000000000000000000000000000000000000000000000000000005f52601260045260245ffd5b5f612be68261204b565b9150612bf18361204b565b925082612c0157612c00612baf565b5b828204905092915050565b5f612c168261204b565b9150612c218361204b565b9250828203905081811115612c3957612c38612b41565b5b92915050565b5f604082019050612c525f830185612528565b612c5f60208301846125d6565b9392505050565b7f446561646c696e65206d75737420626520696e206675747572650000000000005f82015250565b5f612c9a601a8361258e565b9150612ca582612c66565b602082019050919050565b5f6020820190508181035f830152612cc781612c8e565b9050919050565b5f819050815f5260205f209050919050565b5f6020601f8301049050919050565b5f82821b905092915050565b5f60088302612d2a7fffffffffffffffffffffffffffffffffffffffffffffffffffffffffffffffff82612cef565b612d348683612cef565b95508019841693508086168417925050509392505050565b5f612d66612d61612d5c8461204b565b6122c2565b61204b565b9050919050565b5f819050919050565b612d7f83612d4c565b612d93612d8b82612d6d565b848454612cfb565b825550505050565b5f5f905090565b612daa612d9b565b612db5818484612d76565b505050565b5b81811015612dd857612dcd5f82612da2565b600181019050612dbb565b5050565b601f821115612e1d57612dee81612cce565b612df784612ce0565b81016020851015612e06578190505b612e1a612e1285612ce0565b830182612dba565b50505b505050565b5f82821c905092915050565b5f612e3d5f1984600802612e22565b1980831691505092915050565b5f612e558383612e2e565b9150826002028217905092915050565b612e6e826120b8565b67ffffffffffffffff811115612e8757612e8661237c565b5b612e918254612909565b612e9c828285612ddc565b5f60209050601f831160018114612ecd575f8415612ebb578287015190505b612ec58582612e4a565b865550612f2c565b601f198416612edb86612cce565b5f5b82811015612f0257848901518255600182019150602085019450602081019050612edd565b86831015612f1f5784890151612f1b601f891682612e2e565b8355505b6001600288020188555050505b505050505050565b5f6020820190508181035f830152612f4c818461259e565b905092915050565b5f81519050612f6281612054565b92915050565b5f60208284031215612f7d57612f7c611fbe565b5b5f612f8a84828501612f54565b91505092915050565b7f4e6f742063726561746f720000000000000000000000000000000000000000005f82015250565b5f612fc7600b8361258e565b9150612fd282612f93565b602082019050919050565b5f6020820190508181035f830152612ff481612fbb565b9050919050565b7f43616e6e6f742063616e63656c2061737369676e6564207461736b00000000005f82015250565b5f61302f601b8361258e565b915061303a82612ffb565b602082019050919050565b5f6020820190508181035f83015261305c81613023565b9050919050565b7f526577617264206d757374206265203e203000000000000000000000000000005f82015250565b5f61309760128361258e565b91506130a282613063565b602082019050919050565b5f6020820190508181035f8301526130c48161308b565b9050919050565b7f546f6b656e206e6f7420737570706f72746564000000000000000000000000005f82015250565b5f6130ff60138361258e565b915061310a826130cb565b602082019050919050565b5f6020820190508181035f83015261312c816130f3565b9050919050565b7f4f6e6c792063726561746f722063616e206869726500000000000000000000005f82015250565b5f61316760158361258e565b915061317282613133565b602082019050919050565b5f6020820190508181035f8301526131948161315b565b9050919050565b7f5461736b206e6f74206f70656e000000000000000000000000000000000000005f82015250565b5f6131cf600d8361258e565b91506131da8261319b565b602082019050919050565b5f6020820190508181035f8301526131fc816131c3565b9050919050565b7f416c72656164792061737369676e6564000000000000000000000000000000005f82015250565b5f61323760108361258e565b915061324282613203565b602082019050919050565b5f6020820190508181035f8301526132648161322b565b9050919050565b7f546f6b656e3200000000000000000000000000000000000000000000000000005f82015250565b5f61329f60068361258e565b91506132aa8261326b565b602082019050919050565b5f6060820190508181035f8301526132cc81613293565b90506132db60208301856125d6565b6132e860408301846125d6565b9392505050565b7f5265656e7472616e637947756172643a207265656e7472616e742063616c6c005f82015250565b5f613323601f8361258e565b915061332e826132ef565b602082019050919050565b5f6020820190508181035f83015261335081613317565b9050919050565b5f60408201905061336a5f8301856125d6565b6133776020830184612528565b9392505050565b5f6060820190506133915f8301866125d6565b61339e60208301856125d6565b6133ab6040830184612528565b94935050505056fea2646970667358221220035958fa0e20108dc1dd723f72f9c2dcaa990e2394ee7cfc74c648cfe5dda56164736f6c634300081f0033",
					"opcodes": "PUSH1 0x80 PUSH1 0x40 MSTORE CALLVALUE DUP1 ISZERO PUSH2 0xF JUMPI PUSH0 PUSH0 REVERT JUMPDEST POP PUSH1 0x40 MLOAD PUSH2 0x37F4 CODESIZE SUB DUP1 PUSH2 0x37F4 DUP4 CODECOPY DUP2 DUP2 ADD PUSH1 0x40 MSTORE DUP2 ADD SWAP1 PUSH2 0x31 SWAP2 SWAP1 PUSH2 0x30E JUMP JUMPDEST CALLER PUSH0 PUSH20 0xFFFFFFFFFFFFFFFFFFFFFFFFFFFFFFFFFFFFFFFF AND DUP2 PUSH20 0xFFFFFFFFFFFFFFFFFFFFFFFFFFFFFFFFFFFFFFFF AND SUB PUSH2 0xA2 JUMPI PUSH0 PUSH1 0x40 MLOAD PUSH32 0x1E4FBDF700000000000000000000000000000000000000000000000000000000 DUP2 MSTORE PUSH1 0x4 ADD PUSH2 0x99 SWAP2 SWAP1 PUSH2 0x36D JUMP JUMPDEST PUSH1 0x40 MLOAD DUP1 SWAP2 SUB SWAP1 REVERT JUMPDEST PUSH2 0xB1 DUP2 PUSH2 0x1EF PUSH1 0x20 SHL PUSH1 0x20 SHR JUMP JUMPDEST POP PUSH1 0x1 DUP1 DUP2 SWAP1 SSTORE POP PUSH0 PUSH20 0xFFFFFFFFFFFFFFFFFFFFFFFFFFFFFFFFFFFFFFFF AND DUP4 PUSH20 0xFFFFFFFFFFFFFFFFFFFFFFFFFFFFFFFFFFFFFFFF AND SUB PUSH2 0x127 JUMPI PUSH1 0x40 MLOAD PUSH32 0x8C379A000000000000000000000000000000000000000000000000000000000 DUP2 MSTORE PUSH1 0x4 ADD PUSH2 0x11E SWAP1 PUSH2 0x3E0 JUMP JUMPDEST PUSH1 0x40 MLOAD DUP1 SWAP2 SUB SWAP1 REVERT JUMPDEST DUP3 PUSH1 0x3 PUSH0 PUSH2 0x100 EXP DUP2 SLOAD DUP2 PUSH20 0xFFFFFFFFFFFFFFFFFFFFFFFFFFFFFFFFFFFFFFFF MUL NOT AND SWAP1 DUP4 PUSH20 0xFFFFFFFFFFFFFFFFFFFFFFFFFFFFFFFFFFFFFFFF AND MUL OR SWAP1 SSTORE POP DUP2 PUSH1 0x4 PUSH0 PUSH2 0x100 EXP DUP2 SLOAD DUP2 PUSH20 0xFFFFFFFFFFFFFFFFFFFFFFFFFFFFFFFFFFFFFFFF MUL NOT AND SWAP1 DUP4 PUSH20 0xFFFFFFFFFFFFFFFFFFFFFFFFFFFFFFFFFFFFFFFF AND MUL OR SWAP1 SSTORE POP DUP1 PUSH1 0x7 PUSH0 PUSH2 0x100 EXP DUP2 SLOAD DUP2 PUSH20 0xFFFFFFFFFFFFFFFFFFFFFFFFFFFFFFFFFFFFFFFF MUL NOT AND SWAP1 DUP4 PUSH20 0xFFFFFFFFFFFFFFFFFFFFFFFFFFFFFFFFFFFFFFFF AND MUL OR SWAP1 SSTORE POP POP POP POP PUSH2 0x3FE JUMP JUMPDEST PUSH0 PUSH0 PUSH0 SWAP1 SLOAD SWAP1 PUSH2 0x100 EXP SWAP1 DIV PUSH20 0xFFFFFFFFFFFFFFFFFFFFFFFFFFFFFFFFFFFFFFFF AND SWAP1 POP DUP2 PUSH0 PUSH0 PUSH2 0x100 EXP DUP2 SLOAD DUP2 PUSH20 0xFFFFFFFFFFFFFFFFFFFFFFFFFFFFFFFFFFFFFFFF MUL NOT AND SWAP1 DUP4 PUSH20 0xFFFFFFFFFFFFFFFFFFFFFFFFFFFFFFFFFFFFFFFF AND MUL OR SWAP1 SSTORE POP DUP2 PUSH20 0xFFFFFFFFFFFFFFFFFFFFFFFFFFFFFFFFFFFFFFFF AND DUP2 PUSH20 0xFFFFFFFFFFFFFFFFFFFFFFFFFFFFFFFFFFFFFFFF AND PUSH32 0x8BE0079C531659141344CD1FD0A4F28419497F9722A3DAAFE3B4186F6B6457E0 PUSH1 0x40 MLOAD PUSH1 0x40 MLOAD DUP1 SWAP2 SUB SWAP1 LOG3 POP POP JUMP JUMPDEST PUSH0 PUSH0 REVERT JUMPDEST PUSH0 PUSH20 0xFFFFFFFFFFFFFFFFFFFFFFFFFFFFFFFFFFFFFFFF DUP3 AND SWAP1 POP SWAP2 SWAP1 POP JUMP JUMPDEST PUSH0 PUSH2 0x2DD DUP3 PUSH2 0x2B4 JUMP JUMPDEST SWAP1 POP SWAP2 SWAP1 POP JUMP JUMPDEST PUSH2 0x2ED DUP2 PUSH2 0x2D3 JUMP JUMPDEST DUP2 EQ PUSH2 0x2F7 JUMPI PUSH0 PUSH0 REVERT JUMPDEST POP JUMP JUMPDEST PUSH0 DUP2 MLOAD SWAP1 POP PUSH2 0x308 DUP2 PUSH2 0x2E4 JUMP JUMPDEST SWAP3 SWAP2 POP POP JUMP JUMPDEST PUSH0 PUSH0 PUSH0 PUSH1 0x60 DUP5 DUP7 SUB SLT ISZERO PUSH2 0x325 JUMPI PUSH2 0x324 PUSH2 0x2B0 JUMP JUMPDEST JUMPDEST PUSH0 PUSH2 0x332 DUP7 DUP3 DUP8 ADD PUSH2 0x2FA JUMP JUMPDEST SWAP4 POP POP PUSH1 0x20 PUSH2 0x343 DUP7 DUP3 DUP8 ADD PUSH2 0x2FA JUMP JUMPDEST SWAP3 POP POP PUSH1 0x40 PUSH2 0x354 DUP7 DUP3 DUP8 ADD PUSH2 0x2FA JUMP JUMPDEST SWAP2 POP POP SWAP3 POP SWAP3 POP SWAP3 JUMP JUMPDEST PUSH2 0x367 DUP2 PUSH2 0x2D3 JUMP JUMPDEST DUP3 MSTORE POP POP JUMP JUMPDEST PUSH0 PUSH1 0x20 DUP3 ADD SWAP1 POP PUSH2 0x380 PUSH0 DUP4 ADD DUP5 PUSH2 0x35E JUMP JUMPDEST SWAP3 SWAP2 POP POP JUMP JUMPDEST PUSH0 DUP3 DUP3 MSTORE PUSH1 0x20 DUP3 ADD SWAP1 POP SWAP3 SWAP2 POP POP JUMP JUMPDEST PUSH32 0x546F6B656E312063616E6E6F74206265207A65726F0000000000000000000000 PUSH0 DUP3 ADD MSTORE POP JUMP JUMPDEST PUSH0 PUSH2 0x3CA PUSH1 0x15 DUP4 PUSH2 0x386 JUMP JUMPDEST SWAP2 POP PUSH2 0x3D5 DUP3 PUSH2 0x396 JUMP JUMPDEST PUSH1 0x20 DUP3 ADD SWAP1 POP SWAP2 SWAP1 POP JUMP JUMPDEST PUSH0 PUSH1 0x20 DUP3 ADD SWAP1 POP DUP2 DUP2 SUB PUSH0 DUP4 ADD MSTORE PUSH2 0x3F7 DUP2 PUSH2 0x3BE JUMP JUMPDEST SWAP1 POP SWAP2 SWAP1 POP JUMP JUMPDEST PUSH2 0x33E9 DUP1 PUSH2 0x40B PUSH0 CODECOPY PUSH0 RETURN INVALID PUSH1 0x80 PUSH1 0x40 MSTORE CALLVALUE DUP1 ISZERO PUSH2 0xF JUMPI PUSH0 PUSH0 REVERT JUMPDEST POP PUSH1 0x4 CALLDATASIZE LT PUSH2 0x114 JUMPI PUSH0 CALLDATALOAD PUSH1 0xE0 SHR DUP1 PUSH4 0x8D977672 GT PUSH2 0xA0 JUMPI DUP1 PUSH4 0xAD3B1B47 GT PUSH2 0x6F JUMPI DUP1 PUSH4 0xAD3B1B47 EQ PUSH2 0x2E3 JUMPI DUP1 PUSH4 0xAE1FC324 EQ PUSH2 0x2FF JUMPI DUP1 PUSH4 0xD21220A7 EQ PUSH2 0x31B JUMPI DUP1 PUSH4 0xEB13554F EQ PUSH2 0x339 JUMPI DUP1 PUSH4 0xF2FDE38B EQ PUSH2 0x357 JUMPI PUSH2 0x114 JUMP JUMPDEST DUP1 PUSH4 0x8D977672 EQ PUSH2 0x240 JUMPI DUP1 PUSH4 0x8DA5CB5B EQ PUSH2 0x279 JUMPI DUP1 PUSH4 0x95D57660 EQ PUSH2 0x297 JUMPI DUP1 PUSH4 0x9BEE5CE9 EQ PUSH2 0x2C7 JUMPI PUSH2 0x114 JUMP JUMPDEST DUP1 PUSH4 0x41A4E30A GT PUSH2 0xE7 JUMPI DUP1 PUSH4 0x41A4E30A EQ PUSH2 0x19E JUMPI DUP1 PUSH4 0x66873A55 EQ PUSH2 0x1CE JUMPI DUP1 PUSH4 0x6FF1C9BC EQ PUSH2 0x1FE JUMPI DUP1 PUSH4 0x715018A6 EQ PUSH2 0x21A JUMPI DUP1 PUSH4 0x7EEC20A8 EQ PUSH2 0x224 JUMPI PUSH2 0x114 JUMP JUMPDEST DUP1 PUSH4 0x64E6780 EQ PUSH2 0x118 JUMPI DUP1 PUSH4 0x1D65E77E EQ PUSH2 0x134 JUMPI DUP1 PUSH4 0x25BE124E EQ PUSH2 0x164 JUMPI DUP1 PUSH4 0x29E517F4 EQ PUSH2 0x182 JUMPI JUMPDEST PUSH0 PUSH0 REVERT JUMPDEST PUSH2 0x132 PUSH1 0x4 DUP1 CALLDATASIZE SUB DUP2 ADD SWAP1 PUSH2 0x12D SWAP2 SWAP1 PUSH2 0x2020 JUMP JUMPDEST PUSH2 0x373 JUMP JUMPDEST STOP JUMPDEST PUSH2 0x14E PUSH1 0x4 DUP1 CALLDATASIZE SUB DUP2 ADD SWAP1 PUSH2 0x149 SWAP2 SWAP1 PUSH2 0x207E JUMP JUMPDEST PUSH2 0x418 JUMP JUMPDEST PUSH1 0x40 MLOAD PUSH2 0x15B SWAP2 SWAP1 PUSH2 0x22A2 JUMP JUMPDEST PUSH1 0x40 MLOAD DUP1 SWAP2 SUB SWAP1 RETURN JUMPDEST PUSH2 0x16C PUSH2 0x736 JUMP JUMPDEST PUSH1 0x40 MLOAD PUSH2 0x179 SWAP2 SWAP1 PUSH2 0x231D JUMP JUMPDEST PUSH1 0x40 MLOAD DUP1 SWAP2 SUB SWAP1 RETURN JUMPDEST PUSH2 0x19C PUSH1 0x4 DUP1 CALLDATASIZE SUB DUP2 ADD SWAP1 PUSH2 0x197 SWAP2 SWAP1 PUSH2 0x2336 JUMP JUMPDEST PUSH2 0x75B JUMP JUMPDEST STOP JUMPDEST PUSH2 0x1B8 PUSH1 0x4 DUP1 CALLDATASIZE SUB DUP2 ADD SWAP1 PUSH2 0x1B3 SWAP2 SWAP1 PUSH2 0x24A0 JUMP JUMPDEST PUSH2 0xB75 JUMP JUMPDEST PUSH1 0x40 MLOAD PUSH2 0x1C5 SWAP2 SWAP1 PUSH2 0x2537 JUMP JUMPDEST PUSH1 0x40 MLOAD DUP1 SWAP2 SUB SWAP1 RETURN JUMPDEST PUSH2 0x1E8 PUSH1 0x4 DUP1 CALLDATASIZE SUB DUP2 ADD SWAP1 PUSH2 0x1E3 SWAP2 SWAP1 PUSH2 0x2550 JUMP JUMPDEST PUSH2 0xEA6 JUMP JUMPDEST PUSH1 0x40 MLOAD PUSH2 0x1F5 SWAP2 SWAP1 PUSH2 0x2537 JUMP JUMPDEST PUSH1 0x40 MLOAD DUP1 SWAP2 SUB SWAP1 RETURN JUMPDEST PUSH2 0x218 PUSH1 0x4 DUP1 CALLDATASIZE SUB DUP2 ADD SWAP1 PUSH2 0x213 SWAP2 SWAP1 PUSH2 0x2020 JUMP JUMPDEST PUSH2 0xED1 JUMP JUMPDEST STOP JUMPDEST PUSH2 0x222 PUSH2 0xF8A JUMP JUMPDEST STOP JUMPDEST PUSH2 0x23E PUSH1 0x4 DUP1 CALLDATASIZE SUB DUP2 ADD SWAP1 PUSH2 0x239 SWAP2 SWAP1 PUSH2 0x207E JUMP JUMPDEST PUSH2 0xF9D JUMP JUMPDEST STOP JUMPDEST PUSH2 0x25A PUSH1 0x4 DUP1 CALLDATASIZE SUB DUP2 ADD SWAP1 PUSH2 0x255 SWAP2 SWAP1 PUSH2 0x207E JUMP JUMPDEST PUSH2 0x1176 JUMP JUMPDEST PUSH1 0x40 MLOAD PUSH2 0x270 SWAP11 SWAP10 SWAP9 SWAP8 SWAP7 SWAP6 SWAP5 SWAP4 SWAP3 SWAP2 SWAP1 PUSH2 0x2603 JUMP JUMPDEST PUSH1 0x40 MLOAD DUP1 SWAP2 SUB SWAP1 RETURN JUMPDEST PUSH2 0x281 PUSH2 0x1348 JUMP JUMPDEST PUSH1 0x40 MLOAD PUSH2 0x28E SWAP2 SWAP1 PUSH2 0x26AB JUMP JUMPDEST PUSH1 0x40 MLOAD DUP1 SWAP2 SUB SWAP1 RETURN JUMPDEST PUSH2 0x2B1 PUSH1 0x4 DUP1 CALLDATASIZE SUB DUP2 ADD SWAP1 PUSH2 0x2AC SWAP2 SWAP1 PUSH2 0x2020 JUMP JUMPDEST PUSH2 0x136F JUMP JUMPDEST PUSH1 0x40 MLOAD PUSH2 0x2BE SWAP2 SWAP1 PUSH2 0x276C JUMP JUMPDEST PUSH1 0x40 MLOAD DUP1 SWAP2 SUB SWAP1 RETURN JUMPDEST PUSH2 0x2E1 PUSH1 0x4 DUP1 CALLDATASIZE SUB DUP2 ADD SWAP1 PUSH2 0x2DC SWAP2 SWAP1 PUSH2 0x278C JUMP JUMPDEST PUSH2 0x1402 JUMP JUMPDEST STOP JUMPDEST PUSH2 0x2FD PUSH1 0x4 DUP1 CALLDATASIZE SUB DUP2 ADD SWAP1 PUSH2 0x2F8 SWAP2 SWAP1 PUSH2 0x2550 JUMP JUMPDEST PUSH2 0x1A00 JUMP JUMPDEST STOP JUMPDEST PUSH2 0x319 PUSH1 0x4 DUP1 CALLDATASIZE SUB DUP2 ADD SWAP1 PUSH2 0x314 SWAP2 SWAP1 PUSH2 0x2020 JUMP JUMPDEST PUSH2 0x1A3E JUMP JUMPDEST STOP JUMPDEST PUSH2 0x323 PUSH2 0x1AE3 JUMP JUMPDEST PUSH1 0x40 MLOAD PUSH2 0x330 SWAP2 SWAP1 PUSH2 0x231D JUMP JUMPDEST PUSH1 0x40 MLOAD DUP1 SWAP2 SUB SWAP1 RETURN JUMPDEST PUSH2 0x341 PUSH2 0x1B08 JUMP JUMPDEST PUSH1 0x40 MLOAD PUSH2 0x34E SWAP2 SWAP1 PUSH2 0x26AB JUMP JUMPDEST PUSH1 0x40 MLOAD DUP1 SWAP2 SUB SWAP1 RETURN JUMPDEST PUSH2 0x371 PUSH1 0x4 DUP1 CALLDATASIZE SUB DUP2 ADD SWAP1 PUSH2 0x36C SWAP2 SWAP1 PUSH2 0x2020 JUMP JUMPDEST PUSH2 0x1B2D JUMP JUMPDEST STOP JUMPDEST PUSH2 0x37B PUSH2 0x1BB1 JUMP JUMPDEST PUSH32 0xE1DFA83513A4B65C296BC64D8A68945CB723D798739225012D7167DBB2D6E3FC PUSH1 0x3 PUSH0 SWAP1 SLOAD SWAP1 PUSH2 0x100 EXP SWAP1 DIV PUSH20 0xFFFFFFFFFFFFFFFFFFFFFFFFFFFFFFFFFFFFFFFF AND DUP3 PUSH1 0x40 MLOAD PUSH2 0x3CD SWAP3 SWAP2 SWAP1 PUSH2 0x283A JUMP JUMPDEST PUSH1 0x40 MLOAD DUP1 SWAP2 SUB SWAP1 LOG1 DUP1 PUSH1 0x3 PUSH0 PUSH2 0x100 EXP DUP2 SLOAD DUP2 PUSH20 0xFFFFFFFFFFFFFFFFFFFFFFFFFFFFFFFFFFFFFFFF MUL NOT AND SWAP1 DUP4 PUSH20 0xFFFFFFFFFFFFFFFFFFFFFFFFFFFFFFFFFFFFFFFF AND MUL OR SWAP1 SSTORE POP POP JUMP JUMPDEST PUSH2 0x420 PUSH2 0x1F14 JUMP JUMPDEST PUSH1 0x5 PUSH0 DUP4 DUP2 MSTORE PUSH1 0x20 ADD SWAP1 DUP2 MSTORE PUSH1 0x20 ADD PUSH0 KECCAK256 PUSH1 0x8 ADD PUSH1 0x1 SWAP1 SLOAD SWAP1 PUSH2 0x100 EXP SWAP1 DIV PUSH1 0xFF AND PUSH2 0x481 JUMPI PUSH1 0x40 MLOAD PUSH32 0x8C379A000000000000000000000000000000000000000000000000000000000 DUP2 MSTORE PUSH1 0x4 ADD PUSH2 0x478 SWAP1 PUSH2 0x28BE JUMP JUMPDEST PUSH1 0x40 MLOAD DUP1 SWAP2 SUB SWAP1 REVERT JUMPDEST PUSH1 0x5 PUSH0 DUP4 DUP2 MSTORE PUSH1 0x20 ADD SWAP1 DUP2 MSTORE PUSH1 0x20 ADD PUSH0 KECCAK256 PUSH1 0x40 MLOAD DUP1 PUSH2 0x140 ADD PUSH1 0x40 MSTORE SWAP1 DUP2 PUSH0 DUP3 ADD SLOAD DUP2 MSTORE PUSH1 0x20 ADD PUSH1 0x1 DUP3 ADD DUP1 SLOAD PUSH2 0x4B7 SWAP1 PUSH2 0x2909 JUMP JUMPDEST DUP1 PUSH1 0x1F ADD PUSH1 0x20 DUP1 SWAP2 DIV MUL PUSH1 0x20 ADD PUSH1 0x40 MLOAD SWAP1 DUP2 ADD PUSH1 0x40 MSTORE DUP1 SWAP3 SWAP2 SWAP1 DUP2 DUP2 MSTORE PUSH1 0x20 ADD DUP3 DUP1 SLOAD PUSH2 0x4E3 SWAP1 PUSH2 0x2909 JUMP JUMPDEST DUP1 ISZERO PUSH2 0x52E JUMPI DUP1 PUSH1 0x1F LT PUSH2 0x505 JUMPI PUSH2 0x100 DUP1 DUP4 SLOAD DIV MUL DUP4 MSTORE SWAP2 PUSH1 0x20 ADD SWAP2 PUSH2 0x52E JUMP JUMPDEST DUP3 ADD SWAP2 SWAP1 PUSH0 MSTORE PUSH1 0x20 PUSH0 KECCAK256 SWAP1 JUMPDEST DUP2 SLOAD DUP2 MSTORE SWAP1 PUSH1 0x1 ADD SWAP1 PUSH1 0x20 ADD DUP1 DUP4 GT PUSH2 0x511 JUMPI DUP3 SWAP1 SUB PUSH1 0x1F AND DUP3 ADD SWAP2 JUMPDEST POP POP POP POP POP DUP2 MSTORE PUSH1 0x20 ADD PUSH1 0x2 DUP3 ADD DUP1 SLOAD PUSH2 0x547 SWAP1 PUSH2 0x2909 JUMP JUMPDEST DUP1 PUSH1 0x1F ADD PUSH1 0x20 DUP1 SWAP2 DIV MUL PUSH1 0x20 ADD PUSH1 0x40 MLOAD SWAP1 DUP2 ADD PUSH1 0x40 MSTORE DUP1 SWAP3 SWAP2 SWAP1 DUP2 DUP2 MSTORE PUSH1 0x20 ADD DUP3 DUP1 SLOAD PUSH2 0x573 SWAP1 PUSH2 0x2909 JUMP JUMPDEST DUP1 ISZERO PUSH2 0x5BE JUMPI DUP1 PUSH1 0x1F LT PUSH2 0x595 JUMPI PUSH2 0x100 DUP1 DUP4 SLOAD DIV MUL DUP4 MSTORE SWAP2 PUSH1 0x20 ADD SWAP2 PUSH2 0x5BE JUMP JUMPDEST DUP3 ADD SWAP2 SWAP1 PUSH0 MSTORE PUSH1 0x20 PUSH0 KECCAK256 SWAP1 JUMPDEST DUP2 SLOAD DUP2 MSTORE SWAP1 PUSH1 0x1 ADD SWAP1 PUSH1 0x20 ADD DUP1 DUP4 GT PUSH2 0x5A1 JUMPI DUP3 SWAP1 SUB PUSH1 0x1F AND DUP3 ADD SWAP2 JUMPDEST POP POP POP POP POP DUP2 MSTORE PUSH1 0x20 ADD PUSH1 0x3 DUP3 ADD PUSH0 SWAP1 SLOAD SWAP1 PUSH2 0x100 EXP SWAP1 DIV PUSH20 0xFFFFFFFFFFFFFFFFFFFFFFFFFFFFFFFFFFFFFFFF AND PUSH20 0xFFFFFFFFFFFFFFFFFFFFFFFFFFFFFFFFFFFFFFFF AND PUSH20 0xFFFFFFFFFFFFFFFFFFFFFFFFFFFFFFFFFFFFFFFF AND DUP2 MSTORE PUSH1 0x20 ADD PUSH1 0x4 DUP3 ADD PUSH0 SWAP1 SLOAD SWAP1 PUSH2 0x100 EXP SWAP1 DIV PUSH20 0xFFFFFFFFFFFFFFFFFFFFFFFFFFFFFFFFFFFFFFFF AND PUSH20 0xFFFFFFFFFFFFFFFFFFFFFFFFFFFFFFFFFFFFFFFF AND PUSH20 0xFFFFFFFFFFFFFFFFFFFFFFFFFFFFFFFFFFFFFFFF AND DUP2 MSTORE PUSH1 0x20 ADD PUSH1 0x5 DUP3 ADD SLOAD DUP2 MSTORE PUSH1 0x20 ADD PUSH1 0x6 DUP3 ADD PUSH0 SWAP1 SLOAD SWAP1 PUSH2 0x100 EXP SWAP1 DIV PUSH20 0xFFFFFFFFFFFFFFFFFFFFFFFFFFFFFFFFFFFFFFFF AND PUSH20 0xFFFFFFFFFFFFFFFFFFFFFFFFFFFFFFFFFFFFFFFF AND PUSH20 0xFFFFFFFFFFFFFFFFFFFFFFFFFFFFFFFFFFFFFFFF AND DUP2 MSTORE PUSH1 0x20 ADD PUSH1 0x7 DUP3 ADD SLOAD DUP2 MSTORE PUSH1 0x20 ADD PUSH1 0x8 DUP3 ADD PUSH0 SWAP1 SLOAD SWAP1 PUSH2 0x100 EXP SWAP1 DIV PUSH1 0xFF AND PUSH1 0x3 DUP2 GT ISZERO PUSH2 0x6FE JUMPI PUSH2 0x6FD PUSH2 0x2137 JUMP JUMPDEST JUMPDEST PUSH1 0x3 DUP2 GT ISZERO PUSH2 0x710 JUMPI PUSH2 0x70F PUSH2 0x2137 JUMP JUMPDEST JUMPDEST DUP2 MSTORE PUSH1 0x20 ADD PUSH1 0x8 DUP3 ADD PUSH1 0x1 SWAP1 SLOAD SWAP1 PUSH2 0x100 EXP SWAP1 DIV PUSH1 0xFF AND ISZERO ISZERO ISZERO ISZERO DUP2 MSTORE POP POP SWAP1 POP SWAP2 SWAP1 POP JUMP JUMPDEST PUSH1 0x4 PUSH0 SWAP1 SLOAD SWAP1 PUSH2 0x100 EXP SWAP1 DIV PUSH20 0xFFFFFFFFFFFFFFFFFFFFFFFFFFFFFFFFFFFFFFFF AND DUP2 JUMP JUMPDEST PUSH2 0x763 PUSH2 0x1C38 JUMP JUMPDEST PUSH0 PUSH1 0x5 PUSH0 DUP5 DUP2 MSTORE PUSH1 0x20 ADD SWAP1 DUP2 MSTORE PUSH1 0x20 ADD PUSH0 KECCAK256 SWAP1 POP DUP1 PUSH1 0x8 ADD PUSH1 0x1 SWAP1 SLOAD SWAP1 PUSH2 0x100 EXP SWAP1 DIV PUSH1 0xFF AND PUSH2 0x7C8 JUMPI PUSH1 0x40 MLOAD PUSH32 0x8C379A000000000000000000000000000000000000000000000000000000000 DUP2 MSTORE PUSH1 0x4 ADD PUSH2 0x7BF SWAP1 PUSH2 0x28BE JUMP JUMPDEST PUSH1 0x40 MLOAD DUP1 SWAP2 SUB SWAP1 REVERT JUMPDEST PUSH1 0x1 PUSH1 0x3 DUP2 GT ISZERO PUSH2 0x7DC JUMPI PUSH2 0x7DB PUSH2 0x2137 JUMP JUMPDEST JUMPDEST DUP2 PUSH1 0x8 ADD PUSH0 SWAP1 SLOAD SWAP1 PUSH2 0x100 EXP SWAP1 DIV PUSH1 0xFF AND PUSH1 0x3 DUP2 GT ISZERO PUSH2 0x7FF JUMPI PUSH2 0x7FE PUSH2 0x2137 JUMP JUMPDEST JUMPDEST EQ PUSH2 0x83F JUMPI PUSH1 0x40 MLOAD PUSH32 0x8C379A000000000000000000000000000000000000000000000000000000000 DUP2 MSTORE PUSH1 0x4 ADD PUSH2 0x836 SWAP1 PUSH2 0x2983 JUMP JUMPDEST PUSH1 0x40 MLOAD DUP1 SWAP2 SUB SWAP1 REVERT JUMPDEST CALLER PUSH20 0xFFFFFFFFFFFFFFFFFFFFFFFFFFFFFFFFFFFFFFFF AND DUP2 PUSH1 0x3 ADD PUSH0 SWAP1 SLOAD SWAP1 PUSH2 0x100 EXP SWAP1 DIV PUSH20 0xFFFFFFFFFFFFFFFFFFFFFFFFFFFFFFFFFFFFFFFF AND PUSH20 0xFFFFFFFFFFFFFFFFFFFFFFFFFFFFFFFFFFFFFFFF AND EQ PUSH2 0x8D0 JUMPI PUSH1 0x40 MLOAD PUSH32 0x8C379A000000000000000000000000000000000000000000000000000000000 DUP2 MSTORE PUSH1 0x4 ADD PUSH2 0x8C7 SWAP1 PUSH2 0x29EB JUMP JUMPDEST PUSH1 0x40 MLOAD DUP1 SWAP2 SUB SWAP1 REVERT JUMPDEST DUP2 PUSH20 0xFFFFFFFFFFFFFFFFFFFFFFFFFFFFFFFFFFFFFFFF AND DUP2 PUSH1 0x4 ADD PUSH0 SWAP1 SLOAD SWAP1 PUSH2 0x100 EXP SWAP1 DIV PUSH20 0xFFFFFFFFFFFFFFFFFFFFFFFFFFFFFFFFFFFFFFFF AND PUSH20 0xFFFFFFFFFFFFFFFFFFFFFFFFFFFFFFFFFFFFFFFF AND EQ PUSH2 0x961 JUMPI PUSH1 0x40 MLOAD PUSH32 0x8C379A000000000000000000000000000000000000000000000000000000000 DUP2 MSTORE PUSH1 0x4 ADD PUSH2 0x958 SWAP1 PUSH2 0x2A53 JUMP JUMPDEST PUSH1 0x40 MLOAD DUP1 SWAP2 SUB SWAP1 REVERT JUMPDEST PUSH0 DUP2 PUSH1 0x5 ADD SLOAD SWAP1 POP PUSH0 DUP3 PUSH1 0x6 ADD PUSH0 SWAP1 SLOAD SWAP1 PUSH2 0x100 EXP SWAP1 DIV PUSH20 0xFFFFFFFFFFFFFFFFFFFFFFFFFFFFFFFFFFFFFFFF AND SWAP1 POP PUSH0 DUP3 GT PUSH2 0x9D2 JUMPI PUSH1 0x40 MLOAD PUSH32 0x8C379A000000000000000000000000000000000000000000000000000000000 DUP2 MSTORE PUSH1 0x4 ADD PUSH2 0x9C9 SWAP1 PUSH2 0x2ABB JUMP JUMPDEST PUSH1 0x40 MLOAD DUP1 SWAP2 SUB SWAP1 REVERT JUMPDEST PUSH0 PUSH20 0xFFFFFFFFFFFFFFFFFFFFFFFFFFFFFFFFFFFFFFFF AND DUP2 PUSH20 0xFFFFFFFFFFFFFFFFFFFFFFFFFFFFFFFFFFFFFFFF AND SUB PUSH2 0xA40 JUMPI PUSH1 0x40 MLOAD PUSH32 0x8C379A000000000000000000000000000000000000000000000000000000000 DUP2 MSTORE PUSH1 0x4 ADD PUSH2 0xA37 SWAP1 PUSH2 0x2B23 JUMP JUMPDEST PUSH1 0x40 MLOAD DUP1 SWAP2 SUB SWAP1 REVERT JUMPDEST PUSH0 PUSH1 0x64 PUSH1 0xA DUP5 PUSH2 0xA50 SWAP2 SWAP1 PUSH2 0x2B6E JUMP JUMPDEST PUSH2 0xA5A SWAP2 SWAP1 PUSH2 0x2BDC JUMP JUMPDEST SWAP1 POP PUSH0 DUP2 DUP5 PUSH2 0xA69 SWAP2 SWAP1 PUSH2 0x2C0C JUMP JUMPDEST SWAP1 POP PUSH1 0x2 DUP6 PUSH1 0x8 ADD PUSH0 PUSH2 0x100 EXP DUP2 SLOAD DUP2 PUSH1 0xFF MUL NOT AND SWAP1 DUP4 PUSH1 0x3 DUP2 GT ISZERO PUSH2 0xA92 JUMPI PUSH2 0xA91 PUSH2 0x2137 JUMP JUMPDEST JUMPDEST MUL OR SWAP1 SSTORE POP PUSH0 DUP4 SWAP1 POP PUSH2 0xAC6 DUP8 DUP4 DUP4 PUSH20 0xFFFFFFFFFFFFFFFFFFFFFFFFFFFFFFFFFFFFFFFF AND PUSH2 0x1C87 SWAP1 SWAP3 SWAP2 SWAP1 PUSH4 0xFFFFFFFF AND JUMP JUMPDEST PUSH2 0xB12 PUSH1 0x7 PUSH0 SWAP1 SLOAD SWAP1 PUSH2 0x100 EXP SWAP1 DIV PUSH20 0xFFFFFFFFFFFFFFFFFFFFFFFFFFFFFFFFFFFFFFFF AND DUP5 DUP4 PUSH20 0xFFFFFFFFFFFFFFFFFFFFFFFFFFFFFFFFFFFFFFFF AND PUSH2 0x1C87 SWAP1 SWAP3 SWAP2 SWAP1 PUSH4 0xFFFFFFFF AND JUMP JUMPDEST DUP7 PUSH20 0xFFFFFFFFFFFFFFFFFFFFFFFFFFFFFFFFFFFFFFFF AND DUP9 PUSH32 0xC6D0427713479611F0DFCE819339656FF5371AC9B48A9F8A8A36E5A984A4DDD6 DUP5 DUP8 PUSH1 0x40 MLOAD PUSH2 0xB5B SWAP3 SWAP2 SWAP1 PUSH2 0x2C3F JUMP JUMPDEST PUSH1 0x40 MLOAD DUP1 SWAP2 SUB SWAP1 LOG3 POP POP POP POP POP POP PUSH2 0xB71 PUSH2 0x1D06 JUMP JUMPDEST POP POP JUMP JUMPDEST PUSH0 TIMESTAMP DUP3 GT PUSH2 0xBB8 JUMPI PUSH1 0x40 MLOAD PUSH32 0x8C379A000000000000000000000000000000000000000000000000000000000 DUP2 MSTORE PUSH1 0x4 ADD PUSH2 0xBAF SWAP1 PUSH2 0x2CB0 JUMP JUMPDEST PUSH1 0x40 MLOAD DUP1 SWAP2 SUB SWAP1 REVERT JUMPDEST PUSH2 0xBC2 PUSH1 0x2 PUSH2 0x1D0F JUMP JUMPDEST PUSH0 PUSH2 0xBCD PUSH1 0x2 PUSH2 0x1D23 JUMP JUMPDEST SWAP1 POP PUSH1 0x40 MLOAD DUP1 PUSH2 0x140 ADD PUSH1 0x40 MSTORE DUP1 DUP3 DUP2 MSTORE PUSH1 0x20 ADD DUP7 DUP2 MSTORE PUSH1 0x20 ADD DUP6 DUP2 MSTORE PUSH1 0x20 ADD CALLER PUSH20 0xFFFFFFFFFFFFFFFFFFFFFFFFFFFFFFFFFFFFFFFF AND DUP2 MSTORE PUSH1 0x20 ADD PUSH0 PUSH20 0xFFFFFFFFFFFFFFFFFFFFFFFFFFFFFFFFFFFFFFFF AND DUP2 MSTORE PUSH1 0x20 ADD PUSH0 DUP2 MSTORE PUSH1 0x20 ADD PUSH0 PUSH20 0xFFFFFFFFFFFFFFFFFFFFFFFFFFFFFFFFFFFFFFFF AND DUP2 MSTORE PUSH1 0x20 ADD DUP5 DUP2 MSTORE PUSH1 0x20 ADD PUSH0 PUSH1 0x3 DUP2 GT ISZERO PUSH2 0xC60 JUMPI PUSH2 0xC5F PUSH2 0x2137 JUMP JUMPDEST JUMPDEST DUP2 MSTORE PUSH1 0x20 ADD PUSH1 0x1 ISZERO ISZERO DUP2 MSTORE POP PUSH1 0x5 PUSH0 DUP4 DUP2 MSTORE PUSH1 0x20 ADD SWAP1 DUP2 MSTORE PUSH1 0x20 ADD PUSH0 KECCAK256 PUSH0 DUP3 ADD MLOAD DUP2 PUSH0 ADD SSTORE PUSH1 0x20 DUP3 ADD MLOAD DUP2 PUSH1 0x1 ADD SWAP1 DUP2 PUSH2 0xC9A SWAP2 SWAP1 PUSH2 0x2E65 JUMP JUMPDEST POP PUSH1 0x40 DUP3 ADD MLOAD DUP2 PUSH1 0x2 ADD SWAP1 DUP2 PUSH2 0xCB0 SWAP2 SWAP1 PUSH2 0x2E65 JUMP JUMPDEST POP PUSH1 0x60 DUP3 ADD MLOAD DUP2 PUSH1 0x3 ADD PUSH0 PUSH2 0x100 EXP DUP2 SLOAD DUP2 PUSH20 0xFFFFFFFFFFFFFFFFFFFFFFFFFFFFFFFFFFFFFFFF MUL NOT AND SWAP1 DUP4 PUSH20 0xFFFFFFFFFFFFFFFFFFFFFFFFFFFFFFFFFFFFFFFF AND MUL OR SWAP1 SSTORE POP PUSH1 0x80 DUP3 ADD MLOAD DUP2 PUSH1 0x4 ADD PUSH0 PUSH2 0x100 EXP DUP2 SLOAD DUP2 PUSH20 0xFFFFFFFFFFFFFFFFFFFFFFFFFFFFFFFFFFFFFFFF MUL NOT AND SWAP1 DUP4 PUSH20 0xFFFFFFFFFFFFFFFFFFFFFFFFFFFFFFFFFFFFFFFF AND MUL OR SWAP1 SSTORE POP PUSH1 0xA0 DUP3 ADD MLOAD DUP2 PUSH1 0x5 ADD SSTORE PUSH1 0xC0 DUP3 ADD MLOAD DUP2 PUSH1 0x6 ADD PUSH0 PUSH2 0x100 EXP DUP2 SLOAD DUP2 PUSH20 0xFFFFFFFFFFFFFFFFFFFFFFFFFFFFFFFFFFFFFFFF MUL NOT AND SWAP1 DUP4 PUSH20 0xFFFFFFFFFFFFFFFFFFFFFFFFFFFFFFFFFFFFFFFF AND MUL OR SWAP1 SSTORE POP PUSH1 0xE0 DUP3 ADD MLOAD DUP2 PUSH1 0x7 ADD SSTORE PUSH2 0x100 DUP3 ADD MLOAD DUP2 PUSH1 0x8 ADD PUSH0 PUSH2 0x100 EXP DUP2 SLOAD DUP2 PUSH1 0xFF MUL NOT AND SWAP1 DUP4 PUSH1 0x3 DUP2 GT ISZERO PUSH2 0xDC2 JUMPI PUSH2 0xDC1 PUSH2 0x2137 JUMP JUMPDEST JUMPDEST MUL OR SWAP1 SSTORE POP PUSH2 0x120 DUP3 ADD MLOAD DUP2 PUSH1 0x8 ADD PUSH1 0x1 PUSH2 0x100 EXP DUP2 SLOAD DUP2 PUSH1 0xFF MUL NOT AND SWAP1 DUP4 ISZERO ISZERO MUL OR SWAP1 SSTORE POP SWAP1 POP POP PUSH1 0x6 PUSH0 CALLER PUSH20 0xFFFFFFFFFFFFFFFFFFFFFFFFFFFFFFFFFFFFFFFF AND PUSH20 0xFFFFFFFFFFFFFFFFFFFFFFFFFFFFFFFFFFFFFFFF AND DUP2 MSTORE PUSH1 0x20 ADD SWAP1 DUP2 MSTORE PUSH1 0x20 ADD PUSH0 KECCAK256 DUP2 SWAP1 DUP1 PUSH1 0x1 DUP2 SLOAD ADD DUP1 DUP3 SSTORE DUP1 SWAP2 POP POP PUSH1 0x1 SWAP1 SUB SWAP1 PUSH0 MSTORE PUSH1 0x20 PUSH0 KECCAK256 ADD PUSH0 SWAP1 SWAP2 SWAP1 SWAP2 SWAP1 SWAP2 POP SSTORE CALLER PUSH20 0xFFFFFFFFFFFFFFFFFFFFFFFFFFFFFFFFFFFFFFFF AND DUP2 PUSH32 0xDC691E972CB25FD6E968744B5A6416D42A052AC1305E3B7ED6777B621304B7F2 DUP8 PUSH1 0x40 MLOAD PUSH2 0xE93 SWAP2 SWAP1 PUSH2 0x2F34 JUMP JUMPDEST PUSH1 0x40 MLOAD DUP1 SWAP2 SUB SWAP1 LOG3 DUP1 SWAP2 POP POP SWAP4 SWAP3 POP POP POP JUMP JUMPDEST PUSH1 0x6 PUSH1 0x20 MSTORE DUP2 PUSH0 MSTORE PUSH1 0x40 PUSH0 KECCAK256 DUP2 DUP2 SLOAD DUP2 LT PUSH2 0xEBF JUMPI PUSH0 DUP1 REVERT JUMPDEST SWAP1 PUSH0 MSTORE PUSH1 0x20 PUSH0 KECCAK256 ADD PUSH0 SWAP2 POP SWAP2 POP POP SLOAD DUP2 JUMP JUMPDEST PUSH2 0xED9 PUSH2 0x1BB1 JUMP JUMPDEST PUSH0 DUP2 PUSH20 0xFFFFFFFFFFFFFFFFFFFFFFFFFFFFFFFFFFFFFFFF AND PUSH4 0x70A08231 ADDRESS PUSH1 0x40 MLOAD DUP3 PUSH4 0xFFFFFFFF AND PUSH1 0xE0 SHL DUP2 MSTORE PUSH1 0x4 ADD PUSH2 0xF13 SWAP2 SWAP1 PUSH2 0x26AB JUMP JUMPDEST PUSH1 0x20 PUSH1 0x40 MLOAD DUP1 DUP4 SUB DUP2 DUP7 GAS STATICCALL ISZERO DUP1 ISZERO PUSH2 0xF2E JUMPI RETURNDATASIZE PUSH0 PUSH0 RETURNDATACOPY RETURNDATASIZE PUSH0 REVERT JUMPDEST POP POP POP POP PUSH1 0x40 MLOAD RETURNDATASIZE PUSH1 0x1F NOT PUSH1 0x1F DUP3 ADD AND DUP3 ADD DUP1 PUSH1 0x40 MSTORE POP DUP2 ADD SWAP1 PUSH2 0xF52 SWAP2 SWAP1 PUSH2 0x2F68 JUMP JUMPDEST SWAP1 POP PUSH2 0xF86 PUSH2 0xF5F PUSH2 0x1348 JUMP JUMPDEST DUP3 DUP5 PUSH20 0xFFFFFFFFFFFFFFFFFFFFFFFFFFFFFFFFFFFFFFFF AND PUSH2 0x1C87 SWAP1 SWAP3 SWAP2 SWAP1 PUSH4 0xFFFFFFFF AND JUMP JUMPDEST POP POP JUMP JUMPDEST PUSH2 0xF92 PUSH2 0x1BB1 JUMP JUMPDEST PUSH2 0xF9B PUSH0 PUSH2 0x1D2F JUMP JUMPDEST JUMP JUMPDEST PUSH2 0xFA5 PUSH2 0x1C38 JUMP JUMPDEST PUSH0 PUSH1 0x5 PUSH0 DUP4 DUP2 MSTORE PUSH1 0x20 ADD SWAP1 DUP2 MSTORE PUSH1 0x20 ADD PUSH0 KECCAK256 SWAP1 POP DUP1 PUSH1 0x8 ADD PUSH1 0x1 SWAP1 SLOAD SWAP1 PUSH2 0x100 EXP SWAP1 DIV PUSH1 0xFF AND PUSH2 0x100A JUMPI PUSH1 0x40 MLOAD PUSH32 0x8C379A000000000000000000000000000000000000000000000000000000000 DUP2 MSTORE PUSH1 0x4 ADD PUSH2 0x1001 SWAP1 PUSH2 0x28BE JUMP JUMPDEST PUSH1 0x40 MLOAD DUP1 SWAP2 SUB SWAP1 REVERT JUMPDEST CALLER PUSH20 0xFFFFFFFFFFFFFFFFFFFFFFFFFFFFFFFFFFFFFFFF AND DUP2 PUSH1 0x3 ADD PUSH0 SWAP1 SLOAD SWAP1 PUSH2 0x100 EXP SWAP1 DIV PUSH20 0xFFFFFFFFFFFFFFFFFFFFFFFFFFFFFFFFFFFFFFFF AND PUSH20 0xFFFFFFFFFFFFFFFFFFFFFFFFFFFFFFFFFFFFFFFF AND EQ PUSH2 0x109B JUMPI PUSH1 0x40 MLOAD PUSH32 0x8C379A000000000000000000000000000000000000000000000000000000000 DUP2 MSTORE PUSH1 0x4 ADD PUSH2 0x1092 SWAP1 PUSH2 0x2FDD JUMP JUMPDEST PUSH1 0x40 MLOAD DUP1 SWAP2 SUB SWAP1 REVERT JUMPDEST PUSH0 PUSH1 0x3 DUP2 GT ISZERO PUSH2 0x10AE JUMPI PUSH2 0x10AD PUSH2 0x2137 JUMP JUMPDEST JUMPDEST DUP2 PUSH1 0x8 ADD PUSH0 SWAP1 SLOAD SWAP1 PUSH2 0x100 EXP SWAP1 DIV PUSH1 0xFF AND PUSH1 0x3 DUP2 GT ISZERO PUSH2 0x10D1 JUMPI PUSH2 0x10D0 PUSH2 0x2137 JUMP JUMPDEST JUMPDEST EQ PUSH2 0x1111 JUMPI PUSH1 0x40 MLOAD PUSH32 0x8C379A000000000000000000000000000000000000000000000000000000000 DUP2 MSTORE PUSH1 0x4 ADD PUSH2 0x1108 SWAP1 PUSH2 0x3045 JUMP JUMPDEST PUSH1 0x40 MLOAD DUP1 SWAP2 SUB SWAP1 REVERT JUMPDEST PUSH1 0x3 DUP2 PUSH1 0x8 ADD PUSH0 PUSH2 0x100 EXP DUP2 SLOAD DUP2 PUSH1 0xFF MUL NOT AND SWAP1 DUP4 PUSH1 0x3 DUP2 GT ISZERO PUSH2 0x1138 JUMPI PUSH2 0x1137 PUSH2 0x2137 JUMP JUMPDEST JUMPDEST MUL OR SWAP1 SSTORE POP DUP2 PUSH32 0xC6EACC3AA5B2AA77B5A826B832A804CA0B71830EC74F9AA57A15EDD978C31ED6 PUSH1 0x40 MLOAD PUSH1 0x40 MLOAD DUP1 SWAP2 SUB SWAP1 LOG2 POP PUSH2 0x1173 PUSH2 0x1D06 JUMP JUMPDEST POP JUMP JUMPDEST PUSH1 0x5 PUSH1 0x20 MSTORE DUP1 PUSH0 MSTORE PUSH1 0x40 PUSH0 KECCAK256 PUSH0 SWAP2 POP SWAP1 POP DUP1 PUSH0 ADD SLOAD SWAP1 DUP1 PUSH1 0x1 ADD DUP1 SLOAD PUSH2 0x119B SWAP1 PUSH2 0x2909 JUMP JUMPDEST DUP1 PUSH1 0x1F ADD PUSH1 0x20 DUP1 SWAP2 DIV MUL PUSH1 0x20 ADD PUSH1 0x40 MLOAD SWAP1 DUP2 ADD PUSH1 0x40 MSTORE DUP1 SWAP3 SWAP2 SWAP1 DUP2 DUP2 MSTORE PUSH1 0x20 ADD DUP3 DUP1 SLOAD PUSH2 0x11C7 SWAP1 PUSH2 0x2909 JUMP JUMPDEST DUP1 ISZERO PUSH2 0x1212 JUMPI DUP1 PUSH1 0x1F LT PUSH2 0x11E9 JUMPI PUSH2 0x100 DUP1 DUP4 SLOAD DIV MUL DUP4 MSTORE SWAP2 PUSH1 0x20 ADD SWAP2 PUSH2 0x1212 JUMP JUMPDEST DUP3 ADD SWAP2 SWAP1 PUSH0 MSTORE PUSH1 0x20 PUSH0 KECCAK256 SWAP1 JUMPDEST DUP2 SLOAD DUP2 MSTORE SWAP1 PUSH1 0x1 ADD SWAP1 PUSH1 0x20 ADD DUP1 DUP4 GT PUSH2 0x11F5 JUMPI DUP3 SWAP1 SUB PUSH1 0x1F AND DUP3 ADD SWAP2 JUMPDEST POP POP POP POP POP SWAP1 DUP1 PUSH1 0x2 ADD DUP1 SLOAD PUSH2 0x1227 SWAP1 PUSH2 0x2909 JUMP JUMPDEST DUP1 PUSH1 0x1F ADD PUSH1 0x20 DUP1 SWAP2 DIV MUL PUSH1 0x20 ADD PUSH1 0x40 MLOAD SWAP1 DUP2 ADD PUSH1 0x40 MSTORE DUP1 SWAP3 SWAP2 SWAP1 DUP2 DUP2 MSTORE PUSH1 0x20 ADD DUP3 DUP1 SLOAD PUSH2 0x1253 SWAP1 PUSH2 0x2909 JUMP JUMPDEST DUP1 ISZERO PUSH2 0x129E JUMPI DUP1 PUSH1 0x1F LT PUSH2 0x1275 JUMPI PUSH2 0x100 DUP1 DUP4 SLOAD DIV MUL DUP4 MSTORE SWAP2 PUSH1 0x20 ADD SWAP2 PUSH2 0x129E JUMP JUMPDEST DUP3 ADD SWAP2 SWAP1 PUSH0 MSTORE PUSH1 0x20 PUSH0 KECCAK256 SWAP1 JUMPDEST DUP2 SLOAD DUP2 MSTORE SWAP1 PUSH1 0x1 ADD SWAP1 PUSH1 0x20 ADD DUP1 DUP4 GT PUSH2 0x1281 JUMPI DUP3 SWAP1 SUB PUSH1 0x1F AND DUP3 ADD SWAP2 JUMPDEST POP POP POP POP POP SWAP1 DUP1 PUSH1 0x3 ADD PUSH0 SWAP1 SLOAD SWAP1 PUSH2 0x100 EXP SWAP1 DIV PUSH20 0xFFFFFFFFFFFFFFFFFFFFFFFFFFFFFFFFFFFFFFFF AND SWAP1 DUP1 PUSH1 0x4 ADD PUSH0 SWAP1 SLOAD SWAP1 PUSH2 0x100 EXP SWAP1 DIV PUSH20 0xFFFFFFFFFFFFFFFFFFFFFFFFFFFFFFFFFFFFFFFF AND SWAP1 DUP1 PUSH1 0x5 ADD SLOAD SWAP1 DUP1 PUSH1 0x6 ADD PUSH0 SWAP1 SLOAD SWAP1 PUSH2 0x100 EXP SWAP1 DIV PUSH20 0xFFFFFFFFFFFFFFFFFFFFFFFFFFFFFFFFFFFFFFFF AND SWAP1 DUP1 PUSH1 0x7 ADD SLOAD SWAP1 DUP1 PUSH1 0x8 ADD PUSH0 SWAP1 SLOAD SWAP1 PUSH2 0x100 EXP SWAP1 DIV PUSH1 0xFF AND SWAP1 DUP1 PUSH1 0x8 ADD PUSH1 0x1 SWAP1 SLOAD SWAP1 PUSH2 0x100 EXP SWAP1 DIV PUSH1 0xFF AND SWAP1 POP DUP11 JUMP JUMPDEST PUSH0 PUSH0 PUSH0 SWAP1 SLOAD SWAP1 PUSH2 0x100 EXP SWAP1 DIV PUSH20 0xFFFFFFFFFFFFFFFFFFFFFFFFFFFFFFFFFFFFFFFF AND SWAP1 POP SWAP1 JUMP JUMPDEST PUSH1 0x60 PUSH1 0x6 PUSH0 DUP4 PUSH20 0xFFFFFFFFFFFFFFFFFFFFFFFFFFFFFFFFFFFFFFFF AND PUSH20 0xFFFFFFFFFFFFFFFFFFFFFFFFFFFFFFFFFFFFFFFF AND DUP2 MSTORE PUSH1 0x20 ADD SWAP1 DUP2 MSTORE PUSH1 0x20 ADD PUSH0 KECCAK256 DUP1 SLOAD DUP1 PUSH1 0x20 MUL PUSH1 0x20 ADD PUSH1 0x40 MLOAD SWAP1 DUP2 ADD PUSH1 0x40 MSTORE DUP1 SWAP3 SWAP2 SWAP1 DUP2 DUP2 MSTORE PUSH1 0x20 ADD DUP3 DUP1 SLOAD DUP1 ISZERO PUSH2 0x13F6 JUMPI PUSH1 0x20 MUL DUP3 ADD SWAP2 SWAP1 PUSH0 MSTORE PUSH1 0x20 PUSH0 KECCAK256 SWAP1 JUMPDEST DUP2 SLOAD DUP2 MSTORE PUSH1 0x20 ADD SWAP1 PUSH1 0x1 ADD SWAP1 DUP1 DUP4 GT PUSH2 0x13E2 JUMPI JUMPDEST POP POP POP POP POP SWAP1 POP SWAP2 SWAP1 POP JUMP JUMPDEST PUSH2 0x140A PUSH2 0x1C38 JUMP JUMPDEST PUSH0 PUSH20 0xFFFFFFFFFFFFFFFFFFFFFFFFFFFFFFFFFFFFFFFF AND DUP4 PUSH20 0xFFFFFFFFFFFFFFFFFFFFFFFFFFFFFFFFFFFFFFFF AND SUB PUSH2 0x1478 JUMPI PUSH1 0x40 MLOAD PUSH32 0x8C379A000000000000000000000000000000000000000000000000000000000 DUP2 MSTORE PUSH1 0x4 ADD PUSH2 0x146F SWAP1 PUSH2 0x2A53 JUMP JUMPDEST PUSH1 0x40 MLOAD DUP1 SWAP2 SUB SWAP1 REVERT JUMPDEST PUSH0 DUP3 GT PUSH2 0x14BA JUMPI PUSH1 0x40 MLOAD PUSH32 0x8C379A000000000000000000000000000000000000000000000000000000000 DUP2 MSTORE PUSH1 0x4 ADD PUSH2 0x14B1 SWAP1 PUSH2 0x30AD JUMP JUMPDEST PUSH1 0x40 MLOAD DUP1 SWAP2 SUB SWAP1 REVERT JUMPDEST PUSH0 PUSH1 0x3 PUSH0 SWAP1 SLOAD SWAP1 PUSH2 0x100 EXP SWAP1 DIV PUSH20 0xFFFFFFFFFFFFFFFFFFFFFFFFFFFFFFFFFFFFFFFF AND PUSH20 0xFFFFFFFFFFFFFFFFFFFFFFFFFFFFFFFFFFFFFFFF AND DUP3 PUSH20 0xFFFFFFFFFFFFFFFFFFFFFFFFFFFFFFFFFFFFFFFF AND EQ DUP1 ISZERO PUSH2 0x1564 JUMPI POP PUSH0 PUSH20 0xFFFFFFFFFFFFFFFFFFFFFFFFFFFFFFFFFFFFFFFF AND PUSH1 0x3 PUSH0 SWAP1 SLOAD SWAP1 PUSH2 0x100 EXP SWAP1 DIV PUSH20 0xFFFFFFFFFFFFFFFFFFFFFFFFFFFFFFFFFFFFFFFF AND PUSH20 0xFFFFFFFFFFFFFFFFFFFFFFFFFFFFFFFFFFFFFFFF AND EQ ISZERO JUMPDEST SWAP1 POP PUSH0 PUSH1 0x4 PUSH0 SWAP1 SLOAD SWAP1 PUSH2 0x100 EXP SWAP1 DIV PUSH20 0xFFFFFFFFFFFFFFFFFFFFFFFFFFFFFFFFFFFFFFFF AND PUSH20 0xFFFFFFFFFFFFFFFFFFFFFFFFFFFFFFFFFFFFFFFF AND DUP4 PUSH20 0xFFFFFFFFFFFFFFFFFFFFFFFFFFFFFFFFFFFFFFFF AND EQ DUP1 ISZERO PUSH2 0x1610 JUMPI POP PUSH0 PUSH20 0xFFFFFFFFFFFFFFFFFFFFFFFFFFFFFFFFFFFFFFFF AND PUSH1 0x4 PUSH0 SWAP1 SLOAD SWAP1 PUSH2 0x100 EXP SWAP1 DIV PUSH20 0xFFFFFFFFFFFFFFFFFFFFFFFFFFFFFFFFFFFFFFFF AND PUSH20 0xFFFFFFFFFFFFFFFFFFFFFFFFFFFFFFFFFFFFFFFF AND EQ ISZERO JUMPDEST SWAP1 POP DUP2 DUP1 PUSH2 0x161B JUMPI POP DUP1 JUMPDEST PUSH2 0x165A JUMPI PUSH1 0x40 MLOAD PUSH32 0x8C379A000000000000000000000000000000000000000000000000000000000 DUP2 MSTORE PUSH1 0x4 ADD PUSH2 0x1651 SWAP1 PUSH2 0x3115 JUMP JUMPDEST PUSH1 0x40 MLOAD DUP1 SWAP2 SUB SWAP1 REVERT JUMPDEST PUSH0 PUSH1 0x5 PUSH0 DUP9 DUP2 MSTORE PUSH1 0x20 ADD SWAP1 DUP2 MSTORE PUSH1 0x20 ADD PUSH0 KECCAK256 SWAP1 POP DUP1 PUSH1 0x8 ADD PUSH1 0x1 SWAP1 SLOAD SWAP1 PUSH2 0x100 EXP SWAP1 DIV PUSH1 0xFF AND PUSH2 0x16BF JUMPI PUSH1 0x40 MLOAD PUSH32 0x8C379A000000000000000000000000000000000000000000000000000000000 DUP2 MSTORE PUSH1 0x4 ADD PUSH2 0x16B6 SWAP1 PUSH2 0x28BE JUMP JUMPDEST PUSH1 0x40 MLOAD DUP1 SWAP2 SUB SWAP1 REVERT JUMPDEST CALLER PUSH20 0xFFFFFFFFFFFFFFFFFFFFFFFFFFFFFFFFFFFFFFFF AND DUP2 PUSH1 0x3 ADD PUSH0 SWAP1 SLOAD SWAP1 PUSH2 0x100 EXP SWAP1 DIV PUSH20 0xFFFFFFFFFFFFFFFFFFFFFFFFFFFFFFFFFFFFFFFF AND PUSH20 0xFFFFFFFFFFFFFFFFFFFFFFFFFFFFFFFFFFFFFFFF AND EQ PUSH2 0x1750 JUMPI PUSH1 0x40 MLOAD PUSH32 0x8C379A000000000000000000000000000000000000000000000000000000000 DUP2 MSTORE PUSH1 0x4 ADD PUSH2 0x1747 SWAP1 PUSH2 0x317D JUMP JUMPDEST PUSH1 0x40 MLOAD DUP1 SWAP2 SUB SWAP1 REVERT JUMPDEST PUSH0 PUSH1 0x3 DUP2 GT ISZERO PUSH2 0x1763 JUMPI PUSH2 0x1762 PUSH2 0x2137 JUMP JUMPDEST JUMPDEST DUP2 PUSH1 0x8 ADD PUSH0 SWAP1 SLOAD SWAP1 PUSH2 0x100 EXP SWAP1 DIV PUSH1 0xFF AND PUSH1 0x3 DUP2 GT ISZERO PUSH2 0x1786 JUMPI PUSH2 0x1785 PUSH2 0x2137 JUMP JUMPDEST JUMPDEST EQ PUSH2 0x17C6 JUMPI PUSH1 0x40 MLOAD PUSH32 0x8C379A000000000000000000000000000000000000000000000000000000000 DUP2 MSTORE PUSH1 0x4 ADD PUSH2 0x17BD SWAP1 PUSH2 0x31E5 JUMP JUMPDEST PUSH1 0x40 MLOAD DUP1 SWAP2 SUB SWAP1 REVERT JUMPDEST PUSH0 PUSH20 0xFFFFFFFFFFFFFFFFFFFFFFFFFFFFFFFFFFFFFFFF AND DUP2 PUSH1 0x4 ADD PUSH0 SWAP1 SLOAD SWAP1 PUSH2 0x100 EXP SWAP1 DIV PUSH20 0xFFFFFFFFFFFFFFFFFFFFFFFFFFFFFFFFFFFFFFFF AND PUSH20 0xFFFFFFFFFFFFFFFFFFFFFFFFFFFFFFFFFFFFFFFF AND EQ PUSH2 0x1857 JUMPI PUSH1 0x40 MLOAD PUSH32 0x8C379A000000000000000000000000000000000000000000000000000000000 DUP2 MSTORE PUSH1 0x4 ADD PUSH2 0x184E SWAP1 PUSH2 0x324D JUMP JUMPDEST PUSH1 0x40 MLOAD DUP1 SWAP2 SUB SWAP1 REVERT JUMPDEST PUSH2 0x1884 CALLER ADDRESS DUP8 DUP8 PUSH20 0xFFFFFFFFFFFFFFFFFFFFFFFFFFFFFFFFFFFFFFFF AND PUSH2 0x1DF0 SWAP1 SWAP4 SWAP3 SWAP2 SWAP1 PUSH4 0xFFFFFFFF AND JUMP JUMPDEST DUP6 DUP2 PUSH1 0x4 ADD PUSH0 PUSH2 0x100 EXP DUP2 SLOAD DUP2 PUSH20 0xFFFFFFFFFFFFFFFFFFFFFFFFFFFFFFFFFFFFFFFF MUL NOT AND SWAP1 DUP4 PUSH20 0xFFFFFFFFFFFFFFFFFFFFFFFFFFFFFFFFFFFFFFFF AND MUL OR SWAP1 SSTORE POP DUP5 DUP2 PUSH1 0x5 ADD DUP2 SWAP1 SSTORE POP DUP4 DUP2 PUSH1 0x6 ADD PUSH0 PUSH2 0x100 EXP DUP2 SLOAD DUP2 PUSH20 0xFFFFFFFFFFFFFFFFFFFFFFFFFFFFFFFFFFFFFFFF MUL NOT AND SWAP1 DUP4 PUSH20 0xFFFFFFFFFFFFFFFFFFFFFFFFFFFFFFFFFFFFFFFF AND MUL OR SWAP1 SSTORE POP PUSH1 0x1 DUP2 PUSH1 0x8 ADD PUSH0 PUSH2 0x100 EXP DUP2 SLOAD DUP2 PUSH1 0xFF MUL NOT AND SWAP1 DUP4 PUSH1 0x3 DUP2 GT ISZERO PUSH2 0x1938 JUMPI PUSH2 0x1937 PUSH2 0x2137 JUMP JUMPDEST JUMPDEST MUL OR SWAP1 SSTORE POP PUSH1 0x6 PUSH0 DUP8 PUSH20 0xFFFFFFFFFFFFFFFFFFFFFFFFFFFFFFFFFFFFFFFF AND PUSH20 0xFFFFFFFFFFFFFFFFFFFFFFFFFFFFFFFFFFFFFFFF AND DUP2 MSTORE PUSH1 0x20 ADD SWAP1 DUP2 MSTORE PUSH1 0x20 ADD PUSH0 KECCAK256 DUP8 SWAP1 DUP1 PUSH1 0x1 DUP2 SLOAD ADD DUP1 DUP3 SSTORE DUP1 SWAP2 POP POP PUSH1 0x1 SWAP1 SUB SWAP1 PUSH0 MSTORE PUSH1 0x20 PUSH0 KECCAK256 ADD PUSH0 SWAP1 SWAP2 SWAP1 SWAP2 SWAP1 SWAP2 POP SSTORE DUP6 PUSH20 0xFFFFFFFFFFFFFFFFFFFFFFFFFFFFFFFFFFFFFFFF AND DUP8 PUSH32 0xAF1EAD7C979EB7513634B65A718A3E09820B4415161E8103D18D762F19CC5CFC DUP8 DUP8 PUSH1 0x40 MLOAD PUSH2 0x19E7 SWAP3 SWAP2 SWAP1 PUSH2 0x2C3F JUMP JUMPDEST PUSH1 0x40 MLOAD DUP1 SWAP2 SUB SWAP1 LOG3 POP POP POP PUSH2 0x19FA PUSH2 0x1D06 JUMP JUMPDEST POP POP POP POP JUMP JUMPDEST PUSH2 0x1A08 PUSH2 0x1BB1 JUMP JUMPDEST PUSH2 0x1A3A PUSH2 0x1A13 PUSH2 0x1348 JUMP JUMPDEST DUP3 DUP5 PUSH20 0xFFFFFFFFFFFFFFFFFFFFFFFFFFFFFFFFFFFFFFFF AND PUSH2 0x1C87 SWAP1 SWAP3 SWAP2 SWAP1 PUSH4 0xFFFFFFFF AND JUMP JUMPDEST POP POP JUMP JUMPDEST PUSH2 0x1A46 PUSH2 0x1BB1 JUMP JUMPDEST PUSH32 0xE1DFA83513A4B65C296BC64D8A68945CB723D798739225012D7167DBB2D6E3FC PUSH1 0x4 PUSH0 SWAP1 SLOAD SWAP1 PUSH2 0x100 EXP SWAP1 DIV PUSH20 0xFFFFFFFFFFFFFFFFFFFFFFFFFFFFFFFFFFFFFFFF AND DUP3 PUSH1 0x40 MLOAD PUSH2 0x1A98 SWAP3 SWAP2 SWAP1 PUSH2 0x32B5 JUMP JUMPDEST PUSH1 0x40 MLOAD DUP1 SWAP2 SUB SWAP1 LOG1 DUP1 PUSH1 0x4 PUSH0 PUSH2 0x100 EXP DUP2 SLOAD DUP2 PUSH20 0xFFFFFFFFFFFFFFFFFFFFFFFFFFFFFFFFFFFFFFFF MUL NOT AND SWAP1 DUP4 PUSH20 0xFFFFFFFFFFFFFFFFFFFFFFFFFFFFFFFFFFFFFFFF AND MUL OR SWAP1 SSTORE POP POP JUMP JUMPDEST PUSH1 0x3 PUSH0 SWAP1 SLOAD SWAP1 PUSH2 0x100 EXP SWAP1 DIV PUSH20 0xFFFFFFFFFFFFFFFFFFFFFFFFFFFFFFFFFFFFFFFF AND DUP2 JUMP JUMPDEST PUSH1 0x7 PUSH0 SWAP1 SLOAD SWAP1 PUSH2 0x100 EXP SWAP1 DIV PUSH20 0xFFFFFFFFFFFFFFFFFFFFFFFFFFFFFFFFFFFFFFFF AND DUP2 JUMP JUMPDEST PUSH2 0x1B35 PUSH2 0x1BB1 JUMP JUMPDEST PUSH0 PUSH20 0xFFFFFFFFFFFFFFFFFFFFFFFFFFFFFFFFFFFFFFFF AND DUP2 PUSH20 0xFFFFFFFFFFFFFFFFFFFFFFFFFFFFFFFFFFFFFFFF AND SUB PUSH2 0x1BA5 JUMPI PUSH0 PUSH1 0x40 MLOAD PUSH32 0x1E4FBDF700000000000000000000000000000000000000000000000000000000 DUP2 MSTORE PUSH1 0x4 ADD PUSH2 0x1B9C SWAP2 SWAP1 PUSH2 0x26AB JUMP JUMPDEST PUSH1 0x40 MLOAD DUP1 SWAP2 SUB SWAP1 REVERT JUMPDEST PUSH2 0x1BAE DUP2 PUSH2 0x1D2F JUMP JUMPDEST POP JUMP JUMPDEST PUSH2 0x1BB9 PUSH2 0x1E72 JUMP JUMPDEST PUSH20 0xFFFFFFFFFFFFFFFFFFFFFFFFFFFFFFFFFFFFFFFF AND PUSH2 0x1BD7 PUSH2 0x1348 JUMP JUMPDEST PUSH20 0xFFFFFFFFFFFFFFFFFFFFFFFFFFFFFFFFFFFFFFFF AND EQ PUSH2 0x1C36 JUMPI PUSH2 0x1BFA PUSH2 0x1E72 JUMP JUMPDEST PUSH1 0x40 MLOAD PUSH32 0x118CDAA700000000000000000000000000000000000000000000000000000000 DUP2 MSTORE PUSH1 0x4 ADD PUSH2 0x1C2D SWAP2 SWAP1 PUSH2 0x26AB JUMP JUMPDEST PUSH1 0x40 MLOAD DUP1 SWAP2 SUB SWAP1 REVERT JUMPDEST JUMP JUMPDEST PUSH1 0x2 PUSH1 0x1 SLOAD SUB PUSH2 0x1C7D JUMPI PUSH1 0x40 MLOAD PUSH32 0x8C379A000000000000000000000000000000000000000000000000000000000 DUP2 MSTORE PUSH1 0x4 ADD PUSH2 0x1C74 SWAP1 PUSH2 0x3339 JUMP JUMPDEST PUSH1 0x40 MLOAD DUP1 SWAP2 SUB SWAP1 REVERT JUMPDEST PUSH1 0x2 PUSH1 0x1 DUP2 SWAP1 SSTORE POP JUMP JUMPDEST PUSH2 0x1D01 DUP4 DUP5 PUSH20 0xFFFFFFFFFFFFFFFFFFFFFFFFFFFFFFFFFFFFFFFF AND PUSH4 0xA9059CBB DUP6 DUP6 PUSH1 0x40 MLOAD PUSH1 0x24 ADD PUSH2 0x1CBA SWAP3 SWAP2 SWAP1 PUSH2 0x3357 JUMP JUMPDEST PUSH1 0x40 MLOAD PUSH1 0x20 DUP2 DUP4 SUB SUB DUP2 MSTORE SWAP1 PUSH1 0x40 MSTORE SWAP2 POP PUSH1 0xE0 SHL PUSH1 0x20 DUP3 ADD DUP1 MLOAD PUSH28 0xFFFFFFFFFFFFFFFFFFFFFFFFFFFFFFFFFFFFFFFFFFFFFFFFFFFFFFFF DUP4 DUP2 DUP4 AND OR DUP4 MSTORE POP POP POP POP PUSH2 0x1E79 JUMP JUMPDEST POP POP POP JUMP JUMPDEST PUSH1 0x1 DUP1 DUP2 SWAP1 SSTORE POP JUMP JUMPDEST PUSH1 0x1 DUP2 PUSH0 ADD PUSH0 DUP3 DUP3 SLOAD ADD SWAP3 POP POP DUP2 SWAP1 SSTORE POP POP JUMP JUMPDEST PUSH0 DUP2 PUSH0 ADD SLOAD SWAP1 POP SWAP2 SWAP1 POP JUMP JUMPDEST PUSH0 PUSH0 PUSH0 SWAP1 SLOAD SWAP1 PUSH2 0x100 EXP SWAP1 DIV PUSH20 0xFFFFFFFFFFFFFFFFFFFFFFFFFFFFFFFFFFFFFFFF AND SWAP1 POP DUP2 PUSH0 PUSH0 PUSH2 0x100 EXP DUP2 SLOAD DUP2 PUSH20 0xFFFFFFFFFFFFFFFFFFFFFFFFFFFFFFFFFFFFFFFF MUL NOT AND SWAP1 DUP4 PUSH20 0xFFFFFFFFFFFFFFFFFFFFFFFFFFFFFFFFFFFFFFFF AND MUL OR SWAP1 SSTORE POP DUP2 PUSH20 0xFFFFFFFFFFFFFFFFFFFFFFFFFFFFFFFFFFFFFFFF AND DUP2 PUSH20 0xFFFFFFFFFFFFFFFFFFFFFFFFFFFFFFFFFFFFFFFF AND PUSH32 0x8BE0079C531659141344CD1FD0A4F28419497F9722A3DAAFE3B4186F6B6457E0 PUSH1 0x40 MLOAD PUSH1 0x40 MLOAD DUP1 SWAP2 SUB SWAP1 LOG3 POP POP JUMP JUMPDEST PUSH2 0x1E6C DUP5 DUP6 PUSH20 0xFFFFFFFFFFFFFFFFFFFFFFFFFFFFFFFFFFFFFFFF AND PUSH4 0x23B872DD DUP7 DUP7 DUP7 PUSH1 0x40 MLOAD PUSH1 0x24 ADD PUSH2 0x1E25 SWAP4 SWAP3 SWAP2 SWAP1 PUSH2 0x337E JUMP JUMPDEST PUSH1 0x40 MLOAD PUSH1 0x20 DUP2 DUP4 SUB SUB DUP2 MSTORE SWAP1 PUSH1 0x40 MSTORE SWAP2 POP PUSH1 0xE0 SHL PUSH1 0x20 DUP3 ADD DUP1 MLOAD PUSH28 0xFFFFFFFFFFFFFFFFFFFFFFFFFFFFFFFFFFFFFFFFFFFFFFFFFFFFFFFF DUP4 DUP2 DUP4 AND OR DUP4 MSTORE POP POP POP POP PUSH2 0x1E79 JUMP JUMPDEST POP POP POP POP JUMP JUMPDEST PUSH0 CALLER SWAP1 POP SWAP1 JUMP JUMPDEST PUSH0 PUSH0 PUSH1 0x20 PUSH0 DUP5 MLOAD PUSH1 0x20 DUP7 ADD PUSH0 DUP9 GAS CALL DUP1 PUSH2 0x1E98 JUMPI PUSH1 0x40 MLOAD RETURNDATASIZE PUSH0 DUP3 RETURNDATACOPY RETURNDATASIZE DUP2 REVERT JUMPDEST RETURNDATASIZE SWAP3 POP PUSH0 MLOAD SWAP2 POP POP PUSH0 DUP3 EQ PUSH2 0x1EB1 JUMPI PUSH1 0x1 DUP2 EQ ISZERO PUSH2 0x1ECC JUMP JUMPDEST PUSH0 DUP5 PUSH20 0xFFFFFFFFFFFFFFFFFFFFFFFFFFFFFFFFFFFFFFFF AND EXTCODESIZE EQ JUMPDEST ISZERO PUSH2 0x1F0E JUMPI DUP4 PUSH1 0x40 MLOAD PUSH32 0x5274AFE700000000000000000000000000000000000000000000000000000000 DUP2 MSTORE PUSH1 0x4 ADD PUSH2 0x1F05 SWAP2 SWAP1 PUSH2 0x26AB JUMP JUMPDEST PUSH1 0x40 MLOAD DUP1 SWAP2 SUB SWAP1 REVERT JUMPDEST POP POP POP POP JUMP JUMPDEST PUSH1 0x40 MLOAD DUP1 PUSH2 0x140 ADD PUSH1 0x40 MSTORE DUP1 PUSH0 DUP2 MSTORE PUSH1 0x20 ADD PUSH1 0x60 DUP2 MSTORE PUSH1 0x20 ADD PUSH1 0x60 DUP2 MSTORE PUSH1 0x20 ADD PUSH0 PUSH20 0xFFFFFFFFFFFFFFFFFFFFFFFFFFFFFFFFFFFFFFFF AND DUP2 MSTORE PUSH1 0x20 ADD PUSH0 PUSH20 0xFFFFFFFFFFFFFFFFFFFFFFFFFFFFFFFFFFFFFFFF AND DUP2 MSTORE PUSH1 0x20 ADD PUSH0 DUP2 MSTORE PUSH1 0x20 ADD PUSH0 PUSH20 0xFFFFFFFFFFFFFFFFFFFFFFFFFFFFFFFFFFFFFFFF AND DUP2 MSTORE PUSH1 0x20 ADD PUSH0 DUP2 MSTORE PUSH1 0x20 ADD PUSH0 PUSH1 0x3 DUP2 GT ISZERO PUSH2 0x1FA7 JUMPI PUSH2 0x1FA6 PUSH2 0x2137 JUMP JUMPDEST JUMPDEST DUP2 MSTORE PUSH1 0x20 ADD PUSH0 ISZERO ISZERO DUP2 MSTORE POP SWAP1 JUMP JUMPDEST PUSH0 PUSH1 0x40 MLOAD SWAP1 POP SWAP1 JUMP JUMPDEST PUSH0 PUSH0 REVERT JUMPDEST PUSH0 PUSH0 REVERT JUMPDEST PUSH0 PUSH20 0xFFFFFFFFFFFFFFFFFFFFFFFFFFFFFFFFFFFFFFFF DUP3 AND SWAP1 POP SWAP2 SWAP1 POP JUMP JUMPDEST PUSH0 PUSH2 0x1FEF DUP3 PUSH2 0x1FC6 JUMP JUMPDEST SWAP1 POP SWAP2 SWAP1 POP JUMP JUMPDEST PUSH2 0x1FFF DUP2 PUSH2 0x1FE5 JUMP JUMPDEST DUP2 EQ PUSH2 0x2009 JUMPI PUSH0 PUSH0 REVERT JUMPDEST POP JUMP JUMPDEST PUSH0 DUP2 CALLDATALOAD SWAP1 POP PUSH2 0x201A DUP2 PUSH2 0x1FF6 JUMP JUMPDEST SWAP3 SWAP2 POP POP JUMP JUMPDEST PUSH0 PUSH1 0x20 DUP3 DUP5 SUB SLT ISZERO PUSH2 0x2035 JUMPI PUSH2 0x2034 PUSH2 0x1FBE JUMP JUMPDEST JUMPDEST PUSH0 PUSH2 0x2042 DUP5 DUP3 DUP6 ADD PUSH2 0x200C JUMP JUMPDEST SWAP2 POP POP SWAP3 SWAP2 POP POP JUMP JUMPDEST PUSH0 DUP2 SWAP1 POP SWAP2 SWAP1 POP JUMP JUMPDEST PUSH2 0x205D DUP2 PUSH2 0x204B JUMP JUMPDEST DUP2 EQ PUSH2 0x2067 JUMPI PUSH0 PUSH0 REVERT JUMPDEST POP JUMP JUMPDEST PUSH0 DUP2 CALLDATALOAD SWAP1 POP PUSH2 0x2078 DUP2 PUSH2 0x2054 JUMP JUMPDEST SWAP3 SWAP2 POP POP JUMP JUMPDEST PUSH0 PUSH1 0x20 DUP3 DUP5 SUB SLT ISZERO PUSH2 0x2093 JUMPI PUSH2 0x2092 PUSH2 0x1FBE JUMP JUMPDEST JUMPDEST PUSH0 PUSH2 0x20A0 DUP5 DUP3 DUP6 ADD PUSH2 0x206A JUMP JUMPDEST SWAP2 POP POP SWAP3 SWAP2 POP POP JUMP JUMPDEST PUSH2 0x20B2 DUP2 PUSH2 0x204B JUMP JUMPDEST DUP3 MSTORE POP POP JUMP JUMPDEST PUSH0 DUP2 MLOAD SWAP1 POP SWAP2 SWAP1 POP JUMP JUMPDEST PUSH0 DUP3 DUP3 MSTORE PUSH1 0x20 DUP3 ADD SWAP1 POP SWAP3 SWAP2 POP POP JUMP JUMPDEST DUP3 DUP2 DUP4 MCOPY PUSH0 DUP4 DUP4 ADD MSTORE POP POP POP JUMP JUMPDEST PUSH0 PUSH1 0x1F NOT PUSH1 0x1F DUP4 ADD AND SWAP1 POP SWAP2 SWAP1 POP JUMP JUMPDEST PUSH0 PUSH2 0x20FA DUP3 PUSH2 0x20B8 JUMP JUMPDEST PUSH2 0x2104 DUP2 DUP6 PUSH2 0x20C2 JUMP JUMPDEST SWAP4 POP PUSH2 0x2114 DUP2 DUP6 PUSH1 0x20 DUP7 ADD PUSH2 0x20D2 JUMP JUMPDEST PUSH2 0x211D DUP2 PUSH2 0x20E0 JUMP JUMPDEST DUP5 ADD SWAP2 POP POP SWAP3 SWAP2 POP POP JUMP JUMPDEST PUSH2 0x2131 DUP2 PUSH2 0x1FE5 JUMP JUMPDEST DUP3 MSTORE POP POP JUMP JUMPDEST PUSH32 0x4E487B7100000000000000000000000000000000000000000000000000000000 PUSH0 MSTORE PUSH1 0x21 PUSH1 0x4 MSTORE PUSH1 0x24 PUSH0 REVERT JUMPDEST PUSH1 0x4 DUP2 LT PUSH2 0x2175 JUMPI PUSH2 0x2174 PUSH2 0x2137 JUMP JUMPDEST JUMPDEST POP JUMP JUMPDEST PUSH0 DUP2 SWAP1 POP PUSH2 0x2185 DUP3 PUSH2 0x2164 JUMP JUMPDEST SWAP2 SWAP1 POP JUMP JUMPDEST PUSH0 PUSH2 0x2194 DUP3 PUSH2 0x2178 JUMP JUMPDEST SWAP1 POP SWAP2 SWAP1 POP JUMP JUMPDEST PUSH2 0x21A4 DUP2 PUSH2 0x218A JUMP JUMPDEST DUP3 MSTORE POP POP JUMP JUMPDEST PUSH0 DUP2 ISZERO ISZERO SWAP1 POP SWAP2 SWAP1 POP JUMP JUMPDEST PUSH2 0x21BE DUP2 PUSH2 0x21AA JUMP JUMPDEST DUP3 MSTORE POP POP JUMP JUMPDEST PUSH0 PUSH2 0x140 DUP4 ADD PUSH0 DUP4 ADD MLOAD PUSH2 0x21DA PUSH0 DUP7 ADD DUP3 PUSH2 0x20A9 JUMP JUMPDEST POP PUSH1 0x20 DUP4 ADD MLOAD DUP5 DUP3 SUB PUSH1 0x20 DUP7 ADD MSTORE PUSH2 0x21F2 DUP3 DUP3 PUSH2 0x20F0 JUMP JUMPDEST SWAP2 POP POP PUSH1 0x40 DUP4 ADD MLOAD DUP5 DUP3 SUB PUSH1 0x40 DUP7 ADD MSTORE PUSH2 0x220C DUP3 DUP3 PUSH2 0x20F0 JUMP JUMPDEST SWAP2 POP POP PUSH1 0x60 DUP4 ADD MLOAD PUSH2 0x2221 PUSH1 0x60 DUP7 ADD DUP3 PUSH2 0x2128 JUMP JUMPDEST POP PUSH1 0x80 DUP4 ADD MLOAD PUSH2 0x2234 PUSH1 0x80 DUP7 ADD DUP3 PUSH2 0x2128 JUMP JUMPDEST POP PUSH1 0xA0 DUP4 ADD MLOAD PUSH2 0x2247 PUSH1 0xA0 DUP7 ADD DUP3 PUSH2 0x20A9 JUMP JUMPDEST POP PUSH1 0xC0 DUP4 ADD MLOAD PUSH2 0x225A PUSH1 0xC0 DUP7 ADD DUP3 PUSH2 0x2128 JUMP JUMPDEST POP PUSH1 0xE0 DUP4 ADD MLOAD PUSH2 0x226D PUSH1 0xE0 DUP7 ADD DUP3 PUSH2 0x20A9 JUMP JUMPDEST POP PUSH2 0x100 DUP4 ADD MLOAD PUSH2 0x2282 PUSH2 0x100 DUP7 ADD DUP3 PUSH2 0x219B JUMP JUMPDEST POP PUSH2 0x120 DUP4 ADD MLOAD PUSH2 0x2297 PUSH2 0x120 DUP7 ADD DUP3 PUSH2 0x21B5 JUMP JUMPDEST POP DUP1 SWAP2 POP POP SWAP3 SWAP2 POP POP JUMP JUMPDEST PUSH0 PUSH1 0x20 DUP3 ADD SWAP1 POP DUP2 DUP2 SUB PUSH0 DUP4 ADD MSTORE PUSH2 0x22BA DUP2 DUP5 PUSH2 0x21C4 JUMP JUMPDEST SWAP1 POP SWAP3 SWAP2 POP POP JUMP JUMPDEST PUSH0 DUP2 SWAP1 POP SWAP2 SWAP1 POP JUMP JUMPDEST PUSH0 PUSH2 0x22E5 PUSH2 0x22E0 PUSH2 0x22DB DUP5 PUSH2 0x1FC6 JUMP JUMPDEST PUSH2 0x22C2 JUMP JUMPDEST PUSH2 0x1FC6 JUMP JUMPDEST SWAP1 POP SWAP2 SWAP1 POP JUMP JUMPDEST PUSH0 PUSH2 0x22F6 DUP3 PUSH2 0x22CB JUMP JUMPDEST SWAP1 POP SWAP2 SWAP1 POP JUMP JUMPDEST PUSH0 PUSH2 0x2307 DUP3 PUSH2 0x22EC JUMP JUMPDEST SWAP1 POP SWAP2 SWAP1 POP JUMP JUMPDEST PUSH2 0x2317 DUP2 PUSH2 0x22FD JUMP JUMPDEST DUP3 MSTORE POP POP JUMP JUMPDEST PUSH0 PUSH1 0x20 DUP3 ADD SWAP1 POP PUSH2 0x2330 PUSH0 DUP4 ADD DUP5 PUSH2 0x230E JUMP JUMPDEST SWAP3 SWAP2 POP POP JUMP JUMPDEST PUSH0 PUSH0 PUSH1 0x40 DUP4 DUP6 SUB SLT ISZERO PUSH2 0x234C JUMPI PUSH2 0x234B PUSH2 0x1FBE JUMP JUMPDEST JUMPDEST PUSH0 PUSH2 0x2359 DUP6 DUP3 DUP7 ADD PUSH2 0x206A JUMP JUMPDEST SWAP3 POP POP PUSH1 0x20 PUSH2 0x236A DUP6 DUP3 DUP7 ADD PUSH2 0x200C JUMP JUMPDEST SWAP2 POP POP SWAP3 POP SWAP3 SWAP1 POP JUMP JUMPDEST PUSH0 PUSH0 REVERT JUMPDEST PUSH0 PUSH0 REVERT JUMPDEST PUSH32 0x4E487B7100000000000000000000000000000000000000000000000000000000 PUSH0 MSTORE PUSH1 0x41 PUSH1 0x4 MSTORE PUSH1 0x24 PUSH0 REVERT JUMPDEST PUSH2 0x23B2 DUP3 PUSH2 0x20E0 JUMP JUMPDEST DUP2 ADD DUP2 DUP2 LT PUSH8 0xFFFFFFFFFFFFFFFF DUP3 GT OR ISZERO PUSH2 0x23D1 JUMPI PUSH2 0x23D0 PUSH2 0x237C JUMP JUMPDEST JUMPDEST DUP1 PUSH1 0x40 MSTORE POP POP POP JUMP JUMPDEST PUSH0 PUSH2 0x23E3 PUSH2 0x1FB5 JUMP JUMPDEST SWAP1 POP PUSH2 0x23EF DUP3 DUP3 PUSH2 0x23A9 JUMP JUMPDEST SWAP2 SWAP1 POP JUMP JUMPDEST PUSH0 PUSH8 0xFFFFFFFFFFFFFFFF DUP3 GT ISZERO PUSH2 0x240E JUMPI PUSH2 0x240D PUSH2 0x237C JUMP JUMPDEST JUMPDEST PUSH2 0x2417 DUP3 PUSH2 0x20E0 JUMP JUMPDEST SWAP1 POP PUSH1 0x20 DUP2 ADD SWAP1 POP SWAP2 SWAP1 POP JUMP JUMPDEST DUP3 DUP2 DUP4 CALLDATACOPY PUSH0 DUP4 DUP4 ADD MSTORE POP POP POP JUMP JUMPDEST PUSH0 PUSH2 0x2444 PUSH2 0x243F DUP5 PUSH2 0x23F4 JUMP JUMPDEST PUSH2 0x23DA JUMP JUMPDEST SWAP1 POP DUP3 DUP2 MSTORE PUSH1 0x20 DUP2 ADD DUP5 DUP5 DUP5 ADD GT ISZERO PUSH2 0x2460 JUMPI PUSH2 0x245F PUSH2 0x2378 JUMP JUMPDEST JUMPDEST PUSH2 0x246B DUP5 DUP3 DUP6 PUSH2 0x2424 JUMP JUMPDEST POP SWAP4 SWAP3 POP POP POP JUMP JUMPDEST PUSH0 DUP3 PUSH1 0x1F DUP4 ADD SLT PUSH2 0x2487 JUMPI PUSH2 0x2486 PUSH2 0x2374 JUMP JUMPDEST JUMPDEST DUP2 CALLDATALOAD PUSH2 0x2497 DUP5 DUP3 PUSH1 0x20 DUP7 ADD PUSH2 0x2432 JUMP JUMPDEST SWAP2 POP POP SWAP3 SWAP2 POP POP JUMP JUMPDEST PUSH0 PUSH0 PUSH0 PUSH1 0x60 DUP5 DUP7 SUB SLT ISZERO PUSH2 0x24B7 JUMPI PUSH2 0x24B6 PUSH2 0x1FBE JUMP JUMPDEST JUMPDEST PUSH0 DUP5 ADD CALLDATALOAD PUSH8 0xFFFFFFFFFFFFFFFF DUP2 GT ISZERO PUSH2 0x24D4 JUMPI PUSH2 0x24D3 PUSH2 0x1FC2 JUMP JUMPDEST JUMPDEST PUSH2 0x24E0 DUP7 DUP3 DUP8 ADD PUSH2 0x2473 JUMP JUMPDEST SWAP4 POP POP PUSH1 0x20 DUP5 ADD CALLDATALOAD PUSH8 0xFFFFFFFFFFFFFFFF DUP2 GT ISZERO PUSH2 0x2501 JUMPI PUSH2 0x2500 PUSH2 0x1FC2 JUMP JUMPDEST JUMPDEST PUSH2 0x250D DUP7 DUP3 DUP8 ADD PUSH2 0x2473 JUMP JUMPDEST SWAP3 POP POP PUSH1 0x40 PUSH2 0x251E DUP7 DUP3 DUP8 ADD PUSH2 0x206A JUMP JUMPDEST SWAP2 POP POP SWAP3 POP SWAP3 POP SWAP3 JUMP JUMPDEST PUSH2 0x2531 DUP2 PUSH2 0x204B JUMP JUMPDEST DUP3 MSTORE POP POP JUMP JUMPDEST PUSH0 PUSH1 0x20 DUP3 ADD SWAP1 POP PUSH2 0x254A PUSH0 DUP4 ADD DUP5 PUSH2 0x2528 JUMP JUMPDEST SWAP3 SWAP2 POP POP JUMP JUMPDEST PUSH0 PUSH0 PUSH1 0x40 DUP4 DUP6 SUB SLT ISZERO PUSH2 0x2566 JUMPI PUSH2 0x2565 PUSH2 0x1FBE JUMP JUMPDEST JUMPDEST PUSH0 PUSH2 0x2573 DUP6 DUP3 DUP7 ADD PUSH2 0x200C JUMP JUMPDEST SWAP3 POP POP PUSH1 0x20 PUSH2 0x2584 DUP6 DUP3 DUP7 ADD PUSH2 0x206A JUMP JUMPDEST SWAP2 POP POP SWAP3 POP SWAP3 SWAP1 POP JUMP JUMPDEST PUSH0 DUP3 DUP3 MSTORE PUSH1 0x20 DUP3 ADD SWAP1 POP SWAP3 SWAP2 POP POP JUMP JUMPDEST PUSH0 PUSH2 0x25A8 DUP3 PUSH2 0x20B8 JUMP JUMPDEST PUSH2 0x25B2 DUP2 DUP6 PUSH2 0x258E JUMP JUMPDEST SWAP4 POP PUSH2 0x25C2 DUP2 DUP6 PUSH1 0x20 DUP7 ADD PUSH2 0x20D2 JUMP JUMPDEST PUSH2 0x25CB DUP2 PUSH2 0x20E0 JUMP JUMPDEST DUP5 ADD SWAP2 POP POP SWAP3 SWAP2 POP POP JUMP JUMPDEST PUSH2 0x25DF DUP2 PUSH2 0x1FE5 JUMP JUMPDEST DUP3 MSTORE POP POP JUMP JUMPDEST PUSH2 0x25EE DUP2 PUSH2 0x218A JUMP JUMPDEST DUP3 MSTORE POP POP JUMP JUMPDEST PUSH2 0x25FD DUP2 PUSH2 0x21AA JUMP JUMPDEST DUP3 MSTORE POP POP JUMP JUMPDEST PUSH0 PUSH2 0x140 DUP3 ADD SWAP1 POP PUSH2 0x2617 PUSH0 DUP4 ADD DUP14 PUSH2 0x2528 JUMP JUMPDEST DUP2 DUP2 SUB PUSH1 0x20 DUP4 ADD MSTORE PUSH2 0x2629 DUP2 DUP13 PUSH2 0x259E JUMP JUMPDEST SWAP1 POP DUP2 DUP2 SUB PUSH1 0x40 DUP4 ADD MSTORE PUSH2 0x263D DUP2 DUP12 PUSH2 0x259E JUMP JUMPDEST SWAP1 POP PUSH2 0x264C PUSH1 0x60 DUP4 ADD DUP11 PUSH2 0x25D6 JUMP JUMPDEST PUSH2 0x2659 PUSH1 0x80 DUP4 ADD DUP10 PUSH2 0x25D6 JUMP JUMPDEST PUSH2 0x2666 PUSH1 0xA0 DUP4 ADD DUP9 PUSH2 0x2528 JUMP JUMPDEST PUSH2 0x2673 PUSH1 0xC0 DUP4 ADD DUP8 PUSH2 0x25D6 JUMP JUMPDEST PUSH2 0x2680 PUSH1 0xE0 DUP4 ADD DUP7 PUSH2 0x2528 JUMP JUMPDEST PUSH2 0x268E PUSH2 0x100 DUP4 ADD DUP6 PUSH2 0x25E5 JUMP JUMPDEST PUSH2 0x269C PUSH2 0x120 DUP4 ADD DUP5 PUSH2 0x25F4 JUMP JUMPDEST SWAP12 SWAP11 POP POP POP POP POP POP POP POP POP POP POP JUMP JUMPDEST PUSH0 PUSH1 0x20 DUP3 ADD SWAP1 POP PUSH2 0x26BE PUSH0 DUP4 ADD DUP5 PUSH2 0x25D6 JUMP JUMPDEST SWAP3 SWAP2 POP POP JUMP JUMPDEST PUSH0 DUP2 MLOAD SWAP1 POP SWAP2 SWAP1 POP JUMP JUMPDEST PUSH0 DUP3 DUP3 MSTORE PUSH1 0x20 DUP3 ADD SWAP1 POP SWAP3 SWAP2 POP POP JUMP JUMPDEST PUSH0 DUP2 SWAP1 POP PUSH1 0x20 DUP3 ADD SWAP1 POP SWAP2 SWAP1 POP JUMP JUMPDEST PUSH0 PUSH2 0x26F8 DUP4 DUP4 PUSH2 0x20A9 JUMP JUMPDEST PUSH1 0x20 DUP4 ADD SWAP1 POP SWAP3 SWAP2 POP POP JUMP JUMPDEST PUSH0 PUSH1 0x20 DUP3 ADD SWAP1 POP SWAP2 SWAP1 POP JUMP JUMPDEST PUSH0 PUSH2 0x271A DUP3 PUSH2 0x26C4 JUMP JUMPDEST PUSH2 0x2724 DUP2 DUP6 PUSH2 0x26CE JUMP JUMPDEST SWAP4 POP PUSH2 0x272F DUP4 PUSH2 0x26DE JUMP JUMPDEST DUP1 PUSH0 JUMPDEST DUP4 DUP2 LT ISZERO PUSH2 0x275F JUMPI DUP2 MLOAD PUSH2 0x2746 DUP9 DUP3 PUSH2 0x26ED JUMP JUMPDEST SWAP8 POP PUSH2 0x2751 DUP4 PUSH2 0x2704 JUMP JUMPDEST SWAP3 POP POP PUSH1 0x1 DUP2 ADD SWAP1 POP PUSH2 0x2732 JUMP JUMPDEST POP DUP6 SWAP4 POP POP POP POP SWAP3 SWAP2 POP POP JUMP JUMPDEST PUSH0 PUSH1 0x20 DUP3 ADD SWAP1 POP DUP2 DUP2 SUB PUSH0 DUP4 ADD MSTORE PUSH2 0x2784 DUP2 DUP5 PUSH2 0x2710 JUMP JUMPDEST SWAP1 POP SWAP3 SWAP2 POP POP JUMP JUMPDEST PUSH0 PUSH0 PUSH0 PUSH0 PUSH1 0x80 DUP6 DUP8 SUB SLT ISZERO PUSH2 0x27A4 JUMPI PUSH2 0x27A3 PUSH2 0x1FBE JUMP JUMPDEST JUMPDEST PUSH0 PUSH2 0x27B1 DUP8 DUP3 DUP9 ADD PUSH2 0x206A JUMP JUMPDEST SWAP5 POP POP PUSH1 0x20 PUSH2 0x27C2 DUP8 DUP3 DUP9 ADD PUSH2 0x200C JUMP JUMPDEST SWAP4 POP POP PUSH1 0x40 PUSH2 0x27D3 DUP8 DUP3 DUP9 ADD PUSH2 0x206A JUMP JUMPDEST SWAP3 POP POP PUSH1 0x60 PUSH2 0x27E4 DUP8 DUP3 DUP9 ADD PUSH2 0x200C JUMP JUMPDEST SWAP2 POP POP SWAP3 SWAP6 SWAP2 SWAP5 POP SWAP3 POP JUMP JUMPDEST PUSH32 0x546F6B656E310000000000000000000000000000000000000000000000000000 PUSH0 DUP3 ADD MSTORE POP JUMP JUMPDEST PUSH0 PUSH2 0x2824 PUSH1 0x6 DUP4 PUSH2 0x258E JUMP JUMPDEST SWAP2 POP PUSH2 0x282F DUP3 PUSH2 0x27F0 JUMP JUMPDEST PUSH1 0x20 DUP3 ADD SWAP1 POP SWAP2 SWAP1 POP JUMP JUMPDEST PUSH0 PUSH1 0x60 DUP3 ADD SWAP1 POP DUP2 DUP2 SUB PUSH0 DUP4 ADD MSTORE PUSH2 0x2851 DUP2 PUSH2 0x2818 JUMP JUMPDEST SWAP1 POP PUSH2 0x2860 PUSH1 0x20 DUP4 ADD DUP6 PUSH2 0x25D6 JUMP JUMPDEST PUSH2 0x286D PUSH1 0x40 DUP4 ADD DUP5 PUSH2 0x25D6 JUMP JUMPDEST SWAP4 SWAP3 POP POP POP JUMP JUMPDEST PUSH32 0x5461736B20646F6573206E6F7420657869737400000000000000000000000000 PUSH0 DUP3 ADD MSTORE POP JUMP JUMPDEST PUSH0 PUSH2 0x28A8 PUSH1 0x13 DUP4 PUSH2 0x258E JUMP JUMPDEST SWAP2 POP PUSH2 0x28B3 DUP3 PUSH2 0x2874 JUMP JUMPDEST PUSH1 0x20 DUP3 ADD SWAP1 POP SWAP2 SWAP1 POP JUMP JUMPDEST PUSH0 PUSH1 0x20 DUP3 ADD SWAP1 POP DUP2 DUP2 SUB PUSH0 DUP4 ADD MSTORE PUSH2 0x28D5 DUP2 PUSH2 0x289C JUMP JUMPDEST SWAP1 POP SWAP2 SWAP1 POP JUMP JUMPDEST PUSH32 0x4E487B7100000000000000000000000000000000000000000000000000000000 PUSH0 MSTORE PUSH1 0x22 PUSH1 0x4 MSTORE PUSH1 0x24 PUSH0 REVERT JUMPDEST PUSH0 PUSH1 0x2 DUP3 DIV SWAP1 POP PUSH1 0x1 DUP3 AND DUP1 PUSH2 0x2920 JUMPI PUSH1 0x7F DUP3 AND SWAP2 POP JUMPDEST PUSH1 0x20 DUP3 LT DUP2 SUB PUSH2 0x2933 JUMPI PUSH2 0x2932 PUSH2 0x28DC JUMP JUMPDEST JUMPDEST POP SWAP2 SWAP1 POP JUMP JUMPDEST PUSH32 0x5461736B206E6F7420696E2070726F6772657373000000000000000000000000 PUSH0 DUP3 ADD MSTORE POP JUMP JUMPDEST PUSH0 PUSH2 0x296D PUSH1 0x14 DUP4 PUSH2 0x258E JUMP JUMPDEST SWAP2 POP PUSH2 0x2978 DUP3 PUSH2 0x2939 JUMP JUMPDEST PUSH1 0x20 DUP3 ADD SWAP1 POP SWAP2 SWAP1 POP JUMP JUMPDEST PUSH0 PUSH1 0x20 DUP3 ADD SWAP1 POP DUP2 DUP2 SUB PUSH0 DUP4 ADD MSTORE PUSH2 0x299A DUP2 PUSH2 0x2961 JUMP JUMPDEST SWAP1 POP SWAP2 SWAP1 POP JUMP JUMPDEST PUSH32 0x4F6E6C792063726561746F722063616E20636F6D706C65746500000000000000 PUSH0 DUP3 ADD MSTORE POP JUMP JUMPDEST PUSH0 PUSH2 0x29D5 PUSH1 0x19 DUP4 PUSH2 0x258E JUMP JUMPDEST SWAP2 POP PUSH2 0x29E0 DUP3 PUSH2 0x29A1 JUMP JUMPDEST PUSH1 0x20 DUP3 ADD SWAP1 POP SWAP2 SWAP1 POP JUMP JUMPDEST PUSH0 PUSH1 0x20 DUP3 ADD SWAP1 POP DUP2 DUP2 SUB PUSH0 DUP4 ADD MSTORE PUSH2 0x2A02 DUP2 PUSH2 0x29C9 JUMP JUMPDEST SWAP1 POP SWAP2 SWAP1 POP JUMP JUMPDEST PUSH32 0x496E76616C696420636F6E7472696275746F7200000000000000000000000000 PUSH0 DUP3 ADD MSTORE POP JUMP JUMPDEST PUSH0 PUSH2 0x2A3D PUSH1 0x13 DUP4 PUSH2 0x258E JUMP JUMPDEST SWAP2 POP PUSH2 0x2A48 DUP3 PUSH2 0x2A09 JUMP JUMPDEST PUSH1 0x20 DUP3 ADD SWAP1 POP SWAP2 SWAP1 POP JUMP JUMPDEST PUSH0 PUSH1 0x20 DUP3 ADD SWAP1 POP DUP2 DUP2 SUB PUSH0 DUP4 ADD MSTORE PUSH2 0x2A6A DUP2 PUSH2 0x2A31 JUMP JUMPDEST SWAP1 POP SWAP2 SWAP1 POP JUMP JUMPDEST PUSH32 0x4E6F207265776172642073657400000000000000000000000000000000000000 PUSH0 DUP3 ADD MSTORE POP JUMP JUMPDEST PUSH0 PUSH2 0x2AA5 PUSH1 0xD DUP4 PUSH2 0x258E JUMP JUMPDEST SWAP2 POP PUSH2 0x2AB0 DUP3 PUSH2 0x2A71 JUMP JUMPDEST PUSH1 0x20 DUP3 ADD SWAP1 POP SWAP2 SWAP1 POP JUMP JUMPDEST PUSH0 PUSH1 0x20 DUP3 ADD SWAP1 POP DUP2 DUP2 SUB PUSH0 DUP4 ADD MSTORE PUSH2 0x2AD2 DUP2 PUSH2 0x2A99 JUMP JUMPDEST SWAP1 POP SWAP2 SWAP1 POP JUMP JUMPDEST PUSH32 0x496E76616C696420746F6B656E20737461746500000000000000000000000000 PUSH0 DUP3 ADD MSTORE POP JUMP JUMPDEST PUSH0 PUSH2 0x2B0D PUSH1 0x13 DUP4 PUSH2 0x258E JUMP JUMPDEST SWAP2 POP PUSH2 0x2B18 DUP3 PUSH2 0x2AD9 JUMP JUMPDEST PUSH1 0x20 DUP3 ADD SWAP1 POP SWAP2 SWAP1 POP JUMP JUMPDEST PUSH0 PUSH1 0x20 DUP3 ADD SWAP1 POP DUP2 DUP2 SUB PUSH0 DUP4 ADD MSTORE PUSH2 0x2B3A DUP2 PUSH2 0x2B01 JUMP JUMPDEST SWAP1 POP SWAP2 SWAP1 POP JUMP JUMPDEST PUSH32 0x4E487B7100000000000000000000000000000000000000000000000000000000 PUSH0 MSTORE PUSH1 0x11 PUSH1 0x4 MSTORE PUSH1 0x24 PUSH0 REVERT JUMPDEST PUSH0 PUSH2 0x2B78 DUP3 PUSH2 0x204B JUMP JUMPDEST SWAP2 POP PUSH2 0x2B83 DUP4 PUSH2 0x204B JUMP JUMPDEST SWAP3 POP DUP3 DUP3 MUL PUSH2 0x2B91 DUP2 PUSH2 0x204B JUMP JUMPDEST SWAP2 POP DUP3 DUP3 DIV DUP5 EQ DUP4 ISZERO OR PUSH2 0x2BA8 JUMPI PUSH2 0x2BA7 PUSH2 0x2B41 JUMP JUMPDEST JUMPDEST POP SWAP3 SWAP2 POP POP JUMP JUMPDEST PUSH32 0x4E487B7100000000000000000000000000000000000000000000000000000000 PUSH0 MSTORE PUSH1 0x12 PUSH1 0x4 MSTORE PUSH1 0x24 PUSH0 REVERT JUMPDEST PUSH0 PUSH2 0x2BE6 DUP3 PUSH2 0x204B JUMP JUMPDEST SWAP2 POP PUSH2 0x2BF1 DUP4 PUSH2 0x204B JUMP JUMPDEST SWAP3 POP DUP3 PUSH2 0x2C01 JUMPI PUSH2 0x2C00 PUSH2 0x2BAF JUMP JUMPDEST JUMPDEST DUP3 DUP3 DIV SWAP1 POP SWAP3 SWAP2 POP POP JUMP JUMPDEST PUSH0 PUSH2 0x2C16 DUP3 PUSH2 0x204B JUMP JUMPDEST SWAP2 POP PUSH2 0x2C21 DUP4 PUSH2 0x204B JUMP JUMPDEST SWAP3 POP DUP3 DUP3 SUB SWAP1 POP DUP2 DUP2 GT ISZERO PUSH2 0x2C39 JUMPI PUSH2 0x2C38 PUSH2 0x2B41 JUMP JUMPDEST JUMPDEST SWAP3 SWAP2 POP POP JUMP JUMPDEST PUSH0 PUSH1 0x40 DUP3 ADD SWAP1 POP PUSH2 0x2C52 PUSH0 DUP4 ADD DUP6 PUSH2 0x2528 JUMP JUMPDEST PUSH2 0x2C5F PUSH1 0x20 DUP4 ADD DUP5 PUSH2 0x25D6 JUMP JUMPDEST SWAP4 SWAP3 POP POP POP JUMP JUMPDEST PUSH32 0x446561646C696E65206D75737420626520696E20667574757265000000000000 PUSH0 DUP3 ADD MSTORE POP JUMP JUMPDEST PUSH0 PUSH2 0x2C9A PUSH1 0x1A DUP4 PUSH2 0x258E JUMP JUMPDEST SWAP2 POP PUSH2 0x2CA5 DUP3 PUSH2 0x2C66 JUMP JUMPDEST PUSH1 0x20 DUP3 ADD SWAP1 POP SWAP2 SWAP1 POP JUMP JUMPDEST PUSH0 PUSH1 0x20 DUP3 ADD SWAP1 POP DUP2 DUP2 SUB PUSH0 DUP4 ADD MSTORE PUSH2 0x2CC7 DUP2 PUSH2 0x2C8E JUMP JUMPDEST SWAP1 POP SWAP2 SWAP1 POP JUMP JUMPDEST PUSH0 DUP2 SWAP1 POP DUP2 PUSH0 MSTORE PUSH1 0x20 PUSH0 KECCAK256 SWAP1 POP SWAP2 SWAP1 POP JUMP JUMPDEST PUSH0 PUSH1 0x20 PUSH1 0x1F DUP4 ADD DIV SWAP1 POP SWAP2 SWAP1 POP JUMP JUMPDEST PUSH0 DUP3 DUP3 SHL SWAP1 POP SWAP3 SWAP2 POP POP JUMP JUMPDEST PUSH0 PUSH1 0x8 DUP4 MUL PUSH2 0x2D2A PUSH32 0xFFFFFFFFFFFFFFFFFFFFFFFFFFFFFFFFFFFFFFFFFFFFFFFFFFFFFFFFFFFFFFFF DUP3 PUSH2 0x2CEF JUMP JUMPDEST PUSH2 0x2D34 DUP7 DUP4 PUSH2 0x2CEF JUMP JUMPDEST SWAP6 POP DUP1 NOT DUP5 AND SWAP4 POP DUP1 DUP7 AND DUP5 OR SWAP3 POP POP POP SWAP4 SWAP3 POP POP POP JUMP JUMPDEST PUSH0 PUSH2 0x2D66 PUSH2 0x2D61 PUSH2 0x2D5C DUP5 PUSH2 0x204B JUMP JUMPDEST PUSH2 0x22C2 JUMP JUMPDEST PUSH2 0x204B JUMP JUMPDEST SWAP1 POP SWAP2 SWAP1 POP JUMP JUMPDEST PUSH0 DUP2 SWAP1 POP SWAP2 SWAP1 POP JUMP JUMPDEST PUSH2 0x2D7F DUP4 PUSH2 0x2D4C JUMP JUMPDEST PUSH2 0x2D93 PUSH2 0x2D8B DUP3 PUSH2 0x2D6D JUMP JUMPDEST DUP5 DUP5 SLOAD PUSH2 0x2CFB JUMP JUMPDEST DUP3 SSTORE POP POP POP POP JUMP JUMPDEST PUSH0 PUSH0 SWAP1 POP SWAP1 JUMP JUMPDEST PUSH2 0x2DAA PUSH2 0x2D9B JUMP JUMPDEST PUSH2 0x2DB5 DUP2 DUP5 DUP5 PUSH2 0x2D76 JUMP JUMPDEST POP POP POP JUMP JUMPDEST JUMPDEST DUP2 DUP2 LT ISZERO PUSH2 0x2DD8 JUMPI PUSH2 0x2DCD PUSH0 DUP3 PUSH2 0x2DA2 JUMP JUMPDEST PUSH1 0x1 DUP2 ADD SWAP1 POP PUSH2 0x2DBB JUMP JUMPDEST POP POP JUMP JUMPDEST PUSH1 0x1F DUP3 GT ISZERO PUSH2 0x2E1D JUMPI PUSH2 0x2DEE DUP2 PUSH2 0x2CCE JUMP JUMPDEST PUSH2 0x2DF7 DUP5 PUSH2 0x2CE0 JUMP JUMPDEST DUP2 ADD PUSH1 0x20 DUP6 LT ISZERO PUSH2 0x2E06 JUMPI DUP2 SWAP1 POP JUMPDEST PUSH2 0x2E1A PUSH2 0x2E12 DUP6 PUSH2 0x2CE0 JUMP JUMPDEST DUP4 ADD DUP3 PUSH2 0x2DBA JUMP JUMPDEST POP POP JUMPDEST POP POP POP JUMP JUMPDEST PUSH0 DUP3 DUP3 SHR SWAP1 POP SWAP3 SWAP2 POP POP JUMP JUMPDEST PUSH0 PUSH2 0x2E3D PUSH0 NOT DUP5 PUSH1 0x8 MUL PUSH2 0x2E22 JUMP JUMPDEST NOT DUP1 DUP4 AND SWAP2 POP POP SWAP3 SWAP2 POP POP JUMP JUMPDEST PUSH0 PUSH2 0x2E55 DUP4 DUP4 PUSH2 0x2E2E JUMP JUMPDEST SWAP2 POP DUP3 PUSH1 0x2 MUL DUP3 OR SWAP1 POP SWAP3 SWAP2 POP POP JUMP JUMPDEST PUSH2 0x2E6E DUP3 PUSH2 0x20B8 JUMP JUMPDEST PUSH8 0xFFFFFFFFFFFFFFFF DUP2 GT ISZERO PUSH2 0x2E87 JUMPI PUSH2 0x2E86 PUSH2 0x237C JUMP JUMPDEST JUMPDEST PUSH2 0x2E91 DUP3 SLOAD PUSH2 0x2909 JUMP JUMPDEST PUSH2 0x2E9C DUP3 DUP3 DUP6 PUSH2 0x2DDC JUMP JUMPDEST PUSH0 PUSH1 0x20 SWAP1 POP PUSH1 0x1F DUP4 GT PUSH1 0x1 DUP2 EQ PUSH2 0x2ECD JUMPI PUSH0 DUP5 ISZERO PUSH2 0x2EBB JUMPI DUP3 DUP8 ADD MLOAD SWAP1 POP JUMPDEST PUSH2 0x2EC5 DUP6 DUP3 PUSH2 0x2E4A JUMP JUMPDEST DUP7 SSTORE POP PUSH2 0x2F2C JUMP JUMPDEST PUSH1 0x1F NOT DUP5 AND PUSH2 0x2EDB DUP7 PUSH2 0x2CCE JUMP JUMPDEST PUSH0 JUMPDEST DUP3 DUP2 LT ISZERO PUSH2 0x2F02 JUMPI DUP5 DUP10 ADD MLOAD DUP3 SSTORE PUSH1 0x1 DUP3 ADD SWAP2 POP PUSH1 0x20 DUP6 ADD SWAP5 POP PUSH1 0x20 DUP2 ADD SWAP1 POP PUSH2 0x2EDD JUMP JUMPDEST DUP7 DUP4 LT ISZERO PUSH2 0x2F1F JUMPI DUP5 DUP10 ADD MLOAD PUSH2 0x2F1B PUSH1 0x1F DUP10 AND DUP3 PUSH2 0x2E2E JUMP JUMPDEST DUP4 SSTORE POP JUMPDEST PUSH1 0x1 PUSH1 0x2 DUP9 MUL ADD DUP9 SSTORE POP POP POP JUMPDEST POP POP POP POP POP POP JUMP JUMPDEST PUSH0 PUSH1 0x20 DUP3 ADD SWAP1 POP DUP2 DUP2 SUB PUSH0 DUP4 ADD MSTORE PUSH2 0x2F4C DUP2 DUP5 PUSH2 0x259E JUMP JUMPDEST SWAP1 POP SWAP3 SWAP2 POP POP JUMP JUMPDEST PUSH0 DUP2 MLOAD SWAP1 POP PUSH2 0x2F62 DUP2 PUSH2 0x2054 JUMP JUMPDEST SWAP3 SWAP2 POP POP JUMP JUMPDEST PUSH0 PUSH1 0x20 DUP3 DUP5 SUB SLT ISZERO PUSH2 0x2F7D JUMPI PUSH2 0x2F7C PUSH2 0x1FBE JUMP JUMPDEST JUMPDEST PUSH0 PUSH2 0x2F8A DUP5 DUP3 DUP6 ADD PUSH2 0x2F54 JUMP JUMPDEST SWAP2 POP POP SWAP3 SWAP2 POP POP JUMP JUMPDEST PUSH32 0x4E6F742063726561746F72000000000000000000000000000000000000000000 PUSH0 DUP3 ADD MSTORE POP JUMP JUMPDEST PUSH0 PUSH2 0x2FC7 PUSH1 0xB DUP4 PUSH2 0x258E JUMP JUMPDEST SWAP2 POP PUSH2 0x2FD2 DUP3 PUSH2 0x2F93 JUMP JUMPDEST PUSH1 0x20 DUP3 ADD SWAP1 POP SWAP2 SWAP1 POP JUMP JUMPDEST PUSH0 PUSH1 0x20 DUP3 ADD SWAP1 POP DUP2 DUP2 SUB PUSH0 DUP4 ADD MSTORE PUSH2 0x2FF4 DUP2 PUSH2 0x2FBB JUMP JUMPDEST SWAP1 POP SWAP2 SWAP1 POP JUMP JUMPDEST PUSH32 0x43616E6E6F742063616E63656C2061737369676E6564207461736B0000000000 PUSH0 DUP3 ADD MSTORE POP JUMP JUMPDEST PUSH0 PUSH2 0x302F PUSH1 0x1B DUP4 PUSH2 0x258E JUMP JUMPDEST SWAP2 POP PUSH2 0x303A DUP3 PUSH2 0x2FFB JUMP JUMPDEST PUSH1 0x20 DUP3 ADD SWAP1 POP SWAP2 SWAP1 POP JUMP JUMPDEST PUSH0 PUSH1 0x20 DUP3 ADD SWAP1 POP DUP2 DUP2 SUB PUSH0 DUP4 ADD MSTORE PUSH2 0x305C DUP2 PUSH2 0x3023 JUMP JUMPDEST SWAP1 POP SWAP2 SWAP1 POP JUMP JUMPDEST PUSH32 0x526577617264206D757374206265203E20300000000000000000000000000000 PUSH0 DUP3 ADD MSTORE POP JUMP JUMPDEST PUSH0 PUSH2 0x3097 PUSH1 0x12 DUP4 PUSH2 0x258E JUMP JUMPDEST SWAP2 POP PUSH2 0x30A2 DUP3 PUSH2 0x3063 JUMP JUMPDEST PUSH1 0x20 DUP3 ADD SWAP1 POP SWAP2 SWAP1 POP JUMP JUMPDEST PUSH0 PUSH1 0x20 DUP3 ADD SWAP1 POP DUP2 DUP2 SUB PUSH0 DUP4 ADD MSTORE PUSH2 0x30C4 DUP2 PUSH2 0x308B JUMP JUMPDEST SWAP1 POP SWAP2 SWAP1 POP JUMP JUMPDEST PUSH32 0x546F6B656E206E6F7420737570706F7274656400000000000000000000000000 PUSH0 DUP3 ADD MSTORE POP JUMP JUMPDEST PUSH0 PUSH2 0x30FF PUSH1 0x13 DUP4 PUSH2 0x258E JUMP JUMPDEST SWAP2 POP PUSH2 0x310A DUP3 PUSH2 0x30CB JUMP JUMPDEST PUSH1 0x20 DUP3 ADD SWAP1 POP SWAP2 SWAP1 POP JUMP JUMPDEST PUSH0 PUSH1 0x20 DUP3 ADD SWAP1 POP DUP2 DUP2 SUB PUSH0 DUP4 ADD MSTORE PUSH2 0x312C DUP2 PUSH2 0x30F3 JUMP JUMPDEST SWAP1 POP SWAP2 SWAP1 POP JUMP JUMPDEST PUSH32 0x4F6E6C792063726561746F722063616E20686972650000000000000000000000 PUSH0 DUP3 ADD MSTORE POP JUMP JUMPDEST PUSH0 PUSH2 0x3167 PUSH1 0x15 DUP4 PUSH2 0x258E JUMP JUMPDEST SWAP2 POP PUSH2 0x3172 DUP3 PUSH2 0x3133 JUMP JUMPDEST PUSH1 0x20 DUP3 ADD SWAP1 POP SWAP2 SWAP1 POP JUMP JUMPDEST PUSH0 PUSH1 0x20 DUP3 ADD SWAP1 POP DUP2 DUP2 SUB PUSH0 DUP4 ADD MSTORE PUSH2 0x3194 DUP2 PUSH2 0x315B JUMP JUMPDEST SWAP1 POP SWAP2 SWAP1 POP JUMP JUMPDEST PUSH32 0x5461736B206E6F74206F70656E00000000000000000000000000000000000000 PUSH0 DUP3 ADD MSTORE POP JUMP JUMPDEST PUSH0 PUSH2 0x31CF PUSH1 0xD DUP4 PUSH2 0x258E JUMP JUMPDEST SWAP2 POP PUSH2 0x31DA DUP3 PUSH2 0x319B JUMP JUMPDEST PUSH1 0x20 DUP3 ADD SWAP1 POP SWAP2 SWAP1 POP JUMP JUMPDEST PUSH0 PUSH1 0x20 DUP3 ADD SWAP1 POP DUP2 DUP2 SUB PUSH0 DUP4 ADD MSTORE PUSH2 0x31FC DUP2 PUSH2 0x31C3 JUMP JUMPDEST SWAP1 POP SWAP2 SWAP1 POP JUMP JUMPDEST PUSH32 0x416C72656164792061737369676E656400000000000000000000000000000000 PUSH0 DUP3 ADD MSTORE POP JUMP JUMPDEST PUSH0 PUSH2 0x3237 PUSH1 0x10 DUP4 PUSH2 0x258E JUMP JUMPDEST SWAP2 POP PUSH2 0x3242 DUP3 PUSH2 0x3203 JUMP JUMPDEST PUSH1 0x20 DUP3 ADD SWAP1 POP SWAP2 SWAP1 POP JUMP JUMPDEST PUSH0 PUSH1 0x20 DUP3 ADD SWAP1 POP DUP2 DUP2 SUB PUSH0 DUP4 ADD MSTORE PUSH2 0x3264 DUP2 PUSH2 0x322B JUMP JUMPDEST SWAP1 POP SWAP2 SWAP1 POP JUMP JUMPDEST PUSH32 0x546F6B656E320000000000000000000000000000000000000000000000000000 PUSH0 DUP3 ADD MSTORE POP JUMP JUMPDEST PUSH0 PUSH2 0x329F PUSH1 0x6 DUP4 PUSH2 0x258E JUMP JUMPDEST SWAP2 POP PUSH2 0x32AA DUP3 PUSH2 0x326B JUMP JUMPDEST PUSH1 0x20 DUP3 ADD SWAP1 POP SWAP2 SWAP1 POP JUMP JUMPDEST PUSH0 PUSH1 0x60 DUP3 ADD SWAP1 POP DUP2 DUP2 SUB PUSH0 DUP4 ADD MSTORE PUSH2 0x32CC DUP2 PUSH2 0x3293 JUMP JUMPDEST SWAP1 POP PUSH2 0x32DB PUSH1 0x20 DUP4 ADD DUP6 PUSH2 0x25D6 JUMP JUMPDEST PUSH2 0x32E8 PUSH1 0x40 DUP4 ADD DUP5 PUSH2 0x25D6 JUMP JUMPDEST SWAP4 SWAP3 POP POP POP JUMP JUMPDEST PUSH32 0x5265656E7472616E637947756172643A207265656E7472616E742063616C6C00 PUSH0 DUP3 ADD MSTORE POP JUMP JUMPDEST PUSH0 PUSH2 0x3323 PUSH1 0x1F DUP4 PUSH2 0x258E JUMP JUMPDEST SWAP2 POP PUSH2 0x332E DUP3 PUSH2 0x32EF JUMP JUMPDEST PUSH1 0x20 DUP3 ADD SWAP1 POP SWAP2 SWAP1 POP JUMP JUMPDEST PUSH0 PUSH1 0x20 DUP3 ADD SWAP1 POP DUP2 DUP2 SUB PUSH0 DUP4 ADD MSTORE PUSH2 0x3350 DUP2 PUSH2 0x3317 JUMP JUMPDEST SWAP1 POP SWAP2 SWAP1 POP JUMP JUMPDEST PUSH0 PUSH1 0x40 DUP3 ADD SWAP1 POP PUSH2 0x336A PUSH0 DUP4 ADD DUP6 PUSH2 0x25D6 JUMP JUMPDEST PUSH2 0x3377 PUSH1 0x20 DUP4 ADD DUP5 PUSH2 0x2528 JUMP JUMPDEST SWAP4 SWAP3 POP POP POP JUMP JUMPDEST PUSH0 PUSH1 0x60 DUP3 ADD SWAP1 POP PUSH2 0x3391 PUSH0 DUP4 ADD DUP7 PUSH2 0x25D6 JUMP JUMPDEST PUSH2 0x339E PUSH1 0x20 DUP4 ADD DUP6 PUSH2 0x25D6 JUMP JUMPDEST PUSH2 0x33AB PUSH1 0x40 DUP4 ADD DUP5 PUSH2 0x2528 JUMP JUMPDEST SWAP5 SWAP4 POP POP POP POP JUMP INVALID LOG2 PUSH5 0x6970667358 0x22 SLT KECCAK256 SUB MSIZE PC STATICCALL 0xE KECCAK256 LT DUP14 0xC1 0xDD PUSH19 0x3F72F9C2DCAA990E2394EE7CFC74C648CFE5DD 0xA5 PUSH2 0x6473 PUSH16 0x6C634300081F00330000000000000000 "
				},
				"gasEstimates": {
					"creation": {
						"codeDepositCost": "2657800",
						"executionCost": "infinite",
						"totalCost": "infinite"
					},
					"external": {
						"cancelTask(uint256)": "79045",
						"completeTask(uint256,address)": "infinite",
						"createTask(string,string,uint256)": "infinite",
						"emergencyWithdraw(address)": "infinite",
						"getTask(uint256)": "infinite",
						"getUserTasks(address)": "infinite",
						"hireContributor(uint256,address,uint256,address)": "infinite",
						"owner()": "2559",
						"platformFeeRecipient()": "2596",
						"renounceOwnership()": "infinite",
						"tasks(uint256)": "infinite",
						"token1()": "infinite",
						"token2()": "infinite",
						"transferOwnership(address)": "infinite",
						"updateToken1(address)": "infinite",
						"updateToken2(address)": "infinite",
						"userTasks(address,uint256)": "infinite",
						"withdrawFees(address,uint256)": "infinite"
					}
				},
				"methodIdentifiers": {
					"cancelTask(uint256)": "7eec20a8",
					"completeTask(uint256,address)": "29e517f4",
					"createTask(string,string,uint256)": "41a4e30a",
					"emergencyWithdraw(address)": "6ff1c9bc",
					"getTask(uint256)": "1d65e77e",
					"getUserTasks(address)": "95d57660",
					"hireContributor(uint256,address,uint256,address)": "9bee5ce9",
					"owner()": "8da5cb5b",
					"platformFeeRecipient()": "eb13554f",
					"renounceOwnership()": "715018a6",
					"tasks(uint256)": "8d977672",
					"token1()": "d21220a7",
					"token2()": "25be124e",
					"transferOwnership(address)": "f2fde38b",
					"updateToken1(address)": "064e6780",
					"updateToken2(address)": "ae1fc324",
					"userTasks(address,uint256)": "66873a55",
					"withdrawFees(address,uint256)": "ad3b1b47"
				}
			},
			"storageLayout": {
				"storage": [
					{
						"astId": 8,
						"contract": "contracts/task.sol:BaseflowTask",
						"label": "_owner",
						"offset": 0,
						"slot": "0",
						"type": "t_address"
					},
					{
						"astId": 248,
						"contract": "contracts/task.sol:BaseflowTask",
						"label": "_status",
						"offset": 0,
						"slot": "1",
						"type": "t_uint256"
					},
					{
						"astId": 982,
						"contract": "contracts/task.sol:BaseflowTask",
						"label": "_taskIds",
						"offset": 0,
						"slot": "2",
						"type": "t_struct(Counter)880_storage"
					},
					{
						"astId": 985,
						"contract": "contracts/task.sol:BaseflowTask",
						"label": "token1",
						"offset": 0,
						"slot": "3",
						"type": "t_contract(IERC20)380"
					},
					{
						"astId": 988,
						"contract": "contracts/task.sol:BaseflowTask",
						"label": "token2",
						"offset": 0,
						"slot": "4",
						"type": "t_contract(IERC20)380"
					},
					{
						"astId": 1020,
						"contract": "contracts/task.sol:BaseflowTask",
						"label": "tasks",
						"offset": 0,
						"slot": "5",
						"type": "t_mapping(t_uint256,t_struct(Task)1010_storage)"
					},
					{
						"astId": 1025,
						"contract": "contracts/task.sol:BaseflowTask",
						"label": "userTasks",
						"offset": 0,
						"slot": "6",
						"type": "t_mapping(t_address,t_array(t_uint256)dyn_storage)"
					},
					{
						"astId": 1067,
						"contract": "contracts/task.sol:BaseflowTask",
						"label": "platformFeeRecipient",
						"offset": 0,
						"slot": "7",
						"type": "t_address"
					}
				],
				"types": {
					"t_address": {
						"encoding": "inplace",
						"label": "address",
						"numberOfBytes": "20"
					},
					"t_array(t_uint256)dyn_storage": {
						"base": "t_uint256",
						"encoding": "dynamic_array",
						"label": "uint256[]",
						"numberOfBytes": "32"
					},
					"t_bool": {
						"encoding": "inplace",
						"label": "bool",
						"numberOfBytes": "1"
					},
					"t_contract(IERC20)380": {
						"encoding": "inplace",
						"label": "contract IERC20",
						"numberOfBytes": "20"
					},
					"t_enum(TaskStatus)1015": {
						"encoding": "inplace",
						"label": "enum BaseflowTask.TaskStatus",
						"numberOfBytes": "1"
					},
					"t_mapping(t_address,t_array(t_uint256)dyn_storage)": {
						"encoding": "mapping",
						"key": "t_address",
						"label": "mapping(address => uint256[])",
						"numberOfBytes": "32",
						"value": "t_array(t_uint256)dyn_storage"
					},
					"t_mapping(t_uint256,t_struct(Task)1010_storage)": {
						"encoding": "mapping",
						"key": "t_uint256",
						"label": "mapping(uint256 => struct BaseflowTask.Task)",
						"numberOfBytes": "32",
						"value": "t_struct(Task)1010_storage"
					},
					"t_string_storage": {
						"encoding": "bytes",
						"label": "string",
						"numberOfBytes": "32"
					},
					"t_struct(Counter)880_storage": {
						"encoding": "inplace",
						"label": "struct Counters.Counter",
						"members": [
							{
								"astId": 879,
								"contract": "contracts/task.sol:BaseflowTask",
								"label": "_value",
								"offset": 0,
								"slot": "0",
								"type": "t_uint256"
							}
						],
						"numberOfBytes": "32"
					},
					"t_struct(Task)1010_storage": {
						"encoding": "inplace",
						"label": "struct BaseflowTask.Task",
						"members": [
							{
								"astId": 990,
								"contract": "contracts/task.sol:BaseflowTask",
								"label": "id",
								"offset": 0,
								"slot": "0",
								"type": "t_uint256"
							},
							{
								"astId": 992,
								"contract": "contracts/task.sol:BaseflowTask",
								"label": "title",
								"offset": 0,
								"slot": "1",
								"type": "t_string_storage"
							},
							{
								"astId": 994,
								"contract": "contracts/task.sol:BaseflowTask",
								"label": "description",
								"offset": 0,
								"slot": "2",
								"type": "t_string_storage"
							},
							{
								"astId": 996,
								"contract": "contracts/task.sol:BaseflowTask",
								"label": "creator",
								"offset": 0,
								"slot": "3",
								"type": "t_address"
							},
							{
								"astId": 998,
								"contract": "contracts/task.sol:BaseflowTask",
								"label": "assignee",
								"offset": 0,
								"slot": "4",
								"type": "t_address"
							},
							{
								"astId": 1000,
								"contract": "contracts/task.sol:BaseflowTask",
								"label": "reward",
								"offset": 0,
								"slot": "5",
								"type": "t_uint256"
							},
							{
								"astId": 1002,
								"contract": "contracts/task.sol:BaseflowTask",
								"label": "rewardToken",
								"offset": 0,
								"slot": "6",
								"type": "t_address"
							},
							{
								"astId": 1004,
								"contract": "contracts/task.sol:BaseflowTask",
								"label": "deadline",
								"offset": 0,
								"slot": "7",
								"type": "t_uint256"
							},
							{
								"astId": 1007,
								"contract": "contracts/task.sol:BaseflowTask",
								"label": "status",
								"offset": 0,
								"slot": "8",
								"type": "t_enum(TaskStatus)1015"
							},
							{
								"astId": 1009,
								"contract": "contracts/task.sol:BaseflowTask",
								"label": "exists",
								"offset": 1,
								"slot": "8",
								"type": "t_bool"
							}
						],
						"numberOfBytes": "288"
					},
					"t_uint256": {
						"encoding": "inplace",
						"label": "uint256",
						"numberOfBytes": "32"
					}
				}
			},
			"userdoc": {
				"kind": "user",
				"methods": {
					"hireContributor(uint256,address,uint256,address)": {
						"notice": "Hire a contributor: Select Token -> Escrow Funds -> Assign"
					}
				},
				"version": 1
			}
		}
	}
}