{
	"contracts/log.sol": {
		"Wallet": {
			"abi": [
				{
					"anonymous": false,
					"inputs": [
						{
							"indexed": false,
							"internalType": "address",
							"name": "sender",
							"type": "address"
						},
						{
							"indexed": false,
							"internalType": "uint256",
							"name": "amount",
							"type": "uint256"
						}
					],
					"name": "Deposit",
					"type": "event"
				},
				{
					"inputs": [
						{
							"internalType": "uint256",
							"name": "_amount",
							"type": "uint256"
						}
					],
					"name": "logDeposit",
					"outputs": [],
					"stateMutability": "nonpayable",
					"type": "function"
				},
				{
					"stateMutability": "payable",
					"type": "receive"
				}
			],
			"devdoc": {
				"kind": "dev",
				"methods": {},
				"version": 1
			},
			"evm": {
				"assembly": "    /* \"contracts/log.sol\":297:730  contract Wallet is Logger {... */\n  mstore(0x40, 0x80)\n  callvalue\n  dup1\n  iszero\n  tag_1\n  jumpi\n  revert(0x00, 0x00)\ntag_1:\n  pop\n  dataSize(sub_0)\n  dup1\n  dataOffset(sub_0)\n  0x00\n  codecopy\n  0x00\n  return\nstop\n\nsub_0: assembly {\n        /* \"contracts/log.sol\":297:730  contract Wallet is Logger {... */\n      mstore(0x40, 0x80)\n      jumpi(tag_1, lt(calldatasize, 0x04))\n      shr(0xe0, calldataload(0x00))\n      dup1\n      0x3ac91f91\n      eq\n      tag_3\n      jumpi\n      jump(tag_2)\n    tag_1:\n      jumpi(tag_2, calldatasize)\n        /* \"contracts/log.sol\":411:432  logDeposit(msg.value) */\n      tag_6\n        /* \"contracts/log.sol\":422:431  msg.value */\n      callvalue\n        /* \"contracts/log.sol\":411:421  logDeposit */\n      tag_7\n        /* \"contracts/log.sol\":411:432  logDeposit(msg.value) */\n      jump\t// in\n    tag_6:\n        /* \"contracts/log.sol\":297:730  contract Wallet is Logger {... */\n      stop\n    tag_2:\n      revert(0x00, 0x00)\n        /* \"contracts/log.sol\":474:727  function logDeposit(uint256 _amount) public override {... */\n    tag_3:\n      callvalue\n      dup1\n      iszero\n      tag_8\n      jumpi\n      revert(0x00, 0x00)\n    tag_8:\n      pop\n      tag_9\n      0x04\n      dup1\n      calldatasize\n      sub\n      dup2\n      add\n      swap1\n      tag_10\n      swap2\n      swap1\n      tag_11\n      jump\t// in\n    tag_10:\n      tag_7\n      jump\t// in\n    tag_9:\n      stop\n    tag_7:\n        /* \"contracts/log.sol\":613:614  0 */\n      0x00\n        /* \"contracts/log.sol\":603:610  _amount */\n      dup2\n        /* \"contracts/log.sol\":603:614  _amount > 0 */\n      gt\n        /* \"contracts/log.sol\":595:637  require(_amount > 0, \"Don't log empty tx\") */\n      tag_13\n      jumpi\n      mload(0x40)\n      0x08c379a000000000000000000000000000000000000000000000000000000000\n      dup2\n      mstore\n      0x04\n      add\n      tag_14\n      swap1\n      tag_15\n      jump\t// in\n    tag_14:\n      mload(0x40)\n      dup1\n      swap2\n      sub\n      swap1\n      revert\n    tag_13:\n        /* \"contracts/log.sol\":694:719  super.logDeposit(_amount) */\n      tag_16\n        /* \"contracts/log.sol\":711:718  _amount */\n      dup2\n        /* \"contracts/log.sol\":694:710  super.logDeposit */\n      tag_17\n        /* \"contracts/log.sol\":694:719  super.logDeposit(_amount) */\n      jump\t// in\n    tag_16:\n        /* \"contracts/log.sol\":474:727  function logDeposit(uint256 _amount) public override {... */\n      pop\n      jump\t// out\n        /* \"contracts/log.sol\":155:259  function logDeposit(uint256 _amount) public virtual {... */\n    tag_17:\n        /* \"contracts/log.sol\":223:251  Deposit(msg.sender, _amount) */\n      0xe1fffcc4923d04b559f4d29a8bfc6cda04eb5b0d3c460751c2402c5c5cc9109c\n        /* \"contracts/log.sol\":231:241  msg.sender */\n      caller\n        /* \"contracts/log.sol\":243:250  _amount */\n      dup3\n        /* \"contracts/log.sol\":223:251  Deposit(msg.sender, _amount) */\n      mload(0x40)\n      tag_19\n      swap3\n      swap2\n      swap1\n      tag_20\n      jump\t// in\n    tag_19:\n      mload(0x40)\n      dup1\n      swap2\n      sub\n      swap1\n      log1\n        /* \"contracts/log.sol\":155:259  function logDeposit(uint256 _amount) public virtual {... */\n      pop\n      jump\t// out\n        /* \"#utility.yul\":88:205   */\n    tag_22:\n        /* \"#utility.yul\":197:198   */\n      0x00\n        /* \"#utility.yul\":194:195   */\n      0x00\n        /* \"#utility.yul\":187:199   */\n      revert\n        /* \"#utility.yul\":334:411   */\n    tag_24:\n        /* \"#utility.yul\":371:378   */\n      0x00\n        /* \"#utility.yul\":400:405   */\n      dup2\n        /* \"#utility.yul\":389:405   */\n      swap1\n      pop\n        /* \"#utility.yul\":334:411   */\n      swap2\n      swap1\n      pop\n      jump\t// out\n        /* \"#utility.yul\":417:539   */\n    tag_25:\n        /* \"#utility.yul\":490:514   */\n      tag_40\n        /* \"#utility.yul\":508:513   */\n      dup2\n        /* \"#utility.yul\":490:514   */\n      tag_24\n      jump\t// in\n    tag_40:\n        /* \"#utility.yul\":483:488   */\n      dup2\n        /* \"#utility.yul\":480:515   */\n      eq\n        /* \"#utility.yul\":470:533   */\n      tag_41\n      jumpi\n        /* \"#utility.yul\":529:530   */\n      0x00\n        /* \"#utility.yul\":526:527   */\n      0x00\n        /* \"#utility.yul\":519:531   */\n      revert\n        /* \"#utility.yul\":470:533   */\n    tag_41:\n        /* \"#utility.yul\":417:539   */\n      pop\n      jump\t// out\n        /* \"#utility.yul\":545:684   */\n    tag_26:\n        /* \"#utility.yul\":591:596   */\n      0x00\n        /* \"#utility.yul\":629:635   */\n      dup2\n        /* \"#utility.yul\":616:636   */\n      calldataload\n        /* \"#utility.yul\":607:636   */\n      swap1\n      pop\n        /* \"#utility.yul\":645:678   */\n      tag_43\n        /* \"#utility.yul\":672:677   */\n      dup2\n        /* \"#utility.yul\":645:678   */\n      tag_25\n      jump\t// in\n    tag_43:\n        /* \"#utility.yul\":545:684   */\n      swap3\n      swap2\n      pop\n      pop\n      jump\t// out\n        /* \"#utility.yul\":690:1019   */\n    tag_11:\n        /* \"#utility.yul\":749:755   */\n      0x00\n        /* \"#utility.yul\":798:800   */\n      0x20\n        /* \"#utility.yul\":786:795   */\n      dup3\n        /* \"#utility.yul\":777:784   */\n      dup5\n        /* \"#utility.yul\":773:796   */\n      sub\n        /* \"#utility.yul\":769:801   */\n      slt\n        /* \"#utility.yul\":766:885   */\n      iszero\n      tag_45\n      jumpi\n        /* \"#utility.yul\":804:883   */\n      tag_46\n      tag_22\n      jump\t// in\n    tag_46:\n        /* \"#utility.yul\":766:885   */\n    tag_45:\n        /* \"#utility.yul\":924:925   */\n      0x00\n        /* \"#utility.yul\":949:1002   */\n      tag_47\n        /* \"#utility.yul\":994:1001   */\n      dup5\n        /* \"#utility.yul\":985:991   */\n      dup3\n        /* \"#utility.yul\":974:983   */\n      dup6\n        /* \"#utility.yul\":970:992   */\n      add\n        /* \"#utility.yul\":949:1002   */\n      tag_26\n      jump\t// in\n    tag_47:\n        /* \"#utility.yul\":939:1002   */\n      swap2\n      pop\n        /* \"#utility.yul\":895:1012   */\n      pop\n        /* \"#utility.yul\":690:1019   */\n      swap3\n      swap2\n      pop\n      pop\n      jump\t// out\n        /* \"#utility.yul\":1025:1194   */\n    tag_27:\n        /* \"#utility.yul\":1109:1120   */\n      0x00\n        /* \"#utility.yul\":1143:1149   */\n      dup3\n        /* \"#utility.yul\":1138:1141   */\n      dup3\n        /* \"#utility.yul\":1131:1150   */\n      mstore\n        /* \"#utility.yul\":1183:1187   */\n      0x20\n        /* \"#utility.yul\":1178:1181   */\n      dup3\n        /* \"#utility.yul\":1174:1188   */\n      add\n        /* \"#utility.yul\":1159:1188   */\n      swap1\n      pop\n        /* \"#utility.yul\":1025:1194   */\n      swap3\n      swap2\n      pop\n      pop\n      jump\t// out\n        /* \"#utility.yul\":1200:1368   */\n    tag_28:\n        /* \"#utility.yul\":1340:1360   */\n      0x446f6e2774206c6f6720656d7074792074780000000000000000000000000000\n        /* \"#utility.yul\":1336:1337   */\n      0x00\n        /* \"#utility.yul\":1328:1334   */\n      dup3\n        /* \"#utility.yul\":1324:1338   */\n      add\n        /* \"#utility.yul\":1317:1361   */\n      mstore\n        /* \"#utility.yul\":1200:1368   */\n      pop\n      jump\t// out\n        /* \"#utility.yul\":1374:1740   */\n    tag_29:\n        /* \"#utility.yul\":1516:1519   */\n      0x00\n        /* \"#utility.yul\":1537:1604   */\n      tag_51\n        /* \"#utility.yul\":1601:1603   */\n      0x12\n        /* \"#utility.yul\":1596:1599   */\n      dup4\n        /* \"#utility.yul\":1537:1604   */\n      tag_27\n      jump\t// in\n    tag_51:\n        /* \"#utility.yul\":1530:1604   */\n      swap2\n      pop\n        /* \"#utility.yul\":1613:1706   */\n      tag_52\n        /* \"#utility.yul\":1702:1705   */\n      dup3\n        /* \"#utility.yul\":1613:1706   */\n      tag_28\n      jump\t// in\n    tag_52:\n        /* \"#utility.yul\":1731:1733   */\n      0x20\n        /* \"#utility.yul\":1726:1729   */\n      dup3\n        /* \"#utility.yul\":1722:1734   */\n      add\n        /* \"#utility.yul\":1715:1734   */\n      swap1\n      pop\n        /* \"#utility.yul\":1374:1740   */\n      swap2\n      swap1\n      pop\n      jump\t// out\n        /* \"#utility.yul\":1746:2165   */\n    tag_15:\n        /* \"#utility.yul\":1912:1916   */\n      0x00\n        /* \"#utility.yul\":1950:1952   */\n      0x20\n        /* \"#utility.yul\":1939:1948   */\n      dup3\n        /* \"#utility.yul\":1935:1953   */\n      add\n        /* \"#utility.yul\":1927:1953   */\n      swap1\n      pop\n        /* \"#utility.yul\":1999:2008   */\n      dup2\n        /* \"#utility.yul\":1993:1997   */\n      dup2\n        /* \"#utility.yul\":1989:2009   */\n      sub\n        /* \"#utility.yul\":1985:1986   */\n      0x00\n        /* \"#utility.yul\":1974:1983   */\n      dup4\n        /* \"#utility.yul\":1970:1987   */\n      add\n        /* \"#utility.yul\":1963:2010   */\n      mstore\n        /* \"#utility.yul\":2027:2158   */\n      tag_54\n        /* \"#utility.yul\":2153:2157   */\n      dup2\n        /* \"#utility.yul\":2027:2158   */\n      tag_29\n      jump\t// in\n    tag_54:\n        /* \"#utility.yul\":2019:2158   */\n      swap1\n      pop\n        /* \"#utility.yul\":1746:2165   */\n      swap2\n      swap1\n      pop\n      jump\t// out\n        /* \"#utility.yul\":2171:2297   */\n    tag_30:\n        /* \"#utility.yul\":2208:2215   */\n      0x00\n        /* \"#utility.yul\":2248:2290   */\n      0xffffffffffffffffffffffffffffffffffffffff\n        /* \"#utility.yul\":2241:2246   */\n      dup3\n        /* \"#utility.yul\":2237:2291   */\n      and\n        /* \"#utility.yul\":2226:2291   */\n      swap1\n      pop\n        /* \"#utility.yul\":2171:2297   */\n      swap2\n      swap1\n      pop\n      jump\t// out\n        /* \"#utility.yul\":2303:2399   */\n    tag_31:\n        /* \"#utility.yul\":2340:2347   */\n      0x00\n        /* \"#utility.yul\":2369:2393   */\n      tag_57\n        /* \"#utility.yul\":2387:2392   */\n      dup3\n        /* \"#utility.yul\":2369:2393   */\n      tag_30\n      jump\t// in\n    tag_57:\n        /* \"#utility.yul\":2358:2393   */\n      swap1\n      pop\n        /* \"#utility.yul\":2303:2399   */\n      swap2\n      swap1\n      pop\n      jump\t// out\n        /* \"#utility.yul\":2405:2523   */\n    tag_32:\n        /* \"#utility.yul\":2492:2516   */\n      tag_59\n        /* \"#utility.yul\":2510:2515   */\n      dup2\n        /* \"#utility.yul\":2492:2516   */\n      tag_31\n      jump\t// in\n    tag_59:\n        /* \"#utility.yul\":2487:2490   */\n      dup3\n        /* \"#utility.yul\":2480:2517   */\n      mstore\n        /* \"#utility.yul\":2405:2523   */\n      pop\n      pop\n      jump\t// out\n        /* \"#utility.yul\":2529:2647   */\n    tag_33:\n        /* \"#utility.yul\":2616:2640   */\n      tag_61\n        /* \"#utility.yul\":2634:2639   */\n      dup2\n        /* \"#utility.yul\":2616:2640   */\n      tag_24\n      jump\t// in\n    tag_61:\n        /* \"#utility.yul\":2611:2614   */\n      dup3\n        /* \"#utility.yul\":2604:2641   */\n      mstore\n        /* \"#utility.yul\":2529:2647   */\n      pop\n      pop\n      jump\t// out\n        /* \"#utility.yul\":2653:2985   */\n    tag_20:\n        /* \"#utility.yul\":2774:2778   */\n      0x00\n        /* \"#utility.yul\":2812:2814   */\n      0x40\n        /* \"#utility.yul\":2801:2810   */\n      dup3\n        /* \"#utility.yul\":2797:2815   */\n      add\n        /* \"#utility.yul\":2789:2815   */\n      swap1\n      pop\n        /* \"#utility.yul\":2825:2896   */\n      tag_63\n        /* \"#utility.yul\":2893:2894   */\n      0x00\n        /* \"#utility.yul\":2882:2891   */\n      dup4\n        /* \"#utility.yul\":2878:2895   */\n      add\n        /* \"#utility.yul\":2869:2875   */\n      dup6\n        /* \"#utility.yul\":2825:2896   */\n      tag_32\n      jump\t// in\n    tag_63:\n        /* \"#utility.yul\":2906:2978   */\n      tag_64\n        /* \"#utility.yul\":2974:2976   */\n      0x20\n        /* \"#utility.yul\":2963:2972   */\n      dup4\n        /* \"#utility.yul\":2959:2977   */\n      add\n        /* \"#utility.yul\":2950:2956   */\n      dup5\n        /* \"#utility.yul\":2906:2978   */\n      tag_33\n      jump\t// in\n    tag_64:\n        /* \"#utility.yul\":2653:2985   */\n      swap4\n      swap3\n      pop\n      pop\n      pop\n      jump\t// out\n\n    auxdata: 0xa2646970667358221220ff321d061971462a316ebe9291392a7b69f8d149e8afde66358b1de1972b5b2564736f6c634300081f0033\n}\n",
				"bytecode": {
					"linkReferences": {},
					"object": "6080604052348015600e575f5ffd5b5061026c8061001c5f395ff3fe608060405260043610610021575f3560e01c80633ac91f911461003557610031565b366100315761002f3461005d565b005b5f5ffd5b348015610040575f5ffd5b5061005b6004803603810190610056919061011e565b61005d565b005b5f811161009f576040517f08c379a0000000000000000000000000000000000000000000000000000000008152600401610096906101a3565b60405180910390fd5b6100a8816100ab565b50565b7fe1fffcc4923d04b559f4d29a8bfc6cda04eb5b0d3c460751c2402c5c5cc9109c33826040516100dc92919061020f565b60405180910390a150565b5f5ffd5b5f819050919050565b6100fd816100eb565b8114610107575f5ffd5b50565b5f81359050610118816100f4565b92915050565b5f60208284031215610133576101326100e7565b5b5f6101408482850161010a565b91505092915050565b5f82825260208201905092915050565b7f446f6e2774206c6f6720656d70747920747800000000000000000000000000005f82015250565b5f61018d601283610149565b915061019882610159565b602082019050919050565b5f6020820190508181035f8301526101ba81610181565b9050919050565b5f73ffffffffffffffffffffffffffffffffffffffff82169050919050565b5f6101ea826101c1565b9050919050565b6101fa816101e0565b82525050565b610209816100eb565b82525050565b5f6040820190506102225f8301856101f1565b61022f6020830184610200565b939250505056fea2646970667358221220ff321d061971462a316ebe9291392a7b69f8d149e8afde66358b1de1972b5b2564736f6c634300081f0033",
					"opcodes": "PUSH1 0x80 PUSH1 0x40 MSTORE CALLVALUE DUP1 ISZERO PUSH1 0xE JUMPI PUSH0 PUSH0 REVERT JUMPDEST POP PUSH2 0x26C DUP1 PUSH2 0x1C PUSH0 CODECOPY PUSH0 RETURN INVALID PUSH1 0x80 PUSH1 0x40 MSTORE PUSH1 0x4 CALLDATASIZE LT PUSH2 0x21 JUMPI PUSH0 CALLDATALOAD PUSH1 0xE0 SHR DUP1 PUSH4 0x3AC91F91 EQ PUSH2 0x35 JUMPI PUSH2 0x31 JUMP JUMPDEST CALLDATASIZE PUSH2 0x31 JUMPI PUSH2 0x2F CALLVALUE PUSH2 0x5D JUMP JUMPDEST STOP JUMPDEST PUSH0 PUSH0 REVERT JUMPDEST CALLVALUE DUP1 ISZERO PUSH2 0x40 JUMPI PUSH0 PUSH0 REVERT JUMPDEST POP PUSH2 0x5B PUSH1 0x4 DUP1 CALLDATASIZE SUB DUP2 ADD SWAP1 PUSH2 0x56 SWAP2 SWAP1 PUSH2 0x11E JUMP JUMPDEST PUSH2 0x5D JUMP JUMPDEST STOP JUMPDEST PUSH0 DUP2 GT PUSH2 0x9F JUMPI PUSH1 0x40 MLOAD PUSH32 0x8C379A000000000000000000000000000000000000000000000000000000000 DUP2 MSTORE PUSH1 0x4 ADD PUSH2 0x96 SWAP1 PUSH2 0x1A3 JUMP JUMPDEST PUSH1 0x40 MLOAD DUP1 SWAP2 SUB SWAP1 REVERT JUMPDEST PUSH2 0xA8 DUP2 PUSH2 0xAB JUMP JUMPDEST POP JUMP JUMPDEST PUSH32 0xE1FFFCC4923D04B559F4D29A8BFC6CDA04EB5B0D3C460751C2402C5C5CC9109C CALLER DUP3 PUSH1 0x40 MLOAD PUSH2 0xDC SWAP3 SWAP2 SWAP1 PUSH2 0x20F JUMP JUMPDEST PUSH1 0x40 MLOAD DUP1 SWAP2 SUB SWAP1 LOG1 POP JUMP JUMPDEST PUSH0 PUSH0 REVERT JUMPDEST PUSH0 DUP2 SWAP1 POP SWAP2 SWAP1 POP JUMP JUMPDEST PUSH2 0xFD DUP2 PUSH2 0xEB JUMP JUMPDEST DUP2 EQ PUSH2 0x107 JUMPI PUSH0 PUSH0 REVERT JUMPDEST POP JUMP JUMPDEST PUSH0 DUP2 CALLDATALOAD SWAP1 POP PUSH2 0x118 DUP2 PUSH2 0xF4 JUMP JUMPDEST SWAP3 SWAP2 POP POP JUMP JUMPDEST PUSH0 PUSH1 0x20 DUP3 DUP5 SUB SLT ISZERO PUSH2 0x133 JUMPI PUSH2 0x132 PUSH2 0xE7 JUMP JUMPDEST JUMPDEST PUSH0 PUSH2 0x140 DUP5 DUP3 DUP6 ADD PUSH2 0x10A JUMP JUMPDEST SWAP2 POP POP SWAP3 SWAP2 POP POP JUMP JUMPDEST PUSH0 DUP3 DUP3 MSTORE PUSH1 0x20 DUP3 ADD SWAP1 POP SWAP3 SWAP2 POP POP JUMP JUMPDEST PUSH32 0x446F6E2774206C6F6720656D7074792074780000000000000000000000000000 PUSH0 DUP3 ADD MSTORE POP JUMP JUMPDEST PUSH0 PUSH2 0x18D PUSH1 0x12 DUP4 PUSH2 0x149 JUMP JUMPDEST SWAP2 POP PUSH2 0x198 DUP3 PUSH2 0x159 JUMP JUMPDEST PUSH1 0x20 DUP3 ADD SWAP1 POP SWAP2 SWAP1 POP JUMP JUMPDEST PUSH0 PUSH1 0x20 DUP3 ADD SWAP1 POP DUP2 DUP2 SUB PUSH0 DUP4 ADD MSTORE PUSH2 0x1BA DUP2 PUSH2 0x181 JUMP JUMPDEST SWAP1 POP SWAP2 SWAP1 POP JUMP JUMPDEST PUSH0 PUSH20 0xFFFFFFFFFFFFFFFFFFFFFFFFFFFFFFFFFFFFFFFF DUP3 AND SWAP1 POP SWAP2 SWAP1 POP JUMP JUMPDEST PUSH0 PUSH2 0x1EA DUP3 PUSH2 0x1C1 JUMP JUMPDEST SWAP1 POP SWAP2 SWAP1 POP JUMP JUMPDEST PUSH2 0x1FA DUP2 PUSH2 0x1E0 JUMP JUMPDEST DUP3 MSTORE POP POP JUMP JUMPDEST PUSH2 0x209 DUP2 PUSH2 0xEB JUMP JUMPDEST DUP3 MSTORE POP POP JUMP JUMPDEST PUSH0 PUSH1 0x40 DUP3 ADD SWAP1 POP PUSH2 0x222 PUSH0 DUP4 ADD DUP6 PUSH2 0x1F1 JUMP JUMPDEST PUSH2 0x22F PUSH1 0x20 DUP4 ADD DUP5 PUSH2 0x200 JUMP JUMPDEST SWAP4 SWAP3 POP POP POP JUMP INVALID LOG2 PUSH5 0x6970667358 0x22 SLT KECCAK256 SELFDESTRUCT ORIGIN SAR MOD NOT PUSH18 0x462A316EBE9291392A7B69F8D149E8AFDE66 CALLDATALOAD DUP12 SAR RJUMPI 0x972B JUMPDEST 0x25 PUSH5 0x736F6C6343 STOP ADDMOD 0x1F STOP CALLER "
				},
				"gasEstimates": {
					"creation": {
						"codeDepositCost": "124000",
						"executionCost": "169",
						"totalCost": "124169"
					},
					"external": {
						"logDeposit(uint256)": "infinite"
					}
				},
				"methodIdentifiers": {
					"logDeposit(uint256)": "3ac91f91"
				}
			},
			"storageLayout": {
				"storage": [],
				"types": null
			},
			"userdoc": {
				"kind": "user",
				"methods": {},
				"version": 1
			}
		}
	}
}